:100000000C947D100C942CA80C9401A80C94D6A7E9
:100010000C94ABA70C9480A70C9455A70C942AA71A
:100020000C94FFA60C94AE100C94AE100C94AE1071
:100030000C94AE100C94AE100C94AE100C9453C5EE
:100040000C94AE100C94AB7A0C94D3780C94685347
:100050000C94AE100C94AE100C94AE100C94B5A68B
:100060000C94AE100C94D9F40C94AFF40C94AE1024
:100070000C94AE100C94AE100C94AE100C94AE1008
:100080000C94B2C20C942CC20C94A6C10C94AE1069
:100090000C94AE100C94AE100C94AE100C94AE10E8
:1000A0000C94AE100C94AE100C9490BE0C9420C125
:1000B0000C94ECBD0C94AE100C94AE100C947CC05F
:1000C0000C94D8BF0C9434BF0C94AE100C94AE10AA
:1000D0000C94AE100C94AE100C9479F40C944FF474
:1000E0000C94AE100C94D0CC0C940FCD0C946CD816
:1000F0000C94912F0C94A0CC0C9494850C9468CD06
:100100000C9484A50C9440950C94C4940C9430CD1C
:100110000C94139D0C9406160C945C150C9480CDD5
:100120000C946ECD0C94BDCD0C94B7720C94E23847
:100130000C94E8AF0C94FDCC0C9461270C944D43C7
:100140000C9491EC0C940ECC0C942F500C94845184
:100150000C9424EB0C943CCC0C945CCD0C940CA52E
:100160000D94551B0C9469440C9411EC0C9476D9A5
:100170000C94966B0C94A5AF0C945A150C945FCD0F
:100180000C94209C0C9418310C949D730C94541571
:100190000C94C7CC0C9473740C94199D0C94B18C72
:1001A0000C9400CD0C94D2920C9417410C94BACDBF
:1001B0000C940F550C949E950C940BD00C94159D9B
:1001C0000C94BDEC0C94458A0C94AEAF0C94029345
:1001D0000C9400A30C944B510C9499A30C941D9671
:1001E0000C94261C0C943B320C947A8B0C948C57F8
:1001F0000C94279D0D948A190C941A260C942B8A22
:100200000C94C3110C94BE9F0C94ACA80C9440A504
:100210000C94BCA00C9406CD0C94A2A00C94C1CC60
:100220000C94E5CC0C9458150C94EC8F0C94BF10E6
:100230000C94AC850C94E8D60C948F760C9486ECD8
:100240000C94C1120C9491CC0C9447CD0C941BCD02
:100250000C94BE130C94B2CC0C94D9500C94D6CC04
:100260000C943E8A0C9415CD0C94C3890D94AD1C4E
:100270000C9458510C94208D0C9417CC0D94681C40
:100280000C949BCD0C94FDCB0C94CA890C9421CD7D
:100290000C94B1CD0C9472980C943A8E0C943C93BF
:1002A0000C942B9D0C94E4850C941EAF0C94358615
:1002B0000C940B9D0C948F850C9428760C94C0AFF5
:1002C0000C94ADCC0C9430CC0C947DCD0C94052AC0
:1002D0000C94241D0C94578D0C948CCD0C943BA144
:1002E0000C9474500C94239D0C94AB510C947E97F9
:1002F0000C942DCC0D9484180C94A6D30C94B8CCEB
:100300000C94B5920C9450CD0C94A7CD0C94DCCCED
:100310000C9423210C94AC2D0C9460EB0C94461C93
:100320000C94FCA50C946F130C94C9700C94BBCC6A
:100330000C944C8A0C94B5720C947EA10C946BCDE9
:100340000C94141E0C947CEC0C941ECD0C94D6A032
:100350000C9449950C94281D0C9427AF0C94688D2F
:100360000C94598E0C946D130C941B950C94428C28
:100370000C94B8A50C943E510C9444CD0C94AC89CB
:100380000C94C5990C940ACC0C9437A10C94591573
:100390000C9443930C94EC850C94FF120C94A1ECF8
:1003A0000C94BE490C9426960C9438CD0C9442CCF7
:1003B0000C941DCC0C94C9560C94918B0C94F7CCD6
:1003C0000C9425A60C9433A10C9474EB0C94B3EC10
:1003D0000C94CC390C9424510C9479510C94B4CDD8
:1003E0000C9446500C94A8A10C94A4330C94F0AE39
:1003F0000C94B2890C94F7930C94421C0C94AD9914
:100400000D94C81B0C948AEC0C9485310C941D9DA2
:100410000C94F71F0D94EC1B0C948FCD0C94496435
:100420000C94E63F0C94AF660C9463250C9418660C
:100430000C949F920C9452950C9456660C941DA1AA
:100440000C94C61D0C9462630C94EA950C94A71648
:100450000C94036A0C946E130C94D4150C94C0A5E0
:100460000C9403CC0C94FACC0C9437950C94B47582
:100470000C948ACC0C94F4CC0C9444A60C9474CDBB
:100480000C94CDCC0C940CCD0C9497EC0C944D5555
:100490000C9401AF0C94E9980C94F6480C94F4CBAE
:1004A0000C944D6C0C94C4CC0C94C0A00C94A98BEF
:1004B0000C94FACB0C9483CD0C9438D30C942D4E21
:1004C0000C94D68B0C9414CC0C94608B0C942671E9
:1004D0000C94FC500C9405740C9488CE0C9436CC7F
:1004E0000C94A83A0C94AACC0C94CC1D0C9435CD49
:1004F0000C9484710C949AD10C94A1CD0C94551544
:100500000C9420CC0C94C4A20C9436980C94ED4D11
:100510000C948AA10C9486220C949BEC0C948EA3D0
:100520000C944ACD0C94A4A80C9495D00C94EBA1F7
:100530000C9437D60C944FAF0C9447A30C94259D84
:100540000C94D9A30C944BD00C946D490C94F1717C
:100550000C9457950C94E5640C94D9740C94CA9936
:100560000C9424CD0C94ABCD0C94998B0C94B7ECDB
:100570000C948B1C0C9460A10C94C5A80C94032BB8
:100580000C9439CC0C94576D0C948F510C94A68C10
:100590000C949E930C94CA540C9486A10C94914F85
:1005A0000C9411F60C94BECC0C949E2C0C944C3CE8
:1005B0000C9478CF0C9465CD0C9443A40C94C4A5F2
:1005C0000C94EBCC0C94AC650C94F3A80C9429948B
:1005D0000C94F34F0C9411CC0C94BB940C9451429A
:1005E0000C94988C0C94219D0C94FAA30C94E7A184
:1005F0000C94DA4F0C94A0A10C94C4EB0C945956B3
:100600000C9400CC0C9403CD0C949B970C9415DAAD
:100610000C94CACC0C942E860C94DA890C94BFD41A
:100620000C94EF500C940D860C94B7CD0C94F117EC
:100630000C9453CD0C9482A10C94CA1D0C947AA1F5
:100640000C94784F0C949DA30C94E2CC0C9423CC86
:100650000C943B1D0C94E58B0C9427860C94D99636
:100660000C945A8A0C94E8CC0C94119D0C94AFEC29
:100670000C9489CD0C942C6A0C94E6A80C94063347
:100680000C9412CD0C94D3CC0C9430490C940A8A5F
:100690000C94D2D70C9482A80C94BB340C943C1EBE
:1006A0000C94338A0C94EADB0C9478A80C941B9D70
:1006B0000C9441CD0C94FBA00C9457720C94B65141
:1006C0000C9418500C94BCEC0C9480A80C944EA480
:1006D0000C94DAA80C9408510D94CB1B0C947CA8B4
:1006E0000C94458D0C9419A10C94144E0C948B50C1
:1006F0000D94A31C0C940CAF0C94A4CD0C9478A571
:100700000C9486CD0C9477CD0C94C5140C946595FF
:100710000C9429730C9467CC0C9469940C94D01DA0
:100720000C940AA00C94D21D0C9457150C949ECDD9
:100730000C94EFA30C9499CC0C9482EC0C9456CDB1
:100740000C9406CC0C948F120C941B990C94BC85C1
:100750000C94A5930C941C150C94179D0C945B158C
:100760000C94ED990C94C1EC0C94A5EC0C94F38CC6
:100770000C94593B0C9483A30C945D1D0C942ACDCE
:100780000C940DA20C9462CD0C9435D90C94299D37
:100790000C94DFAF0C943C860C947B920D946E1BF2
:1007A0000C9403940C94B7AF0C9420860C941ACC40
:1007B0000C9482EB0C947AA80C9484A80C940238C4
:1007C0000C94F1D30C9490D20D94EB180C946C35DE
:1007D0000C9430AF0C94AE280C947ACD0C9444A5B4
:1007E0000C94A5850C94729F0C94D84D0C942DCD2F
:1007F0000C940D1C0C94B8A80C94EFA10C94EECCA6
:100800000C94454E0C94B0990C94C2990C94CE1D46
:100810000C94BF500C941F9D0C94DFCC0C9459CDBC
:100820000C944F150C942C8D0C94AECD0C940E940E
:100830000C9445CC0C94EF6A0C94D9CC0C9456A033
:100840000C9418CD0C9415860C9498CD0D946618C4
:100850000C9438A40C94AC4E0C9447D50C94CDA1B8
:100860000C943FCC0C949E850C94F8A50C94668B4C
:100870000C94FC2E0C943ECD0C944DCD0C9495CD47
:100880000C94A9EC0C949C920C943BCD0C94655167
:100890000C946DA80C9415A10C94F1CC0C94538A73
:1008A0000C9434940C944F750C9432CD0C9427CD49
:1008B0000C94958C0C943CA30C9433CC0C9409CDE3
:1008C0000C94C3450D94441B0C94E4A30C94F3A125
:1008D0000C94BC890C94E7950C94DB740C94AE15C5
:1008E0000C948EEC0C94A9DA0C9486D70C94028AA2
:1008F0000C9472940C9424140C94E3630C9480A5CF
:100900000C94A4A10C942E950C9492CD0C947CA5DF
:100910000C9468950C940F9D0C94D7550C940D9DD8
:100920000C9451EB0C9426CC0C9415AF0C94BCA5F4
:100930000C9471CD0C9409A20D94E51B0C94CAD5AE
:100940000C94F7CB0C94FCA30C9456150C946415E2
:100950000A5061676520686173206E6F742062655C
:10096000656E20696D706C656D656E746564207967
:100970006574000A326E642049676E6974696F6E2F
:10098000204D6170000A326E64204675656C204D02
:100990006170000A50616765203920436667000A6C
:1009A0005472696D2031205461626C65000A56569C
:1009B00054204D6170000A426F6F7374204D617056
:1009C000000A5067203620436F6E666967000A414F
:1009D0004652204D6170000A5067203420436667FC
:1009E000000A49676E6974696F6E204D6170000A74
:1009F0005067203220436667000A5645204D6170DB
:100A0000004572723A20556E6B6E6F776E20636D83
:100A100064000A3D3D3D436F6D6D616E6420486525
:100A20006C703D3D3D0A0A416C6C20636F6D6D61D9
:100A30006E6473206172652073696E676C652063F4
:100A4000686172616374657220616E6420617265B1
:100A500020636F6E636174656E617465642077698D
:100A6000746820746865697220706172616D657464
:100A7000657273200A776974686F7574207370618A
:100A80006365732E53796E7461783A20203C636FEE
:100A90006D6D616E643E2B3C706172616D65746555
:100AA00072313E2B3C706172616D65746572323ECD
:100AB0002B3C706172616D657465724E3E0A0A3D31
:100AC0003D3D4C697374206F6620436F6D6D616EA0
:100AD00064733D3D3D0A0A41202D20446973706CCA
:100AE000617973203331206279746573206F6620D9
:100AF00063757272656E7453746174757320766178
:100B00006C75657320696E2062696E617279202848
:100B10006C6976652064617461290A42202D204247
:100B200075726E2063757272656E74206D617020CF
:100B3000616E6420636F6E666967506167652076D9
:100B4000616C75657320746F20656570726F6D0AD6
:100B500043202D205465737420434F4D20706F72D5
:100B6000742E2020557365642062792054756E655B
:100B70007273747564696F20746F20736565207774
:100B800068657468657220616E20454355206973FD
:100B9000206F6E206120676976656E2073657269CB
:100BA000616C200A20202020706F72742E20526504
:100BB0007475726E7320612062696E617279206E45
:100BC000756D6265722E0A4E202D205072696E740A
:100BD000206E6577206C696E652E0A50202D20539B
:100BE00065742063757272656E7420706167652E1E
:100BF000202053796E7461783A2020502B3C70612C
:100C000067654E756D6265723E0A52202D205361F4
:100C10006D65206173204120636F6D6D616E640AA4
:100C200053202D20446973706C6179207369676E5D
:100C30006174757265206E756D6265720A51202D42
:100C40002053616D65206173205320636F6D6D616A
:100C50006E640A56202D20446973706C6179206D92
:100C60006170206F7220636F6E666967506167659F
:100C70002076616C75657320696E2062696E6172A1
:100C8000790A57202D20536574206F6E6520627994
:100C9000746520696E206D6170206F7220636F6EC5
:100CA000666967506167652E2020457870656374BA
:100CB000732062696E61727920706172616D657412
:100CC0006572732E200A2020202053796E7461787B
:100CD0003A2020572B3C6F66667365743E2B3C6E42
:100CE0006577627974653E0A74202D2053657420FF
:100CF00063616C6962726174696F6E2076616C7594
:100D000065732E2020457870656374732062696E68
:100D100061727920706172616D65746572732E20E5
:100D2000205461626C6520696E6465782069732067
:100D300065697468657220302C200A2020202031DB
:100D40002C206F7220322E202053796E7461783AF5
:100D50002020742B3C74626C655F6964783E2B3C88
:100D60006E657756616C7565313E2B3C6E657756C6
:100D7000616C7565323E2B3C6E657756616C7565AE
:100D80004E3E0A5A202D20446973706C61792063AD
:100D9000616C6962726174696F6E2076616C7565F1
:100DA000730A54202D20446973706C61797320326A
:100DB000353620746F6F7468206C6F6720656E74B1
:100DC0007269657320696E2062696E6172790A7258
:100DD000202D20446973706C617973203235362080
:100DE000746F6F7468206C6F6720656E74726965CC
:100DF000730A55202D205072657061726520666FF0
:100E000072206669726D77617265207570646174B5
:100E1000652E20546865206E65787420627974654B
:100E20002072656365697665642077696C6C206300
:100E300061757365207468652041726475696E6FB1
:100E400020746F2072657365742E0A3F202D204434
:100E50006973706C61797320746869732068656C5C
:100E6000702070616765002C2000575545004F3297
:100E700000496E6C65742074656D7000436F6F6C13
:100E8000616E7400526573657420636F6E74726F67
:100E90006C2069732063757272656E746C7920645E
:100EA000697361626C65642E00436F6D6D732068B9
:100EB000616C7465642E204E657874206279746567
:100EC0002077696C6C207265736574207468652086
:100ED00041726475696E6F2E005370656564756943
:100EE0006E6F20323032322E30320073706565649E
:100EF00075696E6F2032303232303200303031005E
:100F000020002000200020002020202000526573B7
:100F1000657420636F6E74726F6C206973206375E3
:100F20007272656E746C792064697361626C656459
:100F30002E00436F6D6D732068616C7465642E20A4
:100F40004E65787420627974652077696C6C2072C4
:100F500065736574207468652041726475696E6F8D
:100F60002E00000080002001200180002001800070
:100F7000F0008001C000C0002001C00080002001FE
:100F8000040E11191B20292B2D2F31333537393BF6
:100F90003D3F414345474B4D4F515557595D616664
:100FA0006D7700000000963007772C610EEEBA5185
:100FB000099919C46D078FF46A7035A563E9A39583
:100FC000649E3288DB0EA4B8DC791EE9D5E088D9AE
:100FD000D2972B4CB609BD7CB17E072DB8E7911D89
:100FE000BF906410B71DF220B06A4871B9F3DE41BA
:100FF000BE847DD4DA1AEBE4DD6D51B5D4F4C78537
:10100000D38356986C13C0A86B647AF962FDECC95F
:10101000658A4F5C0114D96C0663633D0FFAF50DC8
:10102000088DC8206E3B5E10694CE44160D572713A
:1010300067A2D1E4033C47D4044BFD850DD26BB5C8
:101040000AA5FAA8B5356C98B242D6C9BBDB40F9FF
:10105000BCACE36CD832755CDF45CF0DD6DC593DB6
:10106000D1ABAC30D9263A00DE518051D7C81661D9
:10107000D0BFB5F4B42123C4B3569995BACF0FA508
:10108000BDB89EB802280888055FB2D90CC624E90D
:101090000BB1877C6F2F114C6858AB1D61C13D2D82
:1010A00066B69041DC760671DB01BC20D2982A102E
:1010B000D5EF8985B1711FB5B606A5E4BF9F33D4BE
:1010C000B8E8A2C9077834F9000F8EA809961898D5
:1010D0000EE1BB0D6A7F2D3D6D08976C6491015C3C
:1010E00063E6F4516B6B62616C1CD83065854E0011
:1010F00062F2ED95066C7BA5011BC1F4088257C412
:101100000FF5C6D9B06550E9B712EAB8BE8B7C8836
:10111000B9FCDF1DDD62492DDA15F37CD38C654CFB
:10112000D4FB5861B24DCE51B53A7400BCA3E23045
:10113000BBD441A5DF4AD795D83D6DC4D1A4FBF4FB
:10114000D6D36AE96943FCD96E34468867ADD0B816
:1011500060DA732D0444E51D03335F4C0AAAC97C91
:101160000DDD3C710550AA41022710100BBE8620F0
:101170000CC925B56857B3856F2009D466B99FE4BB
:1011800061CE0EF9DE5E98C9D9292298D0B0B4A8F4
:10119000D7C7173DB359810DB42E3B5CBDB7AD6CBD
:1011A000BAC02083B8EDB6B3BF9A0CE2B6039AD2A8
:1011B000B1743947D5EAAF77D29D1526DB04831683
:1011C000DC73120B63E3843B64943E6A6D0DA85A92
:1011D0006A7A0BCF0EE49DFF099327AE000AB19EF9
:1011E000077D44930FF0D2A3088768F2011EFEC268
:1011F00006695D5762F7CB67658071366C19E70643
:101200006B6E761BD4FEE02BD3895A7ADA10CC4A67
:10121000DD676FDFB9F9F9EFBE8E43BEB717D58E24
:10122000B060E8A3D6D67E93D1A1C4C2D83852F21A
:10123000DF4FF167BBD16757BCA6DD06B53F4B3624
:10124000B248DA2B0DD84C1B0AAFF64A0336607A47
:101250000441C3EF60DF55DF67A8EF8E6E3179BEC2
:1012600069468CB361CB1A8366BCA0D26F2536E287
:10127000685295770CCC03470BBBB91602222F2678
:101280000555BE3BBAC5280BBDB2925AB42B046AB1
:10129000B35CA7FFD7C231CFD0B58B9ED92C1DAE82
:1012A000DE5BB0C2649B26F263EC9CA36A750A9372
:1012B0006D02A906099C3F360EEB8567077213572E
:1012C0000005824ABF95147AB8E2AE2BB17B381B79
:1012D000B60C9B8ED2920DBED5E5B7EFDC7C21DF3C
:1012E000DB0BD4D2D38642E2D4F1F8B3DD686E834F
:1012F000DA1FCD16BE815B26B9F6E177B06F77476E
:10130000B718E65A0888706A0FFFCA3B06665C0B7E
:101310000111FF9E658F69AE62F8D3FF6B6145CF07
:101320006C1678E20AA0EED20DD75483044EC2B3F5
:101330000339612667A7F71660D04D476949DB7707
:101340006E3E4A6AD1AEDC5AD6D9660BDF40F03B1E
:10135000D83753AEBCA9C59EBBDE7FCFB247E9FFED
:10136000B5301CF2BDBD8AC2BACA3093B353A6A32E
:10137000B4240536D0BA9306D7CD2957DE54BF67BB
:10138000D9232E7A66B3B84A61C4021B685D942BD8
:101390006F2A37BE0BB4A18E0CC31BDF055A8DEF2D
:1013A000022D0000000041311B1982623632C35306
:1013B0002D2B04C56C6445F4777D86A75A56C796D5
:1013C000414F088AD9C849BBC2D18AE8EFFACBD9C4
:1013D000F4E30C4FB5AC4D7EAEB58E2D839ECF1C85
:1013E00098875112C24A1023D953D370F47892418E
:1013F000EF6155D7AE2E14E6B537D7B5981C968455
:10140000830559981B8218A9009BDBFA2DB09ACB53
:1014100036A95D5D77E61C6C6CFFDF3F41D49E0E04
:101420005ACDA2248495E3159F8C2046B2A76177FC
:10143000A9BEA6E1E8F1E7D0F3E82483DEC365B2F4
:10144000C5DAAAAE5D5DEB9F464428CC6B6F69FDA3
:101450007076AE6B3139EF5A2A202C09070B6D38A4
:101460001C12F33646DFB2075DC6715470ED30656D
:101470006BF4F7F32ABBB6C231A275911C8934A074
:101480000790FBBC9F17BA8D840E79DEA92538EF33
:10149000B23CFF79F373BE48E86A7D1BC5413C2A24
:1014A000DE58054F79F0447E62E9872D4FC2C61C95
:1014B00054DB018A159440BB0E8D83E823A6C2D964
:1014C00038BF0DC5A0384CF4BB218FA7960ACE9625
:1014D0008D130900CC5C4831D7458B62FA6ECA5334
:1014E000E177545DBBBA156CA0A3D63F8D88970EEB
:1014F00096915098D7DE11A9CCC7D2FAE1EC93CBE4
:10150000FAF55CD762721DE6796BDEB554409F84B4
:101510004F5958120E161923150FDA7038249B41B3
:10152000233DA76BFD65E65AE67C2509CB57643859
:10153000D04EA3AE9101E29F8A1821CCA73360FD63
:10154000BC2AAFE124ADEED03FB42D83129F6CB224
:101550000986AB2448C9EA1553D029467EFB687733
:1015600065E2F6793F2FB7482436741B091D352AEA
:101570001204F2BC534BB38D485270DE657931EFE3
:101580007E60FEF3E6E7BFC2FDFE7C91D0D53DA0B4
:10159000CBCCFA368A83BB07919A7854BCB13965B3
:1015A000A7A84B98833B0AA99822C9FAB50988CB0A
:1015B000AE104F5DEF5F0E6CF446CD3FD96D8C0ED3
:1015C000C27443125AF3022341EAC1706CC18041D4
:1015D00077D847D7369706E62D8EC5B500A5848403
:1015E0001BBC1A8A41715BBB5A6898E87743D9D90A
:1015F0006C5A1E4F2D155F7E360C9C2D1B27DD1C53
:10160000003E120098B9533183A09062AE8BD15343
:10161000B59216C5F4DD57F4EFC494A7C2EFD59682
:10162000D9F6E9BC07AEA88D1CB76BDE319C2AEF5A
:101630002A85ED796BCAAC4870D36F1B5DF82E2AF2
:1016400046E1E136DE66A007C57F6354E8542265B3
:10165000F34DE5F3B202A4C2A91B6791843026A022
:101660009F29B8AEC5E4F99FDEFD3ACCF3D67BFDE9
:10167000E8CFBC6BA980FD5AB2993E099FB27F3872
:1016800084ABB0241C2CF115073532462A1E737723
:101690003107B4E17048F5D06B513683467A77B2A2
:1016A0005D634ED7FACB0FE6E1D2CCB5CCF98D8491
:1016B000D7E04A1296AF0B238DB6C870A09D894122
:1016C000BB84465D2303076C381AC43F1531850E71
:1016D0000E2842984F6703A9547EC0FA795581CBF2
:1016E000624C1FC538815EF423989DA70EB3DC962B
:1016F00015AA1B0054E55A314FFC996262D7D853A2
:1017000079CE174FE149567EFA50952DD77BD41CE0
:10171000CC62138A8D2D52BB963491E8BB1FD0D971
:10172000A006ECF37E5EADC265476E91486C2FA0BB
:101730005375E836123AA90709236A5424082B6521
:101740003F11E479A796A548BC8F661B91A4272A70
:101750008ABDE0BCCBF2A18DD0EB62DEFDC023EFF1
:10176000E6D9BDE1BC14FCD0A70D3F838A267EB22A
:10177000913FB924D070F815CB693B46E6427A77A1
:10178000FD5BB56B65DCF45A7EC5370953EE7638E0
:1017900048F7B1AE09B8F09F12A133CC3F8A72FD71
:1017A000249300000000376AC2016ED4840359BE3E
:1017B0004602DCA80907EBC2CB06B27C8D04851675
:1017C0004F05B851130E8F3BD10FD685970DE1EF22
:1017D000550C64F91A095393D8080A2D9E0A3D47FF
:1017E0005C0B70A3261C47C9E41D1E77A21F291D90
:1017F000601EAC0B2F1B9B61ED1AC2DFAB18F5B559
:101800006919C8F23512FF98F713A626B111914C49
:101810007310145A3C152330FE147A8EB8164DE41A
:101820007A17E0464D38D72C8F398E92C93BB9F8DC
:101830000B3A3CEE443F0B84863E523AC03C655026
:10184000023D58175E366F7D9C3736C3DA3501A9E5
:10185000183484BF5731B3D59530EA6BD332DD01EC
:10186000113390E56B24A78FA925FE31EF27C95BC3
:101870002D264C4D62237B27A0222299E62015F3CA
:10188000242128B4782A1FDEBA2B4660FC29710A6D
:101890003E28F41C712DC376B32C9AC8F52EADA248
:1018A000372FC08D9A70F7E75871AE591E73993370
:1018B000DC721C2593772B4F517672F11774459B80
:1018C000D57578DC897E4FB64B7F16080D7D216279
:1018D000CF7CA4748079931E4278CAA0047AFDCA92
:1018E000C67BB02EBC6C87447E6DDEFA386FE99003
:1018F000FA6E6C86B56B5BEC776A025231683538EC
:10190000F369087FAF623F156D6366AB2B6151C110
:10191000E960D4D7A665E3BD6464BA0322668D6925
:10192000E06720CBD74817A115494E1F534B797557
:10193000914AFC63DE4FCB091C4E92B75A4CA5DD91
:10194000984D989AC446AFF00647F64E4045C124DC
:1019500082444432CD4173580F402AE649421D8CDF
:101960008B435068F154670233553EBC755709D616
:10197000B7568CC0F853BBAA3A52E2147C50D57EBD
:10198000BE51E839E25ADF53205B86ED6659B187D4
:10199000A4583491EB5D03FB295C5A456F5E6D2FB3
:1019A000AD5F801B35E1B771F7E0EECFB1E2D9A5AD
:1019B00073E35CB33CE66BD9FEE73267B8E5050D2F
:1019C0007AE4384A26EF0F20E4EE569EA2EC61F44A
:1019D00060EDE4E22FE8D388EDE98A36ABEBBD5C3D
:1019E00069EAF0B813FDC7D2D1FC9E6C97FEA90638
:1019F00055FF2C101AFA1B7AD8FB42C49EF975AE1B
:101A00005CF848E900F37F83C2F2263D84F0115769
:101A100046F1944109F4A32BCBF5FA958DF7CDFF50
:101A20004FF6605D78D95737BAD80E89FCDA39E3BA
:101A30003EDBBCF571DE8B9FB3DFD221F5DDE54BDC
:101A400037DCD80C6BD7EF66A9D6B6D8EFD481B205
:101A50002DD504A462D033CEA0D16A70E6D35D1A2E
:101A600024D210FE5EC527949CC47E2ADAC6494063
:101A700018C7CC5657C2FB3C95C3A282D3C195E888
:101A800011C0A8AF4DCB9FC58FCAC67BC9C8F11185
:101A90000BC9740744CC436D86CD1AD3C0CF2DB982
:101AA00002CE4096AF9177FC6D902E422B92192872
:101AB000E9939C3EA696AB546497F2EA2295C580C2
:101AC000E094F8C7BC9FCFAD7E9E9613389CA17959
:101AD000FA9D246FB598130577994ABB319B7DD148
:101AE000F39A3035898D075F4B8C5EE10D8E698BE3
:101AF000CF8FEC9D808ADBF7428B82490489B52326
:101B0000C68888649A83BF0E5882E6B01E80D1DAF8
:101B1000DC8154CC938463A651853A1817870D72E3
:101B2000D586A0D0E2A997BA20A8CE0466AAF96EFD
:101B3000A4AB7C78EBAE4B1229AF12AC6FAD25C6CF
:101B4000ADAC1881F1A72FEB33A6765575A4413FB4
:101B5000B7A5C429F8A0F3433AA1AAFD7CA39D9799
:101B6000BEA2D073C4B5E71906B4BEA740B689CDEE
:101B700082B70CDBCDB23BB10FB3620F49B15565F3
:101B80008BB06822D7BB5F4815BA06F653B8319CB4
:101B900091B9B48ADEBC83E01CBDDA5E5ABFED3475
:101BA00098BE000000006567BCB88BC809AAEEAFFC
:101BB000B5125797628F32F0DE37DC5F6B25B9388C
:101BC000D79DEF28B4C58A4F087D64E0BD6F0187BB
:101BD00001D7B8BFD64ADDD86AF23377DFE05610B6
:101BE00063589F571950FA30A5E8149F10FA71F8FE
:101BF000AC42C8C07BDFADA7C76743087275266FCC
:101C0000CECD707FAD951518112DFBB7A43F9ED09A
:101C1000188727E8CF1A428F73A2AC20C6B0C947F5
:101C20007A083EAF32A05BC88E18B5673B0AD00079
:101C300087B26938502F0C5FEC97E2F0598587978F
:101C4000E53DD1878665B4E03ADD5A4F8FCF3F2816
:101C500033778610E4EAE37758520DD8ED4068BF39
:101C600051F8A1F82BF0C49F97482A30225A4F57B9
:101C70009EE2F66F497F9308F5C77DA740D518C04F
:101C8000FC6D4ED09F352BB7238DC518969FA07F36
:101C90002A271947FDBA7C204102928FF410F7E8F9
:101CA00048A83D58149B583FA823B6901D31D3F740
:101CB000A1896ACF76140FA8CAACE1077FBE846001
:101CC000C306D270A05EB7171CE659B8A9F43CDF72
:101CD000154C85E7C2D1E0807E690E2FCB7B6B4827
:101CE00077C3A20F0DCBC768B17329C704614CA09D
:101CF000B8D9F5986F4490FFD3FC7E5066EE1B3741
:101D0000DA564D27B90E284005B6C6EFB0A4A38811
:101D10000C1C1AB0DB817FD767399178D22BF41F66
:101D20006E9303F7263B66909A83883F2F91ED5878
:101D30009329546044B43107F80CDFA84D1EBACF84
:101D4000F1A6ECDF92FE89B82E4667179B5402700D
:101D500027ECBB48F071DE2F4CC93080F9DB55E72A
:101D600045639CA03F6BF9C783D3176836C1720FD8
:101D70008A79CB375DE4AE50E15C40FF544E259844
:101D8000E8F673888BAE16EF3716F84082049D276D
:101D90003EBC241FE92141785599AFD7E08BCAB0EA
:101DA0005C333BB659ED5ED1E555B07E5047D51951
:101DB000ECFF6C213B62094687DAE7E932C8828E84
:101DC0008E70D49EED28B1F951905F56E4823A317D
:101DD000583A83098FA7E66E331F08C1860D6DA69A
:101DE0003AB5A4E140BDC186FC052F2949174A4EEA
:101DF000F5AFF376223296119E8A78BE2B981DD9C4
:101E000097204BC9F4782EAE48C0C001FDD2A5661C
:101E1000416A1C5E96F779392A4F97969F5DF2F1D9
:101E200023E505196B4D607ED7F58ED162E7EBB6E1
:101E3000DE5F528E09C237E9B57AD9460068BC2107
:101E4000BCD0EA31DF888F56633061F9D622049E18
:101E50006A9ABDA6BD07D8C101BF366EB4AD53099D
:101E600008159A4E721DFF29CEA511867BB774E125
:101E7000C70FCDD91092A8BEAC2A461119382376C7
:101E8000A5807566C6D810017A60FEAECF729BC978
:101E900073CA22F1A457479618EFA939ADFDCC5E5D
:101EA000114506EE4D766389F1CE8D2644DCE8417E
:101EB000F86451792FF9341E9341DAB12653BFD615
:101EC0009AEBE9C6F9B38CA1450B620EF0190769CC
:101ED0004CA1BE519B3CDB3627843599929650FE2F
:101EE0002E2E99B95426FCDEE89E12715D8C771671
:101EF000E134CE2E36A9AB498A1145E63F03208155
:101F000083BB7691E0E313F65C5BFD59E949983EAB
:101F100055F12106826C44613ED4AACE8BC6CFA96E
:101F2000377E38417FD65D26C36EB389767CD6EE88
:101F3000CAC46FD61D590AB1A1E1E41E14F3817918
:101F4000A84BD769CB13B20E77AB5CA1C2B939C627
:101F50007E0180FEA99CE59915240B36A0366E51B2
:101F60001C8EA7166686C271DA3E2CDE6F2C49B92C
:101F7000D394F081040995E6B8B17B490DA31E2ED8
:101F8000B11B483ED2432D596EFBC3F6DBE9A69147
:101F900067511FA9B0CC7ACE0C749461B966F10672
:101FA00005DE00002100240027002A002D0030005B
:101FB000330001010000040107010A0100002200B2
:101FC000250028002B002E00310034000201000003
:101FD000050108010B010000200023002600290054
:101FE0002C002F003200000100000301060109014E
:101FF00005050505070508080808020202020A0A85
:1020000008080404040401010101010101010303A2
:10201000030303030303040707070C0C0C0C0C0C4D
:102020000C0C0202020206060606060606060B0B4A
:102030000B0B0B0B0B0B010210202008081020408B
:10204000102040800201020108040201010204087C
:10205000102040808040201008040201800402010A
:102060008040201008040201080402010102040853
:1020700010204080010204081020408000000A0B5C
:1020800002090C0D0E080703040100000000000007
:102090000000000000000000000000000000000040
:1020A00000000000000000001211100000000000FD
:1020B0000000000000000000000000000000000020
:1020C0000000537065656475696E6F0053706565D7
:1020D0006475696E6F20323031392E30382D73655A
:1020E0007200537065656475696E6F206373783034
:1020F000323031392E38000011F611241FBECFEFD7
:10210000D1E2DEBFCDBF00E00CBF12E0A0E0B2E044
:10211000EAE1FCE402E00BBF02C007900D92AE3989
:10212000B107D9F72FE1AEE9B2E001C01D92A434A6
:10213000B207E1F710E1CDE7D0E100E006C021975A
:102140000109802FFE010F948825CC37D10780E04C
:102150000807A9F70E94D7F80D940B260C940000ED
:102160008091FD1E87709EEF980F923010F08630A0
:1021700029F480916F00886080936F00089520910A
:10218000251C8091221C8C718C3021F480911B1CA9
:10219000322F81FD30E0E091161CF091171C609108
:1021A000F60B7091F70B8091370A9091380A8E1BCD
:1021B0009F0B0F94BB2461507109230F3327331FEA
:1021C000161617060CF49FC0620F731FCB014197C0
:1021D0008230910508F49EC042978230910508F440
:1021E0009CC04297029708F49BC06734710514F0B5
:1021F00066E470E070938603609385036091F60B4C
:102200007091F70B8091F1099091F2098E1B9F0B51
:102210000F94BB2461507109161617060CF483C085
:10222000620F731FCB0141978230910508F482C081
:1022300042978230910508F480C04297029708F4D3
:102240007FC06734710514F066E470E07093840316
:10225000609383036091F60B7091F70B8091ED0909
:102260009091EE098E1B9F0B0F94BB246150710956
:10227000161617060CF467C0620F731FCB01419747
:102280008230910508F466C042978230910508F4C7
:1022900064C04297029708F463C06734710514F074
:1022A00066E470E070938203609381036091F60BA3
:1022B0007091F70B8091EF099091F0098E1B9F0BA5
:1022C0000F94BB2461507109161617060CF44BC00D
:1022D000620F731FCB0141978230910508F44AC009
:1022E00042978230910508F448C04297029708F45B
:1022F00047C06734710514F066E470E070938003A2
:1023000060937F030895261737070CF05FCF621B99
:10231000730B5CCF60E170E06DCF62E270E06ACF7A
:1023200064E370E067CF261737070CF07BCF621BA2
:10233000730B78CF60E170E089CF62E270E086CF06
:1023400064E370E083CF261737070CF097CF621B4A
:10235000730B94CF60E170E0A5CF62E270E0A2CF92
:1023600064E370E09FCF261737070CF0B3CF621BF2
:10237000730BB0CF60E170E0C1CF62E270E0BECF1E
:1023800064E370E0BBCFCF93DF938091221C8C710C
:102390008C3021F480911B1C24E281FD20E0C0914F
:1023A000161CD091171C6091F60B7091F70B809161
:1023B000370A9091380A8C1B9D0B0F94BB246150F7
:1023C000710930E0F901B496E617F7070CF08CC0FC
:1023D0006E1B7F0B8091600590916105820F931FAA
:1023E0008617970730F46091600570916105620F60
:1023F000731F70938603609385036091F60B709151
:10240000F70B8091F1099091F2098C1B9D0B0F94B1
:10241000BB2461507109E617F7070CF06CC06E1B06
:102420007F0B8091600590916105820F931F861745
:10243000970730F46091600570916105620F731F1A
:1024400070938403609383036091F60B7091F70B94
:102450008091ED099091EE098C1B9D0B0F94BB248C
:1024600061507109E617F7070CF04CC06E1B7F0B2B
:102470008091600590916105820F931F86179707E1
:1024800030F46091600570916105620F731F709365
:102490008203609381036091F60B7091F70B80913A
:1024A000EF099091F0098C1B9D0B0F94BB24615098
:1024B0007109E617F7076CF56E1B7F0B80916005BD
:1024C00090916105820F931F8617970730F46091F2
:1024D000600570916105620F731F709380036093B4
:1024E0007F03DF91CF910895161617060CF472CF73
:1024F0006E0F7F1F6FCF161617060CF492CF6E0F5C
:102500007F1F8FCF161617060CF4B2CF6E0F7F1FEA
:10251000AFCF1616170694F26E0F7F1FCFCF8091A4
:10252000C11D8930CCF481E090E0909386038093C4
:10253000850385E090E0909384038093830389E092
:1025400090E090938203809381038DE090E09093DC
:10255000800380937F03089580E190E09093860349
:102560008093850384E090E09093840380938303B9
:1025700088E090E090938203809381038CE090E068
:10258000E6CFE0913D05F0913E05808190913C05BC
:10259000892371F080918F1D811111C08DE090E031
:1025A0009093DB098093DA0981E080938F1D089571
:1025B00080918F1D811115C085E090E0F1CF809151
:1025C000DA099091DB090D9759F080913A1E8F5FDF
:1025D00080933A1E8DE090E09093DB098093DA09B6
:1025E00008958091DA099091DB090597C9F38091EC
:1025F0003A1E8F5F80933A1E85E090E0EDCF809188
:10260000AD0A807F803421F58091C11D8A306CF441
:1026100084E290E0909386038093850380E190E0CC
:102620009093840380938303089584311CF483E2A0
:1026300090E0F0CF8E311CF482E290E0EBCF8FE19E
:1026400090E090938603809385038DE090E0E8CF3F
:10265000803609F041C08091C11D24E230E08A300B
:1026600024F08431ACF423E230E0309386032093ED
:10267000850329E030E030938403209383038A307C
:1026800004F587E190E0909382038093810308959D
:1026900022E230E08E3134F02FE130E0883214F461
:1026A00021E230E0309386032093850326E030E07A
:1026B00030938403209383038E3134F485E190E0DA
:1026C000E2CF86E190E0DFCF88321CF484E190E035
:1026D000DACF83E190E0D7CF0895089508959091DF
:1026E000C11D8091221C8C718C3081F59A30CCF008
:1026F0008CE090E0909386038093850383E090E0E4
:10270000909384038093830386E090E09093820308
:102710008093810389E090E09093800380937F030E
:10272000089581E090E0909386038093850384E090
:1027300090E0909384038093830387E090E09093EC
:102740008203809381038AE090E0E6CF9A306CF0B8
:1027500086E090E0909386038093850383E090E089
:102760009093840380938303089581E090E0909395
:1027700086038093850384E090E0F2CF8091370A4E
:102780009091380A2091161C3091171CAC014450CE
:102790005109241735070CF04BC0821B930B97FD92
:1027A000019695958795049790938603809385036A
:1027B0008091F1099091F209AC014450510924171C
:1027C0003507CCF5821B930B97FD01969595879560
:1027D000049790938403809383038091ED099091F3
:1027E000EE09AC0144505109241735073CF5821B12
:1027F000930B97FD01969595879504979093820387
:10280000809381038091EF099091F009AC014450CD
:10281000510924173507ACF4821B930B97FD0196E1
:102820009595879504979093800380937F030895EF
:1028300080539D4FB2CF80539D4FC4CF80539D4F47
:10284000D6CF80539D4FE8CFCF92DF92EF92FF9289
:1028500080918F1D882309F495C08091FC0B909185
:10286000FD0BA091FE0BB091FF0B892B8A2B8B2BBC
:1028700009F488C08091F80B9091F90BA091FA0BA4
:10288000B091FB0B892B8A2B8B2B09F47BC0809199
:10289000FD1D9091FE1DA091FF1DB091001E02979D
:1028A000A105B10508F04CC0F8942091FC0B3091C3
:1028B000FD0B4091FE0B5091FF0B8091F80B909116
:1028C000F90BA091FA0BB091FB0B281B390B4A0BAB
:1028D0005B0BA4EBB0E00F944A256093010C70935E
:1028E000020C8093030C9093040C7894C090010C1C
:1028F000D090020CE090030CF090040C60E077E8BC
:1029000083E993E0A70196010F940225C901803560
:1029100026E4920720F08091901D9091911DCC0C9F
:10292000DD1CEE1CFF1CC0921E02D0921F02E09222
:102930002002F0922102FF90EF90DF90CF90089557
:10294000F8948091A6059091A705A091A805B09153
:10295000A9054091A2055091A3056091A40570912D
:10296000A505841B950BA60BB70BB695A795979558
:1029700087958093010C9093020CA093030CB09365
:10298000040CB3CF90E080E0D6CF8091C11D909130
:10299000221C9C719C3091F58A30CCF088E090E04C
:1029A000909386038093850382E090E09093840364
:1029B0008093830384E090E090938203809381036B
:1029C00086E090E09093800380937F03089518162B
:1029D000ECF781E090E0909386038093850383E099
:1029E00090E0909384038093830385E090E090933C
:1029F00082038093810387E090E0E4CF8A308CF0FB
:102A000024E030E0309386032093850382E090E059
:102A100090938403809383033093820320938103F4
:102A2000D1CF18169CF621E030E030938603209336
:102A3000850383E090E0ECCF80918F1D81110EC063
:102A40001092DB091092DA0981E080938F1D83E0F8
:102A50008093220B81E080936D03089580911C1C6C
:102A600087FF05C01092DB091092DA09F0CF809140
:102A7000FD1D9091FE1DA091FF1DB091001E84369A
:102A80009105A105B10530F78091DA099091DB0934
:102A90008D9701F31092DB091092DA09DBCF1092C7
:102AA000DB091092DA0908950895089508950895AC
:102AB00008950895089508951092DB091092DA0997
:102AC00081E080936D0308958091AD0A807F80340A
:102AD00079F58091221C8C718C30C9F488E090E0EB
:102AE000909386038093850382E090E09093840323
:102AF0008093830384E090E090938203809381032A
:102B000086E090E09093800380937F03089524E013
:102B100030E0309386032093850382E090E0909329
:102B20008403809383033093820320938103EACF4D
:102B3000803661F78091221C8C718C3079F286E0AE
:102B400090E0909386038093850382E090E09093D9
:102B500084038093830324E030E0E5CF8091C11D9E
:102B600082319CF487E090E0909386038093850304
:102B700082E090E0909384038093830385E090E06B
:102B80009093820380938103089586E090E0909370
:102B900086038093850381E090E090938403809383
:102BA000830384E090E0ECCF8091370A9091380A5B
:102BB0002091161C3091171C821B930B2091190237
:102BC00030911A02821793079CF0821B930B019796
:102BD000843B910590F082E090E09093860380938F
:102BE000850381E090E090938403809383030895AC
:102BF00097FFEDCF820F931FEACF81E090E0909393
:102C000086038093850382E090E0EDCF2091251C20
:102C10008091221C8C718C3021F480911B1C322FEE
:102C200081FD30E0E091161CF091171C6091F60BCD
:102C30007091F70B8091370A9091380A8E1B9F0B89
:102C40000F94BB24230F3327331F261737070CF0AD
:102C50005DC0621B730B7093860360938503609164
:102C6000F60B7091F70B8091F1099091F2098E1B90
:102C70009F0B0F94BB24261737070CF04EC0621B26
:102C8000730B70938403609383036091F60B7091D0
:102C9000F70B8091ED099091EE098E1B9F0B0F941D
:102CA000BB24261737070CF03FC0621B730B7093D1
:102CB0008203609381036091F60B7091F70B809112
:102CC000EF099091F0098E1B9F0B0F94BB242617E0
:102CD00037078CF5621B730B7093800360937F033F
:102CE0006091F60B7091F70B8091F3099091F409C4
:102CF0008E1B9F0B0F94BB242617370714F5621BFE
:102D0000730B7093500360934F03089516161706C4
:102D10000CF4A1CF620F731F9ECF161617060CF48A
:102D2000B0CF620F731FADCF161617060CF4BFCFCE
:102D3000620F731FBCCF1616170674F2620F731F53
:102D4000CBCF16161706ECF2620F731FDACF0F9374
:102D50001F93CF93DF93C091251C8091221C8C710F
:102D60008C3021F480911B1C2C2F81FD20E00091E0
:102D7000161C1091171C6091F60B7091F70B809147
:102D8000370A9091380A801B910B0F94BB24615035
:102D90007109D0E030E0F901EC0FFD1FE617F707ED
:102DA0000CF0FCC06E1B7F0B80916005909161055B
:102DB0008617970738F4C617D70724F06091600587
:102DC000709161058091600590916105820F931F5C
:102DD0008617970730F46091600570916105620F66
:102DE000731F70938603609385036091F60B709157
:102DF000F70B8091F1099091F209801B910B0F94D0
:102E0000BB2461507109E617F7070CF0CEC06E1BAA
:102E10007F0B80916005909161058617970738F4C4
:102E2000C617D70724F06091600570916105809105
:102E3000600590916105820F931F8617970730F404
:102E40006091600570916105620F731F7093840338
:102E5000609383036091F60B7091F70B8091ED09FD
:102E60009091EE09801B910B0F94BB246150710966
:102E7000E617F7070CF0A0C06E1B7F0B8091600572
:102E8000909161058617970738F4C617D70724F085
:102E90006091600570916105809160059091610578
:102EA000820F931F8617970730F460916005709129
:102EB0006105620F731F70938203609381036091B9
:102EC000F60B7091F70B8091EF099091F009801B40
:102ED000910B0F94BB2461507109E617F7070CF0B2
:102EE00072C06E1B7F0B8091600590916105861703
:102EF000970738F4C617D70724F0609160057091E2
:102F000061058091600590916105820F931F86177E
:102F1000970730F46091600570916105620F731F2F
:102F20007093800360937F036091F60B7091F70BB1
:102F30008091F3099091F409801B910B0F94BB24AD
:102F400061507109E617F7070CF044C06E1B7F0B48
:102F500080916005909161058617970738F4C61730
:102F6000D70724F06091600570916105809160053C
:102F700090916105820F931F8617970730F4609137
:102F8000600570916105620F731F70935003609329
:102F90004F03DF91CF911F910F91089516161706D9
:102FA0000CF402CF6E0F7F1FFFCE161617060CF41F
:102FB00030CF6E0F7F1F2DCF161617060CF45ECF85
:102FC0006E0F7F1F5BCF161617060CF48CCF6E0F9B
:102FD0007F1F89CF161617060CF4BACF6E0F7F1F0E
:102FE000B7CFCF92DF92EF92FF92E0914B0AF09130
:102FF0004C0A1995893621E092071CF088569140B9
:10300000F9CF2091161C3091171C821B930B209135
:103010008F1E2370223031F420918F1C3091901C30
:10302000821B930B4091921C9C01220F331F50E096
:10303000A0E0B1E0A41BB50B0F9490256B017C01BF
:10304000A091531EB091541E9A010F949825C60E5C
:10305000D71EE81EF91ECD2CDE2CEF2CFF24E7FC3A
:10306000FA94D092541EC092531EFF90EF90DF90BE
:10307000CF9008952091450A3091460A232B09F0FC
:1030800058C22091901D3091911D232B09F451C2FB
:1030900020918503309186032617370709F070C009
:1030A00020911710309118102330310561F54091AF
:1030B000240150912501A091370AB091380AA81B2C
:1030C000B90B8091190290911A02A817B907B4F0B0
:1030D000A81BB90B2091350A3091360A0F94982518
:1030E000F6E09695879577956795FA95D1F7640FF1
:1030F000751F70932901609328010895B7FFEACFE7
:10310000A80FB91FE7CF4091FD1D5091FE1D6091A2
:10311000FF1D7091001E473051056105710508F4CF
:1031200008C24091240150912501A091370AB09125
:10313000380AA81BB90B8091190290911A02A8179E
:10314000B907CCF0A81BB90B2091350A3091360A8B
:103150000F949825E6E09695879577956795EA957B
:10316000D1F7640F751F709325106093241081E0D0
:1031700080932B100895B7FFE7CFA80FB91FE4CFB6
:1031800020918303309184032617370709F070C01C
:103190002091FE0F3091FF0F2330310561F54091F2
:1031A000240150912501A091F109B091F209A81BC9
:1031B000B90B8091190290911A02A817B907B4F0BF
:1031C000A81BB90B2091350A3091360A0F94982527
:1031D00036E096958795779567953A95D1F7640F80
:1031E000751F70932B0160932A010895B7FFEACFF2
:1031F000A80FB91FE7CF4091FD1D5091FE1D6091B2
:10320000FF1D7091001E473051056105710508F4DE
:1032100090C14091240150912501A091F109B091F4
:10322000F209A81BB90B8091190290911A02A817F4
:10323000B907CCF0A81BB90B2091350A3091360A9A
:103240000F94982526E096958795779567952A950A
:10325000D1F7640F751F70930C1060930B1081E011
:10326000809312100895B7FFE7CFA80FB91FE4CFDE
:1032700020918103309182032617370709F070C02F
:103280002091E50F3091E60F2330310561F5409133
:10329000240150912501A091ED09B091EE09A81BE0
:1032A000B90B8091190290911A02A817B907B4F0CE
:1032B000A81BB90B2091350A3091360A0F94982536
:1032C000B6E09695879577956795BA95D1F7640F8F
:1032D000751F70932D0160932C010895B7FFEACFFD
:1032E000A80FB91FE7CF4091FD1D5091FE1D6091C1
:1032F000FF1D7091001E473051056105710508F4EE
:1033000018C14091240150912501A091ED09B0917F
:10331000EE09A81BB90B8091190290911A02A81707
:10332000B907CCF0A81BB90B2091350A3091360AA9
:103330000F949825A6E09695879577956795AA9519
:10334000D1F7640F751F7093F30F6093F20F81E054
:103350008093F90F0895B7FFE7CFA80FB91FE4CF07
:1033600020917F03309180032617370709F070C042
:103370002091CC0F3091CD0F2330310561F5409174
:10338000A4005091A500A091EF09B091F009A81BED
:10339000B90B8091190290911A02A817B907B4F0DD
:1033A000A81BB90B2091350A3091360A0F94982545
:1033B000F6E09695879577956795FA95D1F7640F1E
:1033C000751F7093A9006093A8000895B7FFEACF16
:1033D000A80FB91FE7CF4091FD1D5091FE1D6091D0
:1033E000FF1D7091001E473051056105710508F4FD
:1033F000A0C04091A4005091A500A091EF09B09108
:10340000F009A81BB90B8091190290911A02A81714
:10341000B907CCF0A81BB90B2091350A3091360AB8
:103420000F949825E6E09695879577956795EA95A8
:10343000D1F7640F751F7093DA0F6093D90F81E095
:103440008093E00F0895B7FFE7CFA80FB91FE4CF2F
:1034500020914F03309150032617370709F069C0B8
:103460002091B30F3091B40F2330310561F54091B5
:10347000A4005091A500A091F309B091F409A81BF4
:10348000B90B8091190290911A02A817B907B4F0EC
:10349000A81BB90B2091350A3091360A0F94982554
:1034A00036E096958795779567953A95D1F7640FAD
:1034B000751F7093AD006093AC000895B7FFEACF1D
:1034C000A80FB91FE7CF4091FD1D5091FE1D6091DF
:1034D000FF1D7091001E473051056105710548F1CF
:1034E0004091A4005091A500A091F309B091F40976
:1034F000A81BB90B8091190290911A02A817B9075D
:10350000CCF0A81BB90B2091350A3091360A0F94E4
:10351000982526E096958795779567952A95D1F712
:10352000640F751F7093C10F6093C00F81E080938B
:10353000C70F0895B7FFE7CFA80FB91FE4CFCF9209
:10354000DF92EF92FF92FB01C090FD1DD090FE1D17
:10355000E090FF1DF090001E4091211C50E070E0B3
:1035600060E0C416D506E606F70608F48AC0909116
:103570008F1D992309F485C04091FC0B5091FD0BE0
:103580006091FE0B7091FF0B452B462B472B09F4E6
:1035900078C04091F80B5091F90B6091FA0B709143
:1035A000FB0B452B462B472B09F46BC0C090FC0B43
:1035B000D090FD0BE090FE0BF090FF0B4091F80BCC
:1035C0005091F90B6091FA0B7091FB0B4C155D0556
:1035D0006E057F0508F055C0F8942091FC0B3091E2
:1035E000FD0B4091FE0B5091FF0BC090F80BD0905B
:1035F000F90BE090FA0BF090FB0B2C193D094E09EA
:103600005F09A82FB0E00F944A256093010C7093D6
:10361000020C8093030C9093040C7894E03DF240EC
:10362000A1F48091010C9091020CA091030CB09137
:10363000040CB695A795979587958093010C909368
:10364000020CA093030CB093040C2091010C309158
:10365000020C4091030C5091040C60E077E883E980
:1036600093E00F940225C901803526E4920720F0EB
:103670008091901D9091911DFF90EF90DF90CF90E1
:10368000089590E080E0F8CF9B01AC018091221C6E
:10369000807649F41092AA051092AB051092AC0501
:1036A0001092AD050895803281F472E056954795E9
:1036B000379527957A95D1F72093AA053093AB05D6
:1036C0004093AC055093AD050895803429F4569588
:1036D000479537952795F0CF8036E1F6A3E0B0E027
:1036E0000F944A2522E096958795779567952A95B8
:1036F000D1F76093AA057093AB058093AC059093C6
:10370000AD0508950F931F9320918F1D222309F477
:1037100081C04091901D5091911D2091291E3091A2
:103720002A1E4217530768F44091FD1D5091FE1D5B
:103730006091FF1D7091001E452B462B472B09F40D
:1037400069C04091A6055091A7056091A8057091A8
:10375000A905452B462B472B09F45CC04091A205D7
:103760005091A3056091A4057091A505452B462BAA
:10377000472B09F44FC0F8944091A6055091A70536
:103780006091A8057091A9050091A2051091A3056B
:103790002091A4053091A505401B510B620B730BC2
:1037A0004093010C5093020C6093030C7093040C33
:1037B0007894803D9240A1F48091010C9091020C8C
:1037C000A091030CB091040CB695A7959795879599
:1037D0008093010C9093020CA093030CB093040C03
:1037E0002091010C3091020C4091030C5091040C7B
:1037F00060E077E883E993E00F940225C901803502
:1038000026E4920720F08091901D9091911D1F91C8
:103810000F91089590E080E0FACF8091901D9091F3
:10382000911D2091291E30912A1E8217930748F47A
:103830002091000C222349F068E671E084E20C94A8
:103840009F1A88E691E00C94821B08958091901D48
:103850009091911D2091291E30912A1E8217930765
:1038600060F42091DA093091DB092130310549F00B
:1038700068E671E084E20C949F1A88E691E00C946B
:10388000821B089580ED92E00C94821B2091901D84
:103890003091911D8091291E90912A1E2817390779
:1038A000B0F59091AD0A907F9034D9F48091DA0907
:1038B0009091DB09439749F18091DA099091DB09F6
:1038C000409719F18091DA099091DB098297E9F02C
:1038D0008091000C8823C9F068E671E084E20C94C2
:1038E0009F1A903691F48091DA099091DB0909973B
:1038F00061F08091DA099091DB090C9731F08091A9
:10390000DA099091DB09819719F7C901089588E6D2
:1039100091E00C94821B8F929F92AF92BF92CF92B4
:10392000DF92EF92FF9280918F1D882309F489C066
:103930008091271C24E6829FC00111242091901DB4
:103940003091911D2817390708F06FC08091FC0B4A
:103950009091FD0BA091FE0BB091FF0B892B8A2B50
:103960008B2B09F46EC08091F80B9091F90BA0910C
:10397000FA0BB091FB0B892B8A2B8B2B09F461C0BE
:10398000F8942091F60B3091F70B8091A605909159
:10399000A705A091A805B091A9054091A205509155
:1039A000A3056091A4057091A505841B950BA60B3A
:1039B000B70B8093010C9093020CA093030CB0936F
:1039C000040CC090FC0BD090FD0BE090FE0BF0902F
:1039D000FF0B8091F80B9091F90BA091FA0BB0912D
:1039E000FB0BC81AD90AEA0AFB0A7894D90120E825
:1039F0003DE84BE550E00F9455254B015C01A4E2F6
:103A0000B0E0A70196010F944A259B01AC01C501C6
:103A1000B4010F940225C901FF90EF90DF90CF9081
:103A2000BF90AF909F908F90089588E691E0FF90AF
:103A3000EF90DF90CF90BF90AF909F908F900C94BD
:103A4000821B90E080E0E8CF80ED92E00C94821B36
:103A50008091FD1D9091FE1DA091FF1DB091001E53
:103A6000892B8A2B8B2B21F080ED92E00C94821B0A
:103A700090E080E0089580918F1D8823D9F0809197
:103A8000DA099091DB09892BA9F02091901D3091E2
:103A9000911D8091291E90912A1E2817390730F414
:103AA00068E671E08091251C0C949F1A88E691E0ED
:103AB0000C94821B90E080E00895CF92DF92EF9209
:103AC000FF9280918F1D882309F45DC02091901D85
:103AD0003091911D8091291E90912A1E2817390737
:103AE00008F049C0F894E091F60BF091F70B809143
:103AF000FC0B9091FD0BA091FE0BB091FF0B409140
:103B0000F80B5091F90B6091FA0B7091FB0B841B31
:103B1000950BA60BB70B8093010C9093020CA0930E
:103B2000030CB093040C78942091010C3091020C9A
:103B30004091030C5091040CA4E2B0E00F944A258C
:103B40006B017C01C092010CD092020CE092030C3C
:103B5000F092040CDF0120E037E843E953E00F94D2
:103B60005525A70196010F940225C901FF90EF90FA
:103B7000DF90CF90089588E691E0FF90EF90DF907E
:103B8000CF900C94821B90E080E0F0CF88E691E02B
:103B90000C94821B0C94C61D0C94C61D0C94C61D5F
:103BA0000C94C61D2091901D3091911D8091291E6D
:103BB00090912A1E2817390790F580916005909101
:103BC000610560ED72E00E949F1A4091010C5091D6
:103BD000020C6091030C7091040C440F551F661F7A
:103BE000771F40931E0250931F0260932002709330
:103BF000210220916005309161054B3458496540A0
:103C0000710560F44BE458E965E070E040931E02F2
:103C100050931F026093200270932102089580ED5B
:103C200092E00E94821BD1CF80918F1D882309F1E1
:103C300090911B1C92704091901D5091911D20916C
:103C4000291E30912A1E4217530750F48091251CDB
:103C500060ED72E0911102C068E671E00C949F1A69
:103C6000992321F080ED92E00C94821B88E691E08C
:103C7000FBCF90E080E008958091901D9091911D80
:103C80002091291E30912A1E8217930798F42091C3
:103C9000DA093091DB0921303105B9F08091251C1A
:103CA00090911B1C60ED72E091FD02C068E671E02E
:103CB0000C949F1A80911B1C81FF04C080ED92E040
:103CC0000C94821B88E691E0FBCF0895FC012081D3
:103CD00031812B5B3E4F82818051482F50E0440F51
:103CE000551FB901641B750B89E792E00895FC012B
:103CF00020813181295F3E4F828193819927AC01D8
:103D0000440F551FB901640F751F81E792E00895B4
:103D1000FC01208131812B593F4F82818854482FEB
:103D200050E0440F551FB901641B750B85E792E005
:103D30000895FC0120813181295B3F4F82818054AD
:103D4000482F50E0440F551FB901640F751F81E7DC
:103D500092E00895FC01208131812B593F4F8281EF
:103D60008854482F50E0440F551FB901641B750B50
:103D700089E792E00895FC01208131812B5D3F4F5E
:103D800082818451482F50E0440F551FB901641BB4
:103D9000750B89E792E00895FC0120813181295E4D
:103DA0003F4F82818051482F50E0440F551FB90189
:103DB000640F751F81E792E00895FC012081318135
:103DC0002F5B3F4F82818A52482F50E0440F551F8E
:103DD000B901641B750B89E792E00895FC0120810D
:103DE0003181255D3F4F82818452482F50E0440F3E
:103DF000551FB901640F751F81E792E00895809106
:103E0000FF1E23E0829FC001112420918C0330917A
:103E10008D032817390770F56091E40380914F05F1
:103E20000E9438F560E0809148050E9438F561E015
:103E300080914E050E9438F50E9400A66093E00331
:103E40007093E1038093E2039093E30381E090E0B9
:103E50009093DF038093DE0380918C0390918D0318
:103E6000019690938D0380938C0381E08093D80317
:103E700080E0089581E008954091DC035091DD03D6
:103E80002091DA033091DB038091001F90E0B901AB
:103E9000681B790B641775072CF4820F931F481762
:103EA000590774F14217530764F56091E403809158
:103EB0004F050E9438F58091DA039091DB0301975A
:103EC0009093DB038093DA0360E0809148050E94C1
:103ED00038F561E080914E050E9438F50E9400A6F9
:103EE0006093E0037093E1038093E2039093E30314
:103EF00081E090E09093DF038093DE038093D8030A
:103F000008952417350704F76091E50380914F0564
:103F10000E9438F58091DA039091DB030196D0CFAF
:103F2000CF93DF938091DE039091DF03019739F007
:103F30008091DE039091DF03029709F054C08091D5
:103F4000DE039091DF03C0919103D091920301971A
:103F500021F0C0918F03D09190030E9400A6AB0185
:103F6000BC018091E0039091E103A091E203B09144
:103F7000E3038C0F9D1FA11DB11D84179507A60794
:103F8000B70708F58091DE039091DF03019711F5E3
:103F900060E080914E050E9438F50E9400A6609373
:103FA000E0037093E1038093E2039093E303809135
:103FB0008F0390919003892B41F082E090E09093E1
:103FC000DF038093DE0381E00FC01092DF031092C5
:103FD000DE03F9CF1092DF031092DE0361E08091DF
:103FE00048050E9438F580E0DF91CF910895CF9287
:103FF000DF92EF92FF928091221C8C718C3031F015
:104000008091AF0A8073803309F0F1C00E9400A64E
:1040100060937B0370937C0380937D0390937E0376
:1040200080917B0390917C03A0917D03B0917E03EE
:104030004091230B5091240B6091250B7091260B1E
:10404000841B950BA60BB70B809377039093780393
:10405000A0937903B0937A0340917703509178034A
:104060006091790370917A0380919A0590919B05F4
:10407000A0919C05B0919D0584179507A607B707E9
:1040800008F0B5C08091230B9091240BA091250BD3
:10409000B091260B892B8A2B8B2B09F498C0809129
:1040A000FC0B9091FD0BA091FE0BB091FF0B892BA7
:1040B0008A2B8B2B09F48BC08091F80B9091F90B14
:1040C000A091FA0BB091FB0B892B8A2B8B2B09F457
:1040D0007EC02091FC0B3091FD0B4091FE0B509166
:1040E000FF0B8091F80B9091F90BA091FA0BB09116
:1040F000FB0BC0907703D0907803E0907903F090A9
:104100007A03281B390B4A0B5B0BA3E0B0E00F943A
:104110004A25C616D706E806F90608F46DC0809150
:10412000200B9091210B892BF1F120915F05222327
:10413000D1F18091220B9091AD0A92959F708823C6
:1041400081F0E091220B4091200B5091210BF0E087
:10415000EE0FFF1FEC59FA4F6081718164177507EC
:10416000B1F01092220BE2E6F5E081E09817D8F06A
:104170004091200B5091210B628173816417750768
:1041800019F43081231769F08F5F3296EFCF809159
:10419000220B8F5F8093220B8091220B981718F4CB
:1041A00081E08093220B8091200B9091210B8093D2
:1041B0005F0581E090E09093210B8093200B10929B
:1041C0009A0510929B0510929C0510929D05809176
:1041D0007B0390917C03A0917D03B0917E0380933B
:1041E000230B9093240BA093250BB093260BFF90E9
:1041F000EF90DF90CF9008958091200B9091210B4C
:10420000892B29F38091200B9091210B019690939B
:10421000210B8093200B8091770390917803A091DC
:104220007903B0917A0322E0B695A7959795879583
:104230002A95D1F780939A0590939B05A0939C05AE
:10424000B0939D05C4CFCF92DF92EF92FF920F9370
:104250001F938091221C8C718C3029F08091AF0AC1
:104260008073803319F50E9400A660937B037093DE
:104270007C0380937D0390937E03E0913A05F09157
:104280003B058081909139058923B9F080917B03AA
:1042900090917C03A0917D03B0917E03809396055D
:1042A00090939705A0939805B09399051F910F914E
:1042B000FF90EF90DF90CF90089580917B039091D5
:1042C0007C03A0917D03B0917E034091230B50911C
:1042D000240B6091250B7091260B841B950BA60B6C
:1042E000B70B8093770390937803A0937903B093EF
:1042F0007A0340917703509178036091790370912C
:104300007A0380919A0590919B05A0919C05B091AC
:104310009D0584179507A607B70740F68091230BE4
:104320009091240BA091250BB091260B892B8A2B01
:104330008B2B09F48FC08091920590919305A091E9
:104340009405B0919505892B8A2B8B2B09F482C09B
:104350008091200B9091210B892B49F08091200BAB
:104360009091210B01969093210B8093200B20912B
:10437000230B3091240B4091250B5091260B8091FB
:10438000920590919305A0919405B0919505C090E8
:104390007703D0907803E0907903F0907A03281B9C
:1043A000390B4A0B5B0BA3E0B0E00F944A259695BE
:1043B000879577956795C616D706E806F90608F437
:1043C00086C040919605509197056091980570912F
:1043D00099050091230B1091240B2091250B30910E
:1043E000260B80917B0390917C03A0917D03B0917B
:1043F0007E03C0909605D0909705E0909805F090C8
:104400009905401B510B620B730B8C199D09AE096A
:10441000BF09481759076A077B0708F043C0809116
:10442000200B9091210B892BB1F18091200B909161
:10443000210B089781F18091200B9091210B892B02
:1044400009F040C010929A0510929B0510929C05AD
:1044500010929D058091230B9091240BA091250B28
:10446000B091260B8093920590939305A0939405A9
:10447000B093950580917B0390917C03A0917D037F
:10448000B0917E038093230B9093240BA093250B74
:10449000B093260B0BCF81E090E09093210B80939B
:1044A000200BD0CF8091200B9091210B892B39F0DC
:1044B0008091200B9091210B059709F0BCCF85E0EE
:1044C00090E0EBCF1092210B1092200BBBCF80918C
:1044D000200B9091210B892B09F4BCCF809177039D
:1044E00090917803A0917903B0917A0322E0B69578
:1044F000A795979587952A95D1F780939A059093DC
:104500009B05A0939C05B0939D05A4CFCF92DF920D
:10451000EF92FF920F931F930E9400A66093730384
:10452000709374038093750390937603E0913D0537
:10453000F0913E05808190913C058923B9F08091EE
:10454000730390917403A0917503B09176038093E7
:104550009E0590939F05A093A005B093A1051F9180
:104560000F91FF90EF90DF90CF90089580917303AB
:1045700090917403A0917503B09176034091FC0B68
:104580005091FD0B6091FE0B7091FF0B841B950BFE
:10459000A60BB70B80936F0390937003A0937103E6
:1045A000B093720340916F03509170036091710357
:1045B000709172038091AA059091AB05A091AC0512
:1045C000B091AD05481759076A077B0740F2809103
:1045D000DA099091DB0901969093DB098093DA095F
:1045E00081E080936E038091FC0B9091FD0BA09174
:1045F000FE0BB091FF0B892B8A2B8B2B09F404C285
:104600008091F80B9091F90BA091FA0BB091FB0BF4
:10461000892B8A2B8B2B09F4F7C18091DA099091B1
:10462000DB09419771F08091DA099091DB0983975A
:1046300041F080918F1D8111DAC180912B1E84FD84
:10464000D6C18091FC0B9091FD0BA091FE0BB09117
:10465000FF0B0091F80B1091F90B2091FA0B3091A0
:10466000FB0B40916F035091700360917103709147
:104670007203801B910BA20BB30B880F991FAA1F0B
:10468000BB1F84179507A607B70708F0A0C11092B3
:10469000AA051092AB051092AC051092AD051092D0
:1046A000000C40919E0550919F056091A00570916E
:1046B000A105C090FC0BD090FD0BE090FE0BF0909C
:1046C000FF0B8091730390917403A0917503B091D7
:1046D000760300919E0510919F052091A0053091D1
:1046E000A1054C195D096E097F09801B910BA20B76
:1046F000B30B481759076A077B0708F07AC081E0B7
:1047000090E09093DB098093DA098091A60590915F
:10471000A705A091A805B091A9058093A205909343
:10472000A305A093A405B093A50580917303909170
:104730007403A0917503B09176038093A6059093BE
:10474000A705A093A805B093A90580918F1D882384
:1047500009F446C08091FD1D9091FE1DA091FF1DA2
:10476000B091001E0196A11DB11D8093FD1D909377
:10477000FE1DA093FF1DB093001E8091221C8C7122
:104780008C3029F08091AF0A8073803339F58091A5
:10479000AD0A807F8034A1F58091DA099091DB0920
:1047A000019761F48091200B9091210B0197A1F06A
:1047B0008091200B9091210B029771F08091DA0982
:1047C0009091DB09439709F060C08091200B909194
:1047D000210B049709F059C010926D0381E070C05D
:1047E0001092FD1D1092FE1D1092FF1D1092001ED2
:1047F000C4CF83E190E09093DB098093DA09BDCFC9
:10480000803609F01BC18091DA099091DB0901978C
:1048100041F48091220B8130F9F28091220B823099
:10482000D9F28091DA099091DB09439741F48091A4
:10483000220B823089F28091220B833069F28091C1
:10484000DA099091DB09019741F48091220B8430C1
:10485000A1F18091220B853081F18091DA0990914C
:10486000DB09439741F48091220B853031F180912F
:10487000220B863011F180918F1D8111A2C0109200
:104880008F1D80912B1E806120C08091DA0990914C
:10489000DB09019731F48091200B9091210B059752
:1048A00061F08091DA099091DB09439721F78091BB
:1048B000200B9091210B0797F1F681E080936D0317
:1048C00080938F1D80912B1E8F7E80932B1E809155
:1048D000F80B9091F90BA091FA0BB091FB0B409162
:1048E000FC0B5091FD0B6091FE0B7091FF0B009142
:1048F0007303109174032091750330917603800F38
:10490000911FA21FB31F841B950BA60BB70B80939F
:10491000F80B9093F90BA093FA0BB093FB0B8091DB
:10492000730390917403A0917503B0917603809303
:10493000FC0B9093FD0BA093FE0BB093FF0B8091AB
:10494000AF0A86FF0CCE8091DF1D81FD08CE20913D
:10495000DA093091DB094091F60B5091F70B2150A9
:104960003109249FC001259F900D349F900D112483
:104970002091161C3091171C820F931F2091190251
:1049800030911A02821793070CF447C0821B930BD5
:104990002091221C2C712C3041F420916D03222394
:1049A00021F020911B1C21FF3DC06091DA0970911C
:1049B000DB091F910F91FF90EF90DF90CF900C9447
:1049C0003A1880913A1E8F5F80933A1E58CF80919B
:1049D0008F1D882329F080913A1E8F5F80933A1EA5
:1049E00010928F1D80912B1E8F7E80932B1E6091C5
:1049F0006F037091700380917103909172030E9414
:104A0000441B81E08093000C8091FC0B9091FD0B86
:104A1000A091FE0BB091FF0B7ACF97FFB9CF820F19
:104A2000931FB6CF2091DA093091DB096091251CE4
:104A3000620F732F711D88599E4FBBCF803809F0CC
:104A40001ACF8091DA099091DB09019751F4809196
:104A5000220B813009F4C0CE8091220B823009F400
:104A6000BBCE8091DA099091DB09439751F4809194
:104A7000220B833009F4B0CE8091220B843009F4EC
:104A8000ABCE8091DA099091DB09019751F48091C6
:104A9000220B853009F411CF8091220B863009F466
:104AA0000CCF8091DA099091DB09439709F0E3CEAE
:104AB0008091220B873009F400CF8091220B88303F
:104AC00009F0D9CEFACECF92DF92EF92FF92CF9338
:104AD000DF930E9400A660937B0370937C03809316
:104AE0007D0390937E0380917B0390917C03A09142
:104AF0007D03B0917E034091230B5091240B609174
:104B0000250B7091260B841B950BA60BB70B80937E
:104B1000770390937803A0937903B0937A0340913D
:104B20007703509178036091790370917A038091B3
:104B30009A0590919B05A0919C05B0919D05481701
:104B400059076A077B0708F447C080917B0390915F
:104B50007C03A0917D03B0917E038093230B9093FF
:104B6000240BA093250BB093260B80918F1D8111F0
:104B70005AC00E9400A66093FC0B7093FD0B8093BB
:104B8000FE0B9093FF0B0E9400A66B017C01C0916D
:104B9000251C2C2F30E050E040E060E87DE88BE5FC
:104BA00090E00F94CF24C21AD30AE40AF50AC09207
:104BB000F80BD092F90BE092FA0BF092FB0BD0E0DD
:104BC000D093DB09C093DA0980913A1E8F5F8093FE
:104BD0003A1E81E080938F1D8091A6059091A705D4
:104BE000A091A805B091A9054091A2055091A305F7
:104BF0006091A4057091A505841B950BA60BB70BBE
:104C0000B695A7959795879580939A0590939B0560
:104C1000A0939C05B0939D05DF91CF91FF90EF90FD
:104C2000DF90CF90089586E090E09093DB09809329
:104C3000DA09D2CFCF92DF92EF92FF920E9400A6C4
:104C400060937B0370937C0380937D0390937E033A
:104C500080917B0390917C03A0917D03B0917E03B2
:104C60004091230B5091240B6091250B7091260BE2
:104C7000841B950BA60BB70B809377039093780357
:104C8000A0937903B0937A038091230B9091240B26
:104C9000A091250BB091260B892B8A2B8B2BC1F46D
:104CA00010927703109278031092790310927A038E
:104CB00080917B0390917C03A0917D03B0917E0352
:104CC0008093230B9093240BA093250BB093260B7A
:104CD00040917703509178036091790370917A0342
:104CE00080919A0590919B05A0919C05B0919D059E
:104CF000481759076A077B0708F4DEC02091230B89
:104D00003091240B4091250B5091260B80919205F8
:104D100090919305A0919405B0919505281B390BAE
:104D20004A0B5B0BA3E0B0E00F944A25969587955C
:104D3000779567956093690370936A0380936B031B
:104D400090936C038091230B9091240BA091250BE1
:104D5000B091260B8093920590939305A0939405B0
:104D6000B093950540917703509178036091790352
:104D700070917A038091690390916A03A0916B030B
:104D8000B0916C03481759076A077B0708F054C0B5
:104D90008091200B9091210B059709F44DC08091D3
:104DA000770390917803A0917903B0917A0322E080
:104DB000B695A795979587952A95D1F780939A05EB
:104DC00090939B05A0939C05B0939D058091200B2B
:104DD0009091210B01969093210B8093200B809151
:104DE0007B0390917C03A0917D03B0917E0380931F
:104DF000230B9093240BA093250BB093260B80914B
:104E0000891E85FF59C080916D03882309F454C021
:104E10008091200B9091210B019709F04DC0E091FA
:104E20004B0AF0914C0A1995AC01493681E05807BC
:104E3000A4F048565140F9CF81E090E09093210BC7
:104E40008093200B80936D0310929A0510929B051E
:104E500010929C0510929D05C2CF80918F1E837089
:104E6000823051F5E091921C9A01220F331FF0E03D
:104E7000A0E0B1E0AE1BBF0B0F9490256B017C014D
:104E80009F01DA010F949825C60ED71EE81EF91E61
:104E9000CD2CDE2CEF2CFF24E7FCFA9488E691E081
:104EA0008C199D092091511D3091521D821B930B2D
:104EB0009093401E80933F1EFF90EF90DF90CF9025
:104EC00008950E9400A660937B0370937C038093F7
:104ED0007D0390937E0380917B0390917C03A0914E
:104EE0007D03B0917E034091230B5091240B609180
:104EF000250B7091260B841B950BA60BB70B80938B
:104F0000770390937803A0937903B0937A03409149
:104F10007703509178036091790370917A038091BF
:104F20009A0590919B05A0919C05B0919D0548170D
:104F300059076A077B0708F4F0C080917B039091C2
:104F40007C03A0917D03B0917E038093230B90930B
:104F5000240BA093250BB093260B8091200B9091EE
:104F6000210B029709F04DC080915F05833009F055
:104F700048C080918F1D811176C00E9400A6609369
:104F8000FC0B7093FD0B8093FE0B9093FF0B0E9424
:104F900000A66056734E864191096093F80B70939A
:104FA000F90B8093FA0B9093FB0B8091251C815099
:104FB000990B9093DB098093DA0981E080938F1D30
:104FC00081E080936D0380916F0390917003A091B5
:104FD0007103B091720342E0880F991FAA1FBB1F93
:104FE0004A95D1F780939A0590939B05A0939C05D1
:104FF000B0939D0581E090E09093210B8093200B6E
:10500000089580918F1D882309F456C080916F0305
:1050100090917003A0917103B091720340916F035E
:10502000509170036091710370917203B695A795CA
:1050300097958795840F951FA61FB71F80939A0594
:1050400090939B05A0939C05B0939D058091200BA8
:105050009091210B01969093210B8093200B81E07E
:1050600080935F0508958091251C2091DA09309185
:10507000DB0990E0AC01415051094217530791F010
:105080004091FD1D5091FE1D6091FF1D7091001E0D
:10509000433051056105710528F020913A1E2F5FBC
:1050A00020933A1E20911C1C27FF8ACF01979093D2
:1050B000DB098093DA0984CF8091DA099091DB09CA
:1050C000039708F4A3CF8091200B9091210B892B9B
:1050D00009F09CCF0E9400A66093FC0B7093FD0B1F
:1050E0008093FE0B9093FF0B0E9400A66056734EB8
:1050F000864191096093F80B7093F90B8093FA0B3A
:105100009093FB0B81E090E09093DB098093DA09A8
:1051100080936D0380938F1D089580916F0390910C
:105120007003A0917103B091720340916F0350918D
:1051300070036091710370917203B695A79597956E
:105140008795840F951FA61FB71F80939A0590938C
:105150009B05A0939C05B0939D0581CF0E9400A65E
:105160006093730370937403809375039093760335
:105170008091730390917403A0917503B0917603AD
:105180004091FC0B5091FD0B6091FE0B7091FF0B59
:10519000841B950BA60BB70B80936F039093700342
:1051A000A0937103B093720340916F035091700309
:1051B00060917103709172038091AA059091AB0583
:1051C000A091AC05B091AD05481759076A077B0758
:1051D00008F41AC18091DA099091DB090196909345
:1051E000DB098093DA0980915F05882319F08F5FCE
:1051F00080935F0540919A0550919B0560919C05B5
:1052000070919D0580916F0390917003A09171033F
:10521000B091720384179507A607B70700F1809134
:105220006F0390917003A0917103B091720340914C
:105230006F03509170036091710370917203B69582
:10524000A79597958795840F951FA61FB71F8093E5
:105250009A0590939B05A0939C05B0939D0581E0D2
:1052600080936E034091FC0B5091FD0B6091FE0BFF
:105270007091FF0B4093F80B5093F90B6093FA0B6E
:105280007093FB0B4091730350917403609175030D
:10529000709176034093FC0B5093FD0B6093FE0BD3
:1052A0007093FF0B90918F1D992309F48BC080910F
:1052B000DA099091DB09019751F08091DA09909118
:1052C000DB092091251C2817190608F03FC081E052
:1052D00090E09093DB098093DA0980916D0391E06F
:1052E000892780936D038091A6059091A705A091D1
:1052F000A805B091A9058093A2059093A305A0935A
:10530000A405B093A5058091730390917403A091B7
:105310007503B09176038093A6059093A705A0939B
:10532000A805B093A9058091FD1D9091FE1DA09147
:10533000FF1DB091001E0196A11DB11D8093FD1DA2
:105340009093FE1DA093FF1DB093001E60916F030C
:105350007091700380917103909172030E94441BBD
:105360008091AF0A86FF50C08091DF1D81FD4CC047
:105370002091DA093091DB094091F60B5091F70B3F
:1053800021503109249FC001259F900D349F900D1D
:1053900011242091161C3091171C820F931F20910D
:1053A000221C2C712C3041F420916D03222321F01A
:1053B00020911B1C21FF1CC06091DA097091DB0950
:1053C0000C943A182091200B3091210B213031059B
:1053D00039F690915F05943019F622E030E0309371
:1053E000DB092093DA0980938F1D10926D03B8CFEB
:1053F0002091DA093091DB096091251C620F732F2F
:10540000711D88599E4FDCCF08950E9400A66093BD
:105410007303709374038093750390937603809164
:10542000730390917403A0917503B091760340913A
:10543000FC0B5091FD0B6091FE0B7091FF0B841BD8
:10544000950BA60BB70B80936F0390937003A093FB
:105450007103B093720340916F0350917003609198
:105460007103709172038091AA059091AB05A09190
:10547000AC05B091AD05481759076A077B0708F4DA
:10548000C1C08091DA099091DB0901969093DB0904
:105490008093DA0981E080936E038091FC0B9091F8
:1054A000FD0BA091FE0BB091FF0B892B8A2B8B2B50
:1054B00061F08091F80B9091F90BA091FA0BB091EB
:1054C000FB0B892B8A2B8B2B41F410926F031092CC
:1054D000700310927103109272038091DA09909117
:1054E000DB094197E8F180918F1D8823C9F181E0A4
:1054F00090E09093DB098093DA098091A605909162
:10550000A705A091A805B091A9058093A205909345
:10551000A305A093A405B093A50580917303909172
:105520007403A0917503B09176038093A6059093C0
:10553000A705A093A805B093A9058091FD1D9091A2
:10554000FE1DA091FF1DB091001E0196A11DB11D71
:105550008093FD1D9093FE1DA093FF1DB093001E30
:105560001092AA051092AB051092AC051092AD05F1
:105570001092000C8091FC0B9091FD0BA091FE0B02
:10558000B091FF0B8093F80B9093F90BA093FA0B5B
:10559000B093FB0B8091730390917403A0917503FA
:1055A000B09176038093FC0B9093FD0BA093FE0BC0
:1055B000B093FF0B8091AF0A86FF24C0E091DA0917
:1055C000F091DB09EE0FFF1FE05AFA4F80819181C5
:1055D0002091161C3091171C820F931F20911902E5
:1055E00030911A028217930744F0821B930B60914B
:1055F000DA097091DB090C943A1897FFF8CF820F03
:10560000931FF5CF08950E9400A6609373037093D3
:105610007403809375039093760380917303909144
:105620007403A0917503B09176034091FC0B5091E7
:10563000FD0B6091FE0B7091FF0B841B950BA60B6D
:10564000B70B80936F0390937003A0937103B09393
:10565000720340916F0350917003609171037091D8
:1056600072038091AA059091AB05A091AC05B09111
:10567000AD05481759076A077B0708F45EC180919A
:10568000DA099091DB0901969093DB098093DA099E
:1056900081E080936E038091220B811120C0809164
:1056A000FC0B9091FD0BA091FE0BB091FF0B409174
:1056B000F80B5091F90B6091FA0B7091FB0B841B66
:1056C000950BA60BB70B880F991FAA1FBB1F8093C2
:1056D000650390936603A0936703B093680380917A
:1056E000FC0B9091FD0BA091FE0BB091FF0B892B51
:1056F0008A2B8B2B61F08091F80B9091F90BA09184
:10570000FA0BB091FB0B892B8A2B8B2B41F4109257
:105710006F03109270031092710310927203409104
:105720006F035091700360917103709172038091C7
:10573000650390916603A0916703B0916803841795
:105740009507A607B70708F087C08091220B813024
:1057500009F06CC08091AD0A807F803409F060C090
:1057600083E190E09093DB098093DA091092220B99
:1057700081E080938F1D1092000C1092AA05109268
:10578000AB051092AC051092AD058091FC0B909189
:10579000FD0BA091FE0BB091FF0B8093F80B909343
:1057A000F90BA093FA0BB093FB0B809173039091CC
:1057B0007403A0917503B09176038093FC0B9093D2
:1057C000FD0BA093FE0BB093FF0B8091AF0A86FFF9
:1057D000B4C02091DA093091DB094091F60B509169
:1057E000F70B21503109249FC001259F900D349F54
:1057F000900D11242091161C3091171C820F931FBD
:105800002091190230911A02821793070CF490C06C
:10581000821B930B6091DA097091DB090C943A18A2
:10582000803609F0A3CF8CE090E09CCF81E080939C
:10583000220B8091DA099091DB0901969093DB09A4
:105840008093DA098091DA099091DB0901969093AF
:10585000DB098093DA098FCF8091DA099091DB0917
:10586000859708F44FC081E090E09093DB09809326
:10587000DA0980916D0391E0892780936D0380910F
:10588000A6059091A705A091A805B091A9058093C0
:10589000A2059093A305A093A405B093A5058091BC
:1058A000730390917403A0917503B0917603809374
:1058B000A6059093A705A093A805B093A90580918C
:1058C000FD1D9091FE1DA091FF1DB091001E01963F
:1058D000A11DB11D8093FD1D9093FE1DA093FF1D82
:1058E000B093001E60916F037091700380917103FB
:1058F000909172030E94441B81E08093000C1092EF
:10590000220B43CF9091220B913061F78091AD0A29
:10591000807F23E230E0803421F0803619F722E2E4
:1059200030E03093DB092093DA0990938F1DDACFB2
:1059300097FF70CF820F931F6DCF089580916F03F3
:1059400090917003A0917103B091720380935903F9
:1059500090935A03A0935B03B0935C030E9400A64C
:10596000609373037093740380937503909376032D
:105970008091730390917403A0917503B0917603A5
:105980004091FC0B5091FD0B6091FE0B7091FF0B51
:10599000841B950BA60BB70B80936F03909370033A
:1059A000A0937103B093720360916F0370917003C1
:1059B00080917103909172030E94441B40916F0388
:1059C0005091700360917103709172038091AA05E8
:1059D0009091AB05A091AC05B091AD0584179507EA
:1059E000A607B70708F051C0E0913D05F0913E05CC
:1059F000808190913C058923F1F121E020936E0391
:105A00008091590390915A03A0915B03B0915C037C
:105A10008093650390936603A0936703B093680334
:105A20008091DA099091DB0901969093DB098093CC
:105A3000DA0940916F035091700360917103709186
:105A400072038091650390916603A0916703B09102
:105A5000680384179507A607B707C0F082E090E0B7
:105A60009093DB098093DA098DE990E09093F70B2E
:105A70008093F60B37C080918F1D811167C0109203
:105A80008F1D1092DB091092DA09089581E090E0F1
:105A90009093DB098093DA091092F70B1092F60BC2
:105AA0008091A6059091A705A091A805B091A905A0
:105AB0008093A2059093A305A093A405B093A50598
:105AC0008091730390917403A0917503B091760354
:105AD0008093A6059093A705A093A805B093A90568
