:020000040000FA
:100000000C9442110D94E2510D940D520D943852FE
:100010000D9463520D948E520D94B9520D94E45286
:100020000D940F530C9473110C9473110C94731161
:100030000C9473110C9473110C9473110C9496F12D
:100040000C9473110C94F17B0C94577C0C94DA9AF9
:100050000C9473110C9473110C9473110D948E53B2
:100060000C9473110D949A4E0D94D04E0C94731100
:100070000C9473110C9473110C9473110C947311F0
:100080000C948FC50C941CC60C94A2C60C947311CE
:100090000C9473110C9473110C9473110C947311D0
:1000A0000C9473110C9473110C943CCA0C9428C7D3
:1000B0000C9416CB0C9473110C9473110C94AEC762
:1000C0000C9488C80C9462C90C9473110C9473112D
:1000D0000C9473110C9473110D94314F0D94674F60
:1000E0000C9473110C943B730D94C84F0C948A2894
:1000F0000C94ED4D0C9429A50D94F54D0C9473A41E
:100100000D944E3C0C9420A50C94FB390C940EA538
:100110000C94983C0C9421160C94BE730C945EA421
:100120000C9405290C94F41A0C9410660C94CB6E64
:100130000C94A4710C945FB00D94E0510C941E2F9C
:100140000C9485A50C944DB00C9479730C945F328B
:100150000C9416160C94C7320C9435BE0C94F7A56B
:100160000C94BA160C94DF190C94E9700C9421E5E8
:100170000C94DCA50C9476370C949E4E0C94919EB6
:100180000C94A5220C94DFBD0D940A550C94357483
:100190000C94452B0C94EE460C94F46C0C94982122
:1001A0000C9450FD0C9443730C941E870C94FB2408
:1001B0000C9441E40C945D4E0C9489A00C94BB8388
:1001C0000C94A2380C94C1A50C94034B0C9439BE2A
:1001D0000C94C4A50C948FA40C945FA50D94C23A02
:1001E0000C94A6380C9460A00C946F740C943C5E34
:1001F0000C94A4490C94BA730C943EA50D94065526
:100200000C94B82B0C9485500C9413330C9423A5A8
:100210000C947BAD0C943F350C94AE150C94D9A581
:100220000D9488110C9411A50D9478510C940BA584
:100230000C946EA50C9451540C94151B0C94FEA5B3
:100240000C944AFD0C94EA460D94EA540C944D31FA
:100250000D94D8510D948A2E0C94134C0C94075085
:100260000C9481730D949B4F0C9416A60C94A028AB
:100270000C9459A50C9477A50C9410160C94F2408C
:100280000C941AA00C9482B20C946F160C94202B30
:100290000C94D9220C945BA40C947EB20C9450A5BF
:1002A0000C940BB10C944AA40C9426A50C9474A540
:1002B0000C94A9A50C94F0460C94A8410C946523C9
:1002C0000C949AA50D94DA300C9432A50C94FAA4EF
:1002D0000C94E5610C9477150C9413280C94EDBEE6
:1002E0000C9473670D94F8540C945EFD0C94F1A576
:1002F0000C94E91A0C9473740C943F5F0C940A2FBD
:100300000C94C2730C9482210C94D0E70C94E5A554
:100310000C94B4720C94E9850C947D730C9409319F
:100320000C94FF1A0C9410A60C94D3A50C9481BDC8
:100330000C94D8370C9482820C94D6A50C94083B6C
:100340000C94C2150C94D3280D9412550C94AA1732
:100350000D94E7390C9491A50C945CA50C94DBBD2D
:100360000D94414D0C94C8160C946DA40C94972FC9
:100370000D94AB2E0C9426160C94669D0D94743A35
:100380000D94D2540C94D6150C9433530C94FE72E5
:100390000D94F2540C9422220D940E550C941A29AB
:1003A0000C94D1190C947DE30C942CA50C941BA6F1
:1003B0000C947DA40C94F4A50C94C71A0C9402A57B
:1003C0000C94DCB20C94F7210C941DA50C94E32240
:1003D0000C945ED60C94E4230C945C280C94E1A459
:1003E0000C94AF230C942C720C94C3830C94613145
:1003F0000C94E29F0C94CA9D0C94B7310C94023378
:100400000C945C2B0C94D8320C9417A50D945F516E
:100410000C945A290C9483A40C9428710C9444FDD8
:100420000C9495150C944CFD0C94E9A40C94E95A89
:100430000C947AA40C94DC370C94F2460C94BBA573
:100440000C94616A0C9478370C94D4110C94E88263
:100450000C94AC700C94DDAE0D945A3A0C94A82216
:100460000C9411D80D9414310C947FAE0C9442FD71
:100470000D94E4540C9494A50C94E8A50C94A0A5B8
:100480000C9467A40C940A1B0C944DA40D941613A1
:100490000C944C390C9451860C94EA270C941E163B
:1004A0000C941B160C941E9F0C9441A50C9454E3C1
:1004B0000C9438A50D943A420D94C53C0C944B32E3
:1004C0000D94DC510C94DAA40C947B240C94B36E40
:1004D0000D947B0F0C94B56E0C940AA60C94BC2260
:1004E0000C9441A40C94F0A40C94E1710C94281A7F
:1004F0000C9471720C94862F0C941D1A0C94D622B5
:100500000C94FAA50C94F6460C9486B20C9458FD03
:100510000D9446190D944D4D0C94AFA50C94D1AD8E
:100520000C9461A40C94E6220C947E590C944137EF
:100530000C9428720C94EB850C9480A50C94377362
:100540000C943E210C941F4E0C947A370C94B86E88
:100550000D94FA4E0C9495AF0D9460120C9497BEC6
:100560000C94C84F0C94349E0C9444A40C94B87210
:100570000C94885B0C9474310C9497A50C949E2376
:100580000C94FE9C0C943DBE0C943A840C947AA579
:100590000C9403570C942A370C94BE2A0C941F28F1
:1005A0000C94A3840C94CDA50C9479BD0C94078273
:1005B0000C94BCE40C941C5A0C945A210C94CA223E
:1005C0000C94D94A0C943F730C9448FD0C94F2E8B7
:1005D0000C94DFA50C94FA460C94E9150C94409FFA
:1005E0000C943BA50C9453A50C9454FD0C944D55C0
:1005F0000C94E9350C9410400C944C380C9493BE38
:100600000D946B510C942E240D94DA540C9456A531
:100610000C94D9290D94C9510C9406280C947CD8BB
:100620000D9474440C9437AF0C94E6D50C94989DBB
:100630000D94D4510C94D1270C942B4B0C94EF4C6B
:100640000C94E2420C94D42D0D94603C0D94FC5417
:100650000C94B5A50D9400550C9426BC0C949F8168
:100660000C940EB40C9440FD0C9405D60C94B0463A
:100670000C9444A50C9447A40C9401A60D94914F9E
:100680000D9475310D943C3C0C9450A40C94B2A57F
:100690000C94CB830C94CA440C9449220D94044FBF
:1006A0000D94D4120C94D7BD0C94644C0C94552F1B
:1006B0000C944E6E0C948E210C9494160C94EB6E4C
:1006C0000C9471A50C94AF160C94F0220D946C2F21
:1006D0000C94BBA00C94F2720C9463160C9427AE8D
:1006E0000C9489A40C944F280C9488A50C94BD28D4
:1006F0000C94CF6E0C94F6720C94762E0D947E4D65
:100700000C94D0A50C94E9320C9462A50C949B2215
:100710000C94AA9F0C9482A50D94D6540C94352861
:100720000C94B7A40C94EF160C9495A40C94C39E4F
:100730000C946BA50C94D9AE0C9465710C94A3A584
:100740000C9424B20C9408A50C94DE1A0C94B222DA
:100750000C9414A50C942B420C9413390C94E32F95
:100760000C9441290C94F3AF0C9463D70C94A9B763
:100770000D94A6510C9428B20C9469160D948D51C9
:100780000C940EA10C9429AE0C947C870D94EE541D
:100790000C94689C0C948A850C9418850C943E34B7
:1007A0000C94631A0D94E0540C94E9710C94669EB9
:1007B0000C94A52A0C94F4460C943A3F0C94C7A5CB
:1007C0000C948EA50C94E1570C9432370C94C1E52F
:1007D0000C9404A60C9464A40C948BA50C94332E56
:1007E0000C94C14B0C94A6A50C946C160C94A82FD9
:1007F0000C94E03D0C9413A60C941AA50C942FA510
:100800000C9472290C94AC740C9498600C94F7AF0F
:100810000C946D720D94CC540C94EEA50C9450561F
:100820000C94D7360C94F3150C94CD580C943C379B
:100830000C944DA50D946F130C94BEA50C94C82D6B
:100840000C946E1A0C945CFD0C94FDA40C94BC7278
:100850000C9446500D9411550C9480A40C948CA4C7
:100860000C9451E80D9438510D946F4D0C9470A474
:100870000C94BC210C94D22F0C94E2A50C94732BF5
:100880000D9499510D94263B0C945AFD0C949DA502
:100890000C9492A40C946A210C9439740C949A5C74
:1008A0000C9483AE0C943BAF0C9486A40C9456FD30
:1008B0000C94BBE30D94D2100C9435A50C94E57107
:1008C0000D945B4D0C94929C0C9446FD0C947DBD54
:1008D0000C9409820C94BF860C9495280C94CF2B11
:1008E0000D94DE510C94DA370C94CAA50C9499AF90
:1008F0000C94F4250C944EFD0C94789F0C941723C3
:100900000C94202E0C9424330C9443370C94142212
:100910000C94EBE90C944AA50C9405160C940CEB82
:100920000C9462230C9430720C94FA230C943FAF15
:100930000C946AA40C94D1160C949F680C94009C9F
:100940000C949DAF0C9457A40D94B53C0C94B8A591
:100950000C94EBA50C9452FD0C94FA720C9447A5E0
:100960000C9413160C9468A50C94F7250C947572CE
:100970000C94349D0C9417D60C9427A00C94C69C10
:100980000D94123A0C94DF250C940C2E0C942C63CD
:100990000C94C8280D943B310C94CD4C0C94F873F6
:1009A0000D9457510C940A3B0C94692F0C94C12F51
:1009B0000D94A53C0C94FC9D0C94AA320C9465A556
:1009C0000C94FC730C94A12B0C9415310C94692895
:1009D0000C9438240C942D250C94B5B00C94E1AEF5
:1009E0000C947DA50D9469100D948E3A0C94F59E8F
:1009F0000C9466160C9441BA0C94B46E0D94D651B6
:100A00000C94A4380D94D54D0C940DA60C949632EC
:100A10000D9441420C943FEC0C9476170D94A83A37
:100A20000C94ACA50C94072B0C9407A60D94F92FED
:100A30000C94D4250C9476280D942C3C0C948B2289
:100A40000C9453A4526573657420636F6E74726F57
:100A50006C2069732063757272656E746C792064A2
:100A6000697361626C65642E00436F6D6D732068FD
:100A7000616C7465642E204E6578742062797465AB
:100A80002077696C6C2072657365742074686520CA
:100A900041726475696E6F2E0000FF0053706565CA
:100AA0006475696E6F20323032332E3035007370CA
:100AB00065656475696E6F20323032333035000001
:100AC000003030320A5061676520686173206E6FB4
:100AD00074206265656E20696D706C656D656E74FD
:100AE000656420796574000A426F6F7374206C6FBF
:100AF0006F6B7570207461626C65000A326E6420E1
:100B000049676E6974696F6E204D6170000A326EBC
:100B100064204675656C204D6170000A5061676500
:100B2000203920436667000A5472696D20312054D1
:100B300061626C65000A565654204D6170000A428D
:100B40006F6F7374204D6170000A50672036204328
:100B50006F6E666967000A414652204D6170000A57
:100B60005067203420436667000A49676E697469DC
:100B70006F6E204D6170000A506720322043666717
:100B8000000A5645204D61700020202020002000E2
:100B90002000200020004572723A20556E6B6E6F67
:100BA000776E20636D64000A3D3D3D436F6D6D615E
:100BB0006E642048656C703D3D3D0A0A416C6C20B6
:100BC000636F6D6D616E6473206172652073696E11
:100BD000676C652063686172616374657220616E21
:100BE000642061726520636F6E636174656E617409
:100BF0006564207769746820746865697220706123
:100C000072616D6574657273200A776974686F75B7
:100C100074207370616365732E53796E7461783AD2
:100C200020203C636F6D6D616E643E2B3C70617281
:100C3000616D65746572313E2B3C706172616D65EA
:100C4000746572323E2B3C706172616D65746572C1
:100C50004E3E0A0A3D3D3D4C697374206F66204349
:100C60006F6D6D616E64733D3D3D0A0A41202D201C
:100C7000446973706C6179732033312062797465D3
:100C800073206F662063757272656E74537461743D
:100C900075732076616C75657320696E2062696E6C
:100CA00061727920286C6976652064617461290A13
:100CB00042202D204275726E2063757272656E74CB
:100CC000206D617020616E6420636F6E666967508D
:100CD0006167652076616C75657320746F2065654A
:100CE00070726F6D0A43202D205465737420434F3A
:100CF0004D20706F72742E202055736564206279C8
:100D00002054756E657273747564696F20746F20FA
:100D1000736565207768657468657220616E20452B
:100D20004355206973206F6E206120676976656E78
:100D30002073657269616C200A20202020706F7218
:100D4000742E2052657475726E7320612062696E14
:100D5000617279206E756D6265722E0A4E202D20AB
:100D60005072696E74206E6577206C696E652E0A0C
:100D700050202D205365742063757272656E742047
:100D8000706167652E202053796E7461783A202057
:100D9000502B3C706167654E756D6265723E0A52FC
:100DA000202D2053616D65206173204120636F6D9C
:100DB0006D616E640A53202D20446973706C6179F3
:100DC000207369676E6174757265206E756D6265FA
:100DD000720A51202D2053616D65206173205320CC
:100DE000636F6D6D616E640A56202D2044697370C7
:100DF0006C6179206D6170206F7220636F6E66691F
:100E000067506167652076616C75657320696E2037
:100E100062696E6172790A57202D20536574206FC4
:100E20006E65206279746520696E206D6170206F37
:100E30007220636F6E666967506167652E2020457A
:100E40007870656374732062696E61727920706175
:100E500072616D65746572732E200A202020205304
:100E6000796E7461783A2020572B3C6F6666736503
:100E7000743E2B3C6E6577627974653E0A74202D52
:100E8000205365742063616C6962726174696F6E6E
:100E90002076616C7565732E2020457870656374CB
:100EA000732062696E61727920706172616D657420
:100EB0006572732E20205461626C6520696E6465D2
:100EC000782069732065697468657220302C200A67
:100ED00020202020312C206F7220322E20205379A8
:100EE0006E7461783A2020742B3C74626C655F6983
:100EF00064783E2B3C6E657756616C7565313E2B90
:100F00003C6E657756616C7565323E2B3C6E65773D
:100F100056616C75654E3E0A5A202D2044697370E7
:100F20006C61792063616C6962726174696F6E20B3
:100F300076616C7565730A54202D20446973706C5A
:100F40006179732032353620746F6F7468206C6F4E
:100F50006720656E747269657320696E2062696EC0
:100F60006172790A72202D20446973706C61797303
:100F70002032353620746F6F7468206C6F6720657F
:100F80006E74726965730A55202D20507265706108
:100F9000726520666F72206669726D776172652076
:100FA0007570646174652E20546865206E65787470
:100FB000206279746520726563656976656420775F
:100FC000696C6C206361757365207468652041727B
:100FD0006475696E6F20746F2072657365742E0A74
:100FE0003F202D20446973706C61797320746869A7
:100FF000732068656C702070616765002C20005755
:101000005545004F3200496E6C65742074656D70F3
:1010100000436F6F6C616E7400526573657420637A
:101020006F6E74726F6C2069732063757272656E77
:10103000746C792064697361626C65642E00436F1F
:101040006D6D732068616C7465642E204E657874D4
:1010500020627974652077696C6C207265736574A1
:10106000207468652041726475696E6F2E0053703C
:1010700065656475696E6F20323032332E3035000D
:10108000737065656475696E6F2032303233303548
:10109000004552523B20496E636F72726563742043
:1010A000454550524F4D2073697A6500303032000B
:1010B0000000800020012001800020018000F0005D
:1010C0008001C000C0002001C0008000200100019C
:1010D000040E11161A1C212A2C2E30323436383ABE
:1010E0003C3E40424446484C4E505256585A5D5F32
:1010F00063686F79537065656475696E6F005370CE
:1011000065656475696E6F20323031392E30382D47
:1011100073657200537065656475696E6F206373E3
:101120007830323031392E38000000000096300718
:10113000772C610EEEBA51099919C46D078FF46AC4
:101140007035A563E9A395649E3288DB0EA4B8DCF4
:10115000791EE9D5E088D9D2972B4CB609BD7CB170
:101160007E072DB8E7911DBF906410B71DF220B027
:101170006A4871B9F3DE41BE847DD4DA1AEBE4DD4E
:101180006D51B5D4F4C785D38356986C13C0A86B42
:10119000647AF962FDECC9658A4F5C0114D96C066A
:1011A00063633D0FFAF50D088DC8206E3B5E106934
:1011B0004CE44160D5727167A2D1E4033C47D4048A
:1011C0004BFD850DD26BB50AA5FAA8B5356C98B262
:1011D00042D6C9BBDB40F9BCACE36CD832755CDFEE
:1011E00045CF0DD6DC593DD1ABAC30D9263A00DE27
:1011F000518051D7C81661D0BFB5F4B42123C4B310
:10120000569995BACF0FA5BDB89EB8022808880593
:101210005FB2D90CC624E90BB1877C6F2F114C68E3
:1012200058AB1D61C13D2D66B69041DC760671DB81
:1012300001BC20D2982A10D5EF8985B1711FB5B6AF
:1012400006A5E4BF9F33D4B8E8A2C9077834F900F3
:101250000F8EA8099618980EE1BB0D6A7F2D3D6D83
:1012600008976C6491015C63E6F4516B6B62616C8E
:101270001CD83065854E0062F2ED95066C7BA501A9
:101280001BC1F4088257C40FF5C6D9B06550E9B741
:1012900012EAB8BE8B7C88B9FCDF1DDD62492DDA0D
:1012A00015F37CD38C654CD4FB5861B24DCE51B54F
:1012B0003A7400BCA3E230BBD441A5DF4AD795D82D
:1012C0003D6DC4D1A4FBF4D6D36AE96943FCD96E61
:1012D00034468867ADD0B860DA732D0444E51D0349
:1012E000335F4C0AAAC97C0DDD3C710550AA41024E
:1012F0002710100BBE86200CC925B56857B3856F23
:101300002009D466B99FE461CE0EF9DE5E98C9D992
:10131000292298D0B0B4A8D7C7173DB359810DB4CE
:101320002E3B5CBDB7AD6CBAC02083B8EDB6B3BF81
:101330009A0CE2B6039AD2B1743947D5EAAF77D2A4
:101340009D1526DB048316DC73120B63E3843B6478
:10135000943E6A6D0DA85A6A7A0BCF0EE49DFF0980
:101360009327AE000AB19E077D44930FF0D2A308E5
:101370008768F2011EFEC206695D5762F7CB67659A
:101380008071366C19E7066B6E761BD4FEE02BD3AA
:10139000895A7ADA10CC4ADD676FDFB9F9F9EFBE06
:1013A0008E43BEB717D58EB060E8A3D6D67E93D154
:1013B000A1C4C2D83852F2DF4FF167BBD16757BC26
:1013C000A6DD06B53F4B36B248DA2B0DD84C1B0ACA
:1013D000AFF64A0336607A0441C3EF60DF55DF673A
:1013E000A8EF8E6E3179BE69468CB361CB1A8366E5
:1013F000BCA0D26F2536E2685295770CCC03470B20
:10140000BBB91602222F260555BE3BBAC5280BBD17
:10141000B2925AB42B046AB35CA7FFD7C231CFD0C3
:10142000B58B9ED92C1DAEDE5BB0C2649B26F263E9
:10143000EC9CA36A750A936D02A906099C3F360EBF
:10144000EB8567077213570005824ABF95147AB877
:10145000E2AE2BB17B381BB60C9B8ED2920DBED563
:10146000E5B7EFDC7C21DFDB0BD4D2D38642E2D4BC
:10147000F1F8B3DD686E83DA1FCD16BE815B26B945
:10148000F6E177B06F7747B718E65A0888706A0FA9
:10149000FFCA3B06665C0B0111FF9E658F69AE6259
:1014A000F8D3FF6B6145CF6C1678E20AA0EED20D3F
:1014B000D75483044EC2B30339612667A7F7166079
:1014C000D04D476949DB776E3E4A6AD1AEDC5AD6C9
:1014D000D9660BDF40F03BD83753AEBCA9C59EBBE5
:1014E000DE7FCFB247E9FFB5301CF2BDBD8AC2BA7C
:1014F000CA3093B353A6A3B4240536D0BA9306D703
:10150000CD2957DE54BF67D9232E7A66B3B84A6116
:10151000C4021B685D942B6F2A37BE0BB4A18E0CDE
:10152000C31BDF055A8DEF022D0000000041311B67
:101530001982623632C3532D2B04C56C6445F4778F
:101540007D86A75A56C796414F088AD9C849BBC25B
:10155000D18AE8EFFACBD9F4E30C4FB5AC4D7EAEAF
:10156000B58E2D839ECF1C98875112C24A1023D965
:1015700053D370F4789241EF6155D7AE2E14E6B58F
:1015800037D7B5981C9684830559981B8218A900F3
:101590009BDBFA2DB09ACB36A95D5D77E61C6C6CAF
:1015A000FFDF3F41D49E0E5ACDA2248495E3159FC0
:1015B0008C2046B2A76177A9BEA6E1E8F1E7D0F397
:1015C000E82483DEC365B2C5DAAAAE5D5DEB9F4653
:1015D0004428CC6B6F69FD7076AE6B3139EF5A2AB7
:1015E000202C09070B6D381C12F33646DFB2075D5D
:1015F000C6715470ED30656BF4F7F32ABBB6C23197
:10160000A275911C8934A00790FBBC9F17BA8D84EA
:101610000E79DEA92538EFB23CFF79F373BE48E8B6
:101620006A7D1BC5413C2ADE58054F79F0447E6235
:10163000E9872D4FC2C61C54DB018A159440BB0EAE
:101640008D83E823A6C2D938BF0DC5A0384CF4BBA2
:10165000218FA7960ACE968D130900CC5C4831D70E
:10166000458B62FA6ECA53E177545DBBBA156CA024
:10167000A3D63F8D88970E96915098D7DE11A9CCAE
:10168000C7D2FAE1EC93CBFAF55CD762721DE6792A
:101690006BDEB554409F844F5958120E161923150E
:1016A0000FDA7038249B41233DA76BFD65E65AE6AF
:1016B0007C2509CB576438D04EA3AE9101E29F8AB6
:1016C0001821CCA73360FDBC2AAFE124ADEED03F9A
:1016D000B42D83129F6CB20986AB2448C9EA155316
:1016E000D029467EFB687765E2F6793F2FB748241C
:1016F00036741B091D352A1204F2BC534BB38D48B6
:101700005270DE657931EF7E60FEF3E6E7BFC2FD21
:10171000FE7C91D0D53DA0CBCCFA368A83BB079115
:101720009A7854BCB13965A7A84B98833B0AA9980D
:1017300022C9FAB50988CBAE104F5DEF5F0E6CF48D
:1017400046CD3FD96D8C0EC27443125AF302234129
:10175000EAC1706CC1804177D847D7369706E62D2D
:101760008EC5B500A584841BBC1A8A41715BBB5A27
:101770006898E87743D9D96C5A1E4F2D155F7E368D
:101780000C9C2D1B27DD1C003E120098B9533183A1
:10179000A09062AE8BD153B59216C5F4DD57F4EF2D
:1017A000C494A7C2EFD596D9F6E9BC07AEA88D1CA4
:1017B000B76BDE319C2AEF2A85ED796BCAAC487095
:1017C000D36F1B5DF82E2A46E1E136DE66A007C521
:1017D0007F6354E8542265F34DE5F3B202A4C2A935
:1017E0001B6791843026A09F29B8AEC5E4F99FDE1F
:1017F000FD3ACCF3D67BFDE8CFBC6BA980FD5AB295
:10180000993E099FB27F3884ABB0241C2CF1150798
:101810003532462A1E73773107B4E17048F5D06B34
:10182000513683467A77B25D634ED7FACB0FE6E145
:10183000D2CCB5CCF98D84D7E04A1296AF0B238D6C
:10184000B6C870A09D8941BB84465D2303076C38F0
:101850001AC43F1531850E0E2842984F6703A954CC
:101860007EC0FA795581CB624C1FC538815EF42366
:10187000989DA70EB3DC9615AA1B0054E55A314F6C
:10188000FC996262D7D85379CE174FE149567EFA58
:1018900050952DD77BD41CCC62138A8D2D52BB96CC
:1018A0003491E8BB1FD0D9A006ECF37E5EADC265D3
:1018B000476E91486C2FA05375E836123AA9070974
:1018C000236A5424082B653F11E479A796A548BCE8
:1018D0008F661B91A4272A8ABDE0BCCBF2A18DD0D4
:1018E000EB62DEFDC023EFE6D9BDE1BC14FCD0A75E
:1018F0000D3F838A267EB2913FB924D070F815CB74
:10190000693B46E6427A77FD5BB56B65DCF45A7E4F
:10191000C5370953EE763848F7B1AE09B8F09F12D3
:10192000A133CC3F8A72FD249300000000376AC2C5
:10193000016ED4840359BE4602DCA80907EBC2CB72
:1019400006B27C8D0485164F05B851130E8F3BD11E
:101950000FD685970DE1EF550C64F91A095393D80A
:10196000080A2D9E0A3D475C0B70A3261C47C9E45C
:101970001D1E77A21F291D601EAC0B2F1B9B61ED46
:101980001AC2DFAB18F5B56919C8F23512FF98F71E
:1019900013A626B111914C7310145A3C152330FE36
:1019A000147A8EB8164DE47A17E0464D38D72C8F4E
:1019B000398E92C93BB9F80B3A3CEE443F0B848612
:1019C0003E523AC03C6550023D58175E366F7D9CD2
:1019D0003736C3DA3501A9183484BF5731B3D595EA
:1019E00030EA6BD332DD01113390E56B24A78FA968
:1019F00025FE31EF27C95B2D264C4D62237B27A0A6
:101A0000222299E62015F3242128B4782A1FDEBA71
:101A10002B4660FC29710A3E28F41C712DC376B355
:101A20002C9AC8F52EADA2372FC08D9A70F7E758C3
:101A300071AE591E739933DC721C2593772B4F516D
:101A40007672F11774459BD57578DC897E4FB64B5D
:101A50007F16080D7D2162CF7CA4748079931E428D
:101A600078CAA0047AFDCAC67BB02EBC6C87447EBF
:101A70006DDEFA386FE990FA6E6C86B56B5BEC77C9
:101A80006A025231683538F369087FAF623F156DDD
:101A90006366AB2B6151C1E960D4D7A665E3BD6431
:101AA00064BA0322668D69E06720CBD74817A11579
:101AB000494E1F534B7975914AFC63DE4FCB091C8D
:101AC0004E92B75A4CA5DD984D989AC446AFF00691
:101AD00047F64E4045C12482444432CD4173580FED
:101AE000402AE649421D8C8B435068F1546702330B
:101AF000553EBC755709D6B7568CC0F853BBAA3AA9
:101B000052E2147C50D57EBE51E839E25ADF5320B0
:101B10005B86ED6659B187A4583491EB5D03FB29D0
:101B20005C5A456F5E6D2FAD5F801B35E1B771F775
:101B3000E0EECFB1E2D9A573E35CB33CE66BD9FE2E
:101B4000E73267B8E5050D7AE4384A26EF0F20E45E
:101B5000EE569EA2EC61F460EDE4E22FE8D388ED4E
:101B6000E98A36ABEBBD5C69EAF0B813FDC7D2D1A8
:101B7000FC9E6C97FEA90655FF2C101AFA1B7AD80A
:101B8000FB42C49EF975AE5CF848E900F37F83C25E
:101B9000F2263D84F0115746F1944109F4A32BCB72
:101BA000F5FA958DF7CDFF4FF6605D78D95737BAC6
:101BB000D80E89FCDA39E33EDBBCF571DE8B9FB3CE
:101BC000DFD221F5DDE54B37DCD80C6BD7EF66A90A
:101BD000D6B6D8EFD481B22DD504A462D033CEA02E
:101BE000D16A70E6D35D1A24D210FE5EC527949C9C
:101BF000C47E2ADAC6494018C7CC5657C2FB3C956A
:101C0000C3A282D3C195E811C0A8AF4DCB9FC58FA9
:101C1000CAC67BC9C8F1110BC9740744CC436D8691
:101C2000CD1AD3C0CF2DB902CE4096AF9177FC6DBF
:101C3000902E422B921928E9939C3EA696AB5464B1
:101C400097F2EA2295C580E094F8C7BC9FCFAD7E9D
:101C50009E9613389CA179FA9D246FB59813057749
:101C6000994ABB319B7DD1F39A3035898D075F4B03
:101C70008C5EE10D8E698BCF8FEC9D808ADBF74205
:101C80008B82490489B523C68888649A83BF0E581D
:101C900082E6B01E80D1DADC8154CC938463A651F5
:101CA000853A1817870D72D586A0D0E2A997BA2079
:101CB000A8CE0466AAF96EA4AB7C78EBAE4B1229D1
:101CC000AF12AC6FAD25C6ADAC1881F1A72FEB33C9
:101CD000A6765575A4413FB7A5C429F8A0F3433AA9
:101CE000A1AAFD7CA39D97BEA2D073C4B5E7190637
:101CF000B4BEA740B689CD82B70CDBCDB23BB10FE5
:101D0000B3620F49B155658BB06822D7BB5F4815E8
:101D1000BA06F653B8319C91B9B48ADEBC83E01C94
:101D2000BDDA5E5ABFED3498BE000000006567BCA6
:101D3000B88BC809AAEEAFB5125797628F32F0DEA2
:101D400037DC5F6B25B938D79DEF28B4C58A4F08BB
:101D50007D64E0BD6F018701D7B8BFD64ADDD86A80
:101D6000F23377DFE0561063589F571950FA30A5C9
:101D7000E8149F10FA71F8AC42C8C07BDFADA7C76A
:101D80006743087275266FCECD707FAD951518111B
:101D90002DFBB7A43F9ED0188727E8CF1A428F7338
:101DA000A2AC20C6B0C9477A083EAF32A05BC88E4D
:101DB00018B5673B0AD00087B26938502F0C5FEC2A
:101DC00097E2F059858797E53DD1878665B4E03A7B
:101DD000DD5A4F8FCF3F2833778610E4EAE37758F8
:101DE000520DD8ED4068BF51F8A1F82BF0C49F9771
:101DF000482A30225A4F579EE2F66F497F9308F5E2
:101E0000C77DA740D518C0FC6D4ED09F352BB7239A
:101E10008DC518969FA07F2A271947FDBA7C2041BF
:101E200002928FF410F7E848A83D58149B583FA839
:101E300023B6901D31D3F7A1896ACF76140FA8CAB3
:101E4000ACE1077FBE8460C306D270A05EB7171CEA
:101E5000E659B8A9F43CDF154C85E7C2D1E0807E95
:101E6000690E2FCB7B6B4877C3A20F0DCBC768B130
:101E70007329C704614CA0B8D9F5986F4490FFD37B
:101E8000FC7E5066EE1B37DA564D27B90E2840050A
:101E9000B6C6EFB0A4A3880C1C1AB0DB817FD7674D
:101EA000399178D22BF41F6E9303F7263B66909AF4
:101EB00083883F2F91ED589329546044B43107F83B
:101EC0000CDFA84D1EBACFF1A6ECDF92FE89B82E2A
:101ED0004667179B54027027ECBB48F071DE2F4C0D
:101EE000C93080F9DB55E745639CA03F6BF9C78398
:101EF000D3176836C1720F8A79CB375DE4AE50E1F3
:101F00005C40FF544E2598E8F673888BAE16EF3789
:101F100016F84082049D273EBC241FE921417855D4
:101F200099AFD7E08BCAB05C333BB659ED5ED1E5D3
:101F300055B07E5047D519ECFF6C213B62094687AE
:101F4000DAE7E932C8828E8E70D49EED28B1F9515D
:101F5000905F56E4823A31583A83098FA7E66E3390
:101F60001F08C1860D6DA63AB5A4E140BDC186FC2F
:101F7000052F2949174A4EF5AFF376223296119E66
:101F80008A78BE2B981DD997204BC9F4782EAE487D
:101F9000C0C001FDD2A566416A1C5E96F779392A58
:101FA0004F97969F5DF2F123E505196B4D607ED743
:101FB000F58ED162E7EBB6DE5F528E09C237E9B526
:101FC0007AD9460068BC21BCD0EA31DF888F5663DD
:101FD0003061F9D622049E6A9ABDA6BD07D8C10118
:101FE000BF366EB4AD530908159A4E721DFF29CE47
:101FF000A511867BB774E1C70FCDD91092A8BEACEE
:102000002A461119382376A5807566C6D810017A3C
:1020100060FEAECF729BC973CA22F1A457479618CF
:10202000EFA939ADFDCC5E114506EE4D766389F121
:10203000CE8D2644DCE841F86451792FF9341E93A3
:1020400041DAB12653BFD69AEBE9C6F9B38CA14564
:102050000B620EF01907694CA1BE519B3CDB362781
:10206000843599929650FE2E2E99B95426FCDEE8BE
:102070009E12715D8C7716E134CE2E36A9AB498A5B
:102080001145E63F03208183BB7691E0E313F65CC4
:102090005BFD59E949983E55F12106826C44613E49
:1020A000D4AACE8BC6CFA9377E38417FD65D26C352
:1020B0006EB389767CD6EECAC46FD61D590AB1A11B
:1020C000E1E41E14F38179A84BD769CB13B20E77E4
:1020D000AB5CA1C2B939C67E0180FEA99CE5991509
:1020E000240B36A0366E511C8EA7166686C271DA96
:1020F0003E2CDE6F2C49B9D394F081040995E6B8E3
:10210000B17B490DA31E2EB11B483ED2432D596E03
:10211000FBC3F6DBE9A69167511FA9B0CC7ACE0CC0
:10212000749461B966F10605DE00000B0C030A0D1C
:102130000E0F090804050200000000000000000066
:10214000000000000000000000000000000000008F
:102150000000000000131211000000000000000049
:10216000000000000000000000000000000000006F
:10217000000000000000000000000000000000015E
:102180000210202008081020401020408002010288
:102190000108040201010204081020408080402050
:1021A000100804020180040201804020100804028B
:1021B0000108040201010204081020408001020409
:1021C0000810204080044080048008101020400443
:1021D00008102040800505050507050808080802C5
:1021E0000202020A0A0808040404040101010101B0
:1021F0000101010303030303030303040707070C9F
:102200000C0C0C0C0C0C0C02020202060606060654
:102210000606060B0B0B0B0B0B0B0B050505080835
:1022200007070404040A0A0A0A0A0A000020002315
:1022300000260029002C002F0032000001000003BE
:10224000010601090100002200250028002B002EB4
:10225000003100340002010000050108010B0100FB
:10226000002100240027002A002D00300033000147
:10227000010000040107010A0100D41188025A027A
:102280004E03320111241FBECFEFD1E2DEBFCDBF1E
:1022900000E00CBF12E0A0E0B2E0EEE8F0EB02E0FC
:1022A0000BBF02C007900D92A638B107D9F720E204
:1022B000A6E8B2E001C01D92A739B207E1F711E12B
:1022C000C2E4D1E100E006C021970109802FFE01A0
:1022D0000F94CA57CD33D10780E00807A9F70F94B0
:1022E0007F530D9445580C9400000F94D2570895D5
:1022F0000F931F930F94D85300919403109195035B
:102300002091960330919703601B710B820B930B06
:1023100021E0693B7B408105910508F420E0822F94
:102320001F910F910895DF92EF92FF920F931F93E9
:10233000CF93DF93EC018B0180910002882321F081
:10234000109200021092C70B8091610B3091B30B79
:102350002091B30B90E09195819591098327807826
:10236000992782278093B30B10928802D12CED2CF1
:10237000F12CE016F10658F4C7018C0F9D1F0E9446
:10238000B7A3F701E857FD4F8183D394F0CF809135
:10239000010C877F8093010CDF91CF911F910F91EA
:1023A000FF90EF90DF90089580E993E00D94404214
:1023B00080E59FE10F94414D181619062CF480E535
:1023C0009FE10F945B4DF4CF08950F931F93CF932C
:1023D000DF9300D01F92CDB7DEB710E000E080E5BC
:1023E0009FE10F94414D892BF1F080E59FE10F941F
:1023F0005B4DE1E0F0E0EC0FFD1FE00FF11F80838B
:102400000F5F1F4F0430110551F769817A818B816D
:102410009C810F900F900F900F90DF91CF911F91A3
:102420000F910C9475110E947811882359F360E084
:1024300070E0CB010F900F900F900F90DF91CF9134
:102440001F910F910895CF93C82F80E59FE10F94BE
:102450006F4D892BD1F36C2F80E59FE1CF910D94C7
:10246000F54DCF93C82F892F0E9423128C2FCF9127
:102470000C9423120F931F93CF93DF930E94751137
:102480008B01D82FC92F862F0E942312812F0E94E3
:1024900023128D2F0E9423128C2F0E942312B80129
:1024A0008D2F9C2FDF91CF911F910F910895CF9386
:1024B000DF931F92CDB7DEB7898381E090E00E9461
:1024C000311289810E94231221E041E050E0BE01D7
:1024D0006F5F7F4F80E993E00F9474440E943A123B
:1024E0000F90DF91CF9108956F927F928F929F927C
:1024F000AF92BF92CF92DF92EF92FF920F931F9312
:10250000CF93DF938034910509F05BC0762E88E885
:10251000882E82E0982E7A018901D0E0C0E09AE00E
:10252000C92ED12C25E0622E39E0A32EB12CF40166
:10253000678180850F947B53B6010F947557605265
:102540007109669EC001679E900D1124B5010F941C
:102550007557685D7F4F77FF02C070E060E0F7015C
:10256000619371937F01F801C193D1938F01F2E0E0
:102570008F0E911CA196C03284E0D807C1F621E0ED
:1025800040E450E06FE872E080E993E00F94744417
:10259000AB01BC01872D0F94A23E872D0F947C3E8A
:1025A00080E0DF91CF911F910F91FF90EF90DF902E
:1025B000CF90BF90AF909F908F907F906F900C9432
:1025C000571284E8EECFCF92DF92EF92FF92CF9333
:1025D000DF9300D01F92CDB7DEB78091B20B86FD9E
:1025E0001FC08091980C9091990C8F379105C0F481
:1025F000E091980CF091990CEE0FFF1FEE0FFF1F6A
:10260000E55EF24F10821182128213828091980C43
:102610009091990C01969093990C8093980CE1CF2E
:1026200080919D03C12CD12C7601811114C08DEFB6
:1026300091E00E943112198220E041E050E0BE0199
:102640006F5F7F4F80E993E00F9474446B017C01CE
:1026500080E00E94231280919D038F37D8F580E59A
:102660009FE10F946F4D04978CF483E090E090937A
:102670009B0380939A030F900F900F900F90DF9120
:10268000CF91FF90EF90DF90CF900895E0919D0360
:1026900084E0E89FF0011124E55EF24F60817181D2
:1026A000828193810E943A1269837A838B839C830F
:1026B00020E044E050E0BE016F5F7F4F80E993E08F
:1026C0000F9441426B017C0180919D038F5F809349
:1026D0009D03C1CF8091B20B8F7B8093B20B109280
:1026E0009B0310929A031092990C1092980C1092DE
:1026F0009D03C701B60160957095809590950E94E5
:102700003A12B9CFCF92DF92EF92FF92CF93DF933D
:1027100000D01F92CDB7DEB78091B20B86FD34C0DA
:102720008091980C9091990C8F37910568F5E09104
:10273000980CF091990CEE0FFF1FEE0FFF1FE95E52
:10274000F24F80819181A281B381E091980CF09148
:10275000990CEE0FFF1FEE0FFF1FE55EF24F808317
:102760009183A283B383E091980CF091990CE45685
:10277000F34F10828091980C9091990C0196909350
:10278000990C8093980CCCCF80919D03C12CD12CB7
:102790007601811114C08CE792E00E9431121982F7
:1027A00020E041E050E0BE016F5F7F4F80E993E0A1
:1027B0000F9474446B017C0180E00E94231280918D
:1027C0009D038F3708F04FC080E59FE10F946F4D58
:1027D000059788F485E090E090939B0380939A039B
:1027E0000F900F900F900F90DF91CF91FF90EF908F
:1027F000DF90CF900895E0919D0384E0E89FF00181
:102800001124E55EF24F60817181828193810E9483
:102810003A1269837A838B839C8320E044E050E002
:10282000BE016F5F7F4F80E993E00F944142E091DA
:102830009D03F0E0E456F34F80810E9423126091E3
:102840009D0370E06456734F20E041E050E080E962
:1028500093E00F9441426B017C0180919D038F5F57
:1028600080939D03ACCF8091B20B8F7B8093B20B92
:102870001092990C1092980C10929B0310929A034C
:1028800010929D03C701B601609570958095909553
:102890000E943A12A5CFEF92FF920F931F93CF930E
:1028A000DF937B018C01D0E0C0E0CE15DF0589F01D
:1028B00080E59FE10F946F4D892B59F0F8016191EC
:1028C0008F0180E59FE10F94F54D019711F421965A
:1028D000ECCFCE01DF91CF911F910F91FF90EF9040
:1028E0000895EF92FF920F931F93CF93DF9300D041
:1028F0001F92CDB7DEB78C017B018617970758F47E
:10290000681B790B88579D4F0E944B14080F191FA5
:102910000E151F0528F1C70104960817190700F5C1
:1029200021E0A70168E872E080E993E00F94744425
:1029300098012E193F0979010E94751169837A83E4
:102940008B839C8364E070E06E197F0981E090E0E6
:102950008C0F9D1F8E0D9F1D0E944B14080F191F79
:10296000C8010F900F900F900F90DF91CF911F91A2
:102970000F91FF90EF900895CF93DF93EC0181E0EA
:1029800090E090939B0380939A03CE010E943112B2
:10299000D0938702C0938602BE0190E080E00E943F
:1029A00071149093990380939803249621E030E06A
:1029B000C817D90711F430E020E030939B0320932F
:1029C0009A03DF91CF91089580919A0390919B0390
:1029D00083309105B9F030F481309105D9F0029738
:1029E00039F008958430910579F0059789F00895BC
:1029F00060919C0370E080919D0320E040E390E0B3
:102A00000C94501F0C94E31280919D030C94E51ECE
:102A10000C948213609186027091870280919803D2
:102A2000909199030E947114909399038093980355
:102A300020918602309187022C5F3F4F41E050E0A9
:102A40002817390711F450E040E050939B0340935E
:102A50009A030895CF92DF92EF92FF920F931F9304
:102A6000CF93DF93E0918802E154E83308F072C21B
:102A7000F0E08827E15CFA4E8F4F0D94CA57771526
:102A80009515C215AA17E9150516AA1710161616D8
:102A90001B16AA17AA172616AA176316AA17AF1687
:102AA000AA17BA16D1167617AA17AA176916AA175F
:102AB000AA17AA17AA17AA17AA17AA17AA17AA170E
:102AC000AE15AA17D615AA17F315AA171316AA1723
:102AD0001E162116AA17AA17AA1766166F16AA1786
:102AE0009416AA17EF16AA17AA17C8166C166DE740
:102AF00070E090E080E0DF91CF911F910F91FF9007
:102B0000EF90DF90CF900C9493118091280C80610E
:102B10008093280C84E0DF91CF911F910F91FF905B
:102B2000EF90DF90CF900C9457128091280C806426
:102B30008093280C8091461F9091471FA091481FB9
:102B4000B091491F80579F42AC4FBF4F8093461FA3
:102B50009093471FA093481FB093491F0F94E453CD
:102B60000091461F1091471F2091481F3091491F27
:102B7000061717072807390740F680918A020F9435
:102B80009639C8CF42E050E069E97AE088E892E0FF
:102B90000F940F5882E090E0DF91CF911F910F9139
:102BA000FF90EF90DF90CF900C94BC1480918A023C
:102BB0000E942B270E94751110928802609389024F
:102BC00070938A0280938B0290938C0285E090E050
:102BD000E3CF60918A02809189020F947B530E9417
:102BE0003ACF80E098CF1092880282E080938902E9
:102BF00010928A0289E780938B0210928C0280E403
:102C000080938D0286E090E0C7CF44E050E060EC16
:102C10007AE088E892E00F940F5884E090E0BCCF0F
:102C20000E9443A6DECF0E94B0A6DBCF42E050E078
:102C30006EEB7AE0EECF0E9417A7D3CF0E9491A748
:102C4000D0CF80918A020F94C53EB4CF60918D029F
:102C500080918E020F947B536C0160918B02809166
:102C60008C020F947B538C01F0908A02E601C80F0E
:102C7000D91F8F2D0E94AC278C179D0798F0C8E8AC
:102C8000D2E008581240CE01885892408C159D051C
:102C900058F4B8016C0F7D1F4F818F2D0E94A42D19
:102CA0002196F1CF84E837CF0F94E453605C7D4BDD
:102CB000804F9F4F6093461F7093471F8093481F1C
:102CC0009093491F8ECF0E9405A88BCF0E9463A8C6
:102CD00088CF0E94BCA885CF0E9433A982CF609183
:102CE0008D0280918E020F947B538C01109288028A
:102CF00060918B0280918C020F947B53F0908A023A
:102D0000C8E8D2E0885892406C01CE0188589240C1
:102D100080179107F8F4B6016C0F7D1F8F2D0E946C
:102D2000E53089832196F1CFC0918A0260918B02B0
:102D300080918C020F947B537C0160918D02809175
:102D40008E020F947B538C01C03339F4BC01C70150
:102D50000E949311C80101961FCFCF30C9F441E101
:102D600050E06DEA7AE088E892E00F940F5881E134
:102D700090E012CF42E150E06BE97AE088E892E01F
:102D80000F940F5882E190E00E94BC141092C70B80
:102D9000DF91CF911F910F91FF90EF90DF90CF9037
:102DA000089510929D038091130C882351F0DF91B8
:102DB000CF911F910F91FF90EF90DF90CF900C94E7
:102DC000E3128091140C882319F3DF91CF911F91A6
:102DD0000F91FF90EF90DF90CF900C948213C091F1
:102DE0008A0260918C0280918B020F947B537C014C
:102DF00060918E0280918D020F947B538C01C230C2
:102E000009F05BC0E0E1F3E0E114F10411F0E8E067
:102E1000F5E0D0E0C0E060E070E0CB0197012C0F5E
:102E20003D1F0C171D0751F1CE018F719927892B7A
:102E3000C1F4C90145E0969587954A95E1F7BC0133
:102E40006F547A4FAE0148575D4FDA0117964C9197
:102E5000DB014C93880F991FDC01AF52BA4F2D93C1
:102E60003C93BE0161577D4F20E041E050E080E996
:102E700093E019952196E8E0F5E0D0CFE114B3E0B6
:102E8000FB0661F4AB01BC014095509560957095CF
:102E900082E00F94A23E82E00F947C3E80E00E948C
:102EA000571280E59FE1DF91CF911F910F91FF9025
:102EB000EF90DF90CF900D94D54D21E636E041E2C2
:102EC00056E061E0C13039F0C111ECCE21EF36E0BF
:102ED00041EB56E060E0C801DF91CF911F910F9167
:102EE000FF90EF90DF90CF900C94741280919A0332
:102EF00090919B032091840C2223D9F0892B31F4EB
:102F000069E67AE080E59FE10F943B5080E59FE120
:102F10000F94414D892BD1F360E080913E0CDF91FD
:102F2000CF911F910F91FF90EF90DF90CF900D9474
:102F30005155892B09F02CCF64E47AE080E59FE1BC
:102F4000DF91CF911F910F91FF90EF90DF90CF9085
:102F50000D943B5083E8DFCDCF92DF92EF92FF924A
:102F6000CF9380919A0390919B03089739F4CF9166
:102F7000FF90EF90DF90CF900C94E12080E59FE1EF
:102F80000F94414D892B09F443C080919A0390918D
:102F90009B03892BE9F580E59FE10F944D4DC82FE8
:102FA000863429F38FEB8C0F8A3310F0CF3321F462
:102FB0008091280C87FDDBCF80E59FE10F945B4D6E
:102FC00080E59FE10F94414D892BD1F380E59FE18E
:102FD0000F945B4D682F8C2F0F947B539093870237
:102FE0008093860282E090E0909399038093980307
:102FF00087E090E090939B0380939A030F94D853BB
:103000006093940370939503809396039093970332
:1030100080E59FE10F94414D1816190634F4809114
:103020009A0390919B03079799F00E947811882347
:1030300009F457C010929B0310929A030E94D81172
:1030400080E8CF91FF90EF90DF90CF900C945712D3
:103050008091860290918702029620919803309188
:1030600099032817390798F480E59FE10F945B4D89
:103070002091980330919903F901EA57FD4F80831D
:103080002F5F3F4F3093990320939803C1CF0E9445
:10309000E5116B017C0110929B0310929A030E9430
:1030A00078118111B5CF409186025091870221E0BD
:1030B00068E872E080E993E00F9474446C157D0534
:1030C0008E059F0541F40E942A158091280C8F7768
:1030D0008093280C9DCF82E80E9457120E94D8113D
:1030E00097CFCF91FF90EF90DF90CF9008950F93FF
:1030F0001F93CF93DF93EC018B01C017D10741F0F1
:103100004AE050E0699180E59FE10F940E51F5CFC0
:10311000DF91CF911F910F9108950F931F93CF933C
:10312000DF93EC018B01C017D10771F04AE050E04A
:10313000699180E59FE10F94075164E97BE080E5A8
:103140009FE10F940450EFCF80E59FE1DF91CF9195
:103150001F910F910D943750CF93C82F843670F480
:1031600062E97BE080E59FE10F940450CA3030F4BF
:1031700060E97BE080E59FE10F9404504AE050E075
:103180006C2F80E59FE10F9407516EE87BE080E5AE
:103190009FE1CF910D9404506115710579F0FB0109
:1031A00001900020E9F73197AF01461B570BDC0176
:1031B000ED91FC910280F381E02D199490E080E084
:1031C0000895DC01ED91FC910190F081E02D642FD8
:1031D0001994DC01ED91FC910190F081E02D19949E
:1031E000DC01ED91FC910190F081E02D1994FC013E
:1031F0002481422F440F550B20813181240F351F2C
:103200003183208308956F927F928F929F92AF9225
:10321000BF92CF92DF92EF92FF920F931F93CF93C3
:10322000DF93CDB7DEB763970FB6F894DEBF0FBE5E
:10323000CDBF6C015B010F94B53F288739874A8762
:103240005B876C877D878E87B501C6010F94193F18
:103250002F87388B498B5A8B6B8B0F8518898989FF
:103260009A890817190799F1EB88F12C38016E0C2F
:103270007F1CE885F985808191812D853E85E1E57A
:10328000F2E02115310539F0EFE4F2E021303105AB
:1032900011F4E0E5F2E0608170E00F947557862F3D
:1032A0000E94AC1848016814790431F0D4018D9162
:1032B0004D010E94AC18F7CF80E59FE10F94375085
:1032C000CE0108960E94F7180E191F09C8CF69E8A9
:1032D0007BE080E59FE10F940450B501C6010F9497
:1032E000693F29833A834B835C836D837E838F831D
:1032F0008E819F8101E512E0009731F00FE412E02A
:10330000019711F400E512E0E981FA818B819C813B
:10331000E817F90779F0D8016C9170E0808191810C
:103320000F947557862F0E94AC18CE0101960E940B
:10333000F718EACF80E59FE10F94375063960FB6F8
:10334000F894DEBF0FBECDBFDF91CF911F910F91DB
:10335000FF90EF90DF90CF90BF90AF909F908F90B5
:103360007F906F900895CF93DF93E0910102E15039
:10337000EF3008F05AC1F0E08827EE53F64E8F4F39
:103380000D94CA57DF19D1191D1A281A631A6E1A1B
:10339000C71ADE1AE91A151BF41A151B151BFF1A9A
:1033A0000A1B61E87BE080E59FE10F943B5065E0FC
:1033B00070E084EF9AE1DF91CF910C94031967E7F5
:1033C0007BE080E59FE10F943B5065EE7AE081EE73
:1033D0009AE00E9477186FEE7AE085EE9AE00E94FC
:1033E0008D186DEF7AE08FEE9AE00E947718CDEF9E
:1033F000DAE0699179914AE050E080E59FE10F942D
:1034000026518BE0C530D807A1F760E17BE085E06D
:103410009BE00E9477186091100B7091110B4AE0AD
:1034200050E080E59FE10F94265161E67BE082E168
:103430009BE0DF91CF910C94771869E67BE080E503
:103440009FE10F943B5065E070E086E698E1B3CFD2
:103450006FE57BE080E59FE10F943B506091610A4E
:103460007091620A4AE050E080E59FE10F94E850D5
:1034700068E77AE083E69AE00E9477186CE77AE0E2
:1034800088E79AE00E948D1860E87AE08CE79AE07D
:103490000E948D186AE87AE080E89AE00E948D1810
:1034A0004AE050E060918A0A80E59FE10F940E5156
:1034B00061E97AE08BE89AE00E948D1861EE7AE08B
:1034C00081E99AE0B6CF66E57BE080E59FE10F9465
:1034D0003B5065E070E088ED95E16DCF69E47BE0FD
:1034E00080E59FE10F943B5060EF79E081EE99E039
:1034F0000E94771866EF79E080EF99E00E948D18BE
:103500006CEF79E086EF99E00E948D1865E07AE033
:103510008CEF99E00E948D186EE07AE085E09AE0E9
:103520000E948D1861E27AE08EE09AE00E9477189E
:103530006BE27AE081E29AE00E948D1865E37AE01E
:103540008BE29AE00E948D186FE37AE085E39AE0BF
:103550000E948D1869E47AE08FE39AE00E948D184A
:103560006DE47AE089E49AE00E948D1861E57AE0E2
:103570008DE49AE00E948D1865E57AE081E59AE095
:103580000E948D1861E67AE085E59AE052CF6EE3FD
:103590007BE080E59FE10F943B5063E070E08AE0C0
:1035A00095E10E94031965E37BE080E59FE10F94BC
:1035B0003B5063E070E08CE394E1FDCE67E27BE09A
:1035C00080E59FE10F943B5061E070E08BE293E176
:1035D000F2CE6BE17BE080E59FE10F943B5061EE22
:1035E00079E081E299E025CF6DE07BE080E59FE125
:1035F0000F943B5065E070E08DEA99E1DCCE6BEF13
:103600007AE080E59FE10F943B5065E070E08FE148
:1036100097E1D1CE67EE7AE080E59FE10F943B50D1
:1036200063E070E083EA94E1C6CE64EC7AE080E582
:103630009FE1DF91CF910D943B5061E070E080E518
:103640009FE10C94F0186F927F928F929F92AF92AD
:10365000BF92CF92DF92EF92FF920F931F93CF937F
:10366000DF93833008F094C0282F30E0A901440F85
:10367000551FFA01E75BFD4F008111814D5B5D4FE6
:10368000FA01C081D181F901E05CFD4FC080235C6B
:103690003D4FF901A080823009F442C00C2C000C8F
:1036A000DD080A2C000CBB08F12CE12C85E0782EFB
:1036B00099E0892E912C80E59FE10F94414D02976E
:1036C000D4F380E59FE10F945B4D682E80E59FE188
:1036D0000F945B4D662D0F947B53B5010F94755776
:1036E00060527109769EC001779E900D1124B4013D
:1036F0000F9475576C0D7D1D77FF02C070E060E080
:10370000F801619371938F01E992F9920F945C3EF5
:10371000F0E2EF0EF11CE11484E0F80661F628C037
:10372000D0E0C0E080E59FE10F94414D18161906E6
:10373000CCF780E59FE10F945B4D9E012F713327FD
:10374000232B89F49E0145E0359527954A95E1F7AD
:10375000F901EF54FA4F8083220F331FF901EF5222
:10376000FA4FD183C0832196C115F4E0DF07D1F66B
:10377000DF91CF911F910F91FF90EF90DF90CF904D
:10378000BF90AF909F908F907F906F900D945C3E14
:103790002AE0A22EB12CD12CC12CC1E6D6E001E248
:1037A00016E082CFEF92FF921F93CF93DF93809129
:1037B000C70B70E060E080E59FE10E94F0187C019B
:1037C0006091C70B80E59FE10F94F54DC2E7D0E013
:1037D000CE19DF09C81BD90B6091B70B70E080E5EB
:1037E0009FE10E94E918C81BD90B6091B60B70913C
:1037F000B70B80E59FE10E94E918C81BD90B6091C7
:10380000B90B70E080E59FE10E94E918C81BD90B55
:103810006091B80B7091B90B80E59FE10E94E918A7
:10382000C81BD90B6091630B70E080E59FE10E949B
:10383000E918C81BD90B6091620B7091630B80E58E
:103840009FE10E94E918C81BD90B8091980B1AE0E0
:103850008102700111246F2D70E080E59FE10E94CC
:10386000E918C81BD90BB70180E59FE10E94E91850
:10387000C81BD90B6091050C80E59FE10F94F54DB5
:10388000C81BD90B6091B50B80E59FE10F94F54DF6
:10389000C81BD90B6091A80B80E59FE10F94F54DF3
:1038A000C81BD90B6091A80B80E59FE10F94F54DE3
:1038B000C81BD90B63E670E080E59FE10E94F01819
:1038C000C81BD90B63E670E080E59FE10E94F01809
:1038D000C81BD90BE090750BE19E700111246F2D70
:1038E00070E080E59FE10E94E918C81BD90BB70181
:1038F00080E59FE10E94E918C81BD90B80916D0BF0
:1039000090916E0B189F7001199FF00C11246F2D70
:1039100070E080E59FE10E94E918C81BD90BB70150
:1039200080E59FE10E94E918C81BD90B8091880BA4
:103930009091890B189F7001199FF00C11246F2D25
:1039400070E080E59FE10E94E918C81BD90BB70120
:1039500080E59FE10E94E918C81BD90B8091840B78
:103960009091850B189F7001199FF00C11246F2DF9
:1039700070E080E59FE10E94E918C81BD90BB701F0
:1039800080E59FE10E94E918C81BD90BE090760BF7
:10399000E19E700111246F2D70E080E59FE10E948F
:1039A000E918C81BD90BB70180E59FE10E94E9180F
:1039B000C81BD90B70E060E080E59FE10E94F01821
:1039C000C81BD90B6091970B80E59FE10F94F54DD3
:1039D000C81BD90B70E060E080E59FE10E94F01801
:1039E000C81BD90B6091820B80E59FE10F94F54DC8
:1039F000C81BD90B70E060E080E59FE10E94F018E1
:103A0000C81BD90B6091830B80E59FE10F94F54DA6
:103A1000C81BD90B63E670E080E59FE10E94F018B7
:103A2000C81BD90B63E670E080E59FE10E94F018A7
:103A3000C81BD90BE0909F0BE19E700111246F2DE4
:103A400070E080E59FE10E94E918C81BD90BB7011F
:103A500080E59FE10E94E918C81BD90B6F2D70E02B
:103A600080E59FE10E94E918C81BD90BB70180E5EA
:103A70009FE10E94E918C81BD90BE090A20BE19EC0
:103A8000700111246F2D70E080E59FE10E94E9181C
:103A9000C81BD90BB70180E59FE10E94E918C81B3C
:103AA000D90BE090A00BE19E700111246F2D70E006
:103AB00080E59FE10E94E918C81BD90BB70180E59A
:103AC0009FE10E94E918C81BD90B63E670E080E50E
:103AD0009FE10E94F018C81BD90B63E670E080E5F7
:103AE0009FE10E94F018C81BD90B63E670E080E5E7
:103AF0009FE10E94F018C81BD90B63E670E080E5D7
:103B00009FE10E94F018C81BD90B63E670E080E5C6
:103B10009FE10E94F018C81BD90B63E670E080E5B6
:103B20009FE10E94F018C81BD90B80919B0B9091CC
:103B30009C0B189F7001199FF00C11246F2D70E0E1
:103B400080E59FE10E94E918C81BD90BB70180E509
:103B50009FE10E94E918C81BD90BE0907F0BE19E02
:103B6000700111246F2D70E080E59FE10E94E9183B
:103B7000C81BD90BB70180E59FE10E94E918C81B5B
:103B8000D90BE090810BE19E700111246F2D70E044
:103B900080E59FE10E94E918C81BD90BB70180E5B9
:103BA0009FE10E94E918C81BD90B63E670E080E52D
:103BB0009FE10E94F018C81BD90B63E670E080E516
:103BC0009FE10E94F018C81BD90B63E670E080E506
:103BD0009FE10E94F018C81BD90B63E670E080E5F6
:103BE0009FE10E94F018C81BD90BE090780BF09071
:103BF000790B6F2D70E080E59FE10E94E918C81BEA
:103C0000D90BB70180E59FE10E94E918C81BD90BC9
:103C1000E0907B0BF0907C0B6F2D70E080E59FE1D6
:103C20000E94E918C81BD90BB70180E59FE10E94EB
:103C3000E918C81BD90B8091920B9091930B189F98
:103C40007001199FF00C11246F2D70E080E59FE149
:103C50000E94E918C81BD90BB70180E59FE10E94BB
:103C6000E918C81BD90B63E670E080E59FE10E946C
:103C7000F018C81BD90B63E670E080E59FE10E9455
:103C8000F018C81BD90B8091070C9091080C189F55
:103C9000B001199F700D112480E59FE10E94F0187A
:103CA000C81BD90B63E670E080E59FE10E94F01825
:103CB000C81BD90B63E670E080E59FE10E94F01815
:103CC000C81BD90B63E670E080E59FE10E94F01805
:103CD000C81BD90B8091990B8102700111246F2DA3
:103CE00070E080E59FE10E94E918C81BD90BB7017D
:103CF00080E59FE10E94E918C81BD90B80919A0BBF
:103D00008102700111246F2D70E080E59FE10E9417
:103D1000E918C81BD90BB70180E59FE10E94E9189B
:103D2000C81BD90BF12CE12CEC16FD0654F463E60C
:103D300070E080E59FE10E94F0188FEFE81AF80A22
:103D4000F3CFDF91CF911F91FF90EF9008950F93E4
:103D50001F93CF93DF9300D000D01F92CDB7DEB773
:103D600029833A834B835C836D837E838F838E812B
:103D70009F8101E512E0009731F00FE412E0019716
:103D800011F400E512E0E981FA818B819C818E17A4
:103D90009F0781F0D8016C9170E0808191810F9430
:103DA000755780E59FE10F94F54DCE0101960E9475
:103DB000F718E9CF27960FB6F894DEBF0FBECDBF38
:103DC000DF91CF911F910F9108950F931F93CF9380
:103DD000DF939091B20B96FF55C024E030E0309312
:103DE0009B0320939A03C82FD0E0CF37D105C4F5A9
:103DF0008E01000F111F000F111F055E124FF801F9
:103E00004081518162817381472F5527662777272B
:103E100080E59FE10E94E118F801408151816281B3
:103E20007381AB016627772780E59FE10E94E11847
:103E3000F8014081518162817381452F562F672F90
:103E4000772780E59FE10E94E118F80140815181C8
:103E50006281738180E59FE10E94E1182196C5CFC0
:103E60008091B20B8F7B8093B20B10929B031092C8
:103E70009A031092990C1092980CDF91CF911F9198
:103E80000F910895CCEFD1E060E080E59FE10F94C1
:103E9000F54D2197C9F710929B0310929A03EDCF2D
:103EA0008F929F92AF92BF92DF92EF92FF920F9309
:103EB0001F93CF93DF93EC018B01D22E82E090E031
:103EC00090939B0380939A0323E0D21262C04E31F9
:103ED00009F053C0E0906902F0906A0266E372E074
:103EE000C7010E94CC18D701ED91FC910190F0819F
:103EF000E02D6EE1C70119958091610B3091B30BF4
:103F00002091B30B90E0919581959109832780785A
:103F1000992782278093B30BF12CA0906902B0906F
:103F20006A028F2D90E08017910708F04FC0D110E2
:103F30003AC08C0F9D1F0E94B7A3682F80E59FE1B8
:103F40000F94F54D80E59FE10F946F4D18161906FB
:103F5000DCF1CF5FCF0DC0939D0301500F1900938B
:103F60009C03DF91CF911F910F91FF90EF90DF9015
:103F7000BF90AF909F908F9008954F3109F0BCCFC4
:103F800068E372E08091690290916A020E94CC1805
:103F9000B3CF80910002882309F4AECF10920002C3
:103FA0001092C70BA9CFB3E0DB12CCCFD501ED91B6
:103FB000FC91808091808C0F9D1F0E94B7A3682F79
:103FC000C501F4011995BECFF394ABCF10929B03BA
:103FD00010929A038091010C877F8093010CC1CFCE
:103FE000CF92DF92EF92FF92CF93DF939091B20B3B
:103FF00096FF5BC026E030E030939B0320939A034A
:10400000C82FD0E0CF37D1050CF041C080E59FE14B
:104010000F946F4D04974CF4C0939D03DF91CF91A3
:10402000FF90EF90DF90CF900895FE01EE0FFF1FFD
:10403000EE0FFF1FE55EF24FC080D180E280F3807B
:104040004F2D55276627772780E59FE10E94E118CD
:10405000A7016627772780E59FE10E94E11877276F
:104060006F2D5E2D4D2D80E59FE10E94E118B70177
:10407000A60180E59FE10E94E118FE01E456F34F9E
:10408000608180E59FE10F94F54D2196BBCF809133
:10409000B20B8F7B8093B20B1092990C1092980CFC
:1040A00010929B0310929A03B9CFCBE7D2E060E065
:1040B00080E59FE10F94F54D2197C9F7F1CFCF929D
:1040C000DF92EF92FF920F931F93CF93DF93CDB7C1
:1040D000DEB7A9970FB6F894DEBF0FBECDBF6091D3
:1040E0000102CE0101960E94B5278A859B85833007
:1040F000910509F457C081309105F1F020F0029745
:1041000051F00F940A584885598569817A8180E574
:104110009FE10F94C84FBE016F5F7F4FCE014F9656
:104120000E94E2288BE0FE017F96DE01119601904D
:104130000D928A95E1F7D9CFCE0101960E94092C04
:104140002A8F3B8F4C8F5D8F6E8FCC8CDD8C062F32
:1041500010E0EA8CFB8CEC14FD0449F0A801B701D7
:1041600080E59FE10F94C84FE01AF10AF4CFCE0129
:1041700001960E941E2C2C873D874E875F87688B97
:10418000798B8A8B0E94A71ECE0101960E94342C47
:104190002B8B3C8B4D8B5E8B6F8B788F898F0E9426
:1041A000A71EB9CFA9960FB6F894DEBF0FBECDBF3C
:1041B000DF91CF911F910F91FF90EF90DF90CF9003
:1041C0000895CF92DF92EF92FF920F931F93CF93B8
:1041D000DF9380919A0390919B03892B31F480E5C2
:1041E0009FE10F945B4D8093A503E091A503EF53EE
:1041F000EC3308F0FCC4F0E08827EE5FFE4D8F4FF3
:104200000D94CA57F425F7255A2182218E21F725CE
:10421000F721142222228B22F725A522F725B2228C
:104220007B24CA22D622F0226223F7259E23AF23C5
:10423000FA232E243824E322F7252D25F725F72508
:10424000F725F725F725DF253E216A219821BC2196
:10425000F725F72549229B22F725A822F725F725E0
:10426000BC22F725D9221723F7256523F725E42358
:10427000F725F725FB24E622F725D42588E090E0F2
:1042800090939B0380939A0380E59FE10F94414DA7
:1042900002970CF45BC280E59FE10F945B4D80E5D3
:1042A0009FE10F945B4D0E94D21B10929B031092D2
:1042B0009A034CC220E041E36DE770E090E080E0BB
:1042C000DF91CF911F910F91FF90EF90DF90CF90F2
:1042D0000C94501F88E090E090939B0380939A0386
:1042E00080E59FE10F94414D02970CF42FC280E5C9
:1042F0009FE10F945B4D80E59FE10F945B4D0F9420
:104300009639D3CF88E090E090939B0380939A03F3
:104310008091280C80648093280CE2CFDF91CF91AC
:104320001F910F91FF90EF90DF90CF900C941D1B89
:104330006091C80B7091C90B8091CA0B9091CB0B07
:1043400080E59FE10F94F54D6091C80B7091C90B0A
:104350008091CA0B9091CB0B672F782F892F9927CB
:1043600080E59FE1DF91CF911F910F91FF90EF903A
:10437000DF90CF900D94F54D88E090E090939B03F3
:1043800080939A0380E59FE10F94414D02970CF4CE
:10439000DDC180E59FE10F945B4D80E59FE10F94C7
:1043A0005B4D0E942B276B017C014F2D5527662703
:1043B000772780E59FE10E94E1184E2D50E070E0E4
:1043C00060E080E59FE10E94E1184D2D50E070E033
:1043D00060E080E59FE10E94E118B701A601552742
:1043E0006627772780E59FE10E94E1185ECF88E08D
:1043F00090E090939B0380939A0380E59FE10F9454
:10440000414D02970CF4A2C180E59FE10F945B4DF2
:10441000C82F80E59FE10F945B4D682F8C2F0F9480
:104420007B530E943ACF41CF6CEA70E180E59FE177
:10443000DF91CF911F910F91FF90EF90DF90CF9080
:104440000D9404500F94E83E682F80E59FE10F948F
:10445000F54D0F94E83E692F80E59FE10F94F54DEF
:104460006CE280E59FE10F943050F12CE12C0F9429
:10447000E83EE816F90608F018CFC7010F94943902
:10448000682F80E59FE10F94F54D8FEFE81AF80A49
:10449000EECF80E59FE10F94414D03973CF461E03E
:1044A00070E080E090E00F940954F3CF80E59FE145
:1044B0000F945B4DC82F80E59FE10F945B4D6C2FEF
:1044C0000F947B538C010F94E83EEC0161E970E19D
:1044D0008017910709F0B6C1F12CE12CCE15DF054C
:1044E00009F4E3CE80E59FE10F94414D03973CF43E
:1044F00061E070E080E090E00F940954F3CF80E534
:104500009FE10F945B4D682FC7010F948339EFEF44
:10451000EE1AFE0AE3CF0E9443A661E070E080E558
:104520009FE1DF91CF911F910F91FF90EF90DF906E
:10453000CF900C94F018DF91CF911F910F91FF90C5
:10454000EF90DF90CF900C94B0A60E9417A7E5CF14
:10455000DF91CF911F910F91FF90EF90DF90CF905F
:104560000C9491A7DF91CF911F910F91FF90EF9045
:10457000DF90CF900C94B3190E94BE7E8093CE0B37
:104580009093CF0B682F80E59FE10F94F54D6091DC
:10459000CF0BE6CE80E59FE1DF91CF911F910F9188
:1045A000FF90EF90DF90CF900D9437500E9405A8B8
:1045B000B4CFDF91CF911F910F91FF90EF90DF90DB
:1045C000CF900C9463A80E94BCA8A7CFDF91CF9195
:1045D0001F910F91FF90EF90DF90CF900C9433A933
:1045E00088E090E090939B0380939A0380E59FE19D
:1045F0000F94414D181619060CF0A8C080E59FE1F4
:104600000F945B4D90ED980F9A3018F4909301023F
:104610004CCE9FE9980F963020F487558093010285
:1046200044CE9FEB980F9630C8F78753F7CF88E0BA
:1046300090E090939B0380939A0380E59FE10F9411
:10464000414D06970CF482C080E59FE10F945B4DCD
:1046500080E59FE10F945B4DC82F80E59FE10F94AB
:104660005B4DD82F80E59FE10F945B4D6D2F0F942C
:104670007B5390939F0380939E0380E59FE10F946B
:104680005B4DD82F80E59FE10F945B4D6D2F0F940C
:104690007B538C01F12CE12CE016F1060CF005CED9
:1046A00060919E0370919F036E0D7F1D8C2F0E9461
:1046B000E530682F80E59FE10F94F54DFFEFEF1A8D
:1046C000FF0AEACF60E870E1B1CE88E090E0909315
:1046D0009B0380939A0380E59FE10F94414D0697D9
:1046E000ACF180E59FE10F945B4D80E59FE10F9475
:1046F0005B4D182F80E59FE10F945B4DC82F80E53F
:104700009FE10F945B4D6C2F0F947B53EC0180E580
:104710009FE10F945B4D082F80E59FE10F945B4D67
:10472000602F0F947B5310929B0310929A031033C7
:1047300069F420E040E3BC01CE01C2CD6EE670E139
:1047400080E59FE10F9404501092C70BDF91CF9149
:104750001F910F91FF90EF90DF90CF90089588E028
:1047600090E090939B0380939A0380E59FE10F94E0
:10477000414D06975CF380E59FE10F945B4D80E52A
:104780009FE10F945B4D80E59FE10F945B4D80E5C9
:104790009FE10F945B4D80E59FE10F945B4D80E5B9
:1047A0009FE10F945B4D8091130C882321F080E0F2
:1047B0000E94E51E7ACD8091140C882309F475CDF2
:1047C00080E00E94F01F71CD80E59FE10F94414D84
:1047D000892BD1F380E59FE10F945B4D0E94231B51
:1047E000DF91CF911F910F91FF90EF90DF90CF90CD
:1047F0000D945C3E80919A0390919B032091840CD0
:104800002223D9F0892B31F46EE370E180E59FE13A
:104810000F943B5080E59FE10F94414D892BD1F3DC
:1048200060E080913E0CDF91CF911F910F91FF903E
:10483000EF90DF90CF900D94515569E170E1892B95
:1048400009F084CF80E59FE1DF91CF911F910F9117
:10485000FF90EF90DF90CF900D943B50DF91CF9180
:104860001F910F91FF90EF90DF90CF900C945F20FD
:1048700088E090E090939B0380939A0380910102DB
:104880009EEF980F923090F0853081F08B3071F070
:104890008E3061F080E59FE10F94414D02970CF45A
:1048A00055CF80E59FE10F945B4D13C080E59FE1FC
:1048B0000F94414D03970CF449CF80E59FE10F948D
:1048C0005B4DC82F80E59FE10F945B4D6C2F0F94DB
:1048D0007B5390939F0380939E0380E59FE10F9409
:1048E0005B4D60919E0370919F03482F8091010260
:1048F0000E94A42DDACC88E090E090939B038093F3
:104900009A038091A40381113CC080E59FE10F943C
:10491000414D07978CF180E59FE10F945B4D80E559
:104920009FE10F945B4D8093010280E59FE10F941E
:104930005B4DC82F80E59FE10F945B4D6C2F0F946A
:104940007B5390939F0380939E0380E59FE10F9498
:104950005B4DC82F80E59FE10F945B4D6C2F0F944A
:104960007B539093A1038093A00381E08093A403E1
:104970001092A3031092A2038091A403882309F448
:10498000E5CE80E59FE10F94414D4091A203509107
:10499000A3032091A0033091A1031816190604F572
:1049A00042175307E8F480E59FE10F945B4D609157
:1049B0009E0370919F032091A2033091A303620F85
:1049C000731F482F809101020E94A42D8091A203A1
:1049D0009091A30301969093A3038093A203D1CF58
:1049E0004217530708F4B2CE10929B0310929A0319
:1049F0001092A403ABCE80E59FE10F94414D079741
:104A00000CF4A4CE80E59FE10F945B4D80E59FE11F
:104A10000F945B4D8093010280E59FE10F945B4D05
:104A2000C82F80E59FE10F945B4D6C2F0F947B5353
:104A300090939F0380939E0380E59FE10F945B4DCD
:104A4000C82F80E59FE10F945B4D6C2F0F947B5333
:104A50009093A1038093A00379CE61E170E180E59A
:104A60009FE10F943B50C1EFD6E001EB16E0699156
:104A700079914AE050E080E59FE10F9420516AE38C
:104A800072E080E59FE10F942850F80161917191E7
:104A90008F014AE050E080E59FE10F942651F7E056
:104AA000C133DF0721F766E070E180E59FE10F94F5
:104AB0003B50C1E6D6E001E216E091EAE92E96E02D
:104AC000F92E699179914AE050E080E59FE10F94D9
:104AD00020516AE372E080E59FE10F942850F801CD
:104AE000619171918F014AE050E080E59FE10F9460
:104AF0002651EC16FD0629F763E070E180E59FE1A1
:104B00000F943B50C1EDD5E001EB15E081E1E82EBB
:104B100086E0F82E699179914AE050E080E59FE1C6
:104B20000F9420516AE372E080E59FE10F942850D2
:104B3000F80161918F014AE050E080E59FE10F9418
:104B40000E51EC16FD0631F76FEF7FE080E59FE137
:104B50000F943B50C0E8DAE005EE1AE069914AE0B4
:104B600050E080E59FE10F9407516CEF7FE080E516
:104B70009FE10F940450F80161918F014AE050E0E9
:104B800080E59FE10F940E51FAE0CA38DF0731F754
:104B900080E59FE1DF91CF911F910F91FF90EF9002
:104BA000DF90CF900D94D54D80E0DF91CF911F9194
:104BB0000F91FF90EF90DF90CF900C94E51E88E06E
:104BC00090E090939B0380939A0380E59FE10F947C
:104BD000414D181619060CF0B9CD80E59FE10F94F0
:104BE0005B4D80936A0A61CB67EA7BE02BCE66E976
:104BF0007BE080E59FE10F943B5057CB4F925F9253
:104C00006F927F928F929F92AF92BF92CF92DF92DC
:104C1000EF92FF920F931F93CF93DF93CDB7DEB741
:104C2000A7970FB6F894DEBF0FBECDBF29A33AA356
:104C30004BA35CA36DA37EA38FA3522F432F8EA102
:104C40009FA1009759F02FE4A22E22E0B22E0197E7
:104C500049F480E5A82E82E0B82E04C091E5A92E83
:104C600092E0B92E8BA09CA08DA1482E440C550833
:104C7000252F342FFE0131963F018216930661F0F5
:104C8000D5016C9170E0D9018D919C910F9475576D
:104C90006193240D351DF1CF6E167F0651F0AF01E3
:104CA0004619570920E0B301C6010F9441427B0128
:104CB0008C01C801B701A7960FB6F894DEBF0FBEEE
:104CC000CDBFDF91CF911F910F91FF90EF90DF90BB
:104CD000CF90BF90AF909F908F907F906F905F909C
:104CE0004F9008954F925F926F927F928F929F9212
:104CF000AF92BF92CF92DF92EF92FF920F931F93EA
:104D0000CF93DF93CDB7DEB763970FB6F894DEBFCE
:104D10000FBECDBF5C012A013B014901DC011996A0
:104D20008D919C9181309105B1F128F0029709F4A1
:104D30007BC00F940A58FA01CB0195958795880D91
:104D4000991D60FF08C0FC0120813181420E531E75
:104D5000D201ED91FC91D50117964D915C91189778
:104D60006D917C9120E0199563960FB6F894DEBFA3
:104D70000FBECDBFDF91CF911F910F91FF90EF90AC
:104D8000DF90CF90BF90AF909F908F907F906F906B
:104D90005F904F900895C5010E94092C2F87388B92
:104DA000498B5A8B6B8BCF84D888E988FA88062F79
:104DB00010E0F201C30195958795880D991D60FE5D
:104DC00008C0FC0120813181420E531ED201ED91B9
:104DD000FC9120E0A801B60119952B013C01C01AF5
:104DE000D10ACE14DF0439F020E0A801B601C401D5
:104DF0000F944142F2CFC5010E941E2C6401830131
:104E000072010E94FE252B013C01C5010E94342C39
:104E100029833A834B835C836D837E838F838301F5
:104E200072010E94FE25A0CFF5010781108519822D
:104E300060E070E0CB010115110509F495CF20E089
:104E400041E050E0BE016F5F7F4FC4010F944142CB
:104E500001501109F0CF8F929F92AF92BF92CF92E3
:104E6000DF92EF92FF920F931F93CF93DF93CDB713
:104E7000DEB76B970FB6F894DEBF0FBECDBF182F0D
:104E8000CE010C960F944042612FCE0101960E94F4
:104E9000B52740E153E070E060E09E01245F3F4FA2
:104EA000CE0101960E9472266B017C01BE016F5FEC
:104EB0007F4FCE0141960E94E2288BE0FE01719661
:104EC000DE01119601900D928A95E1F78A859B8506
:104ED000039761F088E0882E85E0982EB12CA12CF4
:104EE0009E01245F3F4FB501A401DACF812F0E94BC
:104EF000AC27288539858C01021B130B188A0115F4
:104F0000110579F020E041E050E0BE01605F7F4F85
:104F1000CE010C960F9441426B017C0101501109A6
:104F2000EECFC701B60160957095809590956B9610
:104F30000FB6F894DEBF0FBECDBFDF91CF911F91AA
:104F40000F91FF90EF90DF90CF90BF90AF909F9028
:104F50008F90089580E10895E82FF0E0EE0FFF1F95
:104F6000E055FF4E859194910895DC01603108F081
:104F700027C1E62FF0E08827EF53F84D8F4F0D94AF
:104F8000CA57D1277628EA2706288A281328952881
:104F90001F283528A028BD284F285C28C828692844
:104FA000D32811961C921E9213961C921E92129751
:104FB00014961C92149716961C921E92159718968A
:104FC0001C921E92179783E090E01A969C938E9302
:104FD0001997D1C084EF9AE111969C938E9385E046
:104FE00090E013969C938E93129782E014968C9384
:104FF000149716961C921E92159780E291E01896CF
:105000009C938E93179781E090E0DFCF86E698E13E
:1050100011969C938E9385E090E013969C938E93CB
:10502000129783E0E3CF88ED95E111969C938E93E0
:1050300085E090E013969C938E931297D7CF8AE0E9
:1050400095E111969C938E9383E090E013969C9348
:105050008E93129787E014968C93149716961C9251
:105060001E92159780E590E0CACF8BE293E11196EE
:105070009C938E9381E090E013969C938E9312976D
:1050800028E014962C93149716961C921E9215974E
:1050900020E330E018963C932E93179796CF8DEA35
:1050A00099E111969C938E9385E090E013969C93E2
:1050B0008E9312978BE09ACF8EE693E111969C9394
:1050C0008E9383E090E013969C938E9312978CE0DE
:1050D000C2CF8FE197E111969C938E9385E090E08B
:1050E00013969C938E9312978EE080CF81EE9AE078
:1050F00011969C938E9313961C921E92129781E0A8
:1051000014968C93149716961C921E92159780E80D
:1051100090E029C081E69AE011969C938E931396B5
:105120001C921E92129784E0EBCF81EE99E01196CB
:105130009C938E9313961C921E92129786E0E0CF5A
:1051400081E299E011969C938E9313961C921E9285
:10515000129789E014968C93149716961C921E92BF
:10516000159780EC90E018969C938E9317971A965B
:105170001C921E921997CD01089581E698E0119630
:105180009C938E9313961C921E9212978AE0E2CF04
:1051900081EE97E011969C938E9313961C921E922B
:1051A00012978DE0ADCF83EA94E111969C938E9394
:1051B00083E090E013969C938E9312978FE04BCFF1
:1051C0000F940A58DC01FB01258136818781908587
:1051D000280F391FE481E03108F019C3F0E0882777
:1051E000EB50F74D8F4F0D94CA570529202B1A29E4
:1051F0004129452B5A295C2B7229D929732BA12BC4
:10520000A52ABE2AB82B072BCF2B11961C921E92D3
:1052100013961C921E92129714961C92149716962F
:105220001C921E92159718961C921E92179783E057
:1052300090E0F4C020323140B0F484EF9AE111964E
:105240009C938E9385E090E013969C938E93129797
:1052500082E014968C93149716961C921E921597C2
:1052600080E291E06EC011961C921E9213961C92E1
:105270001E92129782E014968C93149780E291E02C
:105280008FC02032314068F486E698E111969C93F5
:105290008E9385E090E013969C938E93129783E013
:1052A000D8CF11961C921E9213961C921E921297A2
:1052B00083E0E1CF2032314060F488ED95E1119632
:1052C0009C938E9385E090E013969C938E93129717
:1052D000C0CF11961C921E9213961C921E9212978A
:1052E00085E0C9CF20353105A0F48AE095E111961B
:1052F0009C938E9383E090E013969C938E931297E9
:1053000087E014968C93149716961C921E9215970C
:1053100037C0203A3105E0F48CE394E111969C9378
:105320008E9383E090E013969C938E93129787E080
:1053300014968C93149780E590E016969C938E9328
:10534000159718969C938E93179781E090E066C00E
:10535000203F3105C0F481E795E111969C938E932F
:1053600083E090E013969C938E93129787E01496B7
:105370008C93149780EA90E016969C938E931597E1
:1053800080E590E0DECF11961C921E9213961C923F
:105390001E92129787E014968C93149780EF90E0FA
:1053A00016969C938E93159718969C938E931797A9
:1053B0003ECF20333105B0F48BE293E111969C93FC
:1053C0008E9381E090E013969C938E93129728E041
:1053D00014962C93149716961C921E92159720E300
:1053E00030E018C020363105F0F488EE92E11196D5
:1053F0009C938E9381E090E013969C938E931297EA
:1054000028E014962C93149720E330E016963C93F2
:105410002E93159718963C932E9317971A969C9354
:105420008E9319977EC120393105B0F485EA92E157
:1054300011969C938E9381E090E013969C938E93AB
:10544000129728E014962C93149720E630E01696D5
:105450003C932E931597C3CF203C310590F482E600
:1054600092E111969C938E9381E090E013969C9329
:105470008E93129728E014962C93149720E930E02D
:10548000E6CF203F310590F48FE192E111969C9395
:105490008E9381E090E013969C938E93129728E070
:1054A00014962C93149720EC30E0D1CF203281E079
:1054B000380790F48CED91E111969C938E9381E0E6
:1054C00090E013969C938E93129728E014962C9359
:1054D000149720EF30E0BBCF203581E0380790F4FF
:1054E00089E991E111969C938E9381E090E0139667
:1054F0009C938E93129728E014962C93149720E295
:1055000031E0A5CF2038314090F486E591E1119645
:105510009C938E9381E090E013969C938E931297C8
:1055200028E014962C93149720E531E090CF119643
:105530001C921E9213961C921E92129788E014964B
:105540008C93149780E891E02BCF2032314068F49F
:105550008DEA99E111969C938E9385E090E01396E5
:105560009C938E9312978BE074CE11961C921E9290
:1055700013961C921E9212978BE07DCE203531053A
:1055800068F48EE693E111969C938E9383E090E00D
:1055900013969C938E9312978CE0B3CE203A3105EC
:1055A00068F485ED93E111969C938E9383E090E0EF
:1055B00013969C938E9312978CE0BACE283B3105BC
:1055C000C0F48FE291E111969C938E9382E090E07B
:1055D00013969C938E9312978CE014968C93149749
:1055E00080EA90E016969C938E93159788E190E060
:1055F000A8CE11961C921E9213961C921E92129780
:105600008CE014968C93149788EB90E0C9CE2032EE
:10561000314068F48FE197E111969C938E9385E079
:1056200090E013969C938E9312978EE012CE119673
:105630001C921E9213961C921E9212978EE01BCE05
:1056400020383105A0F481EE9AE011969C938E9358
:1056500013961C921E92129781E014968C931497C5
:1056600016961C921E92159780E890E052C01196F3
:105670001C921E9213961C921E92129781E0149611
:105680008C93149780E890E08BCE2038310558F445
:1056900081E69AE011969C938E9313961C921E922B
:1056A000129784E0DACF11961C921E9213961C92E8
:1056B0001E92129784E0E3CF2038310558F481EE32
:1056C00099E011969C938E9313961C921E921297BA
:1056D00086E0C3CF11961C921E9213961C921E92C6
:1056E000129786E0CCCF203C3105E8F481E299E0C6
:1056F00011969C938E9313961C921E92129789E09A
:1057000014968C93149716961C921E92159780EC03
:1057100090E018969C938E9317971A961C921E925F
:105720001997CD01089511961C921E9213961C9202
:105730001E92129789E014968C93149780EC90E057
:105740002FCE203C310558F481E698E011969C93C9
:105750008E9313961C921E9212978AE0D1CF1196C7
:105760001C921E9213961C921E9212978AE0E3CF0F
:105770002038310558F481EE97E011969C938E9372
:1057800013961C921E9212978DE067CF11961C9271
:105790001E9213961C921E9212978DE070CF2035A8
:1057A000310568F483EA94E111969C938E9383E02B
:1057B00090E013969C938E9312978FE0A2CD2F3F8B
:1057C000310509F0B0F481E397E011969C938E9334
:1057D00013961C921E9212978FE014968C93149736
:1057E00080E590E016969C938E93159780EB90E061
:1057F00090CF11961C921E9213961C921E92129795
:105800008FE014968C93149780E091E0C9CD0F94AB
:105810000A58CF93DF9300D01F921F92CDB7DEB707
:10582000FC0162817381808191810F900F900F90B4
:105830000F900F90DF91CF910D94193FCF93DF938D
:1058400000D000D01F92CDB7DEB7FC01628173811A
:105850008081918127960FB6F894DEBF0FBECDBF31
:10586000DF91CF910D94693FCF93DF9300D000D0AB
:105870001F92CDB7DEB7FC01628173818081918177
:1058800027960FB6F894DEBF0FBECDBFDF91CF9144
:105890000D94B53FFC01408151814B5C5F4F2281EB
:1058A0002452220F330BCA01821B930B0895FC0173
:1058B000408151814F5B5F4F22812A52220F330B6F
:1058C000CA01821B930B0895FC0140815181435E04
:1058D0005F4F22812051220F330BCA01821B930B91
:1058E0000895FC01408151814B5D5F4F228124511D
:1058F000220F330BCA01821B930B0895FC014081D8
:1059000051814B5A5F4F22812054220F330BCA0121
:10591000821B930B0895FC01408151814B595F4FCD
:1059200022812854220F330BCA01821B930B089546
:10593000FC01408151814B5A5F4F22812054220F3C
:10594000330BCA01821B930B0895FC0140815181E6
:105950004B595F4F22812854220F330BCA01821BFF
:10596000930B0895FC01408151814B5D5E4F228174
:10597000220F330BCA01821B930B0895FC01408157
:1059800051814B5B5E4F22812051220F330BCA01A4
:10599000821B930B0895CF92DF92EF92FF921F9399
:1059A000CF93DF9300D01F92CDB7DEB7FC01142F49
:1059B000828193818330910509F476C040F481306F
:1059C000910519F1029709F451C00F940A588430D7
:1059D000910509F481C00597C1F785819681681BFF
:1059E000790BE080F180FA82E9827C836B836F3FE0
:1059F000710509F008F4A4C0CE0101966031714030
:105A000008F49BC00E94BE2C22C0858196819B0118
:105A1000281B390BE080F180FA82E9823C832B83DA
:105A20002432310568F4822F66E00F945557EFE079
:105A3000E90FEE0FE21BEE0DFF2DF11D178365C080
:105A4000CE0101962A32310550F00E94572C212FA9
:105A500030E0220F331FFC013183208356C00E94A7
:105A60004A2CF4E61F9F90011124F5CF8581968181
:105A7000681B790BE080F180FA82E9827C836B837A
:105A80006031710558F0CE0101966431710518F04E
:105A90000E94712CDCCF0E94642CE3CFE62FE370D0
:105AA000EA5FEE0FE61BC7CF85819681681B790BF5
:105AB000E080F180FA82E9827C836B836034710537
:105AC000C0F1CE0101966834710518F00E948B2C4C
:105AD000BECF0E947E2CC5CF85819681681B790B35
