:100000000C9462000C948A000C948A000C948A0070
:100010000C948A000C948A000C948A000C948A0038
:100020000C948A000C948A000C948A000C948A0028
:100030000C948A000C948A000C948A000C948A0018
:100040000C946C050C948A000C943A050C941405DD
:100050000C948A000C948A000C948A000C948A00F8
:100060000C94B6050C948A000000000025002800BE
:100070002B0000000000240027002A0000000000E0
:1000800023002600290004040404040404040202DA
:100090000202020203030303030301020408102007
:1000A0004080010204081020010204081020000012
:1000B0000008000201000003040700000000000027
:1000C0000000D50611241FBECFEFD8E0DEBFCDBFA4
:1000D00012E0A0E0B1E0E6E9FBE202C005900D927B
:1000E000A035B107D9F724E0A0E5B2E001C01D9228
:1000F000AB34B207E1F710E0C2E6D0E004C02197CC
:10010000FE010E942915C136D107C9F70E942107B7
:100110000C94C9150C94000008950895AF92BF92F5
:10012000CF92DF92EF92FF920F931F93CF93DF93C3
:100130006C017B018B01040F151FEB015E01AE18F2
:10014000BF08C017D10759F06991D601ED91FC9114
:100150000190F081E02DC6010995892B79F7C50141
:10016000DF91CF911F910F91FF90EF90DF90CF9093
:10017000BF90AF900895FC01538D448D252F30E042
:10018000842F90E0821B930B541710F0CF960895A4
:1001900001970895FC01918D828D981761F0A28DD1
:1001A000AE0FBF2FB11D5D968C91928D9F5F9F7397
:1001B000928F90E008958FEF9FEF0895FC01918D4D
:1001C000828D981731F0828DE80FF11D858D90E0BA
:1001D00008958FEF9FEF0895FC01918D228D892F57
:1001E00090E0805C9F4F821B91098F73992708953F
:1001F00085E793E00E94EC0021E0892B09F420E0E0
:10020000822F089580E090E0892B29F00E94F80069
:1002100081110C9400000895FC01A48DA80FB92F42
:10022000B11DA35ABF4F2C91848D90E001968F731E
:100230009927848FA689B7892C93A089B1898C913D
:10024000837080648C93938D848D981306C002888C
:10025000F389E02D80818F7D80830895EF92FF9256
:100260000F931F93CF93DF93EC0181E0888F9B8DD9
:100270008C8D98131AC0E889F989808185FF15C093
:100280009FB7F894EE89FF896083E889F9898081B6
:100290008370806480839FBF81E090E0DF91CF9185
:1002A0001F910F91FF90EF900895F62E0B8D10E0A7
:1002B0000F5F1F4F0F731127E02E8C8D8E110CC016
:1002C0000FB607FCFACFE889F989808185FFF5CF61
:1002D000CE010E940C01F1CFEB8DEC0FFD2FF11D33
:1002E000E35AFF4FF0829FB7F8940B8FEA89FB899E
:1002F00080818062CFCFCF93DF93EC01888D8823FC
:10030000B9F0AA89BB89E889F9898C9185FD03C078
:10031000808186FD0DC00FB607FCF7CF8C9185FF5D
:10032000F2CF808185FFEDCFCE010E940C01E9CF95
:10033000DF91CF910895833081F028F4813099F0D6
:100340008230A9F008958730A9F08830C9F0843050
:10035000B1F4809180008F7D03C0809180008F7701
:1003600080938000089584B58F7784BD089584B507
:100370008F7DFBCF8091B0008F778093B000089580
:100380008091B0008F7DF9CF1F93CF93DF93282FFB
:1003900030E0F901E255FF4F8491F901E656FF4F35
:1003A000D491F901EA57FF4FC491CC23A9F0162F3D
:1003B00081110E949B01EC2FF0E0EE0FFF1FE85926
:1003C000FF4FA591B4918FB7F894EC91111108C02B
:1003D000D095DE23DC938FBFDF91CF911F910895DD
:1003E000DE2BF8CFCF93DF9390E0FC01E656FF4F72
:1003F00024918A579F4FFC0184918823D1F090E08B
:10040000880F991FFC01EE58FF4FA591B491FC0194
:10041000E859FF4FC591D491623071F49FB7F894B9
:100420003C91822F809583238C93E8812E2B288307
:100430009FBFDF91CF9108958FB7F894EC912E2B49
:100440002C938FBFF6CF1F93CF93DF93182FEB0121
:1004500061E00E94F201209739F460E0812FDF9182
:10046000CF911F910C94C401CF3FD10511F461E0ED
:10047000F5CFE12FF0E0E255FF4FE491E33031F1A9
:1004800040F4E130B1F0E230E1F0C038D1057CF762
:10049000E4CFE73029F1E83059F1E430B1F7809149
:1004A0008000806280938000D0938B00C0938A008C
:1004B00004C084B5806884BDC7BDDF91CF911F9112
:1004C000089584B5806284BDC8BDF7CF8091800057
:1004D000806880938000D0938900C0938800EDCF1E
:1004E0008091B00080688093B000C093B300E5CFE6
:1004F0008091B00080628093B000C093B400DDCFE3
:100500008E50806480937C0080917A008064809318
:100510007A0080917A0086FDFCCF809178009091DE
:10052000790008953FB7F8948091B5029091B60292
:10053000A091B702B091B80226B5A89B05C02F3F85
:1005400019F00196A11DB11D3FBFBA2FA92F982FF9
:100550008827BC01CD01620F711D811D911D42E0F4
:10056000660F771F881F991F4A95D1F7089520912C
:100570009102260F3327331F21323105ECF42091ED
:100580000903FC0190E080E0243069F082E00895E6
:10059000A09191022191AC014F585D4FA40FB52F4E
:1005A000B11D2C930196861798F380919102680FE4
:1005B0006093910280E0089581E00895109209030C
:1005C00081E0809308031092E30261E082E10E94DF
:1005D000C40161E083E10E94C401E9EBF0E08081A5
:1005E0008E7F808380818D7F808388E48093B800B4
:1005F00085E48093BC000895CF93DF9391E09093BE
:1006000070028823B9F0C091B800D091BA008091EF
:10061000BC008A7B8093BC0060E082E10E94C40140
:1006200060E083E10E94C4010E94DE02D093BA0020
:10063000C093B800DF91CF9108950895E091BF0273
:100640008091BE02E81730F4F0E0E05BFD4F80815E
:1006500090E008958FEF9FEF08959091BF028091F1
:10066000BE022FEF3FEF981748F4E92FF0E0E05B70
:10067000FD4F208130E09F5F9093BF02C901089534
:100680008091BE029091BF02891B990B0895CF9271
:10069000DF92EF92FF920F931F93CF93DF937C0132
:1006A000CB018A0120913203222389F0EB016B01F7
:1006B000C40ED51ECC15DD0569F06991D701ED9109
:1006C000FC910190F081E02DC7010995F3CF642FD3
:1006D0000E94B702C801DF91CF911F910F91FF9047
:1006E000EF90DF90CF900895CF93DF931F92CDB717
:1006F000DEB76983209132032223F9F020912F0382
:10070000203258F021E030E0FC013383228390E076
:1007100080E00F90DF91CF91089580913003E82F12
:10072000F0E0E15FFC4F998190838F5F809330030D
:1007300080932F0381E090E0ECCF61E0CE01019641
:100740000E94B702F7CF90E080E00895CF93DF9347
:10075000EC0160E08AE00E94C401DEBD00000DB43F
:1007600007FEFDCFDEB5CEBD00000DB407FEFDCF08
:10077000CEB561E08AE00E94C401CE01DF91CF9145
:100780000895FC0101900020E9F73197AF01481B63
:10079000590BBC0185E793E00C948E008F929F92D9
:1007A000AF92BF920F931F93CF93DF93CDB7DEB776
:1007B000A1970FB6F894DEBF0FBECDBF19A242308D
:1007C00008F44AE08E010F5D1F4F842E912CB12C4E
:1007D000A12CA50194010E949112E62FB901CA0132
:1007E000EA30F4F4E05DD801EE938D01232B242B45
:1007F000252B79F790E080E0109719F0CD010E9449
:10080000C103A1960FB6F894DEBF0FBECDBFDF9136
:10081000CF911F910F91BF90AF909F908F900895AF
:10082000E95CE1CF4F925F926F927F928F929F929D
:10083000AF92BF92CF92DF92EF92FF926B017C0159
:10084000AC019B010E9400158823C1F08AE192E06F
:100850000E94C1037C0186E292E00E94C1038E0DDA
:100860009F1DFF90EF90DF90CF90BF90AF909F9033
:100870008F907F906F905F904F9008954601570141
:10088000E894B7F82FEF3FEF4FE75FE7C501B401FA
:100890000E94001581110DC02FEF3FEF4FE75FE77A
:1008A000C501B4010E942F1318161CF48EE192E0CA
:1008B000CFCF2FEF3FEF4FE75FE4C701B6010E94B4
:1008C0008E1418161CF482E292E0C2CF2FEF3FEF95
:1008D0004FE75FECC701B6010E942F1387FDF3CFEE
:1008E00020E030E0A901C701B6010E942F13B12C0E
:1008F000A12C87FF0AC06DE285E793E00E942E01DC
:100900005C01F7FAF094F7F8F0942AE037ED43EA47
:100910005BE3C701B6010E94C3122B013C010E9498
:10092000AD136B017C010E94DC139B01AC01C30180
:10093000B2010E94C2122B013C014AE0C701B6017C
:100940000E94CE037C01EA0CFB1C6EE285E793E07B
:100950000E942E01E80EF91E20E030E040E251E452
:10096000C301B2010E9493142B013C010E94AD13FC
:100970004B01B12CA12C4AE0C501B4010E94CE0369
:10098000E80EF91EC501B4010E94DC139B01AC0105
:10099000C301B2010E94C21220E030E040E251E403
:1009A0000E9493140E94AD1390E080E04AE00E9400
:1009B000CE03E80EF91E4FCF85ED8093BC008091E9
:1009C0000B0390910C03A0910D03B0910E030796B9
:1009D000A11DB11D23E0B695A795979587952A95FA
:1009E000D1F72091BC0024FD03C0109209030895A3
:1009F00040910B0350910C0360910D0370910E0315
:100A0000452B462B472B69F30097A105B10541F013
:100A10002AE22A95F1F700C00197A109B109E1CFB7
:100A200080910A030C94FC021F920F920FB60F9252
:100A300011242F933F934F935F936F937F938F93E3
:100A40009F93AF93BF93EF93FF9385E793E00E944B
:100A50000C01FF91EF91BF91AF919F918F917F9189
:100A60006F915F914F913F912F910F900FBE0F901B
:100A70001F9018951F920F920FB60F9211242F936B
:100A80008F939F93EF93FF93E0918503F0918603FB
:100A90008081E0918B03F0918C0382FD1BC09081DB
:100AA00080918E038F5F8F7320918F03821741F0A7
:100AB000E0918E03F0E0EB58FC4F958F80938E030E
:100AC000FF91EF919F918F912F910F900FBE0F90FB
:100AD0001F9018958081F4CF1F920F920FB60F923E
:100AE00011242F933F938F939F93AF93BF93809144
:100AF000CB029091CC02A091CD02B091CE02309168
:100B0000B40223E0230F2D3758F50196A11DB11D26
:100B10002093B4028093CB029093CC02A093CD0299
:100B2000B093CE028091B5029091B602A091B70227
:100B3000B091B8020196A11DB11D8093B5029093AA
:100B4000B602A093B702B093B802BF91AF919F9144
:100B50008F913F912F910F900FBE0F901F9018957E
:100B600026E8230F0296A11DB11DD2CF1F920F922E
:100B70000FB60F9211242F933F934F935F936F9370
:100B80007F938F939F93AF93BF93EF93FF93809146
:100B9000B900887F803609F44AC0F0F5883209F43C
:100BA000A7C018F5803109F49BC0B8F4882309F474
:100BB000F9C0883009F494C0FF91EF91BF91AF91D3
:100BC0009F918F917F916F915F914F913F912F9165
:100BD0000F900FBE0F901F901895883109F488C0B0
:100BE000803251F78093070314C0803409F49DC00C
:100BF00040F48033B9F38833F9F68093070385EC2A
:100C0000B0C0803509F485C0883509F496C08834B1
:100C100099F60E94DC04D0CF883909F48CC038F5ED
:100C2000883729F050F4883611F0803729F683E0B0
:100C3000809309031092B30257C0883809F47BC02F
:100C4000803919F0803809F0B7CF8091B302803233
:100C500008F071C0E091B30281E08E0F8093B3027F
:100C60008091BB00F0E0ED56FD4F80833DC0803B9E
:100C700039F0E0F4803A09F479C0883A09F09CCF61
:100C800084E0809309031092920210929102E09105
:100C9000BC02F091BD0209958091910281110FC0B3
:100CA00081E0809391021092710209C0803C09F4A6
:100CB000A6CF883C09F4A3CF883B09F07DCFE09113
:100CC000920281E08E0F80939202F0E0EF58FD4F88
:100CD00080818093BB00909192028091910229C003
:100CE0008091E4028093BB0085EC8093BC0064CFCC
:100CF0009091060380910503981758F5E09106033B
:100D000081E08E0F80930603F0E0EB51FD4F808170
:100D1000E9CFE091060381E08E0F80930603809176
:100D2000BB00F0E0EB51FD4F808390910603809172
:100D300005039817C8F285E8D8CFE091060381E053
:100D40008E0F809306038091BB00F0E0EB51FD4FC6
:100D500080838091080381115CCF81E08093E3025E
:100D600084EA8093BC001092090326CF85EC80931F
:100D7000BC00109209038091B302803230F4E091FC
:100D8000B302F0E0ED56FD4F10826091B30270E0C7
:100D9000E091BA02F091BB0283E992E009951092CA
:100DA000B3020ACF1092070334CFE5E7F3E01382D2
:100DB000128288EE93E0A0E0B0E084839583A6835E
:100DC000B7832AEF31E03183208325EC30E035878B
:100DD000248724EC30E03787268720EC30E0318B05
:100DE000208B21EC30E0338B228B22EC30E0358BF2
:100DF000248B26EC30E0378B268B118E128E138ECF
:100E0000148EE2E1F4E01382128284839583A68338
:100E1000B7838CE092E091838083EEE1F4E0168E5C
:100E2000158E10A2178E11A212A213A214A215A23F
:100E300016A217A210A611A612A613A614A6148E07
:100E40000895CF93DF93CDB7DEB72F970FB6F89401
:100E5000DEBF0FBECDBF789484B5826084BD84B5FB
:100E6000816084BD85B5826085BD85B5816085BDA5
:100E700080916E00816080936E001092810080915D
:100E800081008260809381008091810081608093E5
:100E90008100809180008160809380008091B1000A
:100EA00084608093B1008091B00081608093B00035
:100EB00080917A00846080937A0080917A008260C9
:100EC00080937A0080917A00816080937A0080918B
:100ED0007A00806880937A001092C100EDE3F3E01D
:100EE0008DE2DF011D928A95E9F7EAE6F3E08BE0F7
:100EF000DF011D928A95E9F7E5E3F3E088E0DF0181
:100F00001D928A95E9F7ECEDF2E086E0DF011D9293
:100F10008A95E9F74BE050E070E060E080EC92E009
:100F20000E94761261E08AE00E94F20161E087E0AF
:100F30000E94F20161E085E00E94F20161E086E03A
:100F40000E94F20161E083E00E94F20162E080E130
:100F50000E94F20184E0809381008CE08093B800CD
:100F600061E08AE00E94C40160E087E00E94C40161
:100F700060E085E00E94C40160E086E00E94C40158
:100F800060E083E00E94C40110923C0410923B0494
:100F900010923E0410923D0410923F0410924004BF
:100FA000109241041092420410924304109244049F
:100FB000109245041092460410924704109248047F
:100FC0001092490410924A0410923A0480E091E190
:100FD000A0E0B0E080931E0490931F04A09320042F
:100FE000B093210487E090E0A0E0B0E08093220479
:100FF00090932304A0932404B093250480E096E406
:10100000A0E0B0E08093260490932704A0932804E6
:10101000B093290410922A048FEF80932B0410922E
:101020002C0410922D0410922E0410922F04109272
:101030003004109231041092320410923304109252
:101040003404109235041092360410923704109232
:10105000380410923904EFB6E982F8948091B9020D
:10106000811127C0E0E9F0E08491E4EAF0E0949196
:10107000E82FF0E0EE0FFF1FEE58FF4FA591B4915F
:10108000EC91E92321F461E08AE00E94C40161E06F
:101090008AE00E94F2018CB580618CBD8CB58064C1
:1010A0008CBD61E08DE00E94F20161E08BE00E9466
:1010B000F2018091B9028F5F8093B902F980FFBE7F
:1010C0008CB58C7F81608CBD8DB581608DBD8CB5FC
:1010D0008F7D8CBD8CB5837F84608CBD1092BF02E8
:1010E0001092BE021092300310922F030E94DE0273
:1010F0008CE890E09093BD028093BC028DE890E074
:101100009093BB028093BA02E0918503F09186032D
:1011100082E08083E0918103F09182031082E0916C
:101120008303F091840380E1808310928D03E0912A
:101130008903F0918A0386E08083E0918703F09130
:101140008803808180618083E0918703F091880328
:10115000808188608083E0918703F091880380819B
:1011600080688083E0918703F091880380818F7D80
:1011700080830E9492024B015C01BAEFCB2ED12CEE
:10118000E12CF12C0E949202681979098A099B09C5
:10119000683E734081059105A8F301E0C01AD108AB
:1011A000E108F10818EE810E13E0911EA11CB11C9C
:1011B000C114D104E104F10429F78EE00E948002F9
:1011C00090936F0380936E038FE00E948002909350
:1011D00071038093700385E10E94800290936B03FA
:1011E00080936A0384E10E94800290936D03809350
:1011F0006C03EEEBF0E08491EAEAF0E0E490E9823F
:10120000E6E9F0E0F490FD82FF2089F081110E9470
:101210009B010D81E02FF0E0EE0FFF1FE458FF4F20
:10122000A591B491EC9119811E2381E009F480E02D
:10123000809372032FB7F8948091CB029091CC02E7
:10124000A091CD02B091CE022FBF80934003909326
:101250004103A0934203B0934303A0917003B09164
:10126000710328E833E10E942F152FEF33E040E0AF
:1012700050E00E94911230935E0320935D0379EC5D
:10128000E72E74E0F72EE21AF30AF0925903E09287
:101290005803A0916E03B0916F032EE832E60E94CE
:1012A0002F152FEF33E040E050E00E9491122E0DF9
:1012B0003F1D30935B0320935A0324503942253657
:1012C000394108F408C180915C038F5F80935C030F
:1012D00090913D03843008F400C110925C0391307A
:1012E00009F00FC181E080933D0384E690E0909384
:1012F0006903809368038EE997E0909338038093A5
:10130000370389E7809336031092350310923C032C
:1013100010923F0310923E031092640310926303F5
:1013200010926603109265031092600310925F039F
:1013300010926103109262031092670380915A0326
:1013400090915B03895F9A428B37954150F480916D
:10135000CF028F5F8093CF028A3028F082E08093A3
:101360003D031092CF026091350370E086E00E9449
:101370002302609133037091340383E00E942302BF
:1013800060913B0387E00E94C40160913C0385E0CB
:101390000E94C401E0903703F090380381E080930D
:1013A000320380E6809331031092300310922F03B2
:1013B00060E482E194E00E947403B70184E07695D2
:1013C00067958A95E1F782E194E00E947403B70182
:1013D00094E0660F771F9A95E1F782E194E00E940E
:1013E0007403F0902F03F9820F2D013208F064C7C7
:1013F0000E9492026B017C0180910903811137C721
:1014000082E08093090381E0809308038FEF80934B
:10141000070310920603198110930503AFE0B3E0B0
:10142000E5EEF2E080E0E980E8120C9426121092DA
:10143000E4028091E402806C8093E4028091E302F4
:10144000813011F00C942B121092E3020E94920250
:101450006B017C018091E4028093BB0080910B03BF
:1014600090910C03A0910D03B0910E03892B8A2B50
:101470008B2BA1F00E94920200910B0310910C03A0
:1014800020910D0330910E036C197D098E099F097F
:10149000061717072807390708F40AC78091BC0008
:1014A00083FDD8CF85EC8093BC000E9492026B0133
:1014B0007C0180910903823009F4CFC78091070332
:1014C0008F3F09F4F9C680910703803209F4F4C60E
:1014D00080910703F1C610925C03E0913D03E15057
:1014E000E93008F050C2F0E0E858F54F0C942915A7
:1014F0007209850AA20A670BBA0B2F0CC30CDD0C0C
:10150000E31081E080933D03E8CF82E080933D03C8
:1015100080E098E70E94A6039093600380935F03A6
:1015200098728F3F984259F48091D0028F5F8093D8
:10153000D0028A3008F417CF83E080933D031092E5
:10154000D00211CF83E080933D038091610381300D
:10155000C9F08DE996E50E94A60381E080936103BE
:101560001092D1028091400390914103A0914203D7
:10157000B09143038093480390934903A0934A0397
:10158000B0934B038091400390914103A09142039B
:10159000B0914303409148035091490360914A033D
:1015A00070914B03841B950BA60BB70B86399105E5
:1015B000A105B10508F4D7CE20916A0330916B03E1
:1015C000C90187599109893F910548F560916C03DC
:1015D00070916D03CB018759910985399105F8F414
:1015E0008091D1024091630350916403420F531FD5
:1015F0005093640340936303209165033091660325
:10160000260F371F309366032093650390913B03A9
:1016100021E0922790933B038F5F8093D1028091CA
:10162000D1028A3008F442C0809163039091640330
:101630002AE030E0B9010E941515709364036093AD
:1016400063038091650390916603B9010E941515AB
:10165000709366036093650381E080933B0384E0AD
:1016600080933D0389E292E00E94C103609163038D
:101670007091640390E080E04AE00E94CE0386E22D
:1016800092E00E94C1038DE292E00E94C10360914A
:1016900065037091660390E080E04AE00E94CE030B
:1016A00086E292E00E94C1031092D1028091400331
:1016B00090914103A0914203B0914303809348036A
:1016C00090934903A0934A03B0934B034CCE84E01C
:1016D00080933D03809161038230B9F088E896E5FC
:1016E0000E94A60382E08093610380914003909161
:1016F0004103A0914203B09143038093D20290939F
:10170000D302A093D402B093D502409140035091EC
:10171000410360914203709143038091D202909102
:10172000D302A091D402B091D5027A018B01E81ABC
:10173000F90A0A0B1B0BD801C7018A3F9105A105C5
:10174000B10570F080913C0391E0892780933C03C0
:101750004093D2025093D3026093D4027093D50287
:10176000809172038111FFCD85E080933D0310923B
:101770003C03F9CD85E080933D03C0904003D090B9
:101780004103E0904203F09043039091670395304A
:1017900091F080936703C092D602D092D702E09274
:1017A000D802F092D902C0924403D0924503E0924D
:1017B0004603F092470320915A0330915B03032EB6
:1017C000000C440B550B64E276ED85E090E00E943E
:1017D0009112233208F03FC02093350380914403D7
:1017E00090914503A0914603B0914703970186016C
:1017F000081B190B2A0B3B0BD901C80180379741F5
:10180000A105B10518F086E080933D038091D602D2
:101810009091D702A091D802B091D902A701960168
:10182000281B390B4A0B5B0BDA01C9018436910581
:10183000A105B10508F497CD80913C0391E089277B
:1018400080933C03C092D602D092D702E092D80295
:10185000F092D90288CD82E280933503BFCF86E033
:1018600080933D03C0904003D0904103E090420339
:10187000F0904303909167039630D1F18093670312
:10188000C0924403D0924503E0924603F09247038E
:10189000C0924C03D0924D03E0924E03F0924F035E
:1018A00000915A0310915B031A8309834801110FB9
:1018B000AA08BB0860EC70E28FE190E0A5019401FA
:1018C0000E949112122F60E77EE881E090E0A5016E
:1018D00094010E9491122093DB0229813A81283CD5
:1018E00032430CF054C08FEF8093DA02109335032B
:1018F0008091440390914503A0914603B091470322
:1019000097018601081B190B2A0B3B0BD901C80153
:10191000883E9340A105B10510F180913C0391E010
:10192000892780933C03809135039091DA028917CF
:1019300058F440916C0350916D03209165033091F0
:1019400066034217530770F588E080933D03C09209
:101950004403D0924503E0924603F09247038091FE
:10196000440390914503A0914603B0914703C81AE0
:10197000D90AEA0AFB0A28E9C2162AE3D206E104D8
:10198000F10408F4F0CC81E080933D03ECCC68E3F3
:1019900075E982E390E0A50194010E9491122093E1
:1019A000DA02A4CF2091DB02820F981718F08093FF
:1019B0003503CDCF90933503CACF88E080933D03A4
:1019C00080916703873019F087E0809367038091E7
:1019D0006103823039F088E896E50E94A60382E030
:1019E000809361038091400390914103A091420351
:1019F000B091430389879A87AB87BC878091440362
:101A000090914503A0914603B0914703E984FA847D
:101A10000B851C85E81AF90A0A0B1B0BD801C701B4
:101A20000A97A105B10508F499C180916703873031
:101A300009F024C220906C0330906D032101032C27
:101A4000000C660877088091650390916603092E63
:101A5000000CAA0BBB0B481A590A6A0A7B0A209190
:101A60001E0430911F04409120045091210421153F
:101A700031054105510509F4C5C1C301B2010E94F8
:101A8000051569837A838B839C83009122041091CE
:101A9000230420912404309125040115110521050A
:101AA000310509F4E3C158016901E12CF12C00E092
:101AB00010E09201A301D301C201BB0F880B982F44
:101AC000DC018D839E83AF83B8876D81762F862F4F
:101AD000962F0E943615A0903F04B0904004C0900D
:101AE0004104D0904204E0904304F09044040091FB
:101AF0004504109146040E94AB1579018A012F3FDD
:101B0000EFEF3E074E07EFE75E07610571058105C0
:101B1000910509F00CF47BC18FEF80933F04809313
:101B20004004809341048FE7809342041092430461
:101B3000109244041092450410924604E0903F0431
:101B4000F0904004009141041091420460912604F9
:101B500070912704809128049091290461157105E2
:101B60008105910509F486C180904704909048044E
:101B7000A0904904B0904A04A301920128193909A0
:101B80004A095B0949015A0140913B0450913C04C8
:101B9000D101A41BB50B9D01BB0F440B550B30921B
:101BA0003C0420923B0440924704509248046092C7
:101BB000490470924A04821A930AA40AB50A81144D
:101BC000B0E89B06BFEFAB06BB0634F4812CF0E80F
:101BD0009F2EAA24AA94BA2CA50194012115E0E80D
:101BE0003E074105510524F02FEF3FE740E050E06C
:101BF0000E9405152B013C0189809A80AB80BC8036
:101C0000BB0C8808982C5401A8019701550F220B92
:101C1000322FA9012D833E834F83588729813A8132
:101C20004B815C81682D782D882D982D5701680196
:101C3000ED80FE2C0E2D1E2D0E94AB15830172012E
:101C4000110FEE08FE2C8701E982FA820B831C83B8
:101C500052016301E980FE2C0E2D1E2D0E94AB1552
:101C600019012A013B0189839D83E0912A04809018
:101C70002B0490902C04A0912D04AF87B0912E04DA
:101C8000BD87B0912F04A0913004F0913104AE2EA5
:101C9000B82CC92CDF84ED84FB2E0A2F1F2F0E9445
:101CA000B41509F054F5E09132048090330490901B
:101CB0003404F0913504FF87A0913604AD87B091CC
:101CC0003704A0913804F09139042E2F382D492D76
:101CD0005F856D857B2F8A2F9F2F510162017301D4
:101CE00009811D810E94B41544F4E22D832C942CAB
:101CF0005F866D86B72DA02FF12F2E2F382D492D01
:101D00005F856D857B2F8A2F9F2F08E00E948E159F
:101D100029833A832E2F207830E040E050E060E0C5
:101D200070E080E090E0A0E00E94BD1529F0E9811C
:101D3000FA813196FA83E983F981F093350381E0E2
:101D400080933C03E984FA840B851C85E09244036C
:101D5000F092450300934603109347038091480394
:101D600090914903A0914A03B0914B0309851A85CC
:101D70002B853C85081B190B2A0B3B0BD901C8018D
:101D80004197A105B10508F4EECA80E098E70E94EA
:101D9000A6039093600380935F0398728F3F9842ED
:101DA00009F471C0809162038F5F80936203833076
:101DB00058F084E090E09093600380935F0389E0A3
:101DC00080933D031092620380913D03893009F4B2
:101DD00079C160916A0370916B03E0906303F090A6
:101DE0006403FA82E9826E157F0509F053C084E628
:101DF00090E0909369038093680304E610E01A83EF
:101E00000983FCC019821A821B821C823ECE2115D6
:101E100031054105E0E85E07EFEF6E077E078E07AC
:101E20009E078CF020933F04F092400440934104BD
:101E300010934204609343047093440480934504D8
:101E4000909346047BCE10923F041092400410926F
:101E5000410480E8809342048FEF80934304809391
:101E60004404809345048093460468CEE12CF12C11
:101E700087016CCE412C512C3201BECE109235031D
:101E800010923C035FCF82E090E0909360038093D8
:101E90005F0398CF072E000C880B990B0E94DE136E
:101EA00020E030E040EA50E40E94931420E030EC5F
:101EB0004FE754E40E9434136B017C0109811A81BD
:101EC000B80190E080E00E94DC1320E030E040EABE
:101ED00050E40E94931420E030EC4FE754E40E9459
:101EE00034139B01AC01C701B6010E94C2122091BC
:101EF0006103C12CD12C58E8E52E51E4F52E223097
:101F000029F4C12CD12CE12C41E4F42E20E030E066
:101F10004AE754E40E9493144B015C012AE939E931
:101F200047E752E4C701B6010E9493149B01AC013C
:101F3000C501B4010E94341320E030E04AE754E4C4
:101F40000E9493140E94A6138B017093DD0260938C
:101F5000DC02613328EF72070CF4BCC26A3C38E043
:101F600073070CF0AEC230E0232E31E0332E40E395
:101F700051E05A874987C12CD12C7601CB01770FCC
:101F8000AA0BBB0B8D839E83AF83B887A985BA85C7
:101F9000ED91FD91BA87A987FA83E9830E171F0790
:101FA00009F0A0C0D1016D917C91072E000C880B27
:101FB000990B0E94DE136B017C01F2E02F0E311CA5
:101FC0002EE531E049855A852417350749F020E090
:101FD00030E0A901C701B6010E942F138823B1F296
:101FE000C701B6010E94A6137A83698370936903BF
:101FF00060936803643471050CF476C2A981BA81D8
:1020000009811A810938110514F0A8E8B0E02AEF17
:1020100036E10E942F1524E630E040E050E00E94B7
:10202000911269017A01AFEFB0E00E948612645507
:102030007E498D40910928E833E140E050E00E945C
:10204000911220933603AFEFBFE0A70196010E94E3
:1020500086126455724B8A4D910928E833E140E0BD
:1020600050E00E9491123093380320933703698126
:102070007A81660F771FE980FA806E0D7F1D072E2B
:10208000000C880B990B0E94DE1320E030E842E33D
:1020900053E40E94C2120E94A613683171050CF429
:1020A00088C070933403609333038091330390911D
:1020B0003403843E910534F083EE90E09093340332
:1020C0008093330390917203913009F079C080912D
:1020D000E2028F5F8093E202833008F4E7CA9093B4
:1020E0003D03E4CAE981FA810E171F070CF465CF9E
:1020F000A985BA856D917C91601771070CF45DCF4D
:10210000072E000C880B990B0E94DE132B013C015B
:10211000F10162817381072E000C880B990B0E94DC
:10212000DE134B015C01D1016D917C91072E000CF7
:10213000880B990B0E94DE139B01AC01C501B40111
:102140000E94C2126B017C01E981FA81BF01FF0F7D
:10215000880B990B0E94DE139B01AC01C301B201F5
:102160000E94C2129B01AC01C701B6010E94341348
:102170006B017C01AC019B01C301B2010E9493146D
:102180009B01AC01C501B4010E94C2124B015C016C
:102190006D817E818F8198850E94DE13A701960153
:1021A0000E9493149B01AC01C501B4010E94C312AB
:1021B00002CF88E190E0909334038093330375CF8E
:1021C0001092E20273CA84E690E0909369038093D0
:1021D00068038EE997E0909338038093370389E78B
:1021E000809336031092350360913303709134036A
:1021F00083E00E942302409140035091410360918B
:102200004203709143038091540390915503A09130
:102210005603B09157038A019B01081B190B2A0B27
:102220003B0BD901C801843F9140A105B105C8F01D
:1022300080915F0390916003049759F490913B0360
:1022400021E0922790933B0380913C038227809367
:102250003C0340935403509355036093560370938B
:10226000570380917203813009F07DC88CCB809137
:102270000B0390910C03A0910D03B0910E03892BD9
:102280008A2B8B2B09F4B8C80E94920200910B0391
:1022900010910C0320910D0330910E036C197D09F0
:1022A0008E099F09061717072807390708F0A4C8E1
:1022B00080910A030E94FC021092300310922F03B7
:1022C000109232038091400390914103A091420308
:1022D000B0914303409150035091510360915203D8
:1022E00070915303841B950BA60BB70B8639910590
:1022F000A105B10508F49AC090913D03913029F4ED
:1023000080913B03892780933B0381E392E00E9405
:10231000C10380913D030FE0809FC0011124805ACA
:102320009E4F0E94C10386E292E00E94C10387E3B0
:1023300092E00E94C10360915A0370915B03072EE3
:10234000000C880B990B0E94DE1320E030E04AE776
:1023500054E40E9434130E9412048FE392E00E941E
:10236000C103C0903303D09034030D2C000CEE0851
:10237000FF084AE0C701B601F7FE0DC06DE285E730
:1023800093E00E942E0166277727CB016C197D0907
:102390008E099F094AE00E94CE0386E292E00E94E5
:1023A000C10384E492E00E94C103609168037091CC
:1023B0006903072E000C880B990B0E94DE1320E0A6
:1023C00030E048EC52E40E9434130E9412048091E1
:1023D0005F039091600398728F3F984209F05FC04D
:1023E00084E492E00E94C1036091680370916903E4
:1023F000072E000C880B990B0E94DE1320E030E0C2
:1024000048EC52E40E9434130E941204809140036D
:1024100090914103A0914203B091430380935003F4
:1024200090935103A0935203B093530380E090E044
:10243000892B11F40C94DD080E94F800882311F414
:102440000C94DD080E9400000C94DD089D9191938E
:102450008F5F0C94130A85EE26C880910B03909130
:102460000C03A0910D03B0910E03892B8A2B8B2BAB
:1024700009F41FC80E94920200910B0310910C03F3
:1024800020910D0330910E036C197D098E099F096F
:10249000061717072807390708F00BC809CF8CE47F
:1024A00092E00E94C10360915F037091600390E02D
:1024B00080E040E10E94CE0386E292E00E94C103E8
:1024C000A5CF83EF93E0909369038093680303EFB4
:1024D00013E095CC81E490E09093690380936803C6
:1024E00001E410E01A830983A4E490CDDC01CB0160
:1024F000FC01F999FECF06C0F2BDE1BDF89A319614
:1025000000B40D9241505040B8F708950E94B312A4
:10251000A59F900DB49F900DA49F800D911D112437
:102520000895A1E21A2EAA1BBB1BFD010DC0AA1F14
:10253000BB1FEE1FFF1FA217B307E407F50720F02C
:10254000A21BB30BE40BF50B661F771F881F991FA7
:102550001A9469F760957095809590959B01AC01F0
:10256000BD01CF010895A29FB001B39FC001A39FF9
:10257000700D811D1124911DB29F700D811D1124BC
:10258000911D08955058BB27AA270E94DA120C9477
:1025900054140E94461438F00E944D1420F039F46F
:1025A0009F3F19F426F40C9443140EF4E095E7FBD6
:1025B0000C943D14E92F0E94651458F3BA17620772
:1025C00073078407950720F079F4A6F50C94871417
:1025D0000EF4E0950B2EBA2FA02D0B01B90190013E
:1025E0000C01CA01A0011124FF27591B99F0593F82
:1025F00050F4503E68F11A16F040A22F232F342FCA
:102600004427585FF3CF469537952795A795F04017
:102610005395C9F77EF41F16BA0B620B730B840B2C
:10262000BAF09150A1F0FF0FBB1F661F771F881FE4
:10263000C2F70EC0BA0F621F731F841F48F487953C
:1026400077956795B795F7959E3F08F0B0CF93952E
:10265000880F08F09927EE0F9795879508950E94A7
:10266000191408F481E008950E9448130C9454143E
:102670000E944D1458F00E94461440F029F45F3F28
:1026800029F00C943D1451110C9488140C944314AB
:102690000E94651468F39923B1F3552391F3951BB8
:1026A000550BBB27AA2762177307840738F09F5F73
:1026B0005F4F220F331F441FAA1FA9F335D00E2EE0
:1026C0003AF0E0E832D091505040E695001CCAF74D
:1026D0002BD0FE2F29D0660F771F881FBB1F261710
:1026E00037074807AB07B0E809F0BB0B802DBF01E7
:1026F000FF2793585F4F3AF09E3F510578F00C94B6
:102700003D140C9488145F3FE4F3983ED4F386950F
:1027100077956795B795F7959F5FC9F7880F911DD6
:102720009695879597F90895E1E0660F771F881FC2
:10273000BB1F621773078407BA0720F0621B730B75
:10274000840BBA0BEE1F88F7E09508950E94AD1335
:102750006894B1110C94881408950E946D1488F047
:102760009F5798F0B92F9927B751B0F0E1F0660F55
:10277000771F881F991F1AF0BA95C9F714C0B13096
:1027800091F00E948714B1E008950C948714672F8C
:10279000782F8827B85F39F0B93FCCF386957795C5
:1027A0006795B395D9F73EF49095809570956195AE
:1027B0007F4F8F4F9F4F0895E89409C097FB3EF4D9
:1027C00090958095709561957F4F8F4F9F4F99237E
:1027D000A9F0F92F96E9BB279395F69587957795FC
:1027E0006795B795F111F8CFFAF4BB0F11F460FFBC
:1027F0001BC06F5F7F4F8F4F9F4F16C0882311F014
:1028000096E911C0772321F09EE8872F762F05C027
:10281000662371F096E8862F70E060E02AF09A95C2
:10282000660F771F881FDAF7880F9695879597F9B7
:102830000895990F0008550FAA0BE0E8FEEF161651
:102840001706E807F907C0F012161306E407F507A4
:1028500098F0621B730B840B950B39F40A2661F018
:10286000232B242B252B21F408950A2609F4A140BB
:10287000A6958FEF811D811D089597F99F6780E8C8
:1028800070E060E008959FEF80EC089500240A94C2
:102890001616170618060906089500240A9412163B
:1028A0001306140605060895092E0394000C11F46E
:1028B000882352F0BB0F40F4BF2B11F460FF04C01B
:1028C0006F5F7F4F8F4F9F4F089557FD9058440F74
:1028D000551F59F05F3F71F04795880F97FB991F7F
:1028E00061F09F3F79F0879508951216130614063C
:1028F000551FF2CF4695F1DF08C0161617061806C9
:10290000991FF1CF86957105610508940895E894A3
:10291000BB2766277727CB0197F908950E941914E2
:1029200008F48FEF08950E94A6140C9454140E948A
:10293000461438F00E944D1420F0952311F00C94A9
:102940003D140C94431411240C9488140E946514B3
:1029500070F3959FC1F3950F50E0551F629FF001F2
:10296000729FBB27F00DB11D639FAA27F00DB11D0B
:10297000AA1F649F6627B00DA11D661F829F222794
:10298000B00DA11D621F739FB00DA11D621F839F1B
:10299000A00D611D221F749F3327A00D611D231FF1
:1029A000849F600D211D822F762F6A2F11249F573F
:1029B00050409AF0F1F088234AF0EE0FFF1FBB1F42
:1029C000661F771F881F91505040A9F79E3F510501
:1029D00080F00C943D140C9488145F3FE4F3983E0F
:1029E000D4F3869577956795B795F795E7959F5FAB
:1029F000C1F7FE2B880F911D9695879597F908953D
:102A00000E941914880B990B0895DB018F939F93F3
:102A10000E948612BF91AF91A29F800D911DA39F2E
:102A2000900DB29F900D11240895AA1BBB1B51E17C
:102A300007C0AA1FBB1FA617B70710F0A61BB70B2E
:102A4000881F991F5A95A9F780959095BC01CD01D3
:102A50000895EE0FFF1F0590F491E02D09940E9458
:102A6000B312B7FF0895821B930B0895DF93CF93A2
:102A70001F930F939A9DF02D219FF00D8B9DF00DCC
:102A80008A9DE02DF10D039FF00D029FE00DF11DD9
:102A90004E9DE00DF11D5E9DF00D4F9DF00D7F935D
:102AA0006F93BF92AF925F934F93D5010E94B31281
:102AB0008B01AC01D7010E94B312EB01E80FF91FA3
:102AC000D6010E9485152F913F91D6010E94B31225
:102AD000C60FD71FE81FF91FAF91BF910E94851540
:102AE0002F913F910E94B312C60FD71FE81FF91F05
:102AF000D6010E94B312E60FF71F9801BE01CF0165
:102B00000F911F91CF91DF9108950E94B312460F4C
:102B1000571FC81FD91F08F43196089597FD1094C8
:102B2000002E083098F00850232F342F452F562FB1
:102B3000672F782F892F912DF4CF1594979587952E
:102B40007795679557954795379527950A95AAF7ED
:102B50001124002D08952A0D3B1D4C1D5D1D6E1D79
:102B60007F1D801F911F08952A153B054C055D05AB
:102B70006E057F058007910708950024A7FD009446
:102B80002A17300540055005600570058005900541
:062B90000895F894FFCF48
:102B9600410046004B005000520055005A005F00AD
:102BA600610063006400650069006E0071007500D5
:102BB6008E00AA00C700F30055011B02EE02F303C4
:102BC60030F8BEF925FB61FCE0FC74FD6BFE49FFA5
:102BD60096FFD8FF00000F006100C100FA0049010E
:102BE6009F02AA037E046905A406D0076608CA08E0
:102BF600494E56414C494400000000000000005078
:102C06005245534554000000000000000000535494
:102C16004152540000000000000000000043414CF7
:102C26004942524154494F4E0000000049444C4528
:102C36000000000000000000000000434F4E444525
:102C46004E534154494F4E000000505245484541AD
:102C5600540000000000000000504944000000003D
:102C6600000000000000000052554E4E494E47003D
:102C7600000000000000004552524F5200000000C4
:102C8600000000000000000000002E018E00BB00C6
:102C96007B01EC00CA00DE0000000000740347035D
:102CA600A3031D0340032D031E036E616E00696EB0
:102CB60066006F7666000D0A0055413A0055523A95
:102CC600004D6F64653A00537570706C793A005028
:102CD600574D3A004C616D6264613A00436A3A00AE
:00000001FF
