:020000040000FA
:100000000C9416110D940A090D94DF080D94B40890
:100010000D9489080D945E080D9433080D9408081A
:100020000D94DD070C9447110C9447110C94471163
:100030000C9447110C9447110C9447110C94FC9BA1
:100040000C9447110C947EDE0C9494DC0C94345781
:100050000C9447110C9447110C9447110D94C5173B
:100060000C9447110D94770A0D944D0A0C94471186
:100070000C9447110C9447110C9447110C944711A0
:100080000C945B990C94D5980C944F980C94471150
:100090000C9447110C9447110C9447110C94471180
:1000A0000C9447110C9447110C9461940C94C997CB
:1000B0000C9487930C9447110C9447110C94EF9671
:1000C0000C9415960C943B950C9447110C94471185
:1000D0000C9447110C9447110D94170A0D94ED09D7
:1000E0000C9447110D946D030C9434870C9423A742
:1000F0000C94B1440C94DEA70C941E850D946E3CB8
:100100000C9492FB0C94EDCB0C944AA70D94063CF6
:100110000C9429A70C9459930C9484FC0C94741F90
:100120000C94EAA70C94E0920C949ACC0C94E37D86
:100130000C94C9F00C948ADA0C94B5DA0C94F3A7F9
:100140000C94A4890C94A8890C942AA60C94981851
:100150000C94EDFB0C9413B30C940E210C941630FC
:100160000C94CEEF0C94B68A0C9426A70D948703BA
:100170000C9426FB0D9401100C941C140C94F81F85
:100180000C9438700C9409AD0C9486830C94AE8555
:100190000D942B020C94D5920C94A8FC0C9444A7BB
:1001A0000C94CFA70C946F930D946B390D94483930
:1001B0000C9455F10C9458FF0D942E100C9405A737
:1001C0000C9414590C947C7D0C942EF00C94358A6C
:1001D0000C94AF550C94A5FC0C946FFD0D940C1071
:1001E0000C9451FA0C944F5B0D943C100C949DFEB2
:1001F0000C94D5590C94258A0C948E860C94EC8919
:100200000C9481A70C9465EE0C9486A60D9460095D
:100210000C94F8390C9402A70C94B0890D941C002E
:100220000C9465A70C94BD260C94968F0C946AEFE1
:100230000C9473CA0D94B2020C94AEA70C9440B403
:100240000C9497180C9418830C9413A60C94BB7BF5
:100250000C948ACC0C94FA1F0D948A090D942B03EC
:100260000D94E4020C9420130C94ACEF0C94B2F0B7
:100270000C94CB780D946D020C943EFA0C94FA8594
:100280000C94DBA70C949C8F0D9474040C94A0FA2E
:100290000C94A48F0C940E840C942C560C94A17F77
:1002A0000C94DFA60C94AA8F0C944AEC0C94FAA739
:1002B0000C942C930C94182E0C949B180D9462099A
:1002C0000C9486EC0C9442860D9437100C9428DA2A
:1002D0000C94B2AE0C9435A70C94D0DA0C941AA7F7
:1002E0000C94781F0C948B1F0C94AE8F0C9459397E
:1002F0000C943FAD0C943EA70C9465FD0C949DF0BE
:100300000C94FFCB0C9417FA0C9443930C949A3FE3
:100310000C943FA60C94ACDA0C94FAD90D944002DC
:100320000D9428030D94E6000C944FA60C94A4722F
:100330000C9436FB0C94D7CA0C9436A60C949F737D
:100340000C941FA60C94E4A70C9459CA0C94F08941
:100350000C94318A0D943E040C945DFB0C941CA605
:100360000C946EFA0C9463310C94E2860C94DD5C70
:100370000D9497040C948C870C94AEFC0C945EF155
:100380000C940CA60D94FD0F0C9490A70C94EE8683
:100390000C9441160C948DA70C94E4890C94354769
:1003A0000C944CEE0C94BDFE0C940D7D0C94F57ADF
:1003B0000C94397F0C9452590C94D51E0C945A7E8F
:1003C0000C9466850C94A47C0C9440870C94342B7C
:1003D0000C94C7DA0C94C9560C9402F00D9498034F
:1003E0000C94D14A0C94CF2E0D94D1090C94A3DA1D
:1003F0000C94B7A70C940CA80C94E4FB0C9456A78F
:100400000D94B8020C940FA80C946B790C94E7C966
:100410000C94D2A70C94A0180C9420150C9442466E
:100420000D9459020C9414A80C94FDEE0C942D8A92
:100430000C9433A60C947DB60C94698A0C94F692B5
:100440000C9414A70C9426A60C9417E20C9418197B
:100450000C94BBA60C94B1160C942CA70C940638E3
:100460000C94E8890C9460B00C94A68F0C946F5E89
:100470000C94F7A70D9434050C940BA70C9449A683
:100480000C94BF330C9431550C9470550C94928697
:100490000C9404DA0C94E1B50C949FEF0C943BA7F8
:1004A0000D9481050C94E2B90C94E6810C94785675
:1004B0000C946ADF0C94EB920C94B0160C940BCA5B
:1004C0000C9422F10C945EA60C94F3780D948304A2
:1004D0000C9428500C94A8A70C94F5D90C94D91E10
:1004E0000C94F3A60C94BF600C94287A0C9420A76B
:1004F0000C94F4360C94B0700C94DDCB0C94F6850F
:100500000C940DDA0C944B400C94CAFA0C945F5C7A
:100510000C94E8B40C94BAB80D944E000C9450B7F7
:100520000C94C9A70C94CCA70C94F2850C94F8FDFC
:100530000C94E2710C949E180C94F9A60C9483EF21
:100540000C9444FC0C9416DA0C94D6B00C94B28A39
:100550000C94F0A70C94A2A70C94BCC90C94A5A76A
:100560000C94FD190C94B9F00C94F6A60C94F0863A
:100570000C942F7C0C9427FD0C9458A60C941471A9
:100580000C94EA860C9450A70C945FEC0C9494DACB
:100590000C94A5280C94D8A70D9420100D94310329
:1005A0000D9416100C948A860C9493A70C946ABA36
:1005B0000C94F28A0C944CA60C94308B0C94BD7B5A
:1005C0000C941EED0C949F180D94A5040C946CF0E3
:1005D0000C946F780C9499A70D9482090C94F5EF04
:1005E0000C9403200C945B560C947EA70C94B8EEEC
:1005F0000C940FF00C94B1A70C9411A70C94FCA6CA
:100600000C9472FC0C94D1290C9400170C942DFBC3
:100610000C9419A60D942E030D9431020C94C5432D
:100620000C949E1A0C9442B50C94EDA60C94D5FC37
:100630000C9431F10C94EE8A0C94ABFC0C948AA7C8
:100640000C9403A80C9400A80C94F1F00C949E8FC9
:100650000C94F6150C9464A60C9446FA0C9438A7E6
:100660000C944E930D94FF000C943FCA0C949D186B
:100670000C94064C0C9487A70C942FA70C942DB8BF
:100680000C949FA70C94758A0C9427B10D94241098
:100690000D9446040C946AAC0C94E6860C94517349
:1006A0000C94384D0C94E1A70C9456F00C94798A74
:1006B0000C943AF10C9446DF0C94AE8A0D94B5027A
:1006C0000D947A020C94925F0C945FA70C9441A74E
:1006D0000C949E860C9462A70C945CA70C94B25A5E
:1006E0000C94721F0C9446860C947BA70C941DA747
:1006F0000D944D3A0C94E7A70C94298A0C94FDA70D
:100700000C94813E0C9468220C942DA60D945E09E5
:100710000C948AEE0C945F180C949FEC0C94C5DF3B
:100720000C944F8B0C94F68A0C94ABF00C94B8EFAD
:100730000C9461A60C94DA840C9462850C94BEDA55
:100740000C9484870C9469FC0D94C83B0C94F9F0CC
:100750000C94F41F0D94C4090C9417A70C948FB239
:100760000C946B890C9434160C940D730C94524FAA
:100770000C94AC8F0C94E57D0C9400200C949FFCA1
:100780000D9496090D9458030C94CA790C949178A1
:100790000C94BC320C94F0A60C94A2FC0C948887A8
:1007A0000C9484A70D94BD020C9435CC0C94EAED06
:1007B0000C9424FB0C94BAA70C9452A60C9461F0F0
:1007C0000C944D5A0D944B090C94D5A70C943C876E
:1007D0000D94303C0C9414EF0C94C07E0C949A86CB
:1007E0000C946D8A0C940D930C94EDA70C94B4A703
:1007F0000D941C100C94CEA60D9432100C9489B755
:100800000C94BDA70C949C180C94E8EF0C94A28F48
:100810000C94FC1F0C94C4580C947BFC0C94E34285
:100820000C94C4150C948F450C94A88F0C94EAFA80
:100830000C94B0AF0C9433FB0C9442560C9455A618
:100840000C94603C0C94E33D0C94FE880C94877AE5
:100850000C9432A70D9412100C94928F0D94580999
:100860000C9442A60C9439A60C946F890C943E8685
:100870000C9458110D948D020C94DEE00C949FFFA3
:100880000C9499180C94C3FA0D9447040C9408A77F
:100890000C94A9A60D94E7040C9425CA0C9473DF5C
:1008A0000D945A090C943CA60C94FFA60C947ACC97
:1008B0000C94FB240D94B8090C94C0A70C94C3A706
:1008C0000C9439F00C9496A70D94BE460C9453A743
:1008D0000C947B930D9478030C94C6A70D94A309F4
:1008E0000C9421FD0C94163D0D94C3020D94091037
:1008F0000C9430A60C94D5A60C94E6EE0C94388794
:100900000D9425030C945C7B0C94AC890C949A1880
:100910000C9443F10C9447A70C9487F70C94A08F88
:100920000C9430FB0C9487FC0D94C0020D941C04B5
:100930000C945CDA0C94B7EC0C944CF10C940EA76C
:100940000D9498020C9457FC0C945BA60D94EA004D
:100950000D94A7020C94AA850C94988F0C949A8FEE
:100960000C94CA920C94718A0C9438930C94BE9295
:100970000C9496840C9437890C94785D0C9403EE57
:100980000D942A100C94F2180C9486B30C946617EC
:100990000C9452DA0C94EE550C9492180C949CA77B
:1009A0000C9407180D94B4070C9416A60C94B08FF1
:1009B0000C94344E0C9422A60D94F70F0C943389AA
:1009C0000C941AF10C94948F0C94F9BA0C9409A815
:1009D0000C9498AD0C94A1EE0C94AF160C94BA8ABA
:1009E0000C94E7A60C9452FB0C94DD3B0C9406A8E7
:1009F0000C9423F00C9452350C949FE10D94381014
:100A00000D94DF3A0D9405100C9447AB0C94A81884
:100A10000C94FE1F0C9459A70C9482510C949BFBD0
:100A20000D9456090C9460FC0C94E2A60C942A7860
:100A30000C9464930C94ABA70C945E180C94FFB1C7
:100A40000C94A3F00C944DA70C9401930C949686EF
:100A50000C94A5FA040E11161A1C212A2C2E3032E1
:100A60003436383A3C3E40424446484C4E5052564A
:100A7000585A5D5F63686F797D5265736574206352
:100A80006F6E74726F6C2069732063757272656E1D
:100A9000746C792064697361626C65642E00436FC5
:100AA0006D6D732068616C7465642E204E6578747A
:100AB00020627974652077696C6C20726573657447
:100AC000207468652041726475696E6F2E00005352
:100AD0007065656475696E6F20323032332E313047
:100AE00000737065656475696E6F20323032333122
:100AF0003000000030303200FF0A50616765206826
:100B00006173206E6F74206265656E20696D706C14
:100B1000656D656E74656420796574000A426F6F57
:100B20007374206C6F6F6B7570207461626C6500FC
:100B30000A326E642049676E6974696F6E204D6178
:100B400070000A326E64204675656C204D6170003D
:100B50000A50616765203920436667000A5472694C
:100B60006D2031205461626C65000A565654204D48
:100B70006170000A426F6F7374204D6170000A50FB
:100B800067203620436F6E666967000A414652202F
:100B90004D6170000A5067203420436667000A499F
:100BA000676E6974696F6E204D6170000A5067202E
:100BB0003220436667000A5645204D6170000A3DA9
:100BC0003D3D436F6D6D616E642048656C703D3DC9
:100BD0003D0A0A416C6C20636F6D6D616E64732019
:100BE0006172652073696E676C652063686172610C
:100BF0006374657220616E642061726520636F6E3C
:100C0000636174656E6174656420776974682074CB
:100C10006865697220706172616D657465727320B8
:100C20000A776974686F7574207370616365732ED9
:100C300053796E7461783A20203C636F6D6D616EFC
:100C4000643E2B3C706172616D65746572313E2B40
:100C50003C706172616D65746572323E2B3C7061EF
:100C600072616D657465724E3E0A0A3D3D3D4C6988
:100C70007374206F6620436F6D6D616E64733D3DCC
:100C80003D0A0A41202D20446973706C61797320FC
:100C90003331206279746573206F662063757272D8
:100CA000656E745374617475732076616C756573C9
:100CB00020696E2062696E61727920286C697665A0
:100CC0002064617461290A42202D204275726E20D1
:100CD00063757272656E74206D617020616E642040
:100CE000636F6E666967506167652076616C7565D4
:100CF0007320746F20656570726F6D0A43202D201C
:100D00005465737420434F4D20706F72742E2020F1
:100D1000557365642062792054756E6572737475BD
:100D200064696F20746F20736565207768657468E7
:100D3000657220616E20454355206973206F6E20D7
:100D40006120676976656E2073657269616C200A3F
:100D500020202020706F72742E2052657475726E80
:100D60007320612062696E617279206E756D6265B3
:100D7000722E0A4E202D205072696E74206E657797
:100D8000206C696E652E0A50202D205365742063F7
:100D9000757272656E7420706167652E20205379BC
:100DA0006E7461783A2020502B3C706167654E75F7
:100DB0006D6265723E0A52202D2053616D6520617F
:100DC00073204120636F6D6D616E640A53202D2086
:100DD000446973706C6179207369676E61747572B0
:100DE00065206E756D6265720A51202D2053616D0C
:100DF00065206173205320636F6D6D616E640A56C8
:100E0000202D20446973706C6179206D6170206FB2
:100E10007220636F6E666967506167652076616CEA
:100E200075657320696E2062696E6172790A572058
:100E30002D20536574206F6E65206279746520697A
:100E40006E206D6170206F7220636F6E66696750EF
:100E50006167652E20204578706563747320626930
:100E60006E61727920706172616D65746572732E46
:100E7000200A2020202053796E7461783A20205770
:100E80002B3C6F66667365743E2B3C6E65776279AA
:100E900074653E0A74202D205365742063616C696B
:100EA00062726174696F6E2076616C7565732E2055
:100EB00020457870656374732062696E6172792071
:100EC000706172616D65746572732E202054616269
:100ED0006C6520696E646578206973206569746843
:100EE000657220302C200A20202020312C206F72A7
:100EF00020322E202053796E7461783A2020742B92
:100F00003C74626C655F6964783E2B3C6E65775615
:100F1000616C7565313E2B3C6E657756616C75650D
:100F2000323E2B3C6E657756616C75654E3E0A5AB3
:100F3000202D20446973706C61792063616C696253
:100F4000726174696F6E2076616C7565730A5420E6
:100F50002D20446973706C617973203235362074AA
:100F60006F6F7468206C6F6720656E74726965734B
:100F700020696E2062696E6172790A72202D2044A8
:100F80006973706C6179732032353620746F6F74B9
:100F900068206C6F6720656E74726965730A5520EE
:100FA0002D205072657061726520666F72206669CF
:100FB000726D77617265207570646174652E20545E
:100FC0006865206E65787420627974652072656347
:100FD00065697665642077696C6C206361757365FB
:100FE000207468652041726475696E6F20746F208B
:100FF00072657365742E0A3F202D20446973706CEE
:1010000061797320746869732068656C7020706101
:101010006765002C2000575545004F3200496E6C23
:1010200065742074656D7000436F6F6C616E740041
:10103000526573657420636F6E74726F6C20697390
:101040002063757272656E746C7920646973616275
:101050006C65642E00436F6D6D732068616C746500
:10106000642E204E65787420627974652077696CEF
:101070006C207265736574207468652041726475B4
:10108000696E6F2E004552523B20496E636F72723B
:1010900065637420454550524F4D2073697A650051
:1010A00030303200200020002000200020202020AE
:1010B000000000800020012001800020018000F05D
:1010C000008001C000C0002001C00080002001009D
:1010D0000100000000963007772C610EEEBA51092E
:1010E0009919C46D078FF46A7035A563E9A39564F7
:1010F0009E3288DB0EA4B8DC791EE9D5E088D9D20F
:10110000972B4CB609BD7CB17E072DB8E7911DBF6A
:10111000906410B71DF220B06A4871B9F3DE41BE89
:10112000847DD4DA1AEBE4DD6D51B5D4F4C785D3F0
:101130008356986C13C0A86B647AF962FDECC9659C
:101140008A4F5C0114D96C0663633D0FFAF50D08F4
:101150008DC8206E3B5E10694CE44160D5727167AA
:10116000A2D1E4033C47D4044BFD850DD26BB50AF4
:10117000A5FAA8B5356C98B242D6C9BBDB40F9BC1C
:10118000ACE36CD832755CDF45CF0DD6DC593DD170
:10119000ABAC30D9263A00DE518051D7C81661D0A9
:1011A000BFB5F4B42123C4B3569995BACF0FA5BDEA
:1011B000B89EB802280888055FB2D90CC624E90B8E
:1011C000B1877C6F2F114C6858AB1D61C13D2D66F6
:1011D000B69041DC760671DB01BC20D2982A10D58E
:1011E000EF8985B1711FB5B606A5E4BF9F33D4B8AA
:1011F000E8A2C9077834F9000F8EA8099618980E4E
:10120000E1BB0D6A7F2D3D6D08976C6491015C63B5
:10121000E6F4516B6B62616C1CD83065854E0062E0
:10122000F2ED95066C7BA5011BC1F4088257C40F33
:10123000F5C6D9B06550E9B712EAB8BE8B7C88B95B
:10124000FCDF1DDD62492DDA15F37CD38C654CD4AF
:10125000FB5861B24DCE51B53A7400BCA3E230BB2D
:10126000D441A5DF4AD795D83D6DC4D1A4FBF4D6AF
:10127000D36AE96943FCD96E34468867ADD0B8605B
:10128000DA732D0444E51D03335F4C0AAAC97C0DB3
:10129000DD3C710550AA41022710100BBE86200CC0
:1012A000C925B56857B3856F2009D466B99FE46135
:1012B000CE0EF9DE5E98C9D9292298D0B0B4A8D74D
:1012C000C7173DB359810DB42E3B5CBDB7AD6CBAA9
:1012D000C02083B8EDB6B3BF9A0CE2B6039AD2B180
:1012E000743947D5EAAF77D29D1526DB048316DC27
:1012F00073120B63E3843B64943E6A6D0DA85A6AD3
:101300007A0BCF0EE49DFF099327AE000AB19E072A
:101310007D44930FF0D2A3088768F2011EFEC20637
:10132000695D5762F7CB67658071366C19E7066BAC
:101330006E761BD4FEE02BD3895A7ADA10CC4ADDC4
:10134000676FDFB9F9F9EFBE8E43BEB717D58EB020
:1013500060E8A3D6D67E93D1A1C4C2D83852F2DFBA
:101360004FF167BBD16757BCA6DD06B53F4B36B220
:1013700048DA2B0DD84C1B0AAFF64A0336607A04C4
:1013800041C3EF60DF55DF67A8EF8E6E3179BE692C
:10139000468CB361CB1A8366BCA0D26F2536E26857
:1013A0005295770CCC03470BBBB91602222F2605AA
:1013B00055BE3BBAC5280BBDB2925AB42B046AB3D2
:1013C0005CA7FFD7C231CFD0B58B9ED92C1DAEDE26
:1013D0005BB0C2649B26F263EC9CA36A750A936DB2
:1013E00002A906099C3F360EEB856707721357006A
:1013F00005824ABF95147AB8E2AE2BB17B381BB692
:101400000C9B8ED2920DBED5E5B7EFDC7C21DFDBE5
:101410000BD4D2D38642E2D4F1F8B3DD686E83DA1E
:101420001FCD16BE815B26B9F6E177B06F7747B75F
:1014300018E65A0888706A0FFFCA3B06665C0B0103
:1014400011FF9E658F69AE62F8D3FF6B6145CF6C6B
:101450001678E20AA0EED20DD75483044EC2B3032D
:1014600039612667A7F71660D04D476949DB776E6B
:101470003E4A6AD1AEDC5AD6D9660BDF40F03BD883
:101480003753AEBCA9C59EBBDE7FCFB247E9FFB5DF
:10149000301CF2BDBD8AC2BACA3093B353A6A3B4FE
:1014A000240536D0BA9306D7CD2957DE54BF67D965
:1014B000232E7A66B3B84A61C4021B685D942B6F11
:1014C0002A37BE0BB4A18E0CC31BDF055A8DEF0269
:1014D0002D0000000041311B1982623632C3532DAA
:1014E0002B04C56C6445F4777D86A75A56C7964190
:1014F0004F088AD9C849BBC2D18AE8EFFACBD9F4E0
:10150000E30C4FB5AC4D7EAEB58E2D839ECF1C98AF
:10151000875112C24A1023D953D370F4789241EF05
:101520006155D7AE2E14E6B537D7B5981C9684838F
:101530000559981B8218A9009BDBFA2DB09ACB366F
:10154000A95D5D77E61C6C6CFFDF3F41D49E0E5AAF
:10155000CDA2248495E3159F8C2046B2A76177A97C
:10156000BEA6E1E8F1E7D0F3E82483DEC365B2C5A7
:10157000DAAAAE5D5DEB9F464428CC6B6F69FD70C7
:1015800076AE6B3139EF5A2A202C09070B6D381CC7
:1015900012F33646DFB2075DC6715470ED30656BED
:1015A000F4F7F32ABBB6C231A275911C8934A007A7
:1015B00090FBBC9F17BA8D840E79DEA92538EFB257
:1015C0003CFF79F373BE48E86A7D1BC5413C2ADEC7
:1015D00058054F79F0447E62E9872D4FC2C61C54EE
:1015E000DB018A159440BB0E8D83E823A6C2D9384F
:1015F000BF0DC5A0384CF4BB218FA7960ACE968D9F
:10160000130900CC5C4831D7458B62FA6ECA53E1AE
:1016100077545DBBBA156CA0A3D63F8D88970E9604
:10162000915098D7DE11A9CCC7D2FAE1EC93CBFA4E
:10163000F55CD762721DE6796BDEB554409F844F2E
:101640005958120E161923150FDA7038249B4123AE
:101650003DA76BFD65E65AE67C2509CB576438D07B
:101660004EA3AE9101E29F8A1821CCA73360FDBC46
:101670002AAFE124ADEED03FB42D83129F6CB209A6
:1016800086AB2448C9EA1553D029467EFB687765A6
:10169000E2F6793F2FB7482436741B091D352A120C
:1016A00004F2BC534BB38D485270DE657931EF7E46
:1016B00060FEF3E6E7BFC2FDFE7C91D0D53DA0CB36
:1016C000CCFA368A83BB07919A7854BCB13965A7A6
:1016D000A84B98833B0AA99822C9FAB50988CBAED2
:1016E000104F5DEF5F0E6CF446CD3FD96D8C0EC28E
:1016F0007443125AF3022341EAC1706CC1804177EE
:10170000D847D7369706E62D8EC5B500A584841B2D
:10171000BC1A8A41715BBB5A6898E87743D9D96C87
:101720005A1E4F2D155F7E360C9C2D1B27DD1C008D
:101730003E120098B9533183A09062AE8BD153B55D
:101740009216C5F4DD57F4EFC494A7C2EFD596D92D
:10175000F6E9BC07AEA88D1CB76BDE319C2AEF2AD8
:1017600085ED796BCAAC4870D36F1B5DF82E2A46A5
:10177000E1E136DE66A007C57F6354E8542265F3D5
:101780004DE5F3B202A4C2A91B6791843026A09F45
:1017900029B8AEC5E4F99FDEFD3ACCF3D67BFDE86F
:1017A000CFBC6BA980FD5AB2993E099FB27F3884A5
:1017B000ABB0241C2CF115073532462A1E73773145
:1017C00007B4E17048F5D06B513683467A77B25D45
:1017D000634ED7FACB0FE6E1D2CCB5CCF98D84D7E6
:1017E000E04A1296AF0B238DB6C870A09D8941BB0D
:1017F00084465D2303076C381AC43F1531850E0EED
:101800002842984F6703A9547EC0FA795581CB626C
:101810004C1FC538815EF423989DA70EB3DC961546
:10182000AA1B0054E55A314FFC996262D7D853790C
:10183000CE174FE149567EFA50952DD77BD41CCC5C
:1018400062138A8D2D52BB963491E8BB1FD0D9A06C
:1018500006ECF37E5EADC265476E91486C2FA053D7
:1018600075E836123AA90709236A5424082B653F04
:1018700011E479A796A548BC8F661B91A4272A8AF4
:10188000BDE0BCCBF2A18DD0EB62DEFDC023EFE664
:10189000D9BDE1BC14FCD0A70D3F838A267EB2914E
:1018A0003FB924D070F815CB693B46E6427A77FD04
:1018B0005BB56B65DCF45A7EC5370953EE76384864
:1018C000F7B1AE09B8F09F12A133CC3F8A72FD2464
:1018D0009300000000376AC2016ED4840359BE46EB
:1018E00002DCA80907EBC2CB06B27C8D0485164F3B
:1018F00005B851130E8F3BD10FD685970DE1EF55EB
:101900000C64F91A095393D8080A2D9E0A3D475CC6
:101910000B70A3261C47C9E41D1E77A21F291D605A
:101920001EAC0B2F1B9B61ED1AC2DFAB18F5B5691E
:1019300019C8F23512FF98F713A626B111914C730E
:1019400010145A3C152330FE147A8EB8164DE47AE2
:1019500017E0464D38D72C8F398E92C93BB9F80B1A
:101960003A3CEE443F0B84863E523AC03C655002FE
:101970003D58175E366F7D9C3736C3DA3501A9189E
:101980003484BF5731B3D59530EA6BD332DD0111C2
:101990003390E56B24A78FA925FE31EF27C95B2D76
:1019A000264C4D62237B27A0222299E62015F324A2
:1019B0002128B4782A1FDEBA2B4660FC29710A3E22
:1019C00028F41C712DC376B32C9AC8F52EADA2371E
:1019D0002FC08D9A70F7E75871AE591E739933DC9A
:1019E000721C2593772B4F517672F11774459BD556
:1019F0007578DC897E4FB64B7F16080D7D2162CF4E
:101A00007CA4748079931E4278CAA0047AFDCAC669
:101A10007BB02EBC6C87447E6DDEFA386FE990FA9D
:101A20006E6C86B56B5BEC776A025231683538F3C1
:101A300069087FAF623F156D6366AB2B6151C1E9E9
:101A400060D4D7A665E3BD6464BA0322668D69E0FD
:101A50006720CBD74817A115494E1F534B79759175
:101A60004AFC63DE4FCB091C4E92B75A4CA5DD9859
:101A70004D989AC446AFF00647F64E4045C12482C1
:101A8000444432CD4173580F402AE649421D8C8BA5
:101A9000435068F154670233553EBC755709D6B7B9
:101AA000568CC0F853BBAA3A52E2147C50D57EBE85
:101AB00051E839E25ADF53205B86ED6659B187A4BD
:101AC000583491EB5D03FB295C5A456F5E6D2FAD79
:101AD0005F801B35E1B771F7E0EECFB1E2D9A573B6
:101AE000E35CB33CE66BD9FEE73267B8E5050D7AF7
:101AF000E4384A26EF0F20E4EE569EA2EC61F46033
:101B0000EDE4E22FE8D388EDE98A36ABEBBD5C6902
:101B1000EAF0B813FDC7D2D1FC9E6C97FEA906551A
:101B2000FF2C101AFA1B7AD8FB42C49EF975AE5CE2
:101B3000F848E900F37F83C2F2263D84F01157464E
:101B4000F1944109F4A32BCBF5FA958DF7CDFF4F16
:101B5000F6605D78D95737BAD80E89FCDA39E33E9A
:101B6000DBBCF571DE8B9FB3DFD221F5DDE54B37B2
:101B7000DCD80C6BD7EF66A9D6B6D8EFD481B22DDE
:101B8000D504A462D033CEA0D16A70E6D35D1A2406
:101B9000D210FE5EC527949CC47E2ADAC64940183E
:101BA000C7CC5657C2FB3C95C3A282D3C195E8115E
:101BB000C0A8AF4DCB9FC58FCAC67BC9C8F1110B5A
:101BC000C9740744CC436D86CD1AD3C0CF2DB9025A
:101BD000CE4096AF9177FC6D902E422B921928E95A
:101BE000939C3EA696AB546497F2EA2295C580E09A
:101BF00094F8C7BC9FCFAD7E9E9613389CA179FA0E
:101C00009D246FB598130577994ABB319B7DD1F31D
:101C10009A3035898D075F4B8C5EE10D8E698BCFD5
:101C20008FEC9D808ADBF7428B82490489B523C6FD
:101C30008888649A83BF0E5882E6B01E80D1DADCB1
:101C40008154CC938463A651853A1817870D72D5B9
:101C500086A0D0E2A997BA20A8CE0466AAF96EA4FD
:101C6000AB7C78EBAE4B1229AF12AC6FAD25C6AD95
:101C7000AC1881F1A72FEB33A6765575A4413FB779
:101C8000A5C429F8A0F3433AA1AAFD7CA39D97BE61
:101C9000A2D073C4B5E71906B4BEA740B689CD82F9
:101CA000B70CDBCDB23BB10FB3620F49B155658BB9
:101CB000B06822D7BB5F4815BA06F653B8319C917D
:101CC000B9B48ADEBC83E01CBDDA5E5ABFED34983D
:101CD000BE000000006567BCB88BC809AAEEAFB5AE
:101CE000125797628F32F0DE37DC5F6B25B938D739
:101CF0009DEF28B4C58A4F087D64E0BD6F01870160
:101D0000D7B8BFD64ADDD86AF23377DFE056106322
:101D1000589F571950FA30A5E8149F10FA71F8AC83
:101D200042C8C07BDFADA7C76743087275266FCE78
:101D3000CD707FAD951518112DFBB7A43F9ED0181F
:101D40008727E8CF1A428F73A2AC20C6B0C9477A62
:101D5000083EAF32A05BC88E18B5673B0AD000873B
:101D6000B26938502F0C5FEC97E2F059858797E500
:101D70003DD1878665B4E03ADD5A4F8FCF3F283397
:101D8000778610E4EAE37758520DD8ED4068BF51EA
:101D9000F8A1F82BF0C49F97482A30225A4F579E3B
:101DA000E2F66F497F9308F5C77DA740D518C0FCC0
:101DB0006D4ED09F352BB7238DC518969FA07F2AD7
:101DC000271947FDBA7C204102928FF410F7E848AA
:101DD000A83D58149B583FA823B6901D31D3F7A1B6
:101DE000896ACF76140FA8CAACE1077FBE8460C3AE
:101DF00006D270A05EB7171CE659B8A9F43CDF15EF
:101E00004C85E7C2D1E0807E690E2FCB7B6B487793
:101E1000C3A20F0DCBC768B17329C704614CA0B82A
:101E2000D9F5986F4490FFD3FC7E5066EE1B37DAED
:101E3000564D27B90E284005B6C6EFB0A4A3880CAE
:101E40001C1AB0DB817FD767399178D22BF41F6ED3
:101E50009303F7263B66909A83883F2F91ED589322
:101E600029546044B43107F80CDFA84D1EBACFF1F5
:101E7000A6ECDF92FE89B82E4667179B54027027A6
:101E8000ECBB48F071DE2F4CC93080F9DB55E745DB
:101E9000639CA03F6BF9C783D3176836C1720F8A62
:101EA00079CB375DE4AE50E15C40FF544E2598E8B5
:101EB000F673888BAE16EF3716F84082049D273EE6
:101EC000BC241FE92141785599AFD7E08BCAB05C9B
:101ED000333BB659ED5ED1E555B07E5047D519EC90
:101EE000FF6C213B62094687DAE7E932C8828E8EB1
:101EF00070D49EED28B1F951905F56E4823A315882
:101F00003A83098FA7E66E331F08C1860D6DA63A86
:101F1000B5A4E140BDC186FC052F2949174A4EF5FD
:101F2000AFF376223296119E8A78BE2B981DD997F0
:101F3000204BC9F4782EAE48C0C001FDD2A5664141
:101F40006A1C5E96F779392A4F97969F5DF2F123C6
:101F5000E505196B4D607ED7F58ED162E7EBB6DEF5
:101F60005F528E09C237E9B57AD9460068BC21BCF8
:101F7000D0EA31DF888F56633061F9D622049E6A39
:101F80009ABDA6BD07D8C101BF366EB4AD530908CE
:101F9000159A4E721DFF29CEA511867BB774E1C735
:101FA0000FCDD91092A8BEAC2A461119382376A5B8
:101FB000807566C6D810017A60FEAECF729BC97379
:101FC000CA22F1A457479618EFA939ADFDCC5E118E
:101FD0004506EE4D766389F1CE8D2644DCE841F866
:101FE0006451792FF9341E9341DAB12653BFD69A42
:101FF000EBE9C6F9B38CA1450B620EF01907694CE9
:10200000A1BE519B3CDB3627843599929650FE2E1B
:102010002E99B95426FCDEE89E12715D8C7716E18C
:1020200034CE2E36A9AB498A1145E63F0320818381
:10203000BB7691E0E313F65C5BFD59E949983E55A8
:10204000F12106826C44613ED4AACE8BC6CFA9375B
:102050007E38417FD65D26C36EB389767CD6EECAC4
:10206000C46FD61D590AB1A1E1E41E14F38179A809
:102070004BD769CB13B20E77AB5CA1C2B939C67E20
:102080000180FEA99CE59915240B36A0366E511CE3
:102090008EA7166686C271DA3E2CDE6F2C49B9D344
:1020A00094F081040995E6B8B17B490DA31E2EB1C9
:1020B0001B483ED2432D596EFBC3F6DBE9A6916760
:1020C000511FA9B0CC7ACE0C749461B966F10605A3
:1020D000DE537065656475696E6F206373783032A6
:1020E0003031392E380000002100240027002A005A
:1020F0002D003000330001010000040107010A0136
:1021000000002200250028002B002E0031003400A2
:1021100002010000050108010B010000200023005E
:10212000260029002C002F003200000100000301CE
:10213000060109010505050507050808080802024A
:1021400002020A0A08080404040401010101010151
:1021500001010303030303030303040707070C0C34
:102160000C0C0C0C0C0C02020202060606060606FB
:1021700006060B0B0B0B0B0B0B0B010210202008A0
:1021800008102040102040800201020108040201D2
:102190000102040810204080804020100804020141
:1021A000800402018040201008040201080402019A
:1021B0000102040810204080010204081020408021
:1021C00000000A0B02090C0D0E08070304010000B1
:1021D00000000000000000000000000000000000FF
:1021E00000000000000000000000000012111000BC
:1021F00000000000000000000000000000000000DF
:10220000000000000000537065656475696E6F2002
:10221000323032332E313000737065656475696E0B
:102220006F203230323331300000640411241FBE7D
:10223000CFEFD1E2DEBFCDBF00E00CBF12E0A0E0E7
:10224000B2E0E4EDF7E902E00BBF02C007900D92A7
:10225000AE37B107D9F720E2AEE7B2E001C01D9278
:10226000AD34B207E1F711E1C6E1D1E100E006C00B
:1022700021970109802FFE010F94BE4BC531D10774
:1022800080E00807A9F70F9461180D94E84B0C94AF
:1022900000008091302087709EEF980F923010F0F0
:1022A000863029F480916F00886080936F000895D4
:1022B0008F929F92AF92BF92CF92DF92EF92FF9256
:1022C0000F931F93CF93DF9300D000D000D01F92C5
:1022D000CDB7DEB7E091501DEC71EC3031F4809158
:1022E000491D24E230E081FF02C030E020E000918F
:1022F000441D1091451D8091280B9091290B801B46
:10230000910B6AE070E00F944C49615071092C5DAB
:102310003F4F261737070CF4ECC07C836B838B810F
:102320009C811816190624F0820F931F9C838B83BF
:102330008B819C812817390714F43C832B8380916F
:10234000FF0490910005801B910B6AE070E00F94F0
:102350004C4961507109261737070CF4CDC07E83B4
:102360006D838D819E811816190624F0820F931FAC
:102370009E838D838D819E812817390714F43E83B7
:102380002D838091FD049091FE04801B910B6AE0E7
:1023900070E00F944C4961507109261737070CF40F
:1023A000AEC078876F838F8198851816190624F040
:1023B000820F931F98878F838F81988528173907FD
:1023C00014F438872F838091FB049091FC04801BC8
:1023D000910B6AE070E00F944C4961507109261727
:1023E00037070CF48FC07A87698789859A85181614
:1023F000190624F0820F931F9A87898789859A8509
:102400002817390714F43A87298720913707309124
:1024100038074091390750913A07BE01675F7F4FF7
:10242000EC3009F072C0A0913B07B0913C070091DD
:102430003D0710913E07490184E2880E911C5A0124
:1024400084E2A80EB11C7D0184E2E80EF11C680153
:1024500084E2C80ED11CFE013196828193818217DD
:102460009307A9F08417950791F08A179B0779F0D5
:102470008017910761F08815990549F08A159B0529
:1024800031F08E159F0519F08C159D0519F40197F3
:102490009383828332966E177F07F9F68B819C8136
:1024A00090930B0680930A068D819E819093090676
:1024B000809308068F81988590930706809306067F
:1024C00089859A8590930506809304062A960FB60F
:1024D000F894DEBF0FBECDBFDF91CF911F910F915A
:1024E000FF90EF90DF90CF90BF90AF909F908F9034
:1024F0000895621B730B11CF621B730B30CF621BED
:10250000730B4FCF621B730B6ECFFE01319682812E
:1025100093818217930719F08417950719F401978F
:102520009383828332966E177F0789F7B7CF8091A6
:10253000290790912A07439760F181E090E09093FA
:102540002A07809329078091650790916607A091DB
:102550006707B09168078093250790932607A0939B
:102560002707B09328078091F0059091F105A0917D
:10257000F205B091F3058093650790936607A093E9
:102580006707B09368078091240791E089278093BB
:1025900024078091501D8C718C3029F08091700C33
:1025A00080738033E9F58091DF0C9091E00C892BEA
:1025B00001F58091491D81FD1CC08091BD1E8823BD
:1025C00049F18091BD1E882391F180912F1F909138
:1025D000301FA091311FB091321F0196A11DB11D76
:1025E00080932F1F9093301FA093311FB093321F01
:1025F000089581E08093BD1E80915D1F8F7E809342
:102600005D1F80914C1D8F77E1F61092E00C1092C7
:10261000DF0CD7CF80915D1F806180935D1FD1CF8C
:1026200081E08093BD1E80915D1F8F7EF6CF10925A
:102630002F1F1092301F1092311F1092321F0895D9
:10264000EF92FF920F931F93CF93DF930091531D4F
:102650008091501D8C718C3021F48091491D202F68
:1026600081FD20E0E090441DF090451D6091D10A6D
:102670007091D20A8091280B9091290B8E199F0995
:102680000F944C496150710910E030E0F901E00FFE
:10269000F11FE617F7070CF0ADC06E1B7F0BC09162
:1026A0002B07D0912C07C617D70720F4061717075A
:1026B0000CF0BE012C0F3D1F2617370708F4B90197
:1026C00070930B0660930A066091D10A7091D20A4A
:1026D0008091FF04909100058E199F090F944C4939
:1026E00061507109E617F7070CF08BC06E1B7F0B6A
:1026F000C617D70720F4061717070CF0BE012617D8
:10270000370708F4B90170930906609308067093BF
:102710003D1F60933C1F6091D10A7091D20A809155
:10272000FD049091FE048E199F090F944C4961504D
:102730007109E617F7070CF06BC06E1B7F0BC6170D
:10274000D70720F4061717070CF0BE012617370726
:1027500008F4B90170930706609306066091D10AE8
:102760007091D20A8091FB049091FC048E199F090C
:102770000F944C4961507109E617F7070CF04FC0F0
:102780006E1B7F0BC617D70720F4061717070CF030
:10279000BE012617370708F4B90170930506609348
:1027A00004066091D10A7091D20A8091F904909147
:1027B000FA048E199F090F944C4961507109E6176C
:1027C000F707A4F56E1B7F0BC617D70720F4061773
:1027D00017070CF0BE012617370708F4B9017093EC
:1027E000E7056093E605DF91CF911F910F91FF9070
:1027F000EF900895161617060CF451CF6E0F7F1F39
:102800004ECF161617060CF473CF6E0F7F1F70CFC6
:10281000161617060CF493CF6E0F7F1F90CF161667
:1028200017060CF4AFCF6E0F7F1FACCF161617062E
:102830005CF26E0F7F1FC8CF2091531D8091501DF9
:102840008C718C3021F48091491D322F81FD30E054
:10285000E091441DF091451D6091D10A7091D20A1A
:102860008091280B9091290B8E1B9F0B0F944C4944
:1028700061507109230F3327331F161617060CF406
:102880009FC0620F731FCB0141978230910508F4FE
:102890009EC042978230910508F49CC042970297EF
:1028A00008F49BC06734710514F066E470E070931F
:1028B0000B0660930A066091D10A7091D20A80914A
:1028C000FF04909100058E1B9F0B0F944C496150A3
:1028D0007109161617060CF483C0620F731FCB0123
:1028E00041978230910508F482C042978230910569
:1028F00008F480C04297029708F47FC067347105DE
:1029000014F066E470E07093090660930806609125
:10291000D10A7091D20A8091FD049091FE048E1B21
:102920009F0B0F944C4961507109161617060CF451
:1029300067C0620F731FCB0141978230910508F485
:1029400066C042978230910508F464C042970297AE
:1029500008F463C06734710514F066E470E07093A6
:102960000706609306066091D10A7091D20A8091A1
:10297000FB049091FC048E1B9F0B0F944C496150FB
:102980007109161617060CF44BC0620F731FCB01AA
:1029900041978230910508F44AC0429782309105F0
:1029A00008F448C04297029708F447C0673471059D
:1029B00014F066E470E070930506609304060895D1
:1029C000261737070CF05FCF621B730B5CCF60E1FB
:1029D00070E06DCF62E270E06ACF64E370E067CFD1
:1029E000261737070CF07BCF621B730B78CF60E1A3
:1029F00070E089CF62E270E086CF64E370E083CF5D
:102A0000261737070CF097CF621B730B94CF60E14A
:102A100070E0A5CF62E270E0A2CF64E370E09FCFE8
:102A2000261737070CF0B3CF621B730BB0CF60E1F2
:102A300070E0C1CF62E270E0BECF64E370E0BBCF74
:102A4000CF93DF938091501D8C718C3021F4809155
:102A5000491D24E281FD20E0C091441DD091451D17
:102A60006091D10A7091D20A8091280B9091290B24
:102A70008C1B9D0B0F944C496150710930E0F9019A
:102A8000B496E617F7070CF065C06E1B7F0B8091BC
:102A90002B0790912C07280F391F2617370708F4AA
:102AA000B90170930B0660930A066091D10A709188
:102AB000D20A8091FF04909100058C1B9D0B0F940E
:102AC0004C4961507109E617F7070CF04AC06E1BBC
:102AD0007F0B2617370708F4B90170930906609336
:102AE00008066091D10A7091D20A8091FD049091FC
:102AF000FE048C1B9D0B0F944C4961507109E61725
:102B0000F707B4F56E1B7F0B2617370708F4B901DA
:102B100070930706609306066091D10A7091D20AFD
:102B20008091FB049091FC048C1B9D0B0F944C49ED
:102B300061507109E617F7070CF56E1B7F0B26171E
:102B4000370708F4B9017093050660930406DF9116
:102B5000CF910895161617060CF499CF6E0F7F1FAC
:102B600096CF161617060CF4B4CF6E0F7F1FB1CF99
:102B7000161617064CF26E0F7F1FC6CF16161706D5
:102B8000F4F26E0F7F1FDBCF8091F41E8930CCF4FE
:102B900081E090E090930B0680930A0685E090E038
:102BA000909309068093080689E090E090930706C9
:102BB000809306068DE090E09093050680930406CE
:102BC000089580E190E090930B0680930A0684E0DC
:102BD00090E0909309068093080688E090E0909337
:102BE0000706809306068CE090E0E6CFE091F206BF
:102BF000F091F30680819091F106892371F0809124
:102C0000BD1E811111C08DE090E090932A07809342
:102C1000290781E08093BD1E08958091BD1E81111A
:102C200015C085E090E0F1CF8091290790912A07A7
:102C30000D9759F080916C1F8F5F80936C1F8DE012
:102C400090E090932A07809329070895809129079F
:102C500090912A070597C9F380916C1F8F5F80932D
:102C60006C1F85E090E0EDCF8AE090E090930B063A
:102C700080930A068CE190E0909309068093080601
:102C8000089580916E0C807F803421F58091F41E30
:102C90008A306CF484E290E090930B0680930A06ED
:102CA00080E190E0909309068093080608958431AE
:102CB0001CF483E290E0F0CF8E311CF482E290E0CD
:102CC000EBCF8FE190E090930B0680930A068DE0A6
:102CD00090E0E8CF803609F041C08091F41E24E2F4
:102CE00030E08A3024F08431ACF423E230E03093D9
:102CF0000B0620930A0629E030E030930906209362
:102D000008068A3004F587E190E0909307068093E7
:102D10000606089522E230E08E3134F02FE130E0F3
:102D2000883214F421E230E030930B0620930A0637
:102D300026E030E030930906209308068E3134F403
:102D400085E190E0E2CF86E190E0DFCF88321CF4AD
:102D500084E190E0DACF83E190E0D7CF0895089541
:102D600008959091F41E8091501D8C718C3081F5E6
:102D70009A30CCF08CE090E090930B0680930A069A
:102D800083E090E0909309068093080686E090E047
:102D9000909307068093060689E090E090930506DD
:102DA00080930406089581E090E090930B06809351
:102DB0000A0684E090E0909309068093080687E075
:102DC00090E090930706809306068AE090E0E6CFB5
:102DD0009A306CF086E090E090930B0680930A06A0
:102DE00083E090E09093090680930806089581E0BF
:102DF00090E090930B0680930A0684E090E0F2CF77
:102E00008091280B9091290B2091441D3091451DF4
:102E1000AC0144505109241735070CF04BC0821BFC
:102E2000930B97FD019695958795049790930B06C4
:102E300080930A068091FF0490910005AC014450F4
:102E4000510924173507CCF5821B930B97FD01968A
:102E5000959587950497909309068093080680912D
:102E6000FD049091FE04AC0144505109241735072C
:102E70003CF5821B930B97FD0196959587950497DA
:102E800090930706809306068091FB049091FC04C2
:102E9000AC014450510924173507ACF4821B930B45
:102EA00097FD0196959587950497909305068093D5
:102EB0000406089580539D4FB2CF80539D4FC4CFD9
:102EC00080539D4FD6CF80539D4FE8CFCF92DF9256
:102ED000EF92FF928091BD1E882309F495C08091E6
:102EE000E60C9091E70CA091E80CB091E90C892BCD
:102EF0008A2B8B2B09F488C08091D30A9091D40A35
:102F0000A091D50AB091D60A892B8A2B8B2B09F474
:102F10007BC080912F1F9091301FA091311FB091E5
:102F2000321F0297A105B10508F04CC0F89420911A
:102F3000E60C3091E70C4091E80C5091E90C80913F
:102F4000D30A9091D40AA091D50AB091D60A281B31
:102F5000390B4A0B5B0BA4EBB0E00F94E449609390
:102F6000670B7093680B8093690B90936A0B78944E
:102F7000C090670BD090680BE090690BF0906A0BE3
:102F800060E077E883E993E0A70196010F94934905
:102F9000C901803526E4920720F08091BE1E9091F1
:102FA000BF1ECC0CDD1CEE1CFF1CC0922702D09271
:102FB0002802E0922902F0922A02FF90EF90DF901F
:102FC000CF900895F8948091650790916607A0913D
:102FD0006707B091680740912507509126076091D7
:102FE000270770912807841B950BA60BB70BB69586
:102FF000A795979587958093670B9093680BA093FF
:10300000690BB0936A0BB3CF90E080E0D6CF80918C
:10301000F41E9091501D9C719C3091F58A30CCF03B
:1030200088E090E090930B0680930A0682E090E09F
:10303000909309068093080684E090E09093070639
:103040008093060686E090E0909305068093040640
:1030500008951816ECF781E090E090930B068093AA
:103060000A0683E090E0909309068093080685E0C5
:1030700090E0909307068093060687E090E0E4CF07
:103080008A308CF024E030E030930B0620930A065F
:1030900082E090E09093090680930806309307063B
:1030A00020930606D1CF18169CF621E030E030932D
:1030B0000B0620930A0683E090E0ECCF0895809100
:1030C000BD1E81110EC010922A071092290781E0BF
:1030D0008093BD1E83E08093E10C81E08093240700
:1030E000089580914A1D87FF05C010922A0710920B
:1030F0002907F0CF80912F1F9091301FA091311F91
:10310000B091321F84369105A105B10530F7809149
:10311000290790912A078D9701F310922A071092A0
:103120002907DBCF10922A071092290708950895E6
:1031300008950895089508950895089508950895A7
:1031400010922A071092290781E08093240708959E
:1031500080916E0C807F803479F58091501D8C7148
:103160008C30C9F488E090E090930B0680930A06B7
:1031700082E090E0909309068093080684E090E056
:10318000909307068093060686E090E090930506EC
:1031900080930406089524E030E030930B062093DA
:1031A0000A0682E090E09093090680930806309327
:1031B000070620930606EACF803661F78091501DFE
:1031C0008C718C3079F286E090E090930B068093BE
:1031D0000A0682E090E0909309068093080624E0B6
:1031E00030E0E5CF8091F41E82319CF487E090E0DE
:1031F00090930B0680930A0682E090E09093090674
:103200008093080685E090E0909307068093060679
:10321000089586E090E090930B0680930A0681E083
:1032200090E0909309068093080684E090E0ECCF4C
:103230008091280B9091290B2091441D3091451DC0
:10324000821B930B20911B0230911C028217930763
:1032500064F0821B930B20916E0C22952F7024300A
:1032600079F040F4233031F1089597FFF4CF820FC5
:10327000931FF1CF2630F1F0283009F456C008959D
:103280000197843B910568F082E090E090930B06F3
:1032900080930A0681E090E09093090680930806E7
:1032A000089581E090E090930B0680930A0682E0F7
:1032B00090E0F2CF9C01295731092837310598F465
:1032C00082E090E090930B0680930A0683E090E002
:1032D000909309068093080681E090E0909307069A
:1032E0008093060608950197803F910578F083E06A
:1032F00090E090930B0680930A0681E090E0909313
:1033000009068093080682E090E0E8CF81E090E033
:1033100090930B0680930A0682E090E09093090652
:103320008093080683E090E0D9CF9C012B553109AA
:103330002A353105C8F482E090E090930B06809323
:103340000A0683E090E0909309068093080684E0E3
:1033500090E0909307068093060681E090E09093BA
:1033600005068093040608959C01255B31092A35E2
:103370003105A8F483E090E090930B0680930A0651
:1033800084E090E0909309068093080681E090E045
:10339000909307068093060682E090E0E0CF0197C5
:1033A0008E309140A8F084E090E090930B068093DB
:1033B0000A0681E090E0909309068093080682E077
:1033C00090E0909307068093060683E090E0C7CFD5
:1033D00081E090E090930B0680930A0682E090E0F3
:1033E000909309068093080683E090E09093070687
:1033F0008093060684E090E0B2CF2091531D809127
:10340000501D8C718C3021F48091491D322F81FD2B
:1034100030E0E091441DF091451D6091D10A70911A
:10342000D20A8091280B9091290B8E1B9F0B0F9431
:103430004C49230F3327331F261737070CF05DC085
:10344000621B730B70930B0660930A066091D10A9E
:103450007091D20A8091FF04909100058E1B9F0B02
:103460000F944C49261737070CF04EC0621B730BA4
:1034700070930906609308066091D10A7091D20A90
:103480008091FD049091FE048E1B9F0B0F944C497C
:10349000261737070CF03FC0621B730B70930706AB
:1034A000609306066091D10A7091D20A8091FB0464
:1034B0009091FC048E1B9F0B0F944C4926173707E5
:1034C0008CF5621B730B7093050660930406609184
:1034D000D10A7091D20A8091F9049091FA048E1B5E
:1034E0009F0B0F944C492617370714F5621B730B7B
:1034F0007093E7056093E6050895161617060CF419
:10350000A1CF620F731F9ECF161617060CF4B0CF13
:10351000620F731FADCF161617060CF4BFCF620FE4
:10352000731FBCCF1616170674F2620F731FCBCF32
:1035300016161706ECF2620F731FDACFCF92DF92E6
:10354000EF92FF920F931F93CF93DF930091531D40
:1035500091E00D3008F490E08091501D8C718C301A
:1035600041F48091491D81FD04C080916E0C202F93
:1035700082FD20E0C090441DD090451D6091D10A8D
:103580007091D20AE92EF12C8091280B9091290B91
:103590008C199D090F944C496E197F0910E030E099
:1035A000F901E00FF11FE617F7070CF0ABC06E1B37
:1035B0007F0BC0912B07D0912C07C617D70720F49B
:1035C000061717070CF0BE012C0F3D1F26173707F3
:1035D00008F4B90170930B0660930A066091D10A52
:1035E0007091D20A8091FF04909100058C199D0979
:1035F0000F944C496E197F09E617F7070CF089C044
:103600006E1B7F0BC617D70720F4061717070CF0A1
:10361000BE012617370708F4B901709309066093B5
:1036200008066091D10A7091D20A8091FD049091B0
:10363000FE048C199D090F944C496E197F09E617F9
:10364000F7070CF06DC06E1B7F0BC617D70720F471
:10365000061717070CF0BE012617370708F4B90143
:1036600070930706609306066091D10A7091D20AA2
:103670008091FB049091FC048C199D090F944C4996
:103680006E197F09E617F7070CF051C06E1B7F0B10
:10369000C617D70720F4061717070CF0BE01261728
:1036A000370708F4B901709305066093040660912A
:1036B000D10A7091D20A8091F9049091FA048C1980
:1036C0009D090F944C496E197F09E617F707B4F569
:1036D0006E1B7F0BC617D70720F4061717070CF0D1
:1036E000BE012617370708F4B9017093E705609308
:1036F000E605DF91CF911F910F91FF90EF90DF9042
:10370000CF900895161617060CF453CF6E0F7F1F37
:1037100050CF161617060CF475CF6E0F7F1F72CFA1
:10372000161617060CF491CF6E0F7F1F8ECF16164C
:1037300017060CF4ADCF6E0F7F1FAACF1616170613
:103740004CF26E0F7F1FC6CF20913A0B30913B0B8E
:10375000232B09F058C22091BE1E3091BF1E232B8F
:1037600009F451C220910A0630910B06261737073B
:1037700009F070C02091EC103091ED10233031052C
:1037800061F54091240150912501A091280BB09141
:10379000290BA81BB90B80911B0290911C02A81742
:1037A000B907B4F0A81BB90B2091260B3091270B59
:1037B0000F94D54BF6E09695879577956795FA9592
:1037C000D1F7640F751F7093290160932801089544
:1037D000B7FFEACFA80FB91FE7CF40912F1F509135
:1037E000301F6091311F7091321F473051056105C4
:1037F000710508F408C24091240150912501A0915F
:10380000280BB091290BA81BB90B80911B0290913A
:103810001C02A817B907CCF0A81BB90B2091260BE6
:103820003091270B0F94D54BE6E0969587957795C9
:103830006795EA95D1F7640F751F7093FA1060933E
:10384000F91081E0809300110895B7FFE7CFA80F2A
:10385000B91FE4CF209108063091090626173707D3
:1038600009F070C02091D3103091D410233031056D
:1038700061F54091240150912501A091FF04B09180
:103880000005A81BB90B80911B0290911C02A81780
:10389000B907B4F0A81BB90B2091260B3091270B68
:1038A0000F94D54B36E096958795779567953A9521
:1038B000D1F7640F751F70932B0160932A0108954F
:1038C000B7FFEACFA80FB91FE7CF40912F1F509144
:1038D000301F6091311F7091321F473051056105D3
:1038E000710508F490C14091240150912501A091E7
:1038F000FF04B0910005A81BB90B80911B029091A9
:103900001C02A817B907CCF0A81BB90B2091260BF5
:103910003091270B0F94D54B26E096958795779598
:1039200067952A95D1F7640F751F7093E110609326
:10393000E01081E08093E7100895B7FFE7CFA80F6C
:10394000B91FE4CF209106063091070626173707E6
:1039500009F070C02091BA103091BB1023303105AE
:1039600061F54091240150912501A091FD04B09191
:10397000FE04A81BB90B80911B0290911C02A81792
:10398000B907B4F0A81BB90B2091260B3091270B77
:103990000F94D54BB6E09695879577956795BA9530
:1039A000D1F7640F751F70932D0160932C0108955A
:1039B000B7FFEACFA80FB91FE7CF40912F1F509153
:1039C000301F6091311F7091321F473051056105E2
:1039D000710508F418C14091240150912501A0916E
:1039E000FD04B091FE04A81BB90B80911B029091BD
:1039F0001C02A817B907CCF0A81BB90B2091260B05
:103A00003091270B0F94D54BA6E096958795779527
:103A10006795AA95D1F7640F751F7093C8106093CE
:103A2000C71081E08093CE100895B7FFE7CFA80FAD
:103A3000B91FE4CF209104063091050626173707F9
:103A400009F070C02091A1103091A21023303105EF
:103A500061F54091A4005091A500A091FB04B091A4
:103A6000FC04A81BB90B80911B0290911C02A817A3
:103A7000B907B4F0A81BB90B2091260B3091270B86
:103A80000F94D54BF6E09695879577956795FA95BF
:103A9000D1F7640F751F7093A9006093A800089573
:103AA000B7FFEACFA80FB91FE7CF40912F1F509162
:103AB000301F6091311F7091321F473051056105F1
:103AC000710508F4A0C04091A4005091A500A091F8
:103AD000FB04B091FC04A81BB90B80911B029091D0
:103AE0001C02A817B907CCF0A81BB90B2091260B14
:103AF0003091270B0F94D54BE6E0969587957795F7
:103B00006795EA95D1F7640F751F7093AF106093B6
:103B1000AE1081E08093B5100895B7FFE7CFA80FEE
:103B2000B91FE4CF2091E6053091E7052617370746
:103B300009F069C020918810309189102330310537
:103B400061F54091A4005091A500A091F904B091B5
:103B5000FA04A81BB90B80911B0290911C02A817B4
:103B6000B907B4F0A81BB90B2091260B3091270B95
:103B70000F94D54B36E096958795779567953A954E
:103B8000D1F7640F751F7093AD006093AC0008957A
:103B9000B7FFEACFA80FB91FE7CF40912F1F509171
:103BA000301F6091311F7091321F47305105610500
:103BB000710548F14091A4005091A500A091F9042D
:103BC000B091FA04A81BB90B80911B0290911C02C2
:103BD000A817B907CCF0A81BB90B2091260B309180
:103BE000270B0F94D54B26E096958795779567958B
:103BF0002A95D1F7640F751F7093961060939510F6
:103C000081E080939C100895B7FFE7CFA80FB91FFC
:103C1000E4CF9B01AC018091501D807649F4109255
:103C2000310710923207109233071092340708952B
:103C3000803281F472E056954795379527957A95AD
:103C4000D1F72093310730933207409333075093D5
:103C500034070895803429F456954795379527956C
:103C6000F0CF8036E1F6A3E0B0E00F94E44922E023
:103C700096958795779567952A95D1F76093310743
:103C800070933207809333079093340708950F930E
:103C90001F932091BD1E211104C020915D1F24FFA0
:103CA00081C04091BE1E5091BF1E20915B1F30917C
:103CB0005C1F4217530768F440912F1F5091301F2B
:103CC0006091311F7091321F452B462B472B09F411
:103CD00069C04091650750916607609167077091D0
:103CE0006807452B462B472B09F45CC040912507FC
:103CF000509126076091270770912807452B462B86
:103D0000472B09F44FC0F89440916507509166071E
:103D10006091670770916807009125071091260749
:103D20002091270730912807401B510B620B730B22
:103D30004093670B5093680B6093690B70936A0B09
:103D40007894803D9240A1F48091670B9091680B2C
:103D5000A091690BB0916A0BB695A7959795879539
:103D60008093670B9093680BA093690BB0936A0BD9
:103D70002091670B3091680B4091690B50916A0B51
:103D800060E077E883E993E00F949349C9018035B7
:103D900026E4920720F08091BE1E9091BF1E1F91D5
:103DA0000F91089590E080E0FACF80ED92E00C94BE
:103DB000471E8F929F92AF92BF92CF92DF92EF9267
:103DC000FF928091BD1E882309F489C08091551D02
:103DD00024E6829FC00111242091BE1E3091BF1E97
:103DE0002817390708F06FC08091E60C9091E70C16
:103DF000A091E80CB091E90C892B8A2B8B2B09F44C
:103E00006EC08091D30A9091D40AA091D50AB09146
:103E1000D60A892B8A2B8B2B09F461C0F894209148
:103E2000D10A3091D20A8091650790916607A091DE
:103E30006707B09168074091250750912607609168
:103E4000270770912807841B950BA60BB70B80934F
:103E5000670B9093680BA093690BB0936A0BC090AB
:103E6000E60CD090E70CE090E80CF090E90C809123
:103E7000D30A9091D40AA091D50AB091D60AC81A53
:103E8000D90AEA0AFB0A7894D90120E83DE84BE513
:103E900050E00F94EF494B015C01A4E2B0E0A701B0
:103EA00096010F94E4499B01AC01C501B4010F9444
:103EB0009349C901FF90EF90DF90CF90BF90AF90F2
:103EC0009F908F90089588E691E0FF90EF90DF90AB
:103ED000CF90BF90AF909F908F900C94471E90E032
:103EE00080E0E8CF0C94D91E80ED92E00C94471E40
:103EF00080912F1F9091301FA091311FB091321FE0
:103F0000892B8A2B8B2B21F080ED92E00C94471E9D
:103F100090E080E00895CF92DF92EF92FF9280913F
:103F2000BD1E882309F45DC02091BE1E3091BF1EC6
:103F300080915B1F90915C1F2817390708F049C0DA
:103F4000F894E091D10AF091D20A8091E60C909118
:103F5000E70CA091E80CB091E90C4091D30A509184
:103F6000D40A6091D50A7091D60A841B950BA60BD2
:103F7000B70B8093670B9093680BA093690BB0937A
:103F80006A0B78942091670B3091680B4091690B14
:103F900050916A0BA4E2B0E00F94E4496B017C01FC
:103FA000C092670BD092680BE092690BF0926A0B9B
:103FB000DF0120E037E843E953E00F94EF49A70120
:103FC00096010F949349C901FF90EF90DF90CF9035
:103FD000089588E691E0FF90EF90DF90CF900C94E9
:103FE000471E90E080E0F0CF88E691E00C94471EF9
:103FF0000C94F41F0C94F41F0C94F41F0C94F41FF5
:1040000090E080E0089590E080E008958091322073
:1040100023E0829FC001112420910D0630910E06ED
:104020002817390770F560915606809105070F949F
:10403000941560E08091FF060F94941561E08091E3
:1040400004070F9494150F941B16609352067093F7
:104050005306809354069093550681E090E0909328
:1040600051068093500680910D0690910E060196A0
:1040700090930E0680930D0681E080934A0680E0BF
:10408000089581E0089540914E0650914F06209189
:104090004C0630914D068091332090E0B901681BA9
:1040A000790B641775072CF4820F931F4817590773
:1040B00074F14217530764F5609156068091050725
:1040C0000F94941580914C0690914D060197909312
:1040D0004D0680934C0660E08091FF060F94941586
:1040E00061E0809104070F9494150F941B16609360
:1040F000520670935306809354069093550681E0C0
:1041000090E0909351068093500680934A0608955C
:104110002417350704F760915706809105070F941F
:10412000941580914C0690914D060196D0CFCF9377
:10413000DF938091500690915106019751F0809144
:10414000500690915106029721F080E0DF91CF91C7
:1041500008958091500690915106C0911206D09119
:104160001306019721F0C0911006D09111060F940B
:104170001B16AB01BC018091520690915306A09191
:104180005406B09155068C0F9D1FA11DB11D8417BB
:104190009507A607B70708F580915006909151063C
:1041A000019711F560E0809104070F9494150F9426
:1041B0001B16609352067093530680935406909397
:1041C00055068091100690911106892B41F082E0EE
:1041D00090E0909351068093500681E0B7CF109203
:1041E000510610925006F9CF1092510610925006C7
:1041F0008091B00D87FDA9CF20914E0630914F06DA
:1042000080914C0690914D062817390709F09DCFF3
:1042100061E08091FF060F94941597CF0F941B16C1
:104220006093000670930106809302069093030644
:104230008091000690910106A0910206B0910306BC
:104240004091E20C5091E30C6091E40C7091E50C0C
:10425000841B950BA60BB70B8093FC059093FD0573
:10426000A093FE05B093FF058091E20C9091E30CC2
:10427000A091E40CB091E50C892B8A2B8B2B61F576
:104280008091F8059091F905A091FA05B091FB0590
:10429000880F991FAA1FBB1F8093F4059093F50503
:1042A000A093F605B093F7051092FC051092FD055A
:1042B0001092FE051092FF05809100069091010674
:1042C000A0910206B09103068093E20C9093E30C58
:1042D000A093E40CB093E50C4091FC055091FD05D2
:1042E0006091FE057091FF0580912D0790912E073A
:1042F000A0912F07B0913007481759076A077B072D
:1043000008F4DBC08091DF0C9091E00C0196909353
:10431000E00C8093DF0C8091000690910106A09143
:104320000206B09103068093E20C9093E30CA093F5
:10433000E40CB093E50C8091BC1F85FF2BC08091ED
:104340004C1D8F7741F0833029F58091DF0C9091DF
:10435000E00C0697F9F4E0911F02F0912002199504
:10436000893621E092071CF088569140F9CF2091C0
:10437000441D3091451D821B930B2091C21F237059
:10438000223021F42091811E821B91099093721F8B
:104390008093711F80914C1D8F77C1F481E08093D1
:1043A00024078091FC059091FD05A091FE05B09138
:1043B000FF05B695A7959795879580932D079093C0
:1043C0002E07A0932F07B09330070895833009F08C
:1043D00074C04091FC055091FD056091FE057091FF
:1043E000FF058091F4059091F505A091F605B09137
:1043F000F705481759076A077B0768F58091FC05A0
:104400009091FD05A091FE05B091FF05B695A79589
:104410009795879580932D0790932E07A0932F074C
:10442000B09330072091FC053091FD054091FE05C9
:104430005091FF05A3E0B0E00F94E449969587956D
:10444000779567956093F4057093F5058093F6056D
:104450009093F70508958091DF0C9091E00C0697FA
:1044600071F4109224078091290790912A074397AD
:10447000F0F48091290790912A07429614C0809108
:10448000DF0C9091E00C0497C9F481E0809324073D
:104490008091290790912A07429748F08091290737
:1044A00090912A07429790932A078093290781E0E9
:1044B00090E09093E00C8093DF0C08958091DF0CE6
:1044C0009091E00C039799F781E080932407CBCF7C
:1044D0000F941B166093F0057093F1058093F2051D
:1044E0009093F3058091F0059091F105A091F2056C
:1044F000B091F3054091E60C5091E70C6091E80C07
:104500007091E90C841B950BA60BB70B8093F805F3
:104510009093F905A093FA05B093FB054091F80537
:104520005091F9056091FA057091FB058091310772
:1045300090913207A0913307B0913407481759077B
:104540006A077B0708F456C28091E60C9091E70C4D
:10455000A091E80CB091E90C892B8A2B8B2B09F4E4
:10456000CEC08091D30A9091D40AA091D50AB0917F
:10457000D60A892B8A2B8B2B09F4C1C02091E60C1B
:104580003091E70C4091E80C5091E90C8091D30AEE
:104590009091D40AA091D50AB091D60A281B390B64
:1045A0004A0B5B0BA3E0B0E00F94E4499695879526
:1045B000779567956093EC057093ED058093EE0514
:1045C0009093EF0581E08093BD1E4091F8055091D6
:1045D000F9056091FA057091FB058091EC059091C9
:1045E000ED05A091EE05B091EF0584179507A6079C
:1045F000B70708F0DCC08091E8059091E905A0912B
:10460000EA05B091EB0532E0880F991FAA1FBB1F86
:104610003A95D1F78093E8059093E905A093EA05D0
:10462000B093EB058091E8059091E905A091EA052A
:10463000B091EB050196A11DB11D8093E805909303
:10464000E905A093EA05B093EB05809129079091C5
:104650002A07019690932A078093290780912907BA
:1046600090912A07019690932A0780932907209119
:10467000290730912A0780912B0790912C07281742
:104680003907E8F14091E8055091E9056091EA05A4
:104690007091EB054F3B5F4F6D4F7D4F09F0C2C0EE
:1046A0008091350790913607059739F181E090E0C8
:1046B00090933807809337078BE090E090933A0708
:1046C0008093390783E190E090933C0780933B0708
:1046D0008EE190E090933E0780933D0785E090E067
:1046E000909336078093350784E08093541D84E2CD
:1046F00090E090932C0780932B070E949712809153
:10470000E60C9091E70CA091E80CB091E90C809335
:10471000D30A9093D40AA093D50AB093D60A809175
:10472000F0059091F105A091F205B091F305809309
:10473000E60C9093E70CA093E80CB093E90C809101
:10474000700C86FF57C18091111F81FD53C12091CC
:10475000290730912A074091D10A5091D20A21505D
:104760003109249FC001259F900D349F900D112485
:104770002091441D3091451D820F931F20911B02F3
:1047800030911C02821793070CF423C1821B930BF8
:104790002091501D2C712C3021F4209124072111DF
:1047A0001DC16091290770912A070C94A41B809168
:1047B000E8059091E905A091EA05B091EB05880F15
:1047C000991FAA1FBB1F8093E8059093E905A0934A
:1047D000EA05B093EB058091E8059091E905A09179
:1047E000EA05B091EB050196A11DB11D8093E80586
:1047F0009093E905A093EA05B093EB058091290712
:1048000090912A07019690932A0780932907609137
:10481000F8057091F9058091FA059091FB050E94C9
:10482000091E25CF4091E8055091E9056091EA0500
:104830007091EB054F375B4F6F4F7D4D31F5809198
:10484000350790913607049709F457CF88E090E038
:1048500090933807809337078BE090E090933A0766
:104860008093390789E190E090933C0780933B0760
:104870008BE190E090933E0780933D0784E090E0C9
:10488000909336078093350730CF4091E8055091DB
:10489000E9056091EA057091EB054F37574F6F4F6F
:1048A0007B4D11F58091350790913607039709F4F8
:1048B00024CF88E090E090933807809337078AE010
:1048C00090E090933A078093390788E190E09093C5
:1048D0003C0780933B078BE190E090933E078093E9
:1048E0003D0783E090E0FCCE4091E8055091E9055A
:1048F0006091EA057091EB054D3B5F4F674F7D4F2F
:1049000011F58091350790913607029709F4F5CE9D
:1049100081E090E090933807809337078CE090E037
:1049200090933A078093390781E190E090933C0798
:1049300080933B078DE190E090933E0780933D0785
:1049400082E090E0CDCE4091E8055091E90560917C
:10495000EA057091EB054D3F5F4F674F7F4FC9F4FC
:104960008091350790913607019709F4C6CE81E012
:1049700090E0909338078093370722E130E030933E
:104980003A0720933907909336078093350782E0E2
:10499000ACCE2091290730912A0701968217930700
:1049A00008F0ADCE1092BD1E8091DF0C9091E00C0E
:1049B000892B59F080915D1F806180935D1F8091EC
:1049C0006C1F8F5F80936C1F9ACE80915D1F8F7ECE
:1049D000F4CF97FFDDCE820F931FDACE2091290707
:1049E00030912A076091531D620F732F711D8859F2
:1049F0009E4FDBCE08950F941B166093F0057093C5
:104A0000F1058093F2059093F3058091F005909164
:104A1000F105A091F205B091F30540912007509166
:104A200021076091220770912307841B950BA60B29
:104A3000B70B8093F8059093F905A093FA05B0930E
:104A4000FB054091F8055091F9056091FA057091C8
:104A5000FB058091310790913207A0913307B09107
:104A60003407481759076A077B0708F485C1809106
:104A7000E10C8F5F8093E10C8091200790912107DA
:104A8000A0912207B0912307892B8A2B8B2B09F445
:104A9000EBC080911C0790911D07A0911E07B0915B
:104AA0001F07892B8A2B8B2B09F4DEC080912007EE
:104AB00090912107A0912207B091230740911C07F4
:104AC00050911D0760911E0770911F07841B950B65
:104AD000A60BB70B880F991FAA1FBB1F8093EC056D
:104AE0009093ED05A093EE05B093EF054091F80586
:104AF0005091F9056091FA057091FB058091EC05E4
:104B00009091ED05A091EE05B091EF05481759077A
:104B10006A077B0708F4ADC08091E10C8F5F80933A
:104B2000E10C8091E10C8F5F8093E10C8091E10CAE
:104B30008C3081F01092BD1E80916C1F8F5F80932E
:104B40006C1F81E08093E10C81E090E090932A0754
:104B5000809329078091200790912107A091220737
:104B6000B091230780931C0790931D07A0931E0705
:104B7000B0931F078091F0059091F105A091F20587
:104B8000B091F3058093200790932107A09322070B
:104B9000B09323078091E10C8C3069F08091E60C92
:104BA0009091E70CA091E80CB091E90C892B8A2B2D
:104BB0008B2B09F0E1C08091290790912A0701967B
:104BC00090932A078093290780916E0C807F80360E
:104BD00009F05AC08091290790912A07079709F098
:104BE0005CC08091650790916607A0916707B091BE
:104BF00068078093250790932607A0932707B09313
:104C000028078091F0059091F105A091F205B091EF
:104C1000F3058093650790936607A0936707B093A9
:104C2000680791E09093BD1E40912F1F5091301F57
:104C30006091311F7091321F4F5F5F4F6F4F7F4FF9
:104C400040932F1F5093301F6093311F7093321F7A
:104C50008091240789278093240781E090E0909336
:104C60002A078093290719C080E091EEA5EFB5E0EF
:104C700035CF6091F8057091F9058091FA05909112
:104C8000FB050E94091E66CF803439F48091290704
:104C900090912A07059709F4A4CF81E08093E10C55
:104CA0008091E60C9091E70CA091E80CB091E90C92
:104CB0008093D30A9093D40AA093D50AB093D60ACE
:104CC0008091F0059091F105A091F205B091F30566
:104CD0008093E60C9093E70CA093E80CB093E90C5A
:104CE0008091700C86FF48C08091111F81FD44C0E7
:104CF0002091290730912A074091D10A5091D20A78
:104D000021503109249FC001259F900D349F900DA3
:104D100011242091441D3091451D820F931F209135
:104D20001B0230911C0282179307ACF0821B930B7D
:104D30002091501D2C712C3041F420912407222306
:104D400021F02091491D21FF0BC06091290770912E
:104D50002A070C94A41B97FFEBCF820F931FE8CF79
:104D60002091290730912A076091531D620F732FFC
:104D7000711D88599E4FEDCF08950F941B166093B7
:104D8000F0057093F1058093F2059093F305E0919F
:104D9000F206F091F30680819091F106892321E0DB
:104DA00030E011F430E020E080917D078217130697
:104DB00009F05FC18091F0059091F105A091F20595
:104DC000B091F3058093FC059093FD05A093FE053B
:104DD000B093FF058091F0059091F105A091F20547
:104DE000B091F3054091E60C5091E70C6091E80C0E
:104DF0007091E90C841B950BA60BB70B8093F805FB
:104E00009093F905A093FA05B093FB054091F8053E
:104E10005091F9056091FA057091FB058091310779
:104E200090913207A0913307B09134074817590782
:104E30006A077B0708F417C180913C0B806280935E
:104E40003C0B8091290790912A07892B09F48FC088
:104E500080913C0B806280933C0B8091290790915C
:104E60002A078130910509F08BC09093E00C809364
:104E7000DF0C86E490E09093D20A8093D10A80916F
:104E8000650790916607A0916707B09168078093C6
:104E9000250790932607A0932707B09328078091B2
:104EA000F0059091F105A091F205B091F305809382
:104EB000650790936607A0936707B093680781E042
:104EC0008093BD1E6091F8057091F9058091FA05F7
:104ED0009091FB050F94A74A20E030E040EE5FE39D
:104EE0000F94064A0F94784A0E94091E80912F1F42
:104EF0009091301FA091311FB091321F0196A11DDA
:104F0000B11D80932F1F9093301FA093311FB0933A
:104F1000321F8091E60C9091E70CA091E80CB091C3
:104F2000E90C8093D30A9093D40AA093D50AB09346
:104F3000D60A8091F0059091F105A091F205B0910B
:104F4000F3058093E60C9093E70CA093E80CB093E4
:104F5000E90C8091310790913207A0913307B0910D
:104F600034078135934CA105B10508F481C0109236
:104F700031071092320710923307109234070895C8
:104F80008091290790912A0782309105D9F4909356
:104F9000E00C8093DF0C88E290E09093D20A80933B
:104FA000D10A6091F8057091F9058091FA05909108
:104FB000FB050F94A74A20E030E040EE5FE30F943A
:104FC000354B3BC08091290790912A07833091058A
:104FD00099F49093E00C8093DF0C86E490E090933A
:104FE000D20A8093D10A6091F8057091F9058091F9
:104FF000FA059091FB0523C08091290790912A071B
:1050000084309105F9F49093E00C8093DF0C86E4F2
:1050100090E09093D20A8093D10A6091F805709144
:10502000F9058091FA059091FB050F94A74A20E0BD
:1050300030E040EE5FE30F94064A0F94784A0E94F6
:10504000091E67CF8091290790912A078530910525
:1050500009F49DCF8091290790912A078630910508
:1050600009F057CFB6CF80913C0B8F7D80933C0BDE
:10507000089580913C0B85FF60C08091F005909170
:10508000F105A091F205B091F3054091FC05509116
:10509000FD056091FE057091FF05841B950BA60B25
:1050A000B70B4091DE055091DF056091E0057091EE
:1050B000E105440F551F661F771F20912907309186
:1050C0002A07481759076A077B07C8F4232B99F06A
:1050D0002091290730912A072630310561F020916F
:1050E0006C1F2F5F20936C1F21E030E030932A0764
:1050F0002093290712C021E02093BD1EF5CF263052
:105100003105A1F421E030E030932A0720932907EC
:1051100020916C1F2F5F20936C1F8093DE0590936E
:10512000DF05A093E005B093E105089520912907DC
:1051300030912A072F5F3F4FD9CF80913C0B85FDDF
:1051400097CF80913C0B806291CFCF92DF92EF920C
:10515000FF928091501D8C718C3031F08091700CD9
:105160008073803309F0F1C00F941B166093000622
:1051700070930106809302069093030680910006C7
:1051800090910106A0910206B09103064091E20CB5
:105190005091E30C6091E40C7091E50C841B950B2D
:1051A000A60BB70B8093FC059093FD05A093FE051D
:1051B000B093FF054091FC055091FD056091FE05FF
:1051C0007091FF0580912D0790912E07A0912F07D8
:1051D000B091300784179507A607B70708F0B5C048
:1051E0008091E20C9091E30CA091E40CB091E50C5D
:1051F000892B8A2B8B2B09F498C08091E60C909117
:10520000E70CA091E80CB091E90C892B8A2B8B2B31
:1052100009F48BC08091D30A9091D40AA091D50A49
:10522000B091D60A892B8A2B8B2B09F47EC0209152
:10523000E60C3091E70C4091E80C5091E90C80911C
:10524000D30A9091D40AA091D50AB091D60AC09001
:10525000FC05D090FD05E090FE05F090FF05281BB1
:10526000390B4A0B5B0BA3E0B0E00F94E449C61680
:10527000D706E806F90608F46DC08091DF0C90911E
:10528000E00C892BF1F1209117072223D1F18091B5
:10529000E10C90916E0C92959F70882381F0E091C3
:1052A000E10C4091DF0C5091E00CF0E0EE0FFF1F9D
:1052B000E95CF84F6081718164177507B1F0109255
:1052C000E10CE5E3F7E081E09817D8F04091DF0CBE
:1052D0005091E00C628173816417750719F4308175
:1052E000231769F08F5F3296EFCF8091E10C8F5FCB
:1052F0008093E10C8091E10C981718F481E0809381
:10530000E10C8091DF0C9091E00C8093170781E015
:1053100090E09093E00C8093DF0C10922D07109298
:105320002E0710922F07109230078091000690915F
:105330000106A0910206B09103068093E20C9093BF
:10534000E30CA093E40CB093E50CFF90EF90DF909A
:10535000CF9008958091DF0C9091E00C892B29F378
:105360008091DF0C9091E00C01969093E00C80937B
:10537000DF0C8091FC059091FD05A091FE05B09198
:10538000FF0522E0B695A795979587952A95D1F7C1
:1053900080932D0790932E07A0932F07B09330078B
:1053A000C4CFCF92DF92EF92FF920F931F93809121
:1053B000501D8C718C3029F08091700C807380337B
:1053C00019F50F941B1660930006709301068093E5
:1053D000020690930306E091EF06F091F0068081BB
:1053E0009091EE068923B9F0809100069091010614
:1053F000A0910206B091030680931C0790931D07AD
:10540000A0931E07B0931F071F910F91FF90EF907D
:10541000DF90CF9008958091000690910106A091B1
:105420000206B09103064091E20C5091E30C6091AA
:10543000E40C7091E50C841B950BA60BB70B8093C5
:10544000FC059093FD05A093FE05B093FF054091E8
:10545000FC055091FD056091FE057091FF0580915E
:105460002D0790912E07A0912F07B0913007841738
:105470009507A607B70740F68091E20C9091E30CE0
:10548000A091E40CB091E50C892B8A2B8B2B09F4AD
:105490008FC08091180790911907A0911A07B091B9
:1054A0001B07892B8A2B8B2B09F482C08091DF0C80
:1054B0009091E00C892B49F08091DF0C9091E00CE9
:1054C00001969093E00C8093DF0C2091E20C3091D8
:1054D000E30C4091E40C5091E50C809118079091F9
:1054E0001907A0911A07B0911B07C090FC05D09036
:1054F000FD05E090FE05F090FF05281B390B4A0BD7
:105500005B0BA3E0B0E00F94E449969587957795FF
:105510006795C616D706E806F90608F486C04091D6
:105520001C0750911D0760911E0770911F07009185
:10553000E20C1091E30C2091E40C3091E50C809189
:10554000000690910106A0910206B0910306C0905A
:105550001C07D0901D07E0901E07F0901F07401B0E
:10556000510B620B730B8C199D09AE09BF094817CB
:1055700059076A077B0708F043C08091DF0C9091C0
:10558000E00C892BB1F18091DF0C9091E00C089731
:1055900081F18091DF0C9091E00C892B09F040C0E3
:1055A00010922D0710922E0710922F07109230079D
:1055B0008091E20C9091E30CA091E40CB091E50C89
:1055C0008093180790931907A0931A07B0931B07AD
:1055D0008091000690910106A0910206B091030609
:1055E0008093E20C9093E30CA093E40CB093E50C51
:1055F0000BCF81E090E09093E00C8093DF0CD0CF54
:105600008091DF0C9091E00C892B39F08091DF0CB8
:105610009091E00C059709F0BCCF85E090E0EBCFCE
:105620001092E00C1092DF0CBBCF8091DF0C9091B8
:10563000E00C892B09F4BCCF8091FC059091FD050D
:10564000A091FE05B091FF0522E0B695A79597952C
:1056500087952A95D1F780932D0790932E07A093D5
:105660002F07B0933007A4CFCF92DF92EF92FF9233
:105670000F931F930F941B166093F0057093F10521
:105680008093F2059093F305E091F206F091F30612
:1056900080819091F1068923B9F08091F005909175
:1056A000F105A091F205B091F30580932007909346
:1056B0002107A0932207B09323071F910F91FF901A
:1056C000EF90DF90CF9008958091F0059091F105D3
:1056D000A091F205B091F3054091E60C5091E70CD2
:1056E0006091E80C7091E90C841B950BA60BB70B2D
:1056F0008093F8059093F905A093FA05B093FB0504
:105700004091F8055091F9056091FA057091FB05FB
:105710008091310790913207A0913307B0913407FF
:10572000481759076A077B0740F280912907909133
:105730002A07019690932A078093290780913C0BB2
:10574000806280933C0B8091E60C9091E70CA091D5
:10575000E80CB091E90C892B8A2B8B2B09F409C238
:105760008091D30A9091D40AA091D50AB091D60A1B
:10577000892B8A2B8B2B09F4FCC1809129079091EE
:105780002A07419771F08091290790912A07839702
:1057900041F08091BD1E8111DDC180915D1F84FDAE
:1057A000D9C18091E60C9091E70CA091E80CB091E2
:1057B000E90C0091D30A1091D40A2091D50A3091B6
:1057C000D60A4091F8055091F9056091FA0570915B
:1057D000FB05801B910BA20BB30B880F991FAA1F0F
:1057E000BB1F84179507A607B70708F0A3C110923F
:1057F00031071092320710923307109234078091CC
:105800003C0B8F7B80933C0B4091200750912107EC
:105810006091220770912307C090E60CD090E70CAE
:10582000E090E80CF090E90C8091F0059091F10582
:10583000A091F205B091F305009120071091210786
:1058400020912207309123074C195D096E097F09C9
:10585000801B910BA20BB30B481759076A077B07F4
:1058600008F07AC081E090E090932A07809329079E
:105870008091650790916607A0916707B0916807CE
:105880008093250790932607A0932707B0932807B6
:105890008091F0059091F105A091F205B091F3058A
:1058A0008093650790936607A0936707B093680796
:1058B0008091BD1E882309F446C080912F1F9091CE
:1058C000301FA091311FB091321F0196A11DB11D53
:1058D00080932F1F9093301FA093311FB093321FDE
:1058E0008091501D8C718C3029F08091700C8073E8
:1058F000803339F580916E0C807F8034A1F58091E2
:10590000290790912A07019761F48091DF0C90910B
:10591000E00C0197A1F08091DF0C9091E00C0297D0
:1059200071F08091290790912A07439709F060C090
:105930008091DF0C9091E00C049709F059C010920F
:10594000240781E070C010922F1F1092301F109218
:10595000311F1092321FC4CF83E190E090932A0749
:1059600080932907BDCF803609F01DC1809129079A
:1059700090912A07019741F48091E10C8130F9F26E
:105980008091E10C8230D9F28091290790912A0709
:10599000439741F48091E10C823089F28091E10CCF
:1059A000833069F28091290790912A07019741F489
:1059B0008091E10C8430A1F18091E10C853081F17E
:1059C0008091290790912A07439741F48091E10C37
:1059D000853031F18091E10C863011F18091BD1E4E
:1059E0008111A2C01092BD1E80915D1F806120C0F8
:1059F0008091290790912A07019731F48091DF0C5B
:105A00009091E00C059761F08091290790912A0709
:105A1000439721F78091DF0C9091E00C0797F1F606
:105A200081E0809324078093BD1E80915D1F8F7E4F
:105A300080935D1F8091D30A9091D40AA091D50ADA
:105A4000B091D60A4091E60C5091E70C6091E80CB9
:105A50007091E90C0091F0051091F1052091F2058B
:105A60003091F305800F911FA21FB31F841B950B6C
:105A7000A60BB70B8093D30A9093D40AA093D50AB0
:105A8000B093D60A8091F0059091F105A091F205AE
:105A9000B091F3058093E60C9093E70CA093E80C8B
:105AA000B093E90C8091700C86FF07CE8091111F96
:105AB00081FD03CE2091290730912A074091D10A18
:105AC0005091D20A21503109249FC001259F900D89
:105AD000349F900D11242091441D3091451D820F5B
