:100000000C9424100C94C3C80C9498C80C946DC81C
:100010000C9442C80C9417C80C94ECC70C94C1C73C
:100020000C9496C70C9455100C9455100C945510C4
:100030000C9455100C9455100C9455100D945009B7
:100040000C9455100D9437130D94D6120C94A39D57
:100050000C9455100C9455100C9455100D94B42319
:100060000C9455100C944BCA0C940BCA0C9455105C
:100070000C9455100C9455100C9455100C9455106C
:100080000C940A500C94824F0C94FA4E0C94551018
:100090000C9455100C9455100C9455100C9455104C
:1000A0000C9455100C9455100C94DC4B0C94724E1F
:1000B0000C94414B0C9455100C9455100C94C94D54
:1000C0000C94204D0C94774C0C9455100C945510B6
:1000D0000C9455100C9455100C94D5C90C9495C9DA
:1000E0000C9455102B172619A3191D1A181C8E1CB9
:1000F000891EC71E001FA814B0162203EA03EA03D4
:10010000EA03EA03EA03E001EA03EA03EA03EA0393
:10011000C201EA03EA03EA03EA039A03EA0340029C
:10012000EA03EA03EA03EA03EA03EA03EA03EA0367
:10013000EA03EA03EA03EA03EA03EA03EA03EA0357
:10014000EA03EA03EA03EA03EA03EA03EA03EA0347
:10015000EA03EA03F203EA03EA03EA03F202D20142
:10016000FE02B601EE015002BE02DC023C04800237
:10017000CE245A22C624C3240D245A229024972523
:100180005A2280255A22A9235A225F255A2258250D
:100190005A222F2528255A221F25B9259E259A281F
:1001A000DE265A225A2209275A225A225A225A2233
:1001B0005A2256263724AB2695266C265A225A22D6
:1001C0005A224D265A2205225A225A22C5265A223E
:1001D0005A2251245A221E265A2273225A225A2265
:1001E000D6245A225A22D32454294F2945293B295F
:1001F0003129B5282929212917290D290329F4286E
:10020000EA28E028B528D628CC28C228D02CCE2C25
:10021000B92C8D2FE92DFE2D552B5D2A1C2A172A6E
:10022000D42D8041E9402D41C84087404B4095394D
:10023000004005BD0ABD28BD3DBD42BD57BD5CBDEA
:100240007BBD9FBDEBBCF0BC12C910C90EC90CC967
:100250000AC914C916C97BC973C967C959C948C92C
:1002600087C931C9FACCFACC64CD75CDEECC1DCDA1
:1002700008D07ACD03D038D053CD98D49FD4BBD4F6
:10028000D7D4DFD4FBD403D522D542D591D472D4B0
:100290006DEBBBEB44E7A2E757E357E308E857E30E
:1002A00065E8BFE819E957E357E357E357E357E336
:1002B00057E357E357E357E368E957E357E357E357
:1002C00057E357E357E357E357E357E3ABE9FDE958
:1002D00057E357E357E357E357E357E357E357E34E
:1002E00061EAC2EA27EB57E357E30EEC57E357E323
:1002F00057E357E357E357E357E357E357E3A8E3DD
:1003000032ED51EDAEED09EE28EE87EEA6EE79EF77
:1003100087F0B4ECD5ECD7F5A0F616FAACFA7FF777
:1003200030F813F9A8F934F7F3FDE4FC6DFDF1FAA8
:100330005EFB0FFCA1FC41F512026604B801A202AB
:100340004402E2031C02620478021C035E034403BD
:100350006804CE03E203EA02640494030C9461EAA5
:100360000C946DEB0C942BC70C94181C0D94504BF3
:100370000D947E220C94B9250C9442D50D94E30380
:100380000C9451240D94F4350D9466340C94562637
:100390000C9405550D94B01E0C944A900C94648FE7
:1003A0000C9498D40D94F73E0C9485880C94D5EC5D
:1003B0000C9428EE0C949E250C9457E30C94276F14
:1003C0000D94C33E0C94D3240C94D8520D947418FD
:1003D0000C9487EE0C940D240C94552B0D94F14A3B
:1003E0000C945AF40C94C5260C9429290C9412C927
:1003F0000C94BC630C9421290C9487C90C94B68E80
:100400000D9485010C942E640C944A630C94A2E71D
:100410000C94FDE90C9475CD0C94775E0C94F4610A
:100420000C94E9400D9476220C9428250C94BFE896
:100430000C9409270C9451ED0D9490220C94A8E390
:100440000C94B4EC0C9431C90C94EECC0C9403D005
:100450000C9444E70C940D5F0C944A930C94B58E65
:100460000C94D6240C9464640C940D610C94FE538B
:100470000C944B400C9409EE0C94DE260C94D8623C
:100480000D94E03E0C94C6C60D948A220C940E6323
:100490000C94097D0C94CFD90D94A2020C94D6280B
:1004A0000D949D4A0C94427E0C94D7D40C948041B8
:1004B0000D94E3050C94B9470C94075E0C947ACD27
:1004C0000C9448C90C940CC90C94F2630C94B016AB
:1004D0000D9411330C94E15D0C942B5E0C949526D5
:1004E0000C94891E0C9427EB0D94F1300C9441F57B
:1004F0000D949C220C941A5E0C9443600C94CE24B0
:100500000D94E9490C9411DD0C942F250C94802551
:100510000C944D260C9464CD0C9432ED0C945B7BC2
:100520000C9434F70C94715F0C9461C60C945D5E6E
:100530000C94A6EE0C94A0AE0C9466620C945D2A0A
:100540000C94EBBC0D9484220D943B180C94895FA1
:100550000C9405220C94C2280C94F45D0C9405BDF7
:100560000C948F470C94EA280D94C6310C94A3196F
:100570000C9458250C9419E90C941F250D945A4A93
:100580000C94C15E0C9493920C9403290D94112F3A
:100590000C944F290C9479EF0C9431290C94BA9354
:1005A0000C9472D40C940AAE0C945EFB0C94A8F9D3
:1005B0000C940D290C9445700D942C4A0C943FC753
:1005C0000C947FF70C9491D40C94ABE90C9408D064
:1005D0000C942DDB0D94C0220C94E0280C94D7F5DC
:1005E0000C942D410D94FF3E0C9428BD0C94A8F45E
:1005F0000C94172A0C94F4280C9490240D94204BFE
:100600000C941DCD0C943B290C94F3FD0C9410C953
:100610000D943D000C94B92C0C94D9520C940EC935
:100620000C9422D50C9424470D9404070C948063F9
:100630000C94255F0C9473C90D94A2220C948E53D4
:100640000C9495390D94D73E0C94F35E0D9495045B
:100650000C9457BD0C94575F0C94E6490C948F5E34
:100660000C9403D50C94E92D0C940ABD0C94CE4740
:100670000C941D1A0C940FFC0C94A65F0C946889C2
:100680000C9428B20C946DFD0D94AE220C943F5F37
:100690000D94A42E0C945CBD0C94997C0C941C4974
:1006A0000C94AAB10C94E4FC0C947BC90C9489F4CE
:1006B0000C940EEC0C94F1FA0C9408E80D94A8221A
:1006C0000C9409DC0C94A9910C9419C70C94DE903D
:1006D0000C94CE2C0C94A9230C9437240C94001F5A
:1006E0000C949D7D0D9432020C9426A80C949FBD11
:1006F0000C94B9550C9469920D9401000C949A28AD
:100700000C9430F80C94FACC0C94336E0C9412B117
:100710000C94A1FC0C94F0BC0C9442BD0C94DFD45E
:100720000C94D69C0C94A8140D9470220D9405057D
:100730000C941E260D94E83E0C94C2EA0C94674774
:100740000C9416C90C94A8600C9400400C9479F495
:100750000C9414C90C949AC50D9484010D94B55F42
:100760000C944C610C94AF790C9413F90C9481495E
:100770000C9412650C9460470C9473220C9465E8F9
:100780000C94A6AF0C9411B10C94C71E0C94972531
:100790000C9481B20C9417290C9453CD0D94BA2269
:1007A0000C94A95E0C9426190C94B7480C948261A1
:1007B0000C94DE5F0C94FE2D0D94DC330C9468E9F0
:1007C0000C948E1C0D9475220C9467C90C945429BA
:1007D0000C9498F40D9430360C94AB260C94C324EE
:1007E0000C946AF40D94BA3E0C94ACFA0D94A92FB3
:1007F0000C94D42D0C949BC50D94D61D0C9487F0AD
:100800000D9439060C9431C60C9430A70C940AC987
:100810000C94FBD40C9427A80C94C15F0C94D66460
:100820000C9449900D94A7020C9452480C946C2699
:100830000C94AEED0C94FF530C94A0F60C94C840AD
:100840000C948D2F0C940BAE0C94FD780C94874077
:100850000C94455E0C94C6240C9429560C945F2588
:100860000C94A0640C942B170C94C7F40C94A4471C
:100870000C94DB5E0C94B7F40D94B83B0C943DBD26
:100880000C9416FA0C941C2A0C94CC280C945A2222
:100890000C949FD40C94E3470D9435080C947BBDC5
:1008A0000C94BBEB0C94B5280C9406550C94BBD45B
:1008B0000C947DDA0C9466470C94D02C0C9459C996
:1008C0000D940D050D9496220D94C6220D947A2256
:1008D0000D94B4220D9486010C94F5770C9445295F
:1008E0000C9438D00A5061676520686173206E6F80
:1008F00074206265656E20696D706C656D656E74DF
:1009000065642079657400537065656475696E6F00
:1009100000537065656475696E6F20323031392E11
:1009200030382D73657200537065656475696E6F3C
:100930002063737830323031392E38002020202067
:10094000000A5061676520686173206E6F742062D1
:1009500065656E20696D706C656D656E746564208B
:10096000796574000A5061676520686173206E6F55
:1009700074206265656E20696D706C656D656E745E
:100980006564207965740020000A5645204D617029
:10099000000A5067203120436F6E666967000A497C
:1009A000676E6974696F6E204D6170000A50672030
:1009B0003220436F6E666967000A414652204D61DE
:1009C00070000A5067203320436F6E666967000A23
:1009D0005067203420436F6E666967000A426F6F6C
:1009E0007374204D6170000A565654204D6170009A
:1009F0000A506720313020436F6E666967000A3203
:100A00006E64204675656C204D6170000A3D3D3D69
:100A1000436F6D6D616E642048656C703D3D3D0AAD
:100A20000A416C6C20636F6D6D616E64732061723E
:100A3000652073696E676C652063686172616374B9
:100A4000657220616E642061726520636F6E636100
:100A500074656E6174656420776974682074686574
:100A6000697220706172616D6574657273200A77B6
:100A70006974686F7574207370616365732E537940
:100A80006E7461783A20203C636F6D6D616E643ED8
:100A90002B3C706172616D65746572313E2B3C70E8
:100AA0006172616D65746572323E2B3C706172617A
:100AB0006D657465724E3E0A0A3D3D3D4C69737426
:100AC000206F6620436F6D6D616E64733D3D3D0A1E
:100AD0000A41202D20446973706C61797320333191
:100AE000206279746573206F662063757272656E1B
:100AF000745374617475732076616C7565732069C5
:100B00006E2062696E61727920286C697665206456
:100B1000617461290A42202D204275726E2063752E
:100B20007272656E74206D617020616E6420636FF7
:100B30006E666967506167652076616C75657320C4
:100B4000746F20656570726F6D0A43202D205465A7
:100B5000737420434F4D20706F72742E2020557394
:100B600065642062792054756E657273747564696A
:100B70006F20746F2073656520776865746865728F
:100B800020616E20454355206973206F6E206120DF
:100B9000676976656E2073657269616C200A202032
:100BA0002020706F72742E2052657475726E7320DF
:100BB000612062696E617279206E756D6265722E58
:100BC0000A4E202D205072696E74206E6577206C5D
:100BD000696E652E0A50202D20536574206375724E
:100BE00072656E7420706167652E202053796E7473
:100BF00061783A2020502B3C706167654E756D62BC
:100C000065723E0A52202D2053616D65206173206C
:100C10004120636F6D6D616E640A53202D2044691D
:100C200073706C6179207369676E61747572652089
:100C30006E756D6265720A51202D2053616D6520BD
:100C40006173205320636F6D6D616E640A56202DB1
:100C500020446973706C6179206D6170206F72201F
:100C6000636F6E666967506167652076616C756554
:100C70007320696E2062696E6172790A57202D2097
:100C8000536574206F6E65206279746520696E20EB
:100C90006D6170206F7220636F6E66696750616767
:100CA000652E2020457870656374732062696E61DB
:100CB000727920706172616D65746572732E200A9D
:100CC0002020202053796E7461783A2020572B3CE5
:100CD0006F66667365743E2B3C6E657762797465EA
:100CE0003E0A74202D205365742063616C69627222
:100CF0006174696F6E2076616C7565732E20204576
:100D00007870656374732062696E617279207061B6
:100D100072616D65746572732E20205461626C651A
:100D200020696E64657820697320656974686572EE
:100D300020302C200A20202020312C206F722032DD
:100D40002E202053796E7461783A2020742B3C74E5
:100D5000626C655F6964783E2B3C6E657756616CAA
:100D60007565313E2B3C6E657756616C7565323E1C
:100D70002B3C6E657756616C75654E3E0A5A202D88
:100D800020446973706C61792063616C696272617F
:100D900074696F6E2076616C7565730A54202D201E
:100DA000446973706C6179732032353620746F6FCB
:100DB0007468206C6F6720656E7472696573206952
:100DC0006E2062696E6172790A72202D2044697307
:100DD000706C6179732032353620746F6F746820BF
:100DE0006C6F6720656E74726965730A55202D20DB
:100DF0005072657061726520666F72206669726DEF
:100E000077617265207570646174652E2054686521
:100E1000206E6578742062797465207265636569F7
:100E20007665642077696C6C2063617573652074E6
:100E300068652041726475696E6F20746F207265F9
:100E40007365742E0A3F202D20446973706C61799C
:100E50007320746869732068656C702070616765C1
:100E6000002C2000575545004F3200496E6C6574C8
:100E70002074656D7000436F6F6C616E7400526515
:100E800073657420636F6E74726F6C206973206376
:100E9000757272656E746C792064697361626C65D9
:100EA000642E00436F6D6D732068616C7465642EF1
:100EB000204E65787420627974652077696C6C20A7
:100EC0007265736574207468652041726475696E1B
:100ED0006F2E00537065656475696E6F2032303215
:100EE000302E30332D6465760073706565647569E6
:100EF0006E6F203230323030332D64657600303002
:100F0000310000000000963007772C610EEEBA51D8
:100F1000099919C46D078FF46A7035A563E9A39523
:100F2000649E3288DB0EA4B8DC791EE9D5E088D94E
:100F3000D2972B4CB609BD7CB17E072DB8E7911D29
:100F4000BF906410B71DF220B06A4871B9F3DE415A
:100F5000BE847DD4DA1AEBE4DD6D51B5D4F4C785D7
:100F6000D38356986C13C0A86B647AF962FDECC900
:100F7000658A4F5C0114D96C0663633D0FFAF50D69
:100F8000088DC8206E3B5E10694CE44160D57271DB
:100F900067A2D1E4033C47D4044BFD850DD26BB569
:100FA0000AA5FAA8B5356C98B242D6C9BBDB40F9A0
:100FB000BCACE36CD832755CDF45CF0DD6DC593D57
:100FC000D1ABAC30D9263A00DE518051D7C816617A
:100FD000D0BFB5F4B42123C4B3569995BACF0FA5A9
:100FE000BDB89EB802280888055FB2D90CC624E9AE
:100FF0000BB1877C6F2F114C6858AB1D61C13D2D23
:1010000066B69041DC760671DB01BC20D2982A10CE
:10101000D5EF8985B1711FB5B606A5E4BF9F33D45E
:10102000B8E8A2C9077834F9000F8EA80996189875
:101030000EE1BB0D6A7F2D3D6D08976C6491015CDC
:1010400063E6F4516B6B62616C1CD83065854E00B1
:1010500062F2ED95066C7BA5011BC1F4088257C4B2
:101060000FF5C6D9B06550E9B712EAB8BE8B7C88D7
:10107000B9FCDF1DDD62492DDA15F37CD38C654C9C
:10108000D4FB5861B24DCE51B53A7400BCA3E230E6
:10109000BBD441A5DF4AD795D83D6DC4D1A4FBF49C
:1010A000D6D36AE96943FCD96E34468867ADD0B8B7
:1010B00060DA732D0444E51D03335F4C0AAAC97C32
:1010C0000DDD3C710550AA41022710100BBE862091
:1010D0000CC925B56857B3856F2009D466B99FE45C
:1010E00061CE0EF9DE5E98C9D9292298D0B0B4A895
:1010F000D7C7173DB359810DB42E3B5CBDB7AD6C5E
:10110000BAC02083B8EDB6B3BF9A0CE2B6039AD248
:10111000B1743947D5EAAF77D29D1526DB04831623
:10112000DC73120B63E3843B64943E6A6D0DA85A32
:101130006A7A0BCF0EE49DFF099327AE000AB19E99
:10114000077D44930FF0D2A3088768F2011EFEC208
:1011500006695D5762F7CB67658071366C19E706E3
:101160006B6E761BD4FEE02BD3895A7ADA10CC4A08
:10117000DD676FDFB9F9F9EFBE8E43BEB717D58EC5
:10118000B060E8A3D6D67E93D1A1C4C2D83852F2BB
:10119000DF4FF167BBD16757BCA6DD06B53F4B36C5
:1011A000B248DA2B0DD84C1B0AAFF64A0336607AE8
:1011B0000441C3EF60DF55DF67A8EF8E6E3179BE63
:1011C00069468CB361CB1A8366BCA0D26F2536E228
:1011D000685295770CCC03470BBBB91602222F2619
:1011E0000555BE3BBAC5280BBDB2925AB42B046A52
:1011F000B35CA7FFD7C231CFD0B58B9ED92C1DAE23
:10120000DE5BB0C2649B26F263EC9CA36A750A9312
:101210006D02A906099C3F360EEB856707721357CE
:101220000005824ABF95147AB8E2AE2BB17B381B19
:10123000B60C9B8ED2920DBED5E5B7EFDC7C21DFDC
:10124000DB0BD4D2D38642E2D4F1F8B3DD686E83EF
:10125000DA1FCD16BE815B26B9F6E177B06F77470E
:10126000B718E65A0888706A0FFFCA3B06665C0B1F
:101270000111FF9E658F69AE62F8D3FF6B6145CFA8
:101280006C1678E20AA0EED20DD75483044EC2B396
:101290000339612667A7F71660D04D476949DB77A8
:1012A0006E3E4A6AD1AEDC5AD6D9660BDF40F03BBF
:1012B000D83753AEBCA9C59EBBDE7FCFB247E9FF8E
:1012C000B5301CF2BDBD8AC2BACA3093B353A6A3CF
:1012D000B4240536D0BA9306D7CD2957DE54BF675C
:1012E000D9232E7A66B3B84A61C4021B685D942B79
:1012F0006F2A37BE0BB4A18E0CC31BDF055A8DEFCE
:10130000022D0000000041311B1982623632C353A6
:101310002D2B04C56C6445F4777D86A75A56C79675
:10132000414F088AD9C849BBC2D18AE8EFFACBD964
:10133000F4E30C4FB5AC4D7EAEB58E2D839ECF1C25
:1013400098875112C24A1023D953D370F47892412E
:10135000EF6155D7AE2E14E6B537D7B5981C9684F5
:10136000830559981B8218A9009BDBFA2DB09ACBF4
:1013700036A95D5D77E61C6C6CFFDF3F41D49E0EA5
:101380005ACDA2248495E3159F8C2046B2A761779D
:10139000A9BEA6E1E8F1E7D0F3E82483DEC365B295
:1013A000C5DAAAAE5D5DEB9F464428CC6B6F69FD44
:1013B0007076AE6B3139EF5A2A202C09070B6D3845
:1013C0001C12F33646DFB2075DC6715470ED30650E
:1013D0006BF4F7F32ABBB6C231A275911C8934A015
:1013E0000790FBBC9F17BA8D840E79DEA92538EFD4
:1013F000B23CFF79F373BE48E86A7D1BC5413C2AC5
:10140000DE58054F79F0447E62E9872D4FC2C61C35
:1014100054DB018A159440BB0E8D83E823A6C2D904
:1014200038BF0DC5A0384CF4BB218FA7960ACE96C5
:101430008D130900CC5C4831D7458B62FA6ECA53D4
:10144000E177545DBBBA156CA0A3D63F8D88970E8B
:1014500096915098D7DE11A9CCC7D2FAE1EC93CB84
:10146000FAF55CD762721DE6796BDEB554409F8455
:101470004F5958120E161923150FDA7038249B4154
:10148000233DA76BFD65E65AE67C2509CB576438FA
:10149000D04EA3AE9101E29F8A1821CCA73360FD04
:1014A000BC2AAFE124ADEED03FB42D83129F6CB2C5
:1014B0000986AB2448C9EA1553D029467EFB6877D4
:1014C00065E2F6793F2FB7482436741B091D352A8B
:1014D0001204F2BC534BB38D485270DE657931EF84
:1014E0007E60FEF3E6E7BFC2FDFE7C91D0D53DA055
:1014F000CBCCFA368A83BB07919A7854BCB1396554
:10150000A7A84B98833B0AA99822C9FAB50988CBAA
:10151000AE104F5DEF5F0E6CF446CD3FD96D8C0E73
:10152000C27443125AF3022341EAC1706CC1804174
:1015300077D847D7369706E62D8EC5B500A58484A3
:101540001BBC1A8A41715BBB5A6898E87743D9D9AA
:101550006C5A1E4F2D155F7E360C9C2D1B27DD1CF3
:10156000003E120098B9533183A09062AE8BD153E4
:10157000B59216C5F4DD57F4EFC494A7C2EFD59623
:10158000D9F6E9BC07AEA88D1CB76BDE319C2AEFFB
:101590002A85ED796BCAAC4870D36F1B5DF82E2A93
:1015A00046E1E136DE66A007C57F6354E854226554
:1015B000F34DE5F3B202A4C2A91B6791843026A0C3
:1015C0009F29B8AEC5E4F99FDEFD3ACCF3D67BFD8A
:1015D000E8CFBC6BA980FD5AB2993E099FB27F3813
:1015E00084ABB0241C2CF115073532462A1E7377C4
:1015F0003107B4E17048F5D06B513683467A77B243
:101600005D634ED7FACB0FE6E1D2CCB5CCF98D8431
:10161000D7E04A1296AF0B238DB6C870A09D8941C2
:10162000BB84465D2303076C381AC43F1531850E11
:101630000E2842984F6703A9547EC0FA795581CB92
:10164000624C1FC538815EF423989DA70EB3DC96CB
:1016500015AA1B0054E55A314FFC996262D7D85342
:1016600079CE174FE149567EFA50952DD77BD41C81
:10167000CC62138A8D2D52BB963491E8BB1FD0D912
:10168000A006ECF37E5EADC265476E91486C2FA05C
:101690005375E836123AA90709236A5424082B65C2
:1016A0003F11E479A796A548BC8F661B91A4272A11
:1016B0008ABDE0BCCBF2A18DD0EB62DEFDC023EF92
:1016C000E6D9BDE1BC14FCD0A70D3F838A267EB2CB
:1016D000913FB924D070F815CB693B46E6427A7742
:1016E000FD5BB56B65DCF45A7EC5370953EE763881
:1016F00048F7B1AE09B8F09F12A133CC3F8A72FD12
:10170000249300000000376AC2016ED4840359BEDE
:101710004602DCA80907EBC2CB06B27C8D04851615
:101720004F05B851130E8F3BD10FD685970DE1EFC2
:10173000550C64F91A095393D8080A2D9E0A3D479F
:101740005C0B70A3261C47C9E41D1E77A21F291D30
:10175000601EAC0B2F1B9B61ED1AC2DFAB18F5B5F9
:101760006919C8F23512FF98F713A626B111914CEA
:101770007310145A3C152330FE147A8EB8164DE4BB
:101780007A17E0464D38D72C8F398E92C93BB9F87D
:101790000B3A3CEE443F0B84863E523AC03C6550C7
:1017A000023D58175E366F7D9C3736C3DA3501A986
:1017B000183484BF5731B3D59530EA6BD332DD018D
:1017C000113390E56B24A78FA925FE31EF27C95B64
:1017D0002D264C4D62237B27A0222299E62015F36B
:1017E000242128B4782A1FDEBA2B4660FC29710A0E
:1017F0003E28F41C712DC376B32C9AC8F52EADA2E9
:10180000372FC08D9A70F7E75871AE591E73993310
:10181000DC721C2593772B4F517672F11774459B20
:10182000D57578DC897E4FB64B7F16080D7D216219
:10183000CF7CA4748079931E4278CAA0047AFDCA32
:10184000C67BB02EBC6C87447E6DDEFA386FE990A3
:10185000FA6E6C86B56B5BEC776A0252316835388C
:10186000F369087FAF623F156D6366AB2B6151C1B1
:10187000E960D4D7A665E3BD6464BA0322668D69C6
:10188000E06720CBD74817A115494E1F534B7975F8
:10189000914AFC63DE4FCB091C4E92B75A4CA5DD32
:1018A000984D989AC446AFF00647F64E4045C1247D
:1018B00082444432CD4173580F402AE649421D8C80
:1018C0008B435068F154670233553EBC755709D6B7
:1018D000B7568CC0F853BBAA3A52E2147C50D57E5E
:1018E000BE51E839E25ADF53205B86ED6659B18775
:1018F000A4583491EB5D03FB295C5A456F5E6D2F54
:10190000AD5F801B35E1B771F7E0EECFB1E2D9A54D
:1019100073E35CB33CE66BD9FEE73267B8E5050DCF
:101920007AE4384A26EF0F20E4EE569EA2EC61F4EA
:1019300060EDE4E22FE8D388EDE98A36ABEBBD5CDD
:1019400069EAF0B813FDC7D2D1FC9E6C97FEA906D8
:1019500055FF2C101AFA1B7AD8FB42C49EF975AEBB
:101960005CF848E900F37F83C2F2263D84F011570A
:1019700046F1944109F4A32BCBF5FA958DF7CDFFF1
:101980004FF6605D78D95737BAD80E89FCDA39E35B
:101990003EDBBCF571DE8B9FB3DFD221F5DDE54B7D
:1019A00037DCD80C6BD7EF66A9D6B6D8EFD481B2A6
:1019B0002DD504A462D033CEA0D16A70E6D35D1ACF
:1019C00024D210FE5EC527949CC47E2ADAC6494004
:1019D00018C7CC5657C2FB3C95C3A282D3C195E829
:1019E00011C0A8AF4DCB9FC58FCAC67BC9C8F11126
:1019F0000BC9740744CC436D86CD1AD3C0CF2DB923
:101A000002CE4096AF9177FC6D902E422B92192812
:101A1000E9939C3EA696AB546497F2EA2295C58062
:101A2000E094F8C7BC9FCFAD7E9E9613389CA179F9
:101A3000FA9D246FB598130577994ABB319B7DD1E8
:101A4000F39A3035898D075F4B8C5EE10D8E698B83
:101A5000CF8FEC9D808ADBF7428B82490489B523C6
:101A6000C68888649A83BF0E5882E6B01E80D1DA99
:101A7000DC8154CC938463A651853A1817870D7284
:101A8000D586A0D0E2A997BA20A8CE0466AAF96E9E
:101A9000A4AB7C78EBAE4B1229AF12AC6FAD25C670
:101AA000ADAC1881F1A72FEB33A6765575A4413F55
:101AB000B7A5C429F8A0F3433AA1AAFD7CA39D973A
:101AC000BEA2D073C4B5E71906B4BEA740B689CD8F
:101AD00082B70CDBCDB23BB10FB3620F49B1556594
:101AE0008BB06822D7BB5F4815BA06F653B8319C55
:101AF00091B9B48ADEBC83E01CBDDA5E5ABFED3416
:101B000098BE000000006567BCB88BC809AAEEAF9C
:101B1000B5125797628F32F0DE37DC5F6B25B9382C
:101B2000D79DEF28B4C58A4F087D64E0BD6F01875B
:101B300001D7B8BFD64ADDD86AF23377DFE0561056
:101B400063589F571950FA30A5E8149F10FA71F89E
:101B5000AC42C8C07BDFADA7C76743087275266F6C
:101B6000CECD707FAD951518112DFBB7A43F9ED03B
:101B7000188727E8CF1A428F73A2AC20C6B0C94796
:101B80007A083EAF32A05BC88E18B5673B0AD0001A
:101B900087B26938502F0C5FEC97E2F05985879730
:101BA000E53DD1878665B4E03ADD5A4F8FCF3F28B7
:101BB00033778610E4EAE37758520DD8ED4068BFDA
:101BC00051F8A1F82BF0C49F97482A30225A4F575A
:101BD0009EE2F66F497F9308F5C77DA740D518C0F0
:101BE000FC6D4ED09F352BB7238DC518969FA07FD7
:101BF0002A271947FDBA7C204102928FF410F7E89A
:101C000048A83D58149B583FA823B6901D31D3F7E0
:101C1000A1896ACF76140FA8CAACE1077FBE8460A1
:101C2000C306D270A05EB7171CE659B8A9F43CDF12
:101C3000154C85E7C2D1E0807E690E2FCB7B6B48C7
:101C400077C3A20F0DCBC768B17329C704614CA03D
:101C5000B8D9F5986F4490FFD3FC7E5066EE1B37E1
:101C6000DA564D27B90E284005B6C6EFB0A4A388B2
:101C70000C1C1AB0DB817FD767399178D22BF41F07
:101C80006E9303F7263B66909A83883F2F91ED5819
:101C90009329546044B43107F80CDFA84D1EBACF25
:101CA000F1A6ECDF92FE89B82E4667179B540270AE
:101CB00027ECBB48F071DE2F4CC93080F9DB55E7CB
:101CC00045639CA03F6BF9C783D3176836C1720F79
:101CD0008A79CB375DE4AE50E15C40FF544E2598E5
:101CE000E8F673888BAE16EF3716F84082049D270E
:101CF0003EBC241FE92141785599AFD7E08BCAB08B
:101D00005C333BB659ED5ED1E555B07E5047D519F1
:101D1000ECFF6C213B62094687DAE7E932C8828E24
:101D20008E70D49EED28B1F951905F56E4823A311D
:101D3000583A83098FA7E66E331F08C1860D6DA63A
:101D40003AB5A4E140BDC186FC052F2949174A4E8A
:101D5000F5AFF376223296119E8A78BE2B981DD964
:101D600097204BC9F4782EAE48C0C001FDD2A566BD
:101D7000416A1C5E96F779392A4F97969F5DF2F17A
:101D800023E505196B4D607ED7F58ED162E7EBB682
:101D9000DE5F528E09C237E9B57AD9460068BC21A8
:101DA000BCD0EA31DF888F56633061F9D622049EB9
:101DB0006A9ABDA6BD07D8C101BF366EB4AD53093E
:101DC00008159A4E721DFF29CEA511867BB774E1C6
:101DD000C70FCDD91092A8BEAC2A46111938237668
:101DE000A5807566C6D810017A60FEAECF729BC919
:101DF00073CA22F1A457479618EFA939ADFDCC5EFE
:101E0000114506EE4D766389F1CE8D2644DCE8411E
:101E1000F86451792FF9341E9341DAB12653BFD6B5
:101E20009AEBE9C6F9B38CA1450B620EF01907696C
:101E30004CA1BE519B3CDB3627843599929650FECF
:101E40002E2E99B95426FCDEE89E12715D8C771611
:101E5000E134CE2E36A9AB498A1145E63F032081F5
:101E600083BB7691E0E313F65C5BFD59E949983E4C
:101E700055F12106826C44613ED4AACE8BC6CFA90F
:101E8000377E38417FD65D26C36EB389767CD6EE29
:101E9000CAC46FD61D590AB1A1E1E41E14F38179B9
:101EA000A84BD769CB13B20E77AB5CA1C2B939C6C8
:101EB0007E0180FEA99CE59915240B36A0366E5153
:101EC0001C8EA7166686C271DA3E2CDE6F2C49B9CD
:101ED000D394F081040995E6B8B17B490DA31E2E79
:101EE000B11B483ED2432D596EFBC3F6DBE9A691E8
:101EF00067511FA9B0CC7ACE0C749461B966F10613
:101F000005DE00002100240027002A002D003000FB
:101F1000330001010000040107010A010000220052
:101F2000250028002B002E003100340002010000A3
:101F3000050108010B010505050507050808080846
:101F4000020202020A0A0808040404040101010151
:101F5000010101010303030303030303040707074C
:101F60000C0C0C0C0C0C0C0C0202020206060606F1
:101F7000060606060B0B0B0B0B0B0B0B01021020BE
:101F800020080810204010204080020102010804AF
:101F90000201010204081020408080402010080443
:101FA000020180040201804020100804020108049C
:101FB00002010102040810204080010204081020E0
:101FC000408000000A0B02090C0D0E0807030401F3
:101FD0000000000000000000000000000000000001
:101FE00000000000000000000000000000001211CE
:101FF00010000000000000000000000000000000D1
:1020000000000000000000000A5061676520686160
:1020100073206E6F74206265656E20696D706C65EB
:102020006D656E746564207965740000002000237E
:1020300000260029002C002F0032000001000003C0
:10204000010601090100AE0311241FBECFEFD1E24A
:10205000DEBFCDBF00E00CBF12E0A0E0B2E0EAE0DE
:10206000F9EC02E00BBF02C007900D92A838B1074F
:10207000D9F727E1A8E8B2E001C01D92A530B20768
:10208000E1F710E1C4E2D0E100E006C021970109C8
:10209000802FFE010F946764C332D10780E00807E8
:1020A000A9F70F94FC340D9483640C9400008F9274
:1020B0009F92AF92BF92CF92DF92EF92FF920F93D7
:1020C0001F93CF93DF9349ECE42E4EE0F42E00E013
:1020D00010E0C3E2D1E0CE010F941364F7016191E7
:1020E0007F01861729F0CE010F941B640F5F1F4FED
:1020F0002196C33AF1E0DF0799F00F3111055CF347
:1021000081E08093740DDF91CF911F910F91FF902B
:10211000EF90DF90CF90BF90AF909F908F900895F9
:102120000F3111056CF71092740D81E090E00F945F
:10213000136460913F09861709F453C081E090E071
:102140000F941B64C2E0D0E001E010E082E090E078
:102150000F94136460914009861729F082E090E0A3
:102160000F941B648E0123E0E22EF12C2FC03595D5
:10217000279535952795359527953595279531954B
:1021800021953109215F3F4F220F331FE091410913
:10219000F0914209E20FF31FCF70DD2720813181DA
:1021A000C20FD31F6881861729F0C7010F941B64E3
:1021B0000F5F1F4F8FEFE81AF80AE3E0EE16E1E039
:1021C000FE06A1F00F3111050CF09ACFE70123971D
:1021D000C7010F9413649E01D7FFC9CF215F3F4F02
:1021E000C6CFC1E0D0E000E010E0B0CF0F31110564
:1021F0000CF086CFE12CF12CC3E0D1E0C090430974
:10220000D090440934E6A32EB12CCE010F94136470
:10221000282FF601EE0DFF1D80819181B5010F94ED
:102220008962822F90E09B01332782179307B1F0D8
:10223000CE010F941B640F5F1F4F2196C33181E0C5
:10224000D807A9F0F2E0EF0EF11C0F31110509F4E7
:1022500057CFC0904309D0904409D7CF2196C331BE
:10226000E1E0DE0721F082E0E80EF11CCECF0F3175
:10227000110509F445CFE12CF12C03E111E015C063
:10228000EB01D595C795C8010F941364C81721F0C9
:102290006C2FC8010F941B640F5F1F4FE2E0EE0E1E
:1022A000F11C0332F1E01F0769F0E0914509F0915C
:1022B0004609EE0DFF1D6081718177FFE1CF6F5FF1
:1022C0007F4FDECF1092740D83EA91E00F94136478
:1022D0006091C109861709F451C083EA91E00F9417
:1022E0001B6412E000E0C1E0D0E084EA91E00F94CA
:1022F00013646091C209861731F084EA91E00F946B
:102300001B64C12FD02F05EA11E030C09595879549
:1023100095958795959587959595879591958195AF
:1023200091090F96880F991FE091C309F091C40994
:10233000E80FF91F2F7033270190F081E02DE20F95
:10234000F31FF080C8010F941364F81629F06F2D65
:10235000C8010F941B6421960F5F1F4F053A82E05E
:10236000180789F0CF31D1050CF0CACE9801255A53
:102370003140C90137FFCACF0F96C8CF11E000E046
:10238000C0E0D0E0B2CFCF31D1050CF0B9CEE12C16
:10239000F12C05EA12E0A090C509B090C609F4E658
:1023A0008F2E912CF501EE0DFF1D80819181B401DE
:1023B0000F948962D62EC8010F941364D816B9F011
:1023C0006D2DC8010F941B6421960F5F1F4F053BB5
:1023D000F2E01F07B1F0E2E0EE0EF11CCF31D105C3
:1023E00009F48ECEA090C509B090C609DBCF0F5F6F
:1023F0001F4F053B82E0180721F0F2E0EF0EF11CC1
:10240000D1CFCF31D10509F47BCEC12CD12C65EBD6
:10241000E62E62E0F62E1CC08B0115950795C701CC
:102420000F941364081729F0602FC7010F941B64E1
:102430002196EFEFEE1AFE0AF5ECEF16F2E0FF063A
:10244000A1F082E0C80ED11CCF31D10509F458CEDD
:10245000E091C709F091C809EC0DFD1D6081718103
:1024600077FFDACF6F5F7F4FD7CF6F9709F448CEF2
:102470001092740D4AE4E42E4FE0F42EC5ECD2E045
:1024800000E010E0CE010F941364F70161917F0129
:10249000861729F0CE010F941B640F5F1F4F219602
:1024A000C534F3E0DF0721F00F3111055CF328CECE
:1024B0000F3111050CF024CE1092740D85E493E0D9
:1024C0000F94136460919A02861709F455C085E44D
:1024D00093E00F941B64C2E0D0E001E010E086E4DA
:1024E00093E00F94136460919B02681729F086E4CF
:1024F00093E00F941B648E0127E4E22E23E0F22E7A
:102500002FC0359527953595279535952795359580
:102510002795319521953109215F3F4F220F331FB8
:10252000E0919C02F0919D02E20FF31FCF70DD2736
:1025300020813181C20FD31F6881861729F0C7011E
:102540000F941B640F5F1F4F8FEFE81AF80AE7E440
:10255000EE16E4E0FE06A9F00F3111050CF0D0CD27
:10256000E701C754D340C7010F9413649E01D7FFFE
:10257000C8CF215F3F4FC5CFC1E0D0E000E010E001
:10258000AECF0F3111050CF0BBCDE12CF12CC7E41F
:10259000D4E0C0909E02D0909F0234E6A32EB12CCE
:1025A000CE010F941364282FF601EE0DFF1D8081DC
:1025B0009181B5010F948962822F90E09B013327AE
:1025C00082179307B1F0CE010F941B640F5F1F4F6A
:1025D0002196C73584E0D807A9F0F2E0EF0EF11C90
:1025E0000F31110509F48CCDC0909E02D0909F024E
:1025F000D7CF2196C735F4E0DF0721F0E2E0EE0EF9
:10260000F11CCECF0F31110509F47ACDE12CF12C5C
:1026100007E514E015C0EB01D595C795C8010F94E7
:102620001364C81721F06C2FC8010F941B640F5F4F
:102630001F4FE2E0EE0EF11C0736F4E01F0769F0D1
:10264000E091A002F091A102EE0DFF1D6081718169
:1026500077FFE1CF6F5F7F4FDECF1092740DF9E30C
:10266000EF2EFEE0FF2EC7E6D4E000E010E0CE0142
:102670000F941364F70161917F01861729F0CE0151
:102680000F941B640F5F1F4F2196C73EF4E0DF07D6
:1026900021F00F3111055CF333CD0F3111050CF032
:1026A0002FCD1092740D87E00E9484EC8091740D00
:1026B000811129CD88E00E9484EC8091740D8111F4
:1026C00022CDE0EFEE2EEFE0FE2ECEEAD6E000E0E7
:1026D00010E0CE010F941364F70161917F0186171A
:1026E00029F0CE010F941B640F5F1F4F2196CE3649
:1026F000F7E0DF0721F00F3111055CF301CD0F3159
:1027000011050CF0FDCC1092740D77E7E72E7DE0FB
:10271000F72ECEE6D7E000E010E0CE010F94136470
:10272000F70161917F01861729F0CE010F941B6498
:102730000F5F1F4F2196CE32F8E0DF0721F00F31F7
:1027400011055CF3DDCC0F3111050CF0D9CC1092E2
:10275000740DC09188028EE298E00F941364C8173C
:1027600029F06C2F8EE298E00F941B64C0918902CF
:102770008FE298E00F941364C81729F06C2F8FE252
:1027800098E00F941B6460E3E62E68E0F62E02E00A
:1027900010E02FC0359527953595279535952795C8
:1027A00035952795319521953109215F3F4F220FAE
:1027B000331FE0918A02F0918B02E20FF31FCF707A
:1027C000DD2720813181C20FD31F6881861729F050
:1027D000C7010F941B640F5F1F4F8FEFE81AF80AB1
:1027E000E0E3EE16E9E0FE0681F00F3111050CF092
:1027F00087CCE701C053D840C7010F9413649E01F2
:10280000D7FFC8CF215F3F4FC5CF0F3111050CF067
:1028100077CCE12CF12CC0E3D9E0C0908C02D090B1
:102820008D0254E6A52EB12CCE010F941364282FEF
:10283000F601EE0DFF1D80819181B5010F94896233
:10284000822F90E09B01332782179307B1F0CE01CE
:102850000F941B640F5F1F4F2196C13489E0D80786
:10286000A9F0F2E0EF0EF11C0F31110509F448CC8C
:10287000C0908C02D0908D02D7CF2196C134E9E070
:10288000DE0721F082E0E80EF11CCECF0F311105FA
:1028900009F436CCE12CF12C01E419E015C0EB0170
:1028A000D595C795C8010F941364C81721F06C2FF4
:1028B000C8010F941B640F5F1F4FE2E0EE0EF11C86
:1028C0000135F9E01F0769F0E0918E02F0918F0267
:1028D000EE0DFF1D6081718177FFE1CF6F5F7F4F4C
:1028E000DECF1092740D0FCC4F925F926F927F9259
:1028F0008F929F92AF92BF92CF92DF92EF92FF9210
:102900000F931F93CF93DF931F92CDB7DEB790E065
:10291000FC013197EB30F105A8F060E070E0CB01ED
:102920000F90DF91CF911F910F91FF90EF90DF906B
:10293000CF90BF90AF909F908F907F906F905F905F
:102940004F9008958827EE58FF4F8F4F0D9467647E
:1029500087E79DE083709927892B11F40C949E21C1
:1029600044244A94542C320140EC50E027E73DE0E7
:1029700004C04115510509F4E4C1FF24E72CD62C0D
:10298000C52C2F5F3F4FF9013197E081D301C20180
:102990009927AA27BB278E27FC01EE0FFF1FEE0FFA
:1029A000FF1FEE5FF04F85919591A591B49126019F
:1029B0003701482659266A267B2641505109F901DC
:1029C000E370FF27EF2BA9F64031510510F40C946A
:1029D000CC21D9018A0100511109CD90DD90ED90F3
:1029E000FC901397C301B2016C257D258E259F2590
:1029F0006B017C01DD24EE24FF24E3E0DE0EE11C0C
:102A0000F11CF601EE0FFF1FEE0FFF1FEE5FF04F00
:102A100085909590A590B490C72ED12CE12CF12CE7
:102A2000E2E0DE0EE11CF11CF601EE0FFF1FEE0FDF
:102A3000FF1FEE5FF04F4590559065907490C82E43
:102A4000D12CE12CF12CEFEFDE1AEE0AFE0AF60192
:102A5000EE0FFF1FEE0FFF1FEE5FF04FC590D590FA
:102A6000E590F490692F772788279927FB01EE0FCF
:102A7000FF1FEE0FFF1FEE5FF04F6591759185917F
:102A8000949184249524A624B724C824D924EA2424
:102A9000FB24C626D726E826F92614968D909D900D
:102AA000AD90BC9017978C249D24AE24BF24750153
:102AB0006401DD24EE24FF2483E0D80EE11CF11C28
:102AC000F601EE0FFF1FEE0FFF1FEE5FF04FC590F8
:102AD000D590E590F490492C512C612C712CE2E0BA
:102AE0005E0E611C711CF201EE0FFF1FEE0FFF1F47
:102AF000EE5FF04F65917591859194914A2C512C20
:102B0000612C712CEFEF5E1A6E0A7E0AF201EE0F55
:102B1000FF1FEE0FFF1FEE5FF04F45905590659041
:102B200074908B2C9924AA24BB24F401EE0FFF1F70
:102B3000EE0FFF1FEE5FF04F85909590A590B4903B
:102B4000C626D726E826F9264C245D246E247F2449
:102B5000482459246A247B241896CD90DD90ED906A
:102B6000FC901B97C424D524E624F7244601570182
:102B70009924AA24BB2483E0980EA11CB11CF40163
:102B8000EE0FFF1FEE0FFF1FEE5FF04F8590959049
:102B9000A590B4904D2C512C612C712CE2E05E0E6E
:102BA000611C711CF201EE0FFF1FEE0FFF1FEE5FA5
:102BB000F04F65917591859194914E2C512C612C1B
:102BC000712CEFEF5E1A6E0A7E0AF201EE0FFF1F04
:102BD000EE0FFF1FEE5FF04F45905590659074909B
:102BE000CF2CDD24EE24FF24F601EE0FFF1FEE0FA5
:102BF000FF1FEE5FF04FC590D590E590F4908626CC
:102C00009726A826B926482459246A247B244C24D4
:102C10005D246E247F241C968D909D90AD90BC9079
:102C20001F9784249524A624B72475016401DD240C
:102C3000EE24FF2483E0D80EE11CF11CF601EE0F18
:102C4000FF1FEE0FFF1FEE5FF04F659175918591AD
:102C50009491C92CD12CE12CF12CE2E0DE0EE11C88
:102C6000F11CF601EE0FFF1FEE0FFF1FEE5FF04F9E
:102C70004590559065907490CA2CD12CE12CF12C84
:102C8000EFEFDE1AEE0AFE0AF601EE0FFF1FEE0F5F
:102C9000FF1FEE5FF04FC590D590E590F4908B2C20
:102CA0009924AA24BB24F401EE0FFF1FEE0FFF1F8F
:102CB000EE5FF04F85909590A590B49046265726EC
:102CC00068267926C424D524E624F7242601370172
:102CD000482459246A247B2450960031110508F0B9
:102CE0007ACEDA01AF70BB27FA017097E07F709659
:102CF0002E0F3F1F109729F1A9014A0F5B1FBB241C
:102D0000A72C962C852CD901ED919D01CE2ED12C8E
:102D1000E12CF12CD701C6018425FC01EE0FFF1F29
:102D2000EE0FFF1FEE5FF04F85919591A591B49145
:102D300024013501482659266A267B264217530767
:102D4000F1F6C301B20160957095809590956093FE
:102D50004514709346148093471490934814E0CD23
:102D6000E0918A02F0918B02068CF78DE02DE081D4
:102D7000E9838E010F5F1F4FC80183709927E0958B
:102D8000892B11F40C944721B4E0EB9FF00111243E
:102D9000EE5FF04F85919591A591B49180959095B6
:102DA000A0958093451490934614A0934714B09334
:102DB00048144CE3C42E42E0D42EEE24E394F12CCC
:102DC0006EE3862E912C74E6A72EB12C26C0A0E1CE
:102DD000EA16A1E0FA0610F40C94FC20E0918E02B1
:102DE000F0918F02EC0DFD1D6081718177FF02C0B3
:102DF0000C948F21759567956983C8010E9455C20F
:102E0000BFEFEB1AFB0AE2E0CE1AD10820E2E2168D
:102E100021E0F20611F40C94C11E8FEFE816F104C4
:102E200009F0A8F6C701929582958F7089279F7047
:102E30008927880F991FE0918A02F0918B02E81B85
:102E4000F90B068CF78DE02DC7018F709927E80FDD
:102E5000F91F6081D1CF89EC9EE083709927892B7F
:102E600011F40C94A82144244A94542C320140E8D3
:102E700050E029EC3EE004C04115510509F461CF52
:102E8000FF24E72CD62CC52C2F5F3F4FF90131973B
:102E9000E081D301C2019927AA27BB278E27FC0115
:102EA000EE0FFF1FEE0FFF1FEE5FF04F8591959124
:102EB000A591B49126013701482659266A267B261A
:102EC00041505109F901E370FF27EF2BA9F640317A
:102ED000510510F40C94CF21D9018A010051110938
:102EE000CD90DD90ED90FC901397C301B2016C255D
:102EF0007D258E259F256B017C01DD24EE24FF249A
:102F0000E3E0DE0EE11CF11CF601EE0FFF1FEE0FF9
:102F1000FF1FEE5FF04F85909590A590B490C72E5F
:102F2000D12CE12CF12CE2E0DE0EE11CF11CF601CB
:102F3000EE0FFF1FEE0FFF1FEE5FF04F4590559015
:102F400065907490C82ED12CE12CF12CEFEFDE1A95
:102F5000EE0AFE0AF601EE0FFF1FEE0FFF1FEE5FF7
:102F6000F04FC590D590E590F490692F772788278A
:102F70009927FB01EE0FFF1FEE0FFF1FEE5FF04FD3
:102F8000659175918591949184249524A624B72404
:102F9000C824D924EA24FB24C626D726E826F92605
:102FA00014968D909D90AD90BC9017978C249D2485
:102FB000AE24BF2475016401DD24EE24FF2483E0E8
:102FC000D80EE11CF11CF601EE0FFF1FEE0FFF1FE4
:102FD000EE5FF04FC590D590E590F490492C512CC0
:102FE000612C712CE2E05E0E611C711CF201EE0F8F
:102FF000FF1FEE0FFF1FEE5FF04F659175918591FA
:1030000094914A2C512C612C712CEFEF5E1A6E0AB0
:103010007E0AF201EE0FFF1FEE0FFF1FEE5FF04F73
:1030200045905590659074908B2C9924AA24BB24CC
:10303000F401EE0FFF1FEE0FFF1FEE5FF04F8590C4
:103040009590A590B490C626D726E826F9264C245C
:103050005D246E247F24482459246A247B241896F6
:10306000CD90DD90ED90FC901B97C424D524E624F0
:10307000F724460157019924AA24BB2483E0980E23
:10308000A11CB11CF401EE0FFF1FEE0FFF1FEE5F3E
:10309000F04F85909590A590B4904D2C512C612CBB
:1030A000712CE2E05E0E611C711CF201EE0FFF1F3D
:1030B000EE0FFF1FEE5FF04F659175918591949132
:1030C0004E2C512C612C712CEFEF5E1A6E0A7E0A89
:1030D000F201EE0FFF1FEE0FFF1FEE5FF04F459066
:1030E000559065907490CF2CDD24EE24FF24F601DA
:1030F000EE0FFF1FEE0FFF1FEE5FF04FC590D59054
:10310000E590F49086269726A826B92648245924C7
:103110006A247B244C245D246E247F241C968D908D
:103120009D90AD90BC901F9784249524A624B7242D
:1031300075016401DD24EE24FF2483E0D80EE11C38
:10314000F11CF601EE0FFF1FEE0FFF1FEE5FF04FB9
:103150006591759185919491C92CD12CE12CF12C1C
:10316000E2E0DE0EE11CF11CF601EE0FFF1FEE0F98
:10317000FF1FEE5FF04F4590559065907490CA2CFC
:10318000D12CE12CF12CEFEFDE1AEE0AFE0AF6014B
:10319000EE0FFF1FEE0FFF1FEE5FF04FC590D590B3
:1031A000E590F4908B2C9924AA24BB24F401EE0F13
:1031B000FF1FEE0FFF1FEE5FF04F85909590A590DB
:1031C000B4904626572668267926C424D524E624BA
:1031D000F72426013701482459246A247B24509679
:1031E0000031110508F07ACEDA01AF70BB27FA0181
:1031F0007097E07F70962E0F3F1F109709F4A1CDB6
:10320000A9014A0F5B1FBB24A72C962C852CD90142
:10321000ED919D01CE2ED12CE12CF12CD701C601D0
:103220008425FC01EE0FFF1FEE0FFF1FEE5FF04F36
:1032300085919591A591B49124013501482659268F
:103240006A267B2642175307F1F67BCDE0914109B0
:10325000F0914209068CF78DE02DE081E9838E0123
:103260000F5F1F4FC80183709927E095892B11F4D8
:103270000C94382124E0E29FF0011124EE5FF04F1E
:1032800085919591A591B49180959095A095809305
:10329000451490934614A0934714B0934814B2E099
:1032A000CB2EBEEFDB2EEE24E394F12C9EE3892E91
:1032B000912C24E6A22EB12C28C0B0E1EB16B1E08F
:1032C000FB0610F40C940C21E0914509F09146099D
:1032D000C4018C199D09E80FF91F6081718177FF86
:1032E00002C00C949621759567956983C8010E9468
:1032F00055C2EFEFEE1AFE0A22E0C20ED11CA0E288
:10330000EA16A1E0FA0609F43CC5AFEFEA16F104AB
:1033100009F098F6C701929582958F7089279F7062
:103320008927880F991FE0914109F0914209E81B14
:10333000F90B068CF78DE02DC7018F709927E80FE8
:10334000F91F6081D2CFE091C309F091C409068CC6
:10335000F78DE02DE081E9838E010F5F1F4FC801DB
:1033600083709927E095892B11F40C946421B4E0C3
:10337000EB9FF0011124EE5FF04F85919591A5919F
:10338000B49180959095A0958093451490934614A0
:10339000A0934714B0934814BCE3CB2EB2E0DB2ECD
:1033A000EE24E394F12C9EE3892E912C24E6A22EA8
:1033B000B12C25C0A0E1EA16A1E0FA0610F40C94A5
:1033C0001921E091C709F091C809EC0DFD1D60813C
:1033D000718177FF02C00C949A2175956795698376
:1033E000C8010E9455C2BFEFEB1AFB0AE2E0CE1AF9
:1033F000D10820E2E21621E0F20609F4C2C48FEF00
:10340000E816F10409F0B0F6C701929582958F7025
:1034100089279F708927880F991FE091C309F09130
:10342000C409E81BF90B068CF78DE02DC7018F70DE
:103430009927E80FF91F6081D2CF8AE49FE083705B
:103440009927892B11F40C94B22144244A94542CCA
:10345000320140E850E02AE43FE004C04115510544
:1034600009F46FCCFF24E72CD62CC52C2F5F3F4FDF
:10347000F9013197E081D301C2019927AA27BB271F
:103480008E27FC01EE0FFF1FEE0FFF1FEE5FF04FC8
:1034900085919591A591B491260137014826592629
:1034A0006A267B2641505109F901E370FF27EF2B73
:1034B000A9F64031510510F40C94D221D9018A01AA
:1034C00000511109CD90DD90ED90FC901397C30150
:1034D000B2016C257D258E259F256B017C01DD24A5
:1034E000EE24FF24E3E0DE0EE11CF11CF601EE0FFA
:1034F000FF1FEE0FFF1FEE5FF04F85909590A59098
:10350000B490C72ED12CE12CF12CE2E0DE0EE11CB0
:10351000F11CF601EE0FFF1FEE0FFF1FEE5FF04FE5
:103520004590559065907490C82ED12CE12CF12CCB
:10353000EFEFDE1AEE0AFE0AF601EE0FFF1FEE0FA6
:10354000FF1FEE5FF04FC590D590E590F490692F86
:10355000772788279927FB01EE0FFF1FEE0FFF1F2C
:10356000EE5FF04F65917591859194918424952437
:10357000A624B724C824D924EA24FB24C626D726A7
:10358000E826F92614968D909D90AD90BC901797E3
:103590008C249D24AE24BF2475016401DD24EE2417
:1035A000FF2483E0D80EE11CF11CF601EE0FFF1F93
:1035B000EE0FFF1FEE5FF04FC590D590E590F490B1
:1035C000492C512C612C712CE2E05E0E611C711CA7
:1035D000F201EE0FFF1FEE0FFF1FEE5FF04F659140
:1035E0007591859194914A2C512C612C712CEFEF9F
:1035F0005E1A6E0A7E0AF201EE0FFF1FEE0FFF1F2A
:10360000EE5FF04F45905590659074908B2C992407
:10361000AA24BB24F401EE0FFF1FEE0FFF1FEE5F85
:10362000F04F85909590A590B490C626D726E826B1
:10363000F9264C245D246E247F24482459246A24CE
:103640007B241896CD90DD90ED90FC901B97C424C0
:10365000D524E624F724460157019924AA24BB2443
:1036600083E0980EA11CB11CF401EE0FFF1FEE0FBA
:10367000FF1FEE5FF04F85909590A590B4904D2C74
:10368000512C612C712CE2E05E0E611C711CF20168
:10369000EE0FFF1FEE0FFF1FEE5FF04F659175916C
:1036A000859194914E2C512C612C712CEFEF5E1A68
:1036B0006E0A7E0AF201EE0FFF1FEE0FFF1FEE5F94
:1036C000F04F4590559065907490CF2CDD24EE24FA
:1036D000FF24F601EE0FFF1FEE0FFF1FEE5FF04F0E
:1036E000C590D590E590F49086269726A826B92611
:1036F000482459246A247B244C245D246E247F248E
:103700001C968D909D90AD90BC901F97842495241D
:10371000A624B72475016401DD24EE24FF2483E090
:10372000D80EE11CF11CF601EE0FFF1FEE0FFF1F7C
:10373000EE5FF04F6591759185919491C92CD12CD4
:10374000E12CF12CE2E0DE0EE11CF11CF601EE0FA3
:10375000FF1FEE0FFF1FEE5FF04F459055906590F5
:103760007490CA2CD12CE12CF12CEFEFDE1AEE0A6A
:10377000FE0AF601EE0FFF1FEE0FFF1FEE5FF04F88
:10378000C590D590E590F4908B2C9924AA24BB2465
:10379000F401EE0FFF1FEE0FFF1FEE5FF04F85905D
:1037A0009590A590B4904626572668267926C4247D
:1037B000D524E624F72426013701482459246A2415
:1037C0007B2450960031110508F07ACEDA01AF70F3
:1037D000BB27FA017097E07F70962E0F3F1F10975E
:1037E00009F4AFCAA9014A0F5B1FBB24A72C962C72
:1037F000852CD901ED919D01CE2ED12CE12CF12CFF
:10380000D701C6018425FC01EE0FFF1FEE0FFF1F3D
:10381000EE5FF04F85919591A591B491240135010A
:10382000482659266A267B2642175307F1F689CA8D
:10383000E0919C02F0919D02068CF78DE02DE081D5
:10384000E9838E010F5F1F4FC80183709927E095B0
:10385000892B09F42BC5B4E0EB9FF0011124EE5F36
:10386000F04F85919591A591B49180959095A095F3
:103870008093451490934614A0934714B093481432
:103880006CE3C62E62E0D62EEE24E394F12CEEE338
:103890008E2E912CF4E6AF2EB12C22C0A0E1EA16B8
:1038A000A1E0FA0608F4D5C4E091A002F091A102CB
:1038B000EC0DFD1D6081718177FD35C575956795AE
:1038C0006983C8010E9455C2BFEFEB1AFB0AE2E010
:1038D000CE1AD10820E2E21621E0F20609F451C224
:1038E0008FEFE816F10409F0C8F6C70192958295AA
:1038F0008F7089279F708927880F991FE0919C02FC
:10390000F0919D02E81BF90B068CF78DE02DC701A5
:103910008F709927E80FF91F6081D2CF89E39EE06D
:103920008370992744244A94542C3201892B09F43A
:1039300023C540E850E029E33EE004C041155105AD
:1039400009F4FFC9FF24E72CD62CC52C2F5F3F4F6D
:10395000F9013197E081D301C2019927AA27BB273A
:103960008E27FC01EE0FFF1FEE0FFF1FEE5FF04FE3
:1039700085919591A591B491260137014826592644
:103980006A267B2641505109F901E370FF27EF2B8E
:10399000A9F64031510508F407C5D9018A01005143
:1039A0001109CD90DD90ED90FC901397C301B20109
:1039B0006C257D258E259F256B017C01DD24EE2461
:1039C000FF24E3E0DE0EE11CF11CF601EE0FFF1F09
:1039D000EE0FFF1FEE5FF04F85909590A590B4908D
:1039E000C72ED12CE12CF12CE2E0DE0EE11CF11C03
:1039F000F601EE0FFF1FEE0FFF1FEE5FF04F459039
:103A0000559065907490C82ED12CE12CF12CEFEFDD
:103A1000DE1AEE0AFE0AF601EE0FFF1FEE0FFF1F81
:103A2000EE5FF04FC590D590E590F490692F772721
:103A300088279927FB01EE0FFF1FEE0FFF1FEE5F98
:103A4000F04F659175918591949184249524A624D5
:103A5000B724C824D924EA24FB24C626D726E8267E
:103A6000F92614968D909D90AD90BC9017978C245C
:103A70009D24AE24BF2475016401DD24EE24FF24BF
:103A800083E0D80EE11CF11CF601EE0FFF1FEE0FD4
:103A9000FF1FEE5FF04FC590D590E590F490492C54
:103AA000512C612C712CE2E05E0E611C711CF20144
:103AB000EE0FFF1FEE0FFF1FEE5FF04F6591759148
:103AC000859194914A2C512C612C712CEFEF5E1A48
:103AD0006E0A7E0AF201EE0FFF1FEE0FFF1FEE5F70
:103AE000F04F45905590659074908B2C9924AA24A2
:103AF000BB24F401EE0FFF1FEE0FFF1FEE5FF04F30
:103B000085909590A590B490C626D726E826F926EC
:103B10004C245D246E247F24482459246A247B2469
:103B20001896CD90DD90ED90FC901B97C424D52481
:103B3000E624F724460157019924AA24BB2483E0F4
:103B4000980EA11CB11CF401EE0FFF1FEE0FFF1F1A
:103B5000EE5FF04F85909590A590B4904D2C512C30
:103B6000612C712CE2E05E0E611C711CF201EE0F03
:103B7000FF1FEE0FFF1FEE5FF04F6591759185916E
:103B800094914E2C512C612C712CEFEF5E1A6E0A21
:103B90007E0AF201EE0FFF1FEE0FFF1FEE5FF04FE8
:103BA0004590559065907490CF2CDD24EE24FF2431
:103BB000F601EE0FFF1FEE0FFF1FEE5FF04FC590F7
:103BC000D590E590F49086269726A826B926482415
:103BD00059246A247B244C245D246E247F241C9663
:103BE0008D909D90AD90BC901F9784249524A62421
:103BF000B72475016401DD24EE24FF2483E0D80E90
:103C0000E11CF11CF601EE0FFF1FEE0FFF1FEE5F30
:103C1000F04F6591759185919491C92CD12CE12C2F
:103C2000F12CE2E0DE0EE11CF11CF601EE0FFF1FAD
:103C3000EE0FFF1FEE5FF04F45905590659074902A
:103C4000CA2CD12CE12CF12CEFEFDE1AEE0AFE0A81
:103C5000F601EE0FFF1FEE0FFF1FEE5FF04FC59056
:103C6000D590E590F4908B2C9924AA24BB24F401E0
:103C7000EE0FFF1FEE0FFF1FEE5FF04F8590959048
:103C8000A590B4904626572668267926C424D524C4
:103C9000E624F72426013701482459246A247B248A
:103CA00050960031110508F07ACEDA01AF70BB27CB
:103CB000FA017097E07F70962E0F3F1F109711F456
:103CC0000C94A116A9014A0F5B1FBB24A72C962CAC
:103CD000852CD901ED919D01CE2ED12CE12CF12C1A
:103CE000D701C6018425FC01EE0FFF1FEE0FFF1F59
:103CF000EE5FF04F85919591A591B4912401350126
:103D0000482659266A267B2642175307F1F60C945B
:103D1000A11660E070E087E00E94D8BCE82F89839C
:103D20008E010F5F1F4FC80183709927E095892B83
:103D300009F4D9C2B4E0EB9FF0011124EE5FF04F1B
:103D400085919591A591B49180959095A09580933A
:103D5000451490934614A0934714B0934814EE244E
:103D6000E394F12CB70187E00E94D8BC8983C80195
:103D70000E9455C2AFEFEA1AFA0AB0EFEB16F1044F
:103D800089F760957095809590950C94901460E0FB
:103D900070E088E00E94D8BCE82F89838E010F5F15
:103DA0001F4FC80183709927E095892B09F4A9C298
:103DB00024E0E29FF0011124EE5FF04F8591959190
:103DC000A591B49180959095A0958093451490937A
:103DD0004614A0934714B0934814EE24E394F12CB6
:103DE000B70188E00E94D8BC8983C8010E9455C2EF
:103DF000AFEFEA1AFA0AB0ECEB16F10489F7C1CF7B
:103E000080EF9FE083709927892B09F4BAC244247C
:103E10004A94542C320140EC50E020EF3FE005C0C2
:103E20004115510511F40C94A116FF24E72CD62C52
:103E3000C52C2F5F3F4FF9013197E081D301C201BB
:103E40009927AA27BB278E27FC01EE0FFF1FEE0F35
:103E5000FF1FEE5FF04F85919591A591B4912601DA
:103E60003701482659266A267B2641505109F90117
:103E7000E370FF27EF2BA1F64031510508F48AC209
:103E8000D9018A0100511109CD90DD90ED90FC908F
:103E90001397C301B2016C257D258E259F256B01EB
:103EA0007C01DD24EE24FF24E3E0DE0EE11CF11CA6
:103EB000F601EE0FFF1FEE0FFF1FEE5FF04F859034
:103EC0009590A590B490C72ED12CE12CF12CE2E076
:103ED000DE0EE11CF11CF601EE0FFF1FEE0FFF1FBF
:103EE000EE5FF04F4590559065907490C82ED12CA0
:103EF000E12CF12CEFEFDE1AEE0AFE0AF601EE0FCE
:103F0000FF1FEE0FFF1FEE5FF04FC590D590E590BD
:103F1000F490692F772788279927FB01EE0FFF1F61
:103F2000EE0FFF1FEE5FF04F6591759185919491B3
:103F300084249524A624B724C824D924EA24FB2465
:103F4000C626D726E826F92614968D909D90AD902A
:103F5000BC9017978C249D24AE24BF247501640166
:103F6000DD24EE24FF2483E0D80EE11CF11CF601D1
:103F7000EE0FFF1FEE0FFF1FEE5FF04FC590D590C5
:103F8000E590F490492C512C612C712CE2E05E0EEE
:103F9000611C711CF201EE0FFF1FEE0FFF1FEE5FA1
:103FA000F04F65917591859194914A2C512C612C1B
:103FB000712CEFEF5E1A6E0A7E0AF201EE0FFF1F00
:103FC000EE0FFF1FEE5FF04F459055906590749097
:103FD0008B2C9924AA24BB24F401EE0FFF1FEE0FB3
:103FE000FF1FEE5FF04F85909590A590B490C62688
:103FF000D726E826F9264C245D246E247F24482405
:1040000059246A247B241896CD90DD90ED90FC9085
:104010001B97C424D524E624F7244601570199248C
:10402000AA24BB2483E0980EA11CB11CF401EE0F5E
:10403000FF1FEE0FFF1FEE5FF04F85909590A5904C
:10404000B4904D2C512C612C712CE2E05E0E611C61
:10405000711CF201EE0FFF1FEE0FFF1FEE5FF04F1E
:1040600065917591859194914E2C512C612C712CF8
:10407000EFEF5E1A6E0A7E0AF201EE0FFF1FEE0FDF
:10408000FF1FEE5FF04F4590559065907490CF2CD8
:10409000DD24EE24FF24F601EE0FFF1FEE0FFF1FBD
:1040A000EE5FF04FC590D590E590F4908626972668
:1040B000A826B926482459246A247B244C245D244C
:1040C0006E247F241C968D909D90AD90BC901F9780
:1040D00084249524A624B72475016401DD24EE24EC
:1040E000FF2483E0D80EE11CF11CF601EE0FFF1F48
:1040F000EE0FFF1FEE5FF04F6591759185919491E2
:10410000C92CD12CE12CF12CE2E0DE0EE11CF11CDB
:10411000F601EE0FFF1FEE0FFF1FEE5FF04F459011
:10412000559065907490CA2CD12CE12CF12CEFEFB6
:10413000DE1AEE0AFE0AF601EE0FFF1FEE0FFF1F5A
:10414000EE5FF04FC590D590E590F4908B2C9924BC
:10415000AA24BB24F401EE0FFF1FEE0FFF1FEE5F3A
:10416000F04F85909590A590B490462657266826E6
:104170007926C424D524E624F724260137014824CF
:1041800059246A247B2450960031110508F07ACE18
:10419000DA01AF70BB27FA017097E07F70962E0F9F
:1041A0003F1F109711F40C94A116A9014A0F5B1F31
:1041B000BB24A72C962C852CD901ED919D01CE2EE8
:1041C000D12CE12CF12CD701C6018425FC01EE0F86
:1041D000FF1FEE0FFF1FEE5FF04F85919591A591A8
:1041E000B49124013501482659266A267B262417D6
:1041F0003507F1F60C94A116E0918C02F0918D0236
:10420000C4018C199D09E80FF91F80819181B501C6
:104210000F9489620C94FC16E0914309F0914409D3
:10422000EC0DFD1D80819181B5010F9489620C9484
:104230007519E091C509F091C609C4018C199D0951
:10424000E80FF91F80819181B5010F9489620C9468
:10425000EF19E0919E02F0919F02C4018C199D0913
:10426000E80FF91F80819181B5010F94896228CBF5
:1042700084E0E89FF0011124EE5FF04F8591959165
:10428000A591B49180959095A0950C94471924E040
:10429000E29FF0011124EE5FF04F85919591A59179
:1042A000B49180959095A0950C94D11624E0E29F4E
:1042B000F0011124EE5FF04F85919591A591B49195
:1042C00080959095A095D4CA24E0E29FF001112436
:1042D000EE5FF04F85919591A591B4918095909561
:1042E000A0950C94C41924E0E29FF0011124EE5F24
:1042F000F04F85919591A591B49180959095A09559
:1043000026CD84E0E89FF0011124EE5FF04F859107
:104310009591A591B49180959095A09556CD6F5F9C
:104320007F4F0C94FA166F5F7F4FC8CA6F5F7F4F45
:104330000C9473196F5F7F4F0C94ED1940EC50E0B3
:1043400027E73DE044244A94542C32010C94E914AC
:1043500029EC3EE044244A94542C320140E850E0D9
:104360000C946C172AE43FE040E850E044244A945F
:10437000542C32010C945E1A29E33EE040E850E0F0
:104380000CCB20EF3FE044244A94542C320140EC03
:1043900050E076CDDA0105CFDA010C947A16DA0115
:1043A0000C94FD18DA011BCADA0188CC2F923F92D7
:1043B0004F925F926F927F928F929F92AF92BF9235
:1043C000CF92DF92EF92FF920F931F93CF93DF93E1
:1043D000CDB7DEB7A5970FB6F894DEBF0FBECDBF41
:1043E0002091B110222309F49DC1E091B0108E2FCD
:1043F00090E0FC01FF97EC33F10508F05BC08827E3
:10440000E854FF4F8F4F0D94676410929B13909167
:104410007F16923009F448C4933009F492C78EEEA7
:10442000890F843008F08FC787E1891B0E94EEC88E
:1044300040917C1650E06091791670917A169091B7
:104440007F16923009F47BC7933009F462C78EEE71
:10445000890F843008F05BC787E1891B0E9418C967
:1044600090917E16923009F450C7933009F44BC7EF
:104470008EEE890F843008F044C787E1891B0E94C3
:10448000EEC840917B1650E06091771670917816D7
:1044900090917E16923009F432C7933011F40C9447
:1044A000462B8EEE890F843008F027C787E1891BE1
:1044B0000E9418C9A5960FB6F894DEBF0FBECDBFF7
:1044C000DF91CF911F910F91FF90EF90DF90CF90F0
:1044D000BF90AF909F908F907F906F905F904F9024
:1044E0003F902F90089580918F142091901490E028
:1044F000805C9F4F821B91098F739927892B99F3B9
:104500000E94ACC2833008F0DFC690E0880F991F8C
:10451000FC01E35CFD4F80809180FC01E95CFD4F74
:10452000A081B181BBA3AAA3FC01EF5CFD4F408039
:104530005180FC01E55DFD4FA080B180FC01EB5D89
:10454000FD4F608071808091C2168D3009F4D3C612
:10455000809129168D3009F4CEC6809125168D30B4
:1045600009F4C9C68091A8118D3009F4C4C68091A0
:1045700026168D3009F4BFC680912D168D3009F4B2
:10458000BAC680912C168D3009F4B5C680912816D4
:104590008D3009F4B0C68DE00E9455C160E08DE019
:1045A0000F94FC2222242394C12CD12CFF24F394B9
:1045B00000E010E0B1E0AB16B10409F432C1809123
:1045C0008F142091901490E0805C9F4F821B910982
:1045D0008F73992702979CF390918F148091901478
:1045E000981709F46EC6E0919014F0E0EA58FB4E7B
:1045F000258D909190149F5F9F739093901430E05D
:1046000090918F1480919014981709F457C6E091F7
:104610009014F0E0EA58FB4E858D909190149F5FC6
:104620009F739093901490E0982F8827B201822B6B
:10463000932B0F94896260527109CB01880F991FE7
:10464000880F991F860F971F69E070E00F948962A9
:10465000FF2009F409C1EAA1FBA16E0F7F1F6F3F84
:10466000710511F00CF069C577FF84C5312C780114
:10467000F594E794F401EE0DFF1D3082E60CF71C73
:10468000C7010F941364831521F0632DC7010F94A4
:104690001B64211055C5FFEFCF1ADF0AF12C0F5F05
:1046A0001F4F011524E0120709F084CF47E2842E42
:1046B00043E0942E5AE2A52E57E0B52E68E2C62EAE
:1046C00065E0D62E0FEF1DE0C8010F941364D401EE
:1046D0006D914D01861719F0C8010F941B64780184
:1046E000B2E0FB1AC7010F941364F60161916F01E8
:1046F000861719F0C7010F941B647801F4E0FF1AC4
:10470000C7010F941364D5016D915D01861719F0EF
:10471000C7010F941B640F5F1F4F0F3FBFE01B07C4
:1047200099F6C8CE90918F1480919014981709F43F
:10473000B2C7E0919014F0E0EA58FB4E858D90915D
:1047400090149F5F9F7390939014E82FE093B010A4
:104750004ECE81E080939B1310929A1380913B136D
:104760008F7B80933B131092760D1092750D1092F3
:10477000ED101092C6111092C7111092C81110922C
:10478000C91190917F16923009F4CFC1933009F48A
:10479000D2C58EEE890F843008F0CFC587E1891B22
:1047A0000E94EEC890917F16923009F4C2C59330F2
:1047B00009F4BDC58EEE890F843008F0B6C587E1D7
:1047C000891B41E050E067E27FE60E9418C99091A2
:1047D0007E16923009F4A7C5933009F4A2C58EEE77
:1047E000890F843008F09BC587E1891B0E94EEC8C1
:1047F00090917E16923009F490C5933009F449C720
:104800008EEE890F843008F086C587E1891B41E070
:1048100050E063E37EE60E9418C981E00E949BBFDE
:1048200049CE80918F142091901490E0805C9F4F2E
:10483000821B91098F739927892B99F390918F147B
:1048400080919014981709F491C5E0919014F0E0CC
:10485000EA58FB4E658D809190148F5F8F73809323
:10486000901470E0F110F7CEFF24F39418CF81E09C
:104870008093B11080918F142091901490E0805C0F
:104880009F4F821B91098F73992702970CF412CEC8
:104890000E94ACC20E94ACC20E94B7D71092B11065
:1048A00009CE81E08093B11080918F1420919014F3
:1048B00090E0805C9F4F821B91098F739927069728
:1048C0000CF4F8CD0E94ACC20E94ACC2D82E0E945B
:1048D000ACC2F82E0E94ACC2982F88278C010F29F9
:1048E0001093E6100093E5100E94ACC2F82E0E94CF
:1048F000ACC2982F88278F291816190674F47C01EA
:10490000E00EF11EB8018D2D0E94D8BC0E949BBF05
:104910000F5F1F4FE016F106A9F71092B110CACD34
:1049200081E08093B11080918F142091901490E0D9
:10493000805C9F4F821B91098F73992702970CF41B
:10494000B9CD0E94ACC2F82E0E94ACC21F2D00E06F
:104950009801282BC90121503240283141E0340709
:1049600008F444C52F5F3E4F2230310508F43EC5A0
:104970009C0139592730310508F09CCD0F94C113A3
:104980001092B11097CD0E94571094CD41E368E684
:1049900070E080E090E00F94D21F8CCD8CE09AE024
:1049A0000E949CC187CD0E9469BC84CD11E0109308
:1049B000B1108091E410882309F4E2C4E090E21081
:1049C000F090E3100091E0101091E11080918F14AD
:1049D0002091901490E0805C9F4F821B91098F730F
:1049E0009927892B09F465C40E151F0518F5C09089
:1049F000E510D090E6100E94ACC2682FC8018C0D63
:104A00009D1D0E945ED40F5F1F4F1093E110009315
:104A1000E01080918F142091901490E0805C9F4F63
:104A2000821B91098F739927892B09F442C40E15B3
:104A30001F0508F31092B1101092E4103BCD63ED06
:104A40007EE086E794E10E94FAC41092501332CDC2
:104A500069EE7EE086E794E10E94FAC42BCD81E006
:104A60008093B11080918F142091901490E0805C1D
:104A70009F4F821B91098F739927892B09F41ACDB7
:104A80000E94ACC290ED980F9A3008F05EC49093EB
:104A90001E02892F9EEF980F923008F463C4853070
:104AA00009F460C48B3009F45DC410921D0235CF47
:104AB00062E070E082E892E00E948FC0FBCCC09080
:104AC0003F091091400900914109F090420950912D
:104AD00043095CA3809144098DA3E0904509B090FF
:104AE000460990911E02492F50E0FA013197EB30B0
:104AF000F10508F4FAC381E499E00E949CC1DACC84
:104B000081E080939A1310929B1380913B138F7BCB
:104B100080933B131092760D1092750D1092ED104C
:104B200090917F16923009F031CE80E039CE6EEF51
:104B30007EE086E794E10E94FAC4BCCC80910A0C26
:104B4000882309F416C4222309F46CC480918F14BD
:104B50002091901490E0805C9F4F821B91098F738D
:104B60009927892B99F360E08091090C0F94FC221E
:104B7000A1CC81E08093B11080918F14209190148A
:104B800090E0805C9F4F821B91098F739927069755
:104B90000CF490CC0E94ACC20E94ACC20E94ACC289
:104BA0000E94ACC20E94ACC20E94ACC280919A1317
:104BB000811149C580919B13882309F4AECE809161
:104BC0003B1386FF57C50FE710E0C12CD12C7601AF
:104BD00009C08091ED108F5F8093ED100150110995
:104BE00009F434C5E091ED10F0E0EE0FFF1FEE0F79
:104BF000FF1FED52F64F80819181A281B381C80ED3
:104C0000D91EEA1EFB1E8F2D0E949BBF8E2D0E9477
:104C10009BBF8D2D0E949BBF8C2D0E949BBFE0915E
:104C2000ED10F0E0E653FE4E80810E949BBF809124
:104C3000ED108F3771F61092ED10D0CF81E0809398
:104C4000B11080918F142091901490E0805C9F4F60
:104C5000821B91098F73992706970CF42BCC0E9425
:104C6000ACC20E94ACC2803309F057CE0E94ACC2E5
:104C7000182F0E94ACC2082F0E94ACC2D82E0E94EE
:104C8000ACC2982F8827BC016D29F02EE12C40E39F
:104C9000C701812B0F94D21F40CE10929A1390918E
:104CA0007F16923009F0B8CB80E0C0CB81E08093D2
:104CB000B11080918F142091901490E0805C9F4FF0
:104CC000821B91098F739927892B09F4F3CB0E94DA
:104CD000ACC28093530F21CE81E08093B1108091BC
:104CE0008F142091901490E0805C9F4F821B91095B
:104CF0008F73992702970CF4DDCB0E94ACC20E94FF
:104D0000ACC20E947414162F072FF82E892F0E9410
:104D10009BBF8F2D0E949BBF802F0E949BBF812F26
:104D20000E949BBF1092B110C5CB809151139091FE
:104D30005213A0915313B09154130E949BBF8091C2
:104D4000511390915213A0915313B0915413892F82
:104D50000E949BBFAFCB81E08093B11080918F14F4
:104D60002091901490E0805C9F4F821B91098F737B
:104D7000992702970CF49ECB0E94ACC20E94ACC251
:104D80000E9484EC1092B11095CB80910117909104
:104D90000217009709F477C49E012F5F3F4FA901C6
:104DA000481B590BCA0150935813409357130E9444
:104DB0009BBF809158130E949BBF7CCB81E0809366
:104DC000B11080911D02882309F41AC380918F14B9
:104DD0002091901490E0805C9F4F821B91098F730B
:104DE000992703970CF466CB0E94ACC2182F0E943F
:104DF000ACC2982F8827FC01E12B8F011093E6109D
:104E00000093E5100E94ACC2682FC8010E945ED4D6
:104E100084CD86E79EE00E949CC1F7E2CF2EF3E0AE
:104E2000DF2E812C912C54019E012F5D3F4F790183
:104E3000AAE04A2E512C612C712C19A2A5019401D3
:104E40008701CA01B901A30192010F94D062605D8C
:104E5000D8016E938D01211531054105510589F762
:104E6000109759F0FD0101900020E9F73197BF013B
:104E70006A1B7B0BCD010E948FC062E070E085E869
:104E800092E00E948FC0F60121916F0130E040E076
:104E900050E019A28701CA01B901A30192010F9440
:104EA000D062605DD8016E938D01211531054105F9
:104EB000510589F7109759F0FD0101900020E9F79D
:104EC0003197BF016A1B7B0BCD010E948FC062E04E
:104ED00070E082E892E00E948FC0BFEF8B1A9B0ABD
:104EE000AB0ABB0A8114E2E09E06A104B10409F0FA
:104EF000A4CF8BE69EE00E949CC178E2C72E75E0AD
:104F0000D72E812C912C5401EAE04E2E512C612C8D
:104F1000712C19A2A50194018701CA01B901A3014D
:104F200092010F94D062605DD8016E938D012115BE
:104F300031054105510589F7109759F0FD010190A0
:104F40000020E9F73197BF016A1B7B0BCD010E945E
:104F50008FC062E070E085E892E00E948FC0F601A9
:104F600021916F0130E040E050E019A28701CA01B1
:104F7000B901A30192010F94D062605DD8016E93D4
:104F80008D01211531054105510589F7109759F01B
:104F9000FD0101900020E9F73197BF016A1B7B0BEF
:104FA000CD010E948FC062E070E082E892E00E9432
:104FB0008FC0BFEF8B1A9B0AAB0ABB0A8114E2E0D9
:104FC0009E06A104B10409F0A4CF88E69EE00E94E9
:104FD0009CC15AE2C52E57E0D52E812C912C54014C
:104FE0006AE0462E512C612C712C19A2A501940166
:104FF0008701CA01B901A30192010F94D062605DDB
:10500000D8016E938D01211531054105510589F7B0
:10501000109759F0FD0101900020E9F73197BF0189
:105020006A1B7B0BCD010E948FC062E070E085E8B7
:1050300092E00E948FC0F60121916F0130E040E0C4
:1050400050E019A28701CA01B901A30192010F948E
:10505000D062605DD8016E938D0121153105410547
:10506000510589F7109759F0FD0101900020E9F7EB
:105070003197BF016A1B7B0BCD010E948FC062E09C
:1050800070E082E892E00E948FC0BFEF8B1A9B0A0B
:10509000AB0ABB0A8114E2E09E06A104B10409F048
:1050A000A4CF84E69EE00E949CC109E61FE02DEC9F
:1050B000C22E2EE0D22E33E7A32E3FE0B32E4AE0DD
:1050C000442E512C612C712CD8012D918D0130E092
:1050D00040E050E019A24701CA01B901A3019201C1
:1050E0000F94D062605DF40162934F012115310588
:1050F0004105510589F7309751F001900020E9F7FB
:105100003197BF0168197909C4010E948FC061E617
:105110007EE086E794E10E94FAC4D6018D916D018C
:105120000F941122A016B10679F686E794E10E9449
:10513000C6C6C0C90E94A6CCBDC933243A9497CA3A
:10514000C60162E370E00F9489627C018DE00E94E9
:1051500055C1E114F10449F0EFECFFE1849190E0D6
:10516000FC013197E231F10538F060E08DE00F94F9
:10517000FC2291CA362E7BCA8827EC50FF4F8F4FF6
:105180000D94676480912001886080932001F092E3
:105190002D01E0922C017FCA8091200180628093D2
:1051A0002001F0922B01E0922A0175CA8091200122
:1051B000806880932001F0922901E09228016BCA57
:1051C0008091A00088608093A000F092AD00E092F2
:1051D000AC0061CA8091A00080628093A000F09230
:1051E000AB00E092AA0057CA8091A000806880932B
:1051F000A0008091A0008F7B8093A000F092A90076
:10520000E092A80048CA8091900088608093900046
:10521000F0929D00E0929C003ECA809190008062D6
:1052200080939000F0929B00E0929A0034CA8091A3
:105230009000806880939000F0929900E09298002E
:105240002ACA8091B00080628093B000E092B400DE
:1052500022CA8091B00080688093B000E092B300D1
:105260001ACA80918000886080938000F0928D003F
:10527000E0928C0010CA8091800080628093800050
:10528000F0928B00E0928A0006CA809180008068CC
:1052900080938000F0928900E0928800FCC984B578
:1052A000806284BDE8BCF7C984B5806884BDE7BC72
:1052B000F2C90E151F0508F4FDC8BCCB80E09FEFB6
:1052C000B5C92FEF30E09CC966246A94A9E07A2E14
:1052D000AA24A394B12C44244394512C1BA21AA2B7
:1052E0000AE2802E07E0902E2EC98827EA5FFE4F43
:1052F0008F4F0D946764212C57C98FEFD9C880E078
:10530000D7C88FEFBCC881E0BAC880E0B8C88FEFBB
:10531000A5C881E0A3C88FEF7ACA80E078CA8FEF72
:1053200065CA81E063CA80E061CA8FEF4ACA81E042
:1053300048CA80E046CA81E033CA8FEF31CA80E0B4
:105340008DC881E073C88FEF71C89FE9980F9630C0
:1053500008F0A3C1875580931E029EEF980F9230EC
:1053600008F0A0CB81E080931D02D7CA6FEF7FEFDA
:105370006FC921119FC88EE79EE00E949CC19AC808
:1053800080918F142091901490E0805C9F4F821B3D
:1053900091098F73992707970CF48CC80E94ACC2AF
:1053A0000E94ACC280931E020E94ACC2082F0E94D1
:1053B000ACC2982F8827802B9093E6108093E5103D
:1053C0000E94ACC2082F0E94ACC2982F88277C0193
:1053D000E02AF092E310E092E2101093E4101092B1
:1053E000E1101092E01000E010E0F0CA2091F312FA
:1053F0003091F412232B09F090CA0F94C1138DCA77
:1054000080918F142091901490E0805C9F4F821BBC
:1054100091098F73992702970CF44CC80E94ACC273
:105420008C01ECCC83EA9EE00E949CC18FCB84E689
:1054300099E00E949CC13EC880EF99E00E949CC107
:10544000A0EFCA2EAFE0DA2E9E012F5D3F4F79010B
:10545000BAE08B2E912CA12CB12CD6012D916D018F
:1054600030E040E050E019A28701CA01B901A5016E
:1054700094010F94D062605DF80162938F01211551
:1054800031054105510589F7309751F00190002011
:10549000E9F73197BF01601B710BC8010E948FC0F3
:1054A00062E070E082E892E00E948FC0F0EBCF16DD
:1054B000F0E1DF0691F60C945A228090280D80913D
:1054C000290D20912A0D90912B0D40912E0D309198
:1054D0002F0D882311F40C945A22912CA42EB32E54
:1054E000222E392E90E0880F991FA501480F591FD1
:1054F0005BA34AA3CE0181967C010AE0402E512C89
:10550000612C712CD5011C91B2E0AB0EB11C14368C
:1055100008F489C0212F30E040E050E019A2870153
:10552000CA01B901A30192010F94D062605DF80134
:1055300062938F01211531054105510589F7309797
:1055400051F001900020E9F73197BF01601B710B0A
:10555000C8010E948FC061E070E086E892E00E947E
:105560008FC081149104C1F1C12CD12CD101ED91D6
:10557000FC91EC0DFD1D1081143608F444C0212F60
:1055800030E040E050E019A28701CA01B901A3014F
:1055900092010F94D062605DF80162938F01211532
:1055A00031054105510589F7309751F001900020F0
:1055B000E9F73197BF01601B710BC8010E948FC0D2
:1055C00061E070E086E892E00E948FC0FFEFCF1AA2
:1055D000DF0A8C149D0451F660E070E084E892E0EC
:1055E0000E948FC062E070E082E892E00E948FC06B
:1055F000F2E02F0E311C2AA13BA1A216B30609F03E
:1056000081CF0C945A2261E070E086E892E00E941B
:105610008FC01A3008F0B3CF61E070E086E892E006
:105620000E948FC0ACCF61E070E086E892E00E94FB
:105630008FC01A3008F06ECF61E070E086E892E02B
:105640000E948FC067CF0E9469BC67C980913B13DD
:105650008F7B80933B131092760D1092750D1092F4
:10566000ED101092C6111092C7111092C81110922D
:10567000C91153C90BE712E080E00E949BBF0150A3
:105680001109D1F74AC985E097E186CB81E00C94F6
:10569000582281E0BCC8EFEF59C89FEB980F9630B5
:1056A00008F422C480931E02F5C9C090C60210916E
:1056B000C7020091C802F090C902E091CA02ECA3AF
:1056C000F091CB02FDA3E090CC02B090CD0229E78F
:1056D0002AA380911D02882309F425C19AE0492E4E
:1056E000512C612C712C5AA1852F90E08757964F31
:1056F0000E949CC162E070E082E892E00E948FC04C
:10570000D12C112309F47FC08E2C9B2CA02EBF2CF2
:10571000212E312C220C331C280C391CD4011C9155
:10572000B2E08B0E911C143608F4E8C0212F30E053
:1057300040E050E019A28E010F5D1F4FCA01B90170
:10574000A30192010F94D062605DF80162938F0112
:10575000211531054105510589F7309751F0019028
:105760000020E9F73197BF01601B710BC8010E944F
:105770008FC080E20E949BBFC114D104B9F1E12C1B
:10578000F12CD501ED91FC91EE0DFF1D1081143629
:1057900008F4AAC0212F30E040E050E019A28E01A9
:1057A0000F5D1F4FCA01B901A30192010F94D0628E
:1057B000605DF80162938F012115310541055105A6
:1057C00089F7309751F001900020E9F73197BF0138
:1057D000601B710BC8010E948FC080E20E949BBFBA
:1057E000FFEFEF1AFF0AEC14FD0459F662E070E0D7
:1057F00082E892E00E948FC0F2E0AF0EB11C8214EA
:10580000930409F08BCF0CE319E008C086E794E11C
:105810000E9461C60F5F1F4F892B21F0F801649130
:105820006111F4CFC114D104F1F10CA11DA17601D5
:10583000EE0CFF1CE00EF11ED8018D919D918D01A3
:1058400064E670E00F948962D62EB3E6B61708F0CE
:105850005FC02D2D30E040E050E019A2CE018196CE
:105860006C01CA01B901A30192010F94D062605D7D
:10587000D6016E936D01211531054105510589F75A
:10588000109759F0FD0101900020E9F73197BF0111
:105890006A1B7B0BCD010E948FC080E20E949BBFE0
:1058A000E016F10649F662E070E082E892E00E94BC
:1058B0008FC0FAA1F93711F00C945A22C090150349
:1058C0001091160300911703F0901803B09119037B
:1058D000BCA3E0911A03EDA3E0901B03B0901C035E
:1058E000F4E8FAA35F2F00CF80E20E949BBF1A303A
:1058F00008F050CF80E20E949BBF4CCF80E20E9414
:105900009BBF1A3008F012CF80E20E949BBF0ECFDF
:1059100080E20E949BBFE9E0ED1508F49ACF80E297
:105920000E949BBF96CFE92FF0E0EE0FFF1FE95AD0
:10593000FD4F80819181892B11F40C945A2280E0D3
:1059400090E010E0FC01E753F14F80810E949BBF83
:105950001F5F812F90E0E0911E02F0E0EE0FFF1F2D
:10596000E95AFD4F208131818217930758F30C9437
:105970005A22C090C1091091C2090091C309F09048
:10598000C409F091C509FCA32091C6092DA3E0909C
:10599000C709B090C8093AE23AA39BCE1AA299CEA1
:1059A00084EA99E00E949CC109EC1EE0D8018D9127
:1059B0008D010F941122BEE00D3C1B07B9F79DEC41
:1059C000C92E9EE0D92E27EDA22E2EE0B22EFE018A
:1059D000B1967F013AE0432E512C612C712CD601F7
:1059E0002D916D0130E040E050E019A28701CA011D
:1059F000B901A30192010F94D062605DF801629336
:105A00008F01211531054105510589F7309751F076
:105A100001900020E9F73197BF01601B710BC801AD
:105A20000E948FC067E879E086E794E10E94FAC49B
:105A3000AC14BD04A1F662E070E082E892E00E943E
:105A40008FC007ED1EE0D8018D918D010F941122BA
:105A5000BEE0053E1B07B9F7B5EECB2EBEE0DB2E50
:105A600017EFA12E1EE0B12E0AE0402E512C612C22
:105A7000712CF601219131916F0140E050E019A2A3
:105A80008701CA01B901A30192010F94D062605D40
:105A9000D8016E938D01211531054105510589F716
:105AA000109759F0FD0101900020E9F73197BF01EF
:105AB0006A1B7B0BCD010E948FC062E070E082E820
:105AC00092E00E948FC0AC14BD0499F68091F70E4D
:105AD0000F9411222091F80E3091F90E40E050E021
