:100000000C94A5120D9452A40D9427A40D94FCA356
:100010000D94D1A30D94A6A30D947BA30D9450A38E
:100020000D9425A30C94D6120C94D6120C94D612CF
:100030000C94D6120C94D6120C94D6120D94FE4841
:100040000C94D6120C94C2840C94A6820D942D1597
:100050000C94D6120C94D6120C94D6120D94ADA119
:100060000C94D6120D9463A50D9423A50C94D6126E
:100070000C94D6120C94D6120C94D6120C94D61260
:100080000C94B1A50C942FA50C94ADA40C94D6128D
:100090000C94D6120C94D6120C94D6120C94D61240
:1000A0000C94D6120C94D6120C9463A00C942BA42E
:1000B0000C94719F0C94D6120C94D6120C9439A304
:1000C0000C9447A20C9455A10C94D6120C94D61201
:1000D0000C94D6120C94D6120D94ECA40D94ACA4EE
:1000E0000C94D6120C9442C40C9443130D94D9A8CA
:1000F0000C94A9C50C941DC30D94D3C00D943A3231
:100100000C9401940C947E8C0C9436C20D94E5A84A
:100110000C941E7D0C940CC40C946DC40C9409C2F8
:100120000C94C4E20D94E7A80C94F3190C9474C1D8
:100130000D94CE930C94B07C0C94E87B0C942B4AD9
:100140000C94C6C10D94320E0C94B8C50C94DCC34B
:100150000C9433C20C94E8C10C9439C40C9465C15E
:100160000C94A8A70C94488D0C9427C60C94ACC48E
:100170000C9464B20C949AC40C941EC20C9472B287
:100180000C9471C10C947AB20C94F4C10C945C89F7
:100190000C94A6C40C9404B10D944F1A0C94FAC399
:1001A0000C9411C50C94A04C0D9406A30C94302310
:1001B0000D9457A20D94D8080C94D3C40D9428A97B
:1001C0000C94448D0C9412C20C94CAAF0C9482C44B
:1001D0000C945AAF0C9421C40C94CB570C94AEE100
:1001E0000C94314E0C9400C40D94F6930C9443E39C
:1001F0000C94A5C10C94A6890D9462170C9449C166
:100200000C9406C40C9457E80C9400B00C9479C577
:100210000D94D9500C94DC4F0D94DDA80C94AED302
:100220000C94E2C10D94C4930D94C9570C94376695
:100230000C9473C50D94D3A80C94D5950C9490B2DE
:100240000C9471890C941A8C0C94B5C50D94C6014C
:100250000C9436C40C9460D20D94F1A80C9489AC23
:100260000C94BF970C945D760C94E74F0C94C2C22B
:100270000D940E0C0D94E2940C94B9160C94B0C22B
:100280000C9483C10C9406C20C94C8C20C947F19C0
:100290000C9464C40C94F0E30C9470C50C9439C2B3
:1002A0000C94BEC40C9442420C94E7DB0C9489FA83
:1002B0000C9418C20C946AB20C94D14F0D9448500F
:1002C0000C94A2770C94F6CA0C9495C50D94363014
:1002D0000C94B68B0C947E190D94AE2E0C949DC488
:1002E0000C9461C40C94397C0D94DE930C94B8B2D8
:1002F0000C94D5AB0C9489C10C949E760C94E2C2FC
:100300000D94D8930C94A8C10C94997B0D945859D2
:100310000C94E58D0C9497890D94671D0C949B416A
:100320000C9480C10C94FE430C942AC40C946BACC6
:100330000C9416440C9477C10C94E5AF0C94A799D7
:100340000C948DAB0C94B5C40C94BFAF0D94F558C0
:100350000C943CC20C94D97C0C9462C20C94F57B36
:100360000C94DFC10C9463890D94A2A40C94C0C1B9
:100370000C94C7C40C94C2420C94F5CD0D9408940F
:100380000C9484CA0C948EC40C9411DF0C94337CAE
:100390000D94E1A80C947DC10C9430890D943F32EA
:1003A0000C94B1B20C9402420C94D7C20D94420C3E
:1003B0000D9468590C94FCC20C9418470C94DC8C76
:1003C0000C94BB3A0C940FC20C9476C50C945FC28B
:1003D0000D94FC590D940E940C94D4AC0D94C15909
:1003E0000C94D9DF0D9430C00D948CA20D94209400
:1003F0000C94894C0D94830E0D94F1510C942B9C0C
:100400000C94DBC20D9417320C947CC50C9424C45C
:100410000D9449320D94D0A20D9458BF0C94EBC3A7
:100420000C9424C20C9412470C9455890C9451ECF2
:100430000C94C31D0C94EBC10C94D3C30C94F41511
:100440000C94F9C20C94C2B00C9478760C948BC4C2
:100450000C9472140D9482180C94E3170C9412C42B
:100460000D942C940C9442AB0C948C4E0C94DCC1E7
:100470000C942A920C9482EE0C94054A0D94D2931B
:100480000C94D48C0C94E4C40C943D660C9434C647
:100490000D941D510D94A8A40D94D5A80C94ACC531
:1004A0000C9473C40C943A4F0C94B2E30C9448C26D
:1004B0000C940CC20C944A4B0C94C8920C94AF77D9
:1004C0000C94D5E50C94D0E30C94F1C30C94AECB12
:1004D0000D94DD0D0C9461980C94B2C40C9470C40E
:1004E0000C94FAD70D944BA20C947AB00D942B0374
:1004F0000C942E660C94AA8A0D94F3190C945FC187
:100500000C94A1C50C9490C90C946BC10C9462B06E
:100510000C94BBDD0C94B34C0D9499A20C9410DF99
:100520000D9444320C94EEC10C94A9C40C94B7C140
:100530000C94D6C30C94CA9C0D94C00A0D94F42B51
:100540000C949CC10C94B1C10D9428370C943D9B24
:100550000C94B2DC0C9451AB0C94B8760D94740BE3
:100560000C94C6C30C943FC40C949FC10C949E7C05
:100570000C948FC50D94DC590D94E5570C941A7C9E
:100580000C94311B0C9488C40C94F0D50C9467C562
:100590000C949A7D0C9443C10C9464A80C948AC268
:1005A0000D949FA20C9445C40D946C040C94C37DCF
:1005B0000D9405590D94518B0C94A1AF0C946EC100
:1005C0000C942DC20C94755D0D94B2BE0D943CBE7E
:1005D0000C946DC50C948FB00C9423470C949BAB7A
:1005E0000D947EBE0C94B88F0C948EF40C945C3AEF
:1005F0000D945C060D94DE070C9458650C94FA89F2
:100600000D94F2A20D94AAA40C9431C10C94BCC216
:100610000C94F1B20C94D1C20C9458180C94D6C41A
:100620000C94D4C20C94EAE20C946AC40C9482B088
:100630000C94AFC40C942AC20D94AB2C0D94DEA282
:100640000C943AE10C9415C40C9430C40C94BFB2D1
:100650000C94CFC30C9482C50C942D7C0C942DC4A7
:100660000C9409C40D94E2730C94B9AB0C94887685
:100670000C9456C10C9415C20C94B4C10C9476AB76
:100680000C94128C0D94A3A20C945CDD0C94BE42CD
:100690000C94207C0C94233A0C94B6C20C9487776B
:1006A0000D94E2000D94EDA80D94FAA20D94A6A469
:1006B0000C94B2C50C94C1C40C94CBC20C949BC5D1
:1006C0000C94A0C40C9480760C944E220C943A9511
:1006D0000C947D430C9422E80C94CAC40D9497A208
:1006E0000C94E2C30C9485C40C94B3C20D94DFA89F
:1006F0000C94FDA60C94AEC10C940FC40C9420B0C5
:100700000C94D7540C94131D0C9420AF0C940BB183
:100710000C9408A80C945DDA0C94A2C10C9496AFCA
:100720000C94FF490C9489B00C9445C20C94D88C5D
:100730000D94E9A80D940F0D0C943DC10D9451C179
:100740000C947AC10D94FA2D0C940AB00C9446C105
:100750000D9403050C94ABC10C9482DF0C94313AD8
:100760000C94CCD80C9427C40C94168C0C9400C216
:100770000C94E4170C94B7C30C944E890C9442511A
:100780000C9434B10C9448890C94D3CE0C941EACC8
:100790000C9497C40C94FFC40D94842D0C9442C205
:1007A0000C9434C10C94FAC10C9489890C94BBC488
:1007B0000D94CE2F0D94EC1A0C940D7D0C94644383
:1007C0000C94ABAF0C94C0760C9462C10C94924C18
:1007D0000D940CA20C94E5C20C94F5150C94F8C47D
:1007E0000D9484950C944C240D9437580C94F24637
:1007F0000C94C4C40C9432D00D94F81D0C945690F3
:100800000C9499C10C94568A0C94C3C30C94BDC12A
:100810000D94A4A40C9469CD0D94FC930D94E6A2C0
:100820000C94A5C50D94C9930C9496B00C94408D6E
:100830000C94C1E20C9483890C94AAAB0C9450A73D
:100840000D94A8370C949AC20D944F100C9440C18B
:100850000C94ECE70C94ADC20C9481280C94D9C391
:100860000C9403C40C943CC40D94E5370D94F093A0
:100870000C9435D80C947FC40C94E7CD0C94FC27D1
:100880000C946A890C94294B0C9460F30D94320AF1
:100890000C9453C10C94768C0C94B94C0C94E5C315
:1008A0000C9488CE0C94BE3A0C94CD1E0C9476E930
:1008B0000C94808C0C9405990C94C07D0C94CEC241
:1008C0000C94FDC10D94452F0C944BC40C947F8E59
:1008D0000C9492C50C94C3C10C9403C20C94639302
:1008E0000C9450670C9461D20D94B41E0D94981D15
:1008F0000C947FC50C94A3C20C94C7AB0C94524EBD
:100900000C942CB20C941EC40C94DFC30C94F7C14D
:100910000C9421C20C9491C40C941D470C94DC9B44
:100920000C9448C40C94C0C30C94F1C10D94CA93A8
:100930000C94DFC40D94BA250D9466570C94D9C459
:100940000C94D8120C9437C10C94D67B0C943B2891
:100950000C9433200D9408260C941EE20C9476C45B
:100960000C9479C40C943D1D0C9479960C944CC154
:100970000D94E3A80D942CA20D94741D0C94B8C48E
:100980000C94FE7C0C9477890C94324A0C94C4A885
:100990000C943C4C0C94B1DB0D94D6100C9451C2C9
:1009A0000C94E08C0C9459C10C9418C40C945AC249
:1009B0000C9469B00C94E5C10C94CDC40D94081A44
:1009C0000C94FB190D949BA20D945FA20C942F4FD5
:1009D0000C9422FB0C9446760C94FBC70C94EC1FF1
:1009E0000C9473140C949E890D94D08B0C94F7C3C3
:1009F0000C943C4E0C9447B00C94BC420C94BAC17D
:100A00000C9497C20C9464DC0D942B940C94844346
:100A10000D948C590C94EA140C94C5C20C94BBC56B
:100A20000D9426590C94C6430D949E8B0C946F47DD
:100A30000C943BE10D94A1A20D94A7590D94EA9357
:100A40000D94F22E0C9409E70C946D670C94FDC381
:100A50000C9470AF0C9496C10D94A1050C94AFC585
:100A60000C94B9C20C94DB1A0D94192D0C94BAC3D2
:100A70000C94C5460C94BFC20C9413670C94CCC361
:100A80000C9490890C94A5890D9493020C9422C522
:100A90000D9415590C94814E0C948C9B0D94F73049
:100AA0000C94B5AF0C9489C50C94E8C30C943689AA
:100AB0000D943DB90C9434660D94EBA80C941B97DF
:100AC0000C9499220C944B9A0C9431660C94DFC2CE
:100AD0000C94474C0C941D8F0C945ADD0C94474E8B
:100AE0000C9494C40C9453180C942E5C0C9499E0C0
:100AF0000C94F4C30C94F1900C9493C10C9468C1C1
:100B00000C948F910D945B930D94EF1D0C9494C2F3
:100B10000D941C8B0C94EECD0C947A8C0C94987CD8
:100B20000C9498C50C9430C20C94B5CD0C941BC495
:100B30000C94A04E0D9451190C9431B20C94BD201C
:100B40000C94B97B0D945E2E0C94FCE20C947CC446
:100B50000D9414A30C94FFC20D949DA20C94AFE1CC
:100B60000D94E4930C941DC10C945CC10C94EEC3E1
:100B70000C9445C50C940E8C0D94B2500C94ED9AC7
:100B80000C94BD270C94EB140C94C0130D946F932C
:100B90000C9467470C947D890C945A8B0D944A0BE6
:100BA0000C949CB00D94B50C0C945DAC0C941A9DF7
:100BB0000C94D0C40D944B320C944E4C0D9448328E
:100BC0000C9434E70C94D4750C9442890C9433C47F
:100BD0000C9460A80C948CC50C949C940C949FF17C
:100BE0000C9481B20C9482E30C9413B10C943FC228
:100BF0000C94F17C0C94AA7C0D943DA20C94F4AB63
:100C00000C94B0760C9415B00D94F90E0C946F3BC7
:100C10000D949EA40C9489B20C9486C10D94D211AB
:100C20000C9461430C944EC20C940A8C0C94D22AFE
:100C30000D94DBA80D94778A0C948BAF0C943AC179
:100C40000C946AC50C94BDF80D9445500C94BBFBF4
:100C50000C94EAB10D942F070C947EC00C94C8A894
:100C60000C94FDB00C9498E30C9480600D94690989
:100C70000C944FC10C94F11B0C941BC20D94AD8AC3
:100C80000C9454C20D9448950C9484280C94AAACEE
:100C90000C94C7C50C9487430C94068B0C947B9CD6
:100CA0000D9414940C944FB20C947A160C94A47C6A
:100CB0000D94BFA20D946BA20C94BDC30C94035F62
:100CC0000C94E7E20C9467C40C9480430C94147C5D
:100CD0000C945FE70C94C9C30C94B0430C9427C2E6
:100CE0000C943A660C94077C0C94E7C40C940E4A5E
:100CF0000C94E37B0C94854C0D941A940C9402C3D1
:100D00000C94A07B0C9486FC0C94A93A0D94A0A49E
:100D10000C94A3C40C947CB00D94DA8A0D94735196
:100D20000C9478C20C944E7C0C949EC50C945BDDA4
:100D30000D94512C0C943C890C94B2C30C943C8DB2
:100D40000D9402940D94A1300C94AAF60C9471C2E7
:100D50000C944BC20C943DAF0C94193B0C94067749
:100D60000C94C7B20D94D7A80C9472D30D94EFA82D
:100D7000526573657420636F6E74726F6C20697353
:100D80002063757272656E746C7920646973616238
:100D90006C65642E00436F6D6D732068616C7465C3
:100DA000642E204E65787420627974652077696CB2
:100DB0006C20726573657420746865204172647577
:100DC000696E6F2E0000537065656475696E6F20E3
:100DD000323032342E30322E3100737065656475D6
:100DE000696E6F20323032343032000000303032E1
:100DF00000FF0A5061676520686173206E6F742080
:100E00006265656E20696D706C656D656E74656494
:100E100020796574000A426F6F7374206C6F6F6B7A
:100E20007570207461626C65000A326E64204967D7
:100E30006E6974696F6E204D6170000A326E6420B5
:100E40004675656C204D6170000A506167652039F8
:100E500020436667000A5472696D20312054616234
:100E60006C65000A565654204D6170000A426F6F3F
:100E70007374204D6170000A5067203620436F6EF6
:100E8000666967000A414652204D6170000A50674A
:100E9000203420436667000A49676E6974696F6E83
:100EA000204D6170000A5067203220436667000AB7
:100EB0005645204D6170000A3D3D3D436F6D6D61AB
:100EC0006E642048656C703D3D3D0A0A416C6C20A3
:100ED000636F6D6D616E6473206172652073696EFE
:100EE000676C652063686172616374657220616E0E
:100EF000642061726520636F6E636174656E6174F6
:100F0000656420776974682074686569722070610F
:100F100072616D6574657273200A776974686F75A4
:100F200074207370616365732E53796E7461783ABF
:100F300020203C636F6D6D616E643E2B3C7061726E
:100F4000616D65746572313E2B3C706172616D65D7
:100F5000746572323E2B3C706172616D65746572AE
:100F60004E3E0A0A3D3D3D4C697374206F66204336
:100F70006F6D6D616E64733D3D3D0A0A41202D2009
:100F8000446973706C6179732033312062797465C0
:100F900073206F662063757272656E74537461742A
:100FA00075732076616C75657320696E2062696E59
:100FB00061727920286C6976652064617461290A00
:100FC00042202D204275726E2063757272656E74B8
:100FD000206D617020616E6420636F6E666967507A
:100FE0006167652076616C75657320746F20656537
:100FF00070726F6D0A43202D205465737420434F27
:101000004D20706F72742E202055736564206279B4
:101010002054756E657273747564696F20746F20E7
:10102000736565207768657468657220616E204518
:101030004355206973206F6E206120676976656E65
:101040002073657269616C200A20202020706F7205
:10105000742E2052657475726E7320612062696E01
:10106000617279206E756D6265722E0A4E202D2098
:101070005072696E74206E6577206C696E652E0AF9
:1010800050202D205365742063757272656E742034
:10109000706167652E202053796E7461783A202044
:1010A000502B3C706167654E756D6265723E0A52E9
:1010B000202D2053616D65206173204120636F6D89
:1010C0006D616E640A53202D20446973706C6179E0
:1010D000207369676E6174757265206E756D6265E7
:1010E000720A51202D2053616D65206173205320B9
:1010F000636F6D6D616E640A56202D2044697370B4
:101100006C6179206D6170206F7220636F6E66690B
:1011100067506167652076616C75657320696E2024
:1011200062696E6172790A57202D20536574206FB1
:101130006E65206279746520696E206D6170206F24
:101140007220636F6E666967506167652E20204567
:101150007870656374732062696E61727920706162
:1011600072616D65746572732E200A2020202053F1
:10117000796E7461783A2020572B3C6F66667365F0
:10118000743E2B3C6E6577627974653E0A74202D3F
:10119000205365742063616C6962726174696F6E5B
:1011A0002076616C7565732E2020457870656374B8
:1011B000732062696E61727920706172616D65740D
:1011C0006572732E20205461626C6520696E6465BF
:1011D000782069732065697468657220302C200A54
:1011E00020202020312C206F7220322E2020537995
:1011F0006E7461783A2020742B3C74626C655F6970
:1012000064783E2B3C6E657756616C7565313E2B7C
:101210003C6E657756616C7565323E2B3C6E65772A
:1012200056616C75654E3E0A5A202D2044697370D4
:101230006C61792063616C6962726174696F6E20A0
:1012400076616C7565730A54202D20446973706C47
:101250006179732032353620746F6F7468206C6F3B
:101260006720656E747269657320696E2062696EAD
:101270006172790A72202D20446973706C617973F0
:101280002032353620746F6F7468206C6F6720656C
:101290006E74726965730A55202D205072657061F5
:1012A000726520666F72206669726D776172652063
:1012B0007570646174652E20546865206E6578745D
:1012C000206279746520726563656976656420774C
:1012D000696C6C2063617573652074686520417268
:1012E0006475696E6F20746F2072657365742E0A61
:1012F0003F202D20446973706C6179732074686994
:10130000732068656C702070616765002C20005741
:101310005545004F3200496E6C65742074656D70E0
:1013200000436F6F6C616E74005265736574206367
:101330006F6E74726F6C2069732063757272656E64
:10134000746C792064697361626C65642E00436F0C
:101350006D6D732068616C7465642E204E657874C1
:1013600020627974652077696C6C2072657365748E
:10137000207468652041726475696E6F2E00455255
:10138000523B20496E636F7272656374204545500D
:10139000524F4D2073697A650030303200200020B2
:1013A0000020002000202020200053706565647517
:1013B000696E6F203230323430322E3100737065F6
:1013C000656475696E6F203230323430320053708C
:1013D00065656475696E6F206373783032303139BA
:1013E0002E380000008000200120018000200180B4
:1013F00000F0008001C000C0002001C0008000207B
:10140000010001040E11161A1C212A2C2E30323430
:1014100036383A3C3E40424446484C4E505256586C
:101420005A5D5F63686F797D00002000230026000D
:1014300029002C002F0032000001000003010601EA
:10144000090100000A0B02090C0D0E080703040134
:10145000000000000000000000000000000000008C
:101460000000000000000000000000000000121159
:10147000100000000000000000000000000000005C
:101480000000000000000000000000009630077718
:101490002C610EEEBA51099919C46D078FF46A7068
:1014A00035A563E9A395649E3288DB0EA4B8DC7988
:1014B0001EE9D5E088D9D2972B4CB609BD7CB17E08
:1014C000072DB8E7911DBF906410B71DF220B06AD8
:1014D0004871B9F3DE41BE847DD4DA1AEBE4DD6DE8
:1014E00051B5D4F4C785D38356986C13C0A86B64E8
:1014F0007AF962FDECC9658A4F5C0114D96C066308
:10150000633D0FFAF50D088DC8206E3B5E10694CE7
:10151000E44160D5727167A2D1E4033C47D4044B27
:10152000FD850DD26BB50AA5FAA8B5356C98B24207
:10153000D6C9BBDB40F9BCACE36CD832755CDF4587
:10154000CF0DD6DC593DD1ABAC30D9263A00DE51B7
:101550008051D7C81661D0BFB5F4B42123C4B356A7
:101560009995BACF0FA5BDB89EB802280888055F27
:10157000B2D90CC624E90BB1877C6F2F114C685887
:10158000AB1D61C13D2D66B69041DC760671DB0175
:10159000BC20D2982A10D5EF8985B1711FB5B60647
:1015A000A5E4BF9F33D4B8E8A2C9077834F9000F87
:1015B0008EA8099618980EE1BB0D6A7F2D3D6D0827
:1015C000976C6491015C63E6F4516B6B62616C1C17
:1015D000D83065854E0062F2ED95066C7BA5011B47
:1015E000C1F4088257C40FF5C6D9B06550E9B712E7
:1015F000EAB8BE8B7C88B9FCDF1DDD62492DDA15A7
:10160000F37CD38C654CD4FB5861B24DCE51B53AC6
:101610007400BCA3E230BBD441A5DF4AD795D83DC6
:101620006DC4D1A4FBF4D6D36AE96943FCD96E3406
:10163000468867ADD0B860DA732D0444E51D0333E6
:101640005F4C0AAAC97C0DDD3C710550AA410227F6
:1016500010100BBE86200CC925B56857B3856F20C6
:1016600009D466B99FE461CE0EF9DE5E98C9D92926
:101670002298D0B0B4A8D7C7173DB359810DB42E66
:101680003B5CBDB7AD6CBAC02083B8EDB6B3BF9AB2
:101690000CE2B6039AD2B1743947D5EAAF77D29D3E
:1016A0001526DB048316DC73120B63E3843B64941E
:1016B0003E6A6D0DA85A6A7A0BCF0EE49DFF09931E
:1016C00027AE000AB19E077D44930FF0D2A308878E
:1016D00068F2011EFEC206695D5762F7CB6765803E
:1016E00071366C19E7066B6E761BD4FEE02BD3893E
:1016F0005A7ADA10CC4ADD676FDFB9F9F9EFBE8E9E
:1017000043BEB717D58EB060E8A3D6D67E93D1A1DD
:10171000C4C2D83852F2DF4FF167BBD16757BCA6BD
:10172000DD06B53F4B36B248DA2B0DD84C1B0AAF5D
:10173000F64A0336607A0441C3EF60DF55DF67A8DD
:10174000EF8E6E3179BE69468CB361CB1A8366BC6D
:10175000A0D26F2536E2685295770CCC03470BBBBD
:10176000B91602222F260555BE3BBAC5280BBDB2BD
:10177000925AB42B046AB35CA7FFD7C231CFD0B55D
:101780008B9ED92C1DAEDE5BB0C2649B26F263EC4F
:101790009CA36A750A936D02A906099C3F360EEB5D
:1017A0008567077213570005824ABF95147AB8E21D
:1017B000AE2BB17B381BB60C9B8ED2920DBED5E5FD
:1017C000B7EFDC7C21DFDB0BD4D2D38642E2D4F14D
:1017D000F8B3DD686E83DA1FCD16BE815B26B9F6DD
:1017E000E177B06F7747B718E65A0888706A0FFF3D
:1017F000CA3B06665C0B0111FF9E658F69AE62F8FD
:10180000D3FF6B6145CF6C1678E20AA0EED20DD7FC
:101810005483044EC2B30339612667A7F71660D01C
:101820004D476949DB776E3E4A6AD1AEDC5AD6D95C
:10183000660BDF40F03BD83753AEBCA9C59EBBDE7C
:101840007FCFB247E9FFB5301CF2BDBD8AC2BACA2C
:101850003093B353A6A3B4240536D0BA9306D7CD9C
:101860002957DE54BF67D9232E7A66B3B84A61C4BC
:10187000021B685D942B6F2A37BE0BB4A18E0CC37C
:101880001BDF055A8DEF022D0000000041311B19AE
:1018900082623632C3532D2B04C56C6445F4777DC8
:1018A00086A75A56C796414F088AD9C849BBC2D1A4
:1018B0008AE8EFFACBD9F4E30C4FB5AC4D7EAEB568
:1018C0008E2D839ECF1C98875112C24A1023D95364
:1018D000D370F4789241EF6155D7AE2E14E6B53748
:1018E000D7B5981C9684830559981B8218A9009B2C
:1018F000DBFA2DB09ACB36A95D5D77E61C6C6CFFE8
:10190000DF3F41D49E0E5ACDA2248495E3159F8CCF
:101910002046B2A76177A9BEA6E1E8F1E7D0F3E8D7
:101920002483DEC365B2C5DAAAAE5D5DEB9F464493
:1019300028CC6B6F69FD7076AE6B3139EF5A2A2077
:101940002C09070B6D381C12F33646DFB2075DC653
:10195000715470ED30656BF4F7F32ABBB6C231A257
:1019600075911C8934A00790FBBC9F17BA8D840E1B
:1019700079DEA92538EFB23CFF79F373BE48E86AF7
:101980007D1BC5413C2ADE58054F79F0447E62E953
:10199000872D4FC2C61C54DB018A159440BB0E8DA7
:1019A00083E823A6C2D938BF0DC5A0384CF4BB21AB
:1019B0008FA7960ACE968D130900CC5C4831D74587
:1019C0008B62FA6ECA53E177545DBBBA156CA0A363
:1019D000D63F8D88970E96915098D7DE11A9CCC727
:1019E000D2FAE1EC93CBFAF55CD762721DE6796B23
:1019F000DEB554409F844F5958120E161923150F07
:101A0000DA7038249B41233DA76BFD65E65AE67CDE
:101A10002509CB576438D04EA3AE9101E29F8A18B6
:101A200021CCA73360FDBC2AAFE124ADEED03FB49A
:101A30002D83129F6CB20986AB2448C9EA1553D096
:101A400029467EFB687765E2F6793F2FB748243652
:101A5000741B091D352A1204F2BC534BB38D485236
:101A600070DE657931EF7E60FEF3E6E7BFC2FDFE12
:101A70007C91D0D53DA0CBCCFA368A83BB07919A16
:101A80007854BCB13965A7A84B98833B0AA9982222
:101A9000C9FAB50988CBAE104F5DEF5F0E6CF44606
:101AA000CD3FD96D8C0EC27443125AF3022341EA22
:101AB000C1706CC1804177D847D7369706E62D8E26
:101AC000C5B500A584841BBC1A8A41715BBB5A68EA
:101AD00098E87743D9D96C5A1E4F2D155F7E360C86
:101AE0009C2D1B27DD1C003E120098B9533183A0AA
:101AF0009062AE8BD153B59216C5F4DD57F4EFC4A6
:101B000094A7C2EFD596D9F6E9BC07AEA88D1CB74D
:101B10006BDE319C2AEF2A85ED796BCAAC4870D315
:101B20006F1B5DF82E2A46E1E136DE66A007C57F11
:101B30006354E8542265F34DE5F3B202A4C2A91B35
:101B40006791843026A09F29B8AEC5E4F99FDEFDD9
:101B50003ACCF3D67BFDE8CFBC6BA980FD5AB29995
:101B60003E099FB27F3884ABB0241C2CF115073599
:101B700032462A1E73773107B4E17048F5D06B51B5
:101B80003683467A77B25D634ED7FACB0FE6E1D261
:101B9000CCB5CCF98D84D7E04A1296AF0B238DB625
:101BA000C870A09D8941BB84465D2303076C381A29
:101BB000C43F1531850E0E2842984F6703A9547E05
:101BC000C0FA795581CB624C1FC538815EF42398E9
:101BD0009DA70EB3DC9615AA1B0054E55A314FFCA5
:101BE000996262D7D85379CE174FE149567EFA50A1
:101BF000952DD77BD41CCC62138A8D2D52BB963485
:101C000091E8BB1FD0D9A006ECF37E5EADC265475C
:101C10006E91486C2FA05375E836123AA907092334
:101C20006A5424082B653F11E479A796A548BC8F18
:101C3000661B91A4272A8ABDE0BCCBF2A18DD0EB14
:101C400062DEFDC023EFE6D9BDE1BC14FCD0A70DD8
:101C50003F838A267EB2913FB924D070F815CB69B4
:101C60003B46E6427A77FD5BB56B65DCF45A7EC590
:101C7000370953EE763848F7B1AE09B8F09F12A194
:101C800033CC3F8A72FD249300000000376AC20102
:101C90006ED4840359BE4602DCA80907EBC2CB060A
:101CA000B27C8D0485164F05B851130E8F3BD10FB2
:101CB000D685970DE1EF550C64F91A095393D808AE
:101CC0000A2D9E0A3D475C0B70A3261C47C9E41DE4
:101CD0001E77A21F291D601EAC0B2F1B9B61ED1AE6
:101CE000C2DFAB18F5B56919C8F23512FF98F713C2
:101CF000A626B111914C7310145A3C152330FE14D2
:101D00007A8EB8164DE47A17E0464D38D72C8F39C5
:101D10008E92C93BB9F80B3A3CEE443F0B84863EA9
:101D2000523AC03C6550023D58175E366F7D9C3775
:101D300036C3DA3501A9183484BF5731B3D595308D
:101D4000EA6BD332DD01113390E56B24A78FA9250F
:101D5000FE31EF27C95B2D264C4D62237B27A02245
:101D60002299E62015F3242128B4782A1FDEBA2B05
:101D70004660FC29710A3E28F41C712DC376B32CF1
:101D80009AC8F52EADA2372FC08D9A70F7E758711B
:101D9000AE591E739933DC721C2593772B4F517605
:101DA00072F11774459BD57578DC897E4FB64B7FF1
:101DB00016080D7D2162CF7CA4748079931E427831
:101DC000CAA0047AFDCAC67BB02EBC6C87447E6D67
:101DD000DEFA386FE990FA6E6C86B56B5BEC776A69
:101DE000025231683538F369087FAF623F156D6381
:101DF00066AB2B6151C1E960D4D7A665E3BD6464CD
:101E0000BA0322668D69E06720CBD74817A1154930
:101E10004E1F534B7975914AFC63DE4FCB091C4E24
:101E200092B75A4CA5DD984D989AC446AFF0064734
:101E3000F64E4045C12482444432CD4173580F4090
:101E40002AE649421D8C8B435068F1546702335592
:101E50003EBC755709D6B7568CC0F853BBAA3A5248
:101E6000E2147C50D57EBE51E839E25ADF53205B44
:101E700086ED6659B187A4583491EB5D03FB295C6C
:101E80005A456F5E6D2FAD5F801B35E1B771F7E08E
:101E9000EECFB1E2D9A573E35CB33CE66BD9FEE7C4
:101EA0003267B8E5050D7AE4384A26EF0F20E4EEF4
:101EB000569EA2EC61F460EDE4E22FE8D388EDE9F0
:101EC0008A36ABEBBD5C69EAF0B813FDC7D2D1FC32
:101ED0009E6C97FEA90655FF2C101AFA1B7AD8FBA8
:101EE00042C49EF975AE5CF848E900F37F83C2F204
:101EF000263D84F0115746F1944109F4A32BCBF50C
:101F0000FA958DF7CDFF4FF6605D78D95737BAD87F
:101F10000E89FCDA39E33EDBBCF571DE8B9FB3DF63
:101F2000D221F5DDE54B37DCD80C6BD7EF66A9D6AF
:101F3000B6D8EFD481B22DD504A462D033CEA0D1CF
:101F40006A70E6D35D1A24D210FE5EC527949CC445
:101F50007E2ADAC6494018C7CC5657C2FB3C95C307
:101F6000A282D3C195E811C0A8AF4DCB9FC58FCA3F
:101F7000C67BC9C8F1110BC9740744CC436D86CD2B
:101F80001AD3C0CF2DB902CE4096AF9177FC6D9099
:101F90002E422B921928E9939C3EA696AB54649747
:101FA000F2EA2295C580E094F8C7BC9FCFAD7E9E33
:101FB0009613389CA179FA9D246FB59813057799EB
:101FC0004ABB319B7DD1F39A3035898D075F4B8CAD
:101FD0005EE10D8E698BCF8FEC9D808ADBF7428BA3
:101FE00082490489B523C68888649A83BF0E5882C3
:101FF000E6B01E80D1DADC8154CC938463A651858F
:102000003A1817870D72D586A0D0E2A997BA20A8F2
:10201000CE0466AAF96EA4AB7C78EBAE4B1229AF66
:1020200012AC6FAD25C6ADAC1881F1A72FEB33A66E
:10203000765575A4413FB7A5C429F8A0F3433AA14A
:10204000AAFD7CA39D97BEA2D073C4B5E71906B4C0
:10205000BEA740B689CD82B70CDBCDB23BB10FB382
:10206000620F49B155658BB06822D7BB5F4815BA7E
:1020700006F653B8319C91B9B48ADEBC83E01CBD2E
:10208000DA5E5ABFED3498BE000000006567BCB848
:102090008BC809AAEEAFB5125797628F32F0DE37C0
:1020A000DC5F6B25B938D79DEF28B4C58A4F087D12
:1020B00064E0BD6F018701D7B8BFD64ADDD86AF2A8
:1020C0003377DFE0561063589F571950FA30A5E870
:1020D000149F10FA71F8AC42C8C07BDFADA7C76788
:1020E00043087275266FCECD707FAD951518112DF2
:1020F000FBB7A43F9ED0188727E8CF1A428F73A260
:10210000AC20C6B0C9477A083EAF32A05BC88E1873
:10211000B5673B0AD00087B26938502F0C5FEC9747
:10212000E2F059858797E53DD1878665B4E03ADDD1
:102130005A4F8FCF3F2833778610E4EAE37758521F
:102140000DD8ED4068BF51F8A1F82BF0C49F974817
:102150002A30225A4F579EE2F66F497F9308F5C7FF
:102160007DA740D518C0FC6D4ED09F352BB7238D71
:10217000C518969FA07F2A271947FDBA7C204102E7
:10218000928FF410F7E848A83D58149B583FA823B5
:10219000B6901D31D3F7A1896ACF76140FA8CAACC7
:1021A000E1077FBE8460C306D270A05EB7171CE64D
:1021B00059B8A9F43CDF154C85E7C2D1E0807E69AF
:1021C0000E2FCB7B6B4877C3A20F0DCBC768B173C3
:1021D00029C704614CA0B8D9F5986F4490FFD3FC8F
:1021E0007E5066EE1B37DA564D27B90E284005B6ED
:1021F000C6EFB0A4A3880C1C1AB0DB817FD7673967
:102200009178D22BF41F6E9303F7263B66909A8346
:10221000883F2F91ED589329546044B43107F80C4E
:10222000DFA84D1EBACFF1A6ECDF92FE89B82E468C
:1022300067179B54027027ECBB48F071DE2F4CC926
:102240003080F9DB55E745639CA03F6BF9C783D32A
:10225000176836C1720F8A79CB375DE4AE50E15C06
:1022600040FF544E2598E8F673888BAE16EF37166C
:10227000F84082049D273EBC241FE92141785599EE
:10228000AFD7E08BCAB05C333BB659ED5ED1E555B4
:10229000B07E5047D519ECFF6C213B62094687DAC6
:1022A000E7E932C8828E8E70D49EED28B1F9519044
:1022B0005F56E4823A31583A83098FA7E66E331F9E
:1022C00008C1860D6DA63AB5A4E140BDC186FC05E6
:1022D0002F2949174A4EF5AFF376223296119E8A7E
:1022E00078BE2B981DD997204BC9F4782EAE48C0E4
:1022F000C001FDD2A566416A1C5E96F779392A4F66
:1023000097969F5DF2F123E505196B4D607ED7F539
:102310008ED162E7EBB6DE5F528E09C237E9B57A3D
:10232000D9460068BC21BCD0EA31DF888F566330C3
:1023300061F9D622049E6A9ABDA6BD07D8C101BF25
:10234000366EB4AD530908159A4E721DFF29CEA5FD
:1023500011867BB774E1C70FCDD91092A8BEAC2A05
:10236000461119382376A5807566C6D810017A60A3
:10237000FEAECF729BC973CA22F1A457479618EFDD
:10238000A939ADFDCC5E114506EE4D766389F1CEDF
:102390008D2644DCE841F86451792FF9341E9341CD
:1023A000DAB12653BFD69AEBE9C6F9B38CA1450B37
:1023B000620EF01907694CA1BE519B3CDB362784A5
:1023C0003599929650FE2E2E99B95426FCDEE89E41
:1023D00012715D8C7716E134CE2E36A9AB498A1185
:1023E00045E63F03208183BB7691E0E313F65C5B17
:1023F000FD59E949983E55F12106826C44613ED46D
:10240000AACE8BC6CFA9377E38417FD65D26C36E54
:10241000B389767CD6EECAC46FD61D590AB1A1E144
:10242000E41E14F38179A84BD769CB13B20E77ABB6
:102430005CA1C2B939C67E0180FEA99CE59915242C
:102440000B36A0366E511C8EA7166686C271DA3E18
:102450002CDE6F2C49B9D394F081040995E6B8B10C
:102460007B490DA31E2EB11B483ED2432D596EFB56
:10247000C3F6DBE9A69167511FA9B0CC7ACE0C74E4
:102480009461B966F10605DE0000220025002800EF
:102490002B002E003100340002010000050108016C
:1024A0000B0100002100240027002A002D0030002D
:1024B000330001010000040107010A0105050505BB
:1024C000070508080808020202020A0A08080404AC
:1024D00004040101010101010101030303030303DA
:1024E0000303040707070C0C0C0C0C0C0C0C020269
:1024F000020206060606060606060B0B0B0B0B0B66
:102500000B0B0102102020080810204010204080F2
:1025100002010201080402010102040810204080A7
:102520008040201008040201800402018040201035
:10253000080402010804020101020408102040807E
:102540000102040810204080DE0011241FBECFEFDE
:10255000D1E2DEBFCDBF00E00CBF12E0A0E0B2E0F0
:10256000E0EEFDE803E00BBF02C007900D92A83734
:10257000B107D9F72FE1A8E7B2E001C01D92AE3C48
:10258000B207E1F712E1C5EAD2E100E006C0219707
:102590000109802FFE010F9461C6C43AD10780E083
:1025A0000807A9F70F94E4AD0D94EEC60C94000053
:1025B0009091CE1D80912A1C8C718C3071F19A30D3
:1025C000BCF41916A4F421E030E03093BC0520934C
:1025D000BB0543E050E05093BA054093B9053093F2
:1025E000B8052093B7055093AA054093A90508950F
:1025F00064E070E07093BC056093BB05A2E0B0E0BE
:10260000B093BA05A093B9057093B8056093B70568
:10261000B093AA05A093A90508959A30DCF4191681
:1026200034F7E1E0F0E0F093BC05E093BB0583E014
:1026300090E09093BA058093B90525E030E030939F
:10264000B8052093B70547E050E05093AA054093A2
:10265000A905089568E070E07093BC056093BB0520
:10266000A2E0B0E0B093BA05A093B905E4E0F0E0D1
:10267000F093B805E093B70586E090E09093AA0543
:102680008093A9050895CF92DF92EF92FF92F8947C
:10269000E0912006F0912106C090C707D090C807AE
:1026A000E090C907F090CA073FB7F8948091370BC4
:1026B0009091380BA091390BB0913A0B26B5A89B9D
:1026C00005C02F3F19F00196A11DB11D3FBF662720
:1026D000782F892F9A2F620F711D811D911D660F12
:1026E000771F881F991F660F771F881F991F609398
:1026F000B3057093B4058093B5059093B6057894AF
:102700002091B3053091B4054091B5055091B605BF
:102710002C193D094E095F09A091ED06B091EE0616
:102720000F9401C6DC01CB01905CAF4FBF4F5FE05F
:10273000B695A795979587955A95D1F7EE0FFF1FF8
:10274000E452FA4F40815181E0901E1CF0901F1C12
:10275000E40EF51E8E0D9F1D803D22E092073CF099
:10276000805D9240FF90EF90DF90CF90089597FFAB
:10277000F9CF88599E4FFF90EF90DF90CF9008954A
:102780000F9487A16093A5057093A6058093A70574
:102790009093A8058091A5059091A605A091A70505
:1027A000B091A8054091FD065091FE066091FF068C
:1027B00070910007841B950BA60BB70B8093160630
:1027C00090931706A0931806B09319062091EB1D5D
:1027D00021FD49C03091971D30FF45C0409116063C
:1027E0005091170660911806709119068091DA05CC
:1027F0009091DB05A091DC05B091DD0548175907E4
:102800006A077B0778F12091A5053091A6054091D4
:10281000A7055091A8052093FD063093FE0640932E
:10282000FF0650930007609116067091170680917D
:1028300018069091190660939705709398058093F8
:10284000990590939A05A091FA06B091FB0611960E
:10285000B093FB06A093FA06E0912006F0912106C2
:10286000319771F008956CED75E080E090E0609331
:10287000D6077093D7078093D8079093D907AECF28
:102880004091A5055091A6056091A7057091A805F6
:102890008091C7079091C807A091C907B091CA0756
:1028A00084179507A607B707E8F68091A5059091CC
:1028B000A605A091A705B091A8052091C707309162
:1028C000C8074091C9075091CA07821B930BA40BFC
:1028D000B50B80934D0590934E05A0934F05B09393
:1028E000500508950895CF92DF92EF92FF92CF9313
:1028F000DF93F894C0912006D0912106C090C707BD
:10290000D090C807E090C907F090CA070F9487A13C
:102910006093B3057093B4058093B5059093B605A5
:10292000789480912206909123062097C9F53BE088
:10293000389FF001399FF00D112440911E1C5091D9
:102940001F1CE40FF51F2091B3053091B405409191
:10295000B5055091B6052C193D094E095F09A091A6
:10296000ED06B091EE060F9401C6DC01CB01905C40
:10297000AF4FBF4F2FE0B695A795979587952A95AE
:10298000D1F78E0F9F1F803D22E09207C4F0805D3B
:102990009240DF91CF91FF90EF90DF90CF9008951C
:1029A0002197C89FF001C99FF00DD89FF00D112409
:1029B00020911E1C30911F1CE20FF31FC4CF97FF04
:1029C000E8CF88599E4FDF91CF91FF90EF90DF9035
:1029D000CF90089508958091120690911306A091CA
:1029E0001406B09115068093970590939805A093CF
:1029F0009905B0939A050F9487A16093AB057093E6
:102A0000AC058093AD059093AE058091AB05909198
:102A1000AC05A091AD05B091AE054091C7075091AE
:102A2000C8076091C9077091CA07841B950BA60B54
:102A3000B70B8093120690931306A0931406B093DD
:102A40001506A0912006B09121061196B09321069B
:102A5000A09320062091C50720622093C5076091AE
:102A60002006709121066D30710509F45BC0E0917C
:102A70002006F0912106319709F45DC080919705F9
:102A800090919805A0919905B0919A05B695A79552
:102A90009795879580939D0590939E05A0939F059C
:102AA000B093A00540911206509113066091140650
:102AB0007091150680919D0590919E05A0919F05AE
:102AC000B091A005481759076A077B0708F12091C4
:102AD000C7073091C8074091C9075091CA07209392
:102AE0000E0630930F064093100650931106609126
:102AF000AB057091AC058091AD059091AE056093EA
:102B0000C7077093C8078093C9079093CA070895B1
:102B100010922106109220067091971D716070939B
:102B2000971D08953091971D30FFA1CF1092210677
:102B30001092200608955091971D50FF9FCF40910D
:102B4000D6055091D7056091D8057091D90540936D
:102B5000D2055093D3056093D4057093D505809129
:102B6000AB059091AC05A091AD05B091AE058093F9
:102B7000D6059093D705A093D805B093D905209199
:102B8000091E30910A1E40910B1E50910C1E2F5FA2
:102B90003F4F4F4F5F4F2093091E30930A1E4093C3
:102BA0000B1E50930C1E6091C7077091C80780914F
:102BB000C9079091CA0760930E0670930F06809321
:102BC0001006909311064091AB055091AC056091B1
:102BD000AD057091AE054093C7075093C807609349
:102BE000C9077093CA0708950895CF92DF92EF92B4
:102BF000FF921F93CF93DF93F894C0912006D0915A
:102C00002106C090C707D090C807E090C907F09090
:102C1000CA071091D1050F9487A16093B3057093F3
:102C2000B4058093B5059093B6057894FE0131976D
:102C3000CD2B11F4ECE2F0E0C0912206D0912306F6
:102C40002091B3053091B4054091B5055091B6057A
:102C50002C193D094E095F09A091ED06B091EE06D1
:102C60000F9401C6DC01CB01905CAF4FBF4F2FE04A
:102C7000B695A795979587952A95D1F720911E1C13
:102C800030911F1C820F931FCE9FB001CF9F700DFC
:102C9000DE9F700D1124860F971F112311F08859A4
:102CA0009E4F803D22E0920754F0805D9240DF917C
:102CB000CF911F91FF90EF90DF90CF90089597FFF5
:102CC000F6CF4091260250912702E0902802F09022
:102CD0002902E416F50654F08E0D9F1DDF91CF9169
:102CE0001F91FF90EF90DF90CF9008957A018E0DA5
:102CF0009F1DF4CF8091971D80FF20C02091241C40
:102D000027FD2CC04091091E50910A1E60910B1E98
:102D100070910C1E443651056105710558F460919F
:102D20002006709121066D32710521F01092210666
:102D30001092200691E09093D105089510922106FB
:102D4000109220065091971D51605093971D73E08B
:102D50007093FC0691E09093D1050895109221069E
:102D60001092200633E03093FC0691E09093D10559
:102D700008950F9487A16093AB057093AC05809381
:102D8000AD059093AE058091AB059091AC05A091F7
:102D9000AD05B091AE054091490550914A0560914D
:102DA0004B0570914C05841B950BA60BB70B8093BC
:102DB000120690931306A0931406B0931506209163
:102DC0001206309113064091140650911506609139
:102DD000D6077091D7078091D8079091D9076217CD
:102DE00073078407950768F08091091E90910A1E69
:102DF000A0910B1EB0910C1E892B8A2B8B2B09F0F6
:102E0000B7C03091FC063F5F3093FC065091971D90
:102E100050FF9EC07091FC06733008F4A9C09091D9
:102E2000C50790629093C5074091AB055091AC05E2
:102E30006091AD057091AE054093490550934A05E8
:102E400060934B0570934C051092FC06A0912006F0
:102E5000B09121061196B0932106A0932006E0912F
:102E60002006F0912106319741F020912006309103
:102E700021062E32310508F440C061E070E0709305
:102E80002106609320068091D6059091D705A091E8
:102E9000D805B091D9058093D2059093D305A0931E
:102EA000D405B093D5054091AB055091AC05609128
:102EB000AD057091AE054093D6055093D70560934C
:102EC000D8057093D905B091D105F1E0BF27B09333
:102ED000D1052091091E30910A1E40910B1E509180
:102EE0000C1E2F5F3F4F4F4F5F4F2093091E3093B3
:102EF0000A1E40930B1E50930C1E409112065091D7
:102F00001306609114067091150630912A1C3076D4
:102F100039F03032D1F1303409F448C0303649F15B
:102F20001092D6071092D7071092D8071092D9079F
:102F30006091C7077091C8078091C9079091CA072F
:102F400060930E0670930F068093100690931106FF
:102F50008091AB059091AC05A091AD05B091AE0507
:102F60008093C7079093C807A093C907B093CA0777
:102F70000895DB01CA01880F991FAA1FBB1F840F88
:102F8000951FA61FB71FAC01BD0176956795579594
:102F9000479576956795579547954093D6075093F3
:102FA000D7076093D8077093D907C2CF76956795F6
:102FB000579547954093D6075093D7076093D80706
:102FC0007093D907B5CF0895CF92DF92EF92FF9219
:102FD000CF93DF93F894C0912006D0912106C09042
:102FE000C707D090C807E090C907F090CA070F94B0
:102FF00087A16093B3057093B4058093B505909352
:10300000B60578948091200690912106892B99F538
:10301000E0911E1CF0911F1CEE58FF4F2091B3054C
:103020003091B4054091B5055091B6052C193D0974
:103030004E095F09A091ED06B091EE060F9401C60E
:10304000DC01CB01905CAF4FBF4F2FE0B695A79549
:10305000979587952A95D1F78E0F9F1F803D22E087
:103060009207B4F0805D9240DF91CF91FF90EF9096
:10307000DF90CF900895CC0FDD1FC452DA4FE88166
:10308000F98120911E1C30911F1CE20FF31FC6CF47
:1030900097FFEACF88599E4FDF91CF91FF90EF9035
:1030A000DF90CF9008951092210610922006089587
:1030B00080912006909121060D9709F4A9C00F94E4
:1030C00087A16093AB057093AC058093AD05909399
:1030D000AE058091AB059091AC05A091AD05B09186
:1030E000AE054091C7075091C8076091C90770911C
:1030F000CA07841B950BA60BB70B809312069093FF
:103100001306A0931406B093150620911206309171
:10311000130640911406509115066091D6077091E0
:10312000D7078091D8079091D90726173707480706
:10313000590708F46CC0A0912006B0912106AB2B72
:1031400009F46CC0E0912006F09121063196F093CD
:103150002106E0932006A0912006B0912106E0917F
:103160002006F0912106AA0FBB1FA452BA4FEE0F02
:10317000FF1FE652FA4F8D919C9140815181841B33
:10318000950B90932306809322064091120650914E
:103190001306609114067091150690912A1C907682
:1031A00049F0903209F48CC0903409F49AC09036FA
:1031B00009F47AC01092D6071092D7071092D80758
:1031C0001092D9075091C50750625093C5072091BE
:1031D000C7073091C8074091C9075091CA0720938B
:1031E0000E0630930F06409310065093110660911F
:1031F000AB057091AC058091AD059091AE056093E3
:10320000C7077093C8078093C9079093CA070895AA
:103210007091971D7E7F7093971D089521E030E097
:1032200030932106209320066091D6057091D70532
:103230008091D8059091D9056093D2057093D305FC
:103240008093D4059093D5058091AB059091AC0502
:10325000A091AD05B091AE058093D6059093D705AA
:10326000A093D805B093D9053091971D3160309364
:10327000971D4091091E50910A1E60910B1E70917E
:103280000C1E4F5F5F4F6F4F7F4F4093091E50934F
:103290000A1E60930B1E70930C1EACE3B0E0B0935B
:1032A0002306A093220671CFDB01CA01880F991F64
:1032B000AA1FBB1F840F951FA61FB71FAC01BD011E
:1032C0007695679557954795769567955795479560
:1032D0004093D6075093D7076093D8077093D907C8
:1032E00071CF76956795579547954093D60750933C
:1032F000D7076093D8077093D90764CF0895CF920A
:10330000DF92EF92FF920F931F93CF93F894009167
:10331000200610912106C090C707D090C807E09002
:10332000C907F090CA07C091D1050F9487A1609397
:10333000B3057093B4058093B5059093B605789462
:10334000E0911E1CF0911F1C0115110571F0000F7A
:10335000111FF801E452FA4F0190F081E02D8091A5
:103360001E1C90911F1CE80FF91F2091B30530918E
:10337000B4054091B5055091B6052C193D094E098B
:103380005F09A091ED06B091EE060F9401C6DC0135
:10339000CB01905CAF4FBF4F2FE0B695A7959795A7
:1033A00087952A95D1F78E0F9F1FCC2311F088594E
:1033B0009E4F803D22E0920754F0805D9240CF9175
:1033C0001F910F91FF90EF90DF90CF90089597FF9E
:1033D000F6CF88599E4FCF911F910F91FF90EF909C
:1033E000DF90CF900895109221061092200681E080
:1033F0008093D105089580912006909121064997E8
:1034000009F4D3C03FB7F8944091370B5091380B73
:103410006091390B70913A0B26B5A89B06C02F3FDF
:1034200021F04F5F5F4F6F4F7F4F3FBF962F852F2C
:10343000742F6627620F711D811D911D660F771F06
:10344000881F991F660F771F881F991F6093AB0510
:103450007093AC058093AD059093AE058091AB055C
:103460009091AC05A091AD05B091AE054091C70714
:103470005091C8076091C9077091CA07841B950BCA
:10348000A60BB70B8093120690931306A093140615
:10349000B0931506A0912006B0912106AB2BC9F17F
:1034A000E0912006F09121063196F0932106E093F9
:1034B0002006A0912006B0912106E0912006F0910F
:1034C0002106AA0FBB1FA452BA4FEE0FFF1FE652F0
:1034D000FA4F6D917C9120813181621B730B709347
:1034E000230660932206B091C507B062B093C5076A
:1034F0008091AB059091AC05A091AD05B091AE0562
:103500008093C7079093C807A093C907B093CA07D1
:10351000089581E090E090932106809320064091E9
:10352000D6055091D7056091D8057091D905409383
:10353000D2055093D3056093D4057093D50560915F
:10354000AB057091AC058091AD059091AE0560938F
:10355000D6057093D7058093D8059093D9055091DF
:10356000D10591E059275093D1057091971D716055
:103570007093971D2091091E30910A1E40910B1ED9
:1035800050910C1E2F5F3F4F4F4F5F4F2093091EEE
:1035900030930A1E40930B1E50930C1EAFE0B0E018
:1035A000B0932306A09322069ECFF091971DFE7F35
:1035B000F093971D089580915B0E807F8034F1F029
:1035C0008036D9F420912A1C2C712C3089F146E0E8
:1035D00050E05093BC054093BB0562E070E07093EF
:1035E000BA056093B905A4E0B0E0B093B805A09324
:1035F000B7057093AA056093A905089530912A1C18
:103600003C713C30A9F0E4E0F0E0F093BC05E093BD
:10361000BB0582E090E09093BA058093B905F093E2
:10362000B805E093B7059093AA058093A90508957E
:1036300028E030E03093BC052093BB0542E050E029
:103640005093BA054093B90564E070E07093B805F3
:103650006093B705A6E0B0E0B093AA05A093A905D2
:1036600008958F929F92AF92BF92CF92DF92EF9286
:10367000FF920F931F93CF93DF938091971D80FD4F
:103680000FC090E080E0DF91CF911F910F91FF90EC
:10369000EF90DF90CF90BF90AF909F908F90089564
:1036A000F894E0912006F09121064091C7075091CF
:1036B000C8076091C9077091CA073FB7F894809115
:1036C000370B9091380BA091390BB0913A0B26B57E
:1036D000A89B05C02F3F19F00196A11DB11D3FBF4A
:1036E0008824982EA92EBA2E820E911CA11CB11CE2
:1036F000880C991CAA1CBB1C880C991CAA1CBB1CFE
:103700008092B3059092B405A092B505B092B6052B
:103710007894EE0FFF1FE452FA4FC081D181A09040
:103720001E1CB0901F1CCA0DDB1D8091B30590912B
:10373000B405A091B505B091B6057C018D01E41AE0
:10374000F50A060B170BA8019701F8949090C5078E
:1037500096FC1CC07894A091ED06B091EE060F94F3
:1037600001C6DC01CB01905CAF4FBF4F2FE0B69597
:10377000A795979587952A95D1F78C0F9D1F803D2A
:1037800002E090074CF1805D92407DCFC090C7076A
:10379000D090C807E090C907F090CA0780900E0645
:1037A00090900F06A0901006B0901106A0912206EE
:1037B000B091230678940F9401C6A70196012819A9
:1037C00039094A095B090F9414C6C9018C0F9D1F62
:1037D000803D02E09007BCF697FF55CF88599E4F79
:1037E00052CF8091971D3FB7F8948091370B9091FD
:1037F000380BA091390BB0913A0B26B5A89B05C0A8
:103800002F3F19F00196A11DB11D3FBF6627782FEC
:10381000892F9A2F620F711D811D911D660F771FD1
:10382000881F991F660F771F881F991F6093A50532
:103830007093A6058093A7059093A8058091A50590
:103840009091A605A091A705B091A8054091FD060D
:103850005091FE066091FF0670910007841B950B46
:10386000A60BB70B8093160690931706A093180625
:10387000B09319062091160630911706409118064C
:10388000509119066091DA057091DB058091DC0595
:103890009091DD05261737074807590708F473C0CC
:1038A0008091A5059091A605A091A705B091A805C6
:1038B0008093FD069093FE06A093FF06B093000749
:1038C0005091C50750625093C5074091160650911C
:1038D00017066091180670911906769567955795A9
:1038E00047954093DA055093DB056093DC057093B0
:1038F000DD057091971D70FD32C02CED35E040E084
:1039000050E02093D6073093D7074093D8075093C1
:10391000D9076091DA057091DB058091DC05909103
:10392000DD0596958795779567956093DA05709391
:10393000DB058093DC059093DD05E091C405F091F3
:10394000C5059081A091C305B0915B0EB07F9A230D
:1039500001F1B03409F459C0B03609F44DC060919A
:10396000981D7091991DE091351EF091361E6E17CD
:103970007F0750F45091971D50FF05C070915B0E6A
:10398000707F7034A1F008953091241C37FDF2CF80
:103990000895B03421F78091200690912106059773
:1039A000F1F6F091971DF160F093971DD8CF0F9429
:1039B00087A18091450590914605A0914705B0915A
:1039C0004805E091C405F091C505A0819091C3051B
:1039D000A923C9F280912006909121068830910593
:1039E000E9F0B091971DBE7FB093971D4091461EA0
:1039F0004F5F4093461E0895409120065091210646
:103A00004730510509F0ABCFCCCF20912006309143
:103A100021062830310509F0A2CFC3CF90932106AB
:103A20008093200608958091CE1D82319CF026E07F
:103A300030E03093BC052093BB0541E050E050934B
:103A4000BA054093B90564E070E07093B8056093DF
:103A5000B7050895A7E0B0E0B093BC05A093BB05FF
:103A6000E2E0F0E0F093BA05E093B90585E090E07C
:103A70009093B8058093B7050895CF92DF92EF92A7
:103A8000FF92CF93DF93F894C0912006D091210646
:103A9000C090C707D090C807E090C907F090CA0748
:103AA0000F9487A16093B3057093B4058093B50517
:103AB0009093B6057894C330D1050CF040C02091A6
:103AC0002206309123062197C29FA001C39F500D6B
:103AD000D29F500D1124E0911E1CF0911F1CBA962C
:103AE000E40FF51F2091B3053091B4054091B50561
:103AF0005091B6052C193D094E095F09A091ED06BC
:103B0000B091EE060F9401C6DC01CB01905CAF4F83
:103B1000BF4F2FE0B695A795979587952A95D1F732
:103B20008E0F9F1F803D22E0920714F1805D92402E
:103B3000DF91CF91FF90EF90DF90CF900895E0E775
:103B4000F0E0C330D10571F28091220690912306F6
:103B50002297C89FB001C99F700DD89F700D112486
:103B6000E0911E1CF0911F1CBA96E60FF71FBACF0A
:103B700097FFDECF88599E4FDF91CF91FF90EF9056
:103B8000DF90CF9008958091BD079091BE0720915E
:103B90001E1C30911F1C821B930B409128025091D8
:103BA000290297FD77C048175907DCF130915B0E69
:103BB00032953F703430E9F1353008F44BC036307F
:103BC00009F44AC0383009F0A2C0BC016B55710934
:103BD0006A35710508F482C0DC01A55BB109AA351C
:103BE000B10508F4A8C001978E30914008F0BCC020
:103BF000E1E0F0E0F093BC05E093BB0582E090E0EB
:103C00009093BA058093B90523E030E03093B8056E
:103C10002093B70544E050E05093AA054093A905CE
:103C20000895841B950B30915B0E32953F703430B4
:103C300019F60197843B910580F162E070E0709382
:103C4000BC056093BB05A1E0B0E0B093BA05A093BA
:103C5000B9050895333071F5BC01695771096837AA
:103C6000710548F10197803F910508F451C023E0A8
:103C700030E03093BC052093BB0541E050E0509309
:103C8000BA054093B90562E070E07093B80560939F
:103C9000B7050895840F951F89CF21E030E0309358
:103CA000BC052093BB0542E050E05093BA05409319
:103CB000B90508950895A2E0B0E0B093BC05A093C3
:103CC000BB05E3E0F0E0F093BA05E093B90581E0CD
:103CD00090E09093B8058093B7050895E2E0F0E096
:103CE000F093BC05E093BB0583E090E09093BA05A8
:103CF0008093B90524E030E03093B8052093B705F0
:103D000041E050E05093AA054093A9050895089515
:103D1000A1E0B0E0B093BC05A093BB05E2E0F0E009
:103D2000F093BA05E093B90583E090E09093B8056D
:103D30008093B705089523E030E03093BC052093CD
:103D4000BB0544E050E05093BA054093B90561E0EB
:103D500070E07093B8056093B705A2E0B0E0B0934F
:103D6000AA05A093A905089564E070E07093BC05CE
:103D70006093BB05A1E0B0E0B093BA05A093B9058C
:103D8000E2E0F0E0F093B805E093B70583E090E05F
:103D90009093AA058093A90508958F929F92AF9260
:103DA000BF92CF92DF92EF92FF92CF93DF93F8947E
:103DB000C0912006D0912106C090C707D090C807B7
:103DC000E090C907F090CA070F9487A16093B305EC
:103DD0007093B4058093B5059093B605789480915F
:103DE000220690912306AE0141505109489FE001FF
:103DF000499FD00D589FD00D112480901E1C90908B
:103E00001F1CC80DD91D2091B3053091B4054091F8
:103E1000B5055091B6052C193D094E095F09F89476
:103E20009090C50796FC36C07894A091ED06B091AD
:103E3000EE060F9401C6DC01CB01905CAF4FBF4F83
:103E40002FE0B695A795979587952A95D1F78C0F72
:103E50009D1F803D22E092076CF0805D9240DF91D3
:103E6000CF91FF90EF90DF90CF90BF90AF909F9059
:103E70008F90089597FFF3CFA0902602B09027026D
:103E800040912802509129024A155B0524F1840FC4
:103E9000951FE5CFC090C707D090C807E090C9072D
:103EA000F090CA0780900E0690900F06A090100622
:103EB000B0901106A0912206B091230678940F9439
:103EC00001C6A7019601281939094A095B090F940F
:103ED00014C6C901BCCFA501840F951FC0CFCF92D6
:103EE000DF92EF92FF92CF93462F20911E1C3091CC
:103EF0001F1CFC01E21BF30BC091D0052091CE05E5
:103F00003091CF055C2F5F7121153105A9F52C2F5C
:103F1000CC0F330B220F232F221F330B8FEF9FEF7A
:103F2000052E02C0880F991F0A94E2F7809590959C
:103F3000BF01770F660B762F862397238E0F9F1F67
:103F400002C0959587955A95E2F782279327821BA1
:103F5000930B20912D1C240F3327331F181619069D
:103F60009CF52817390714F4821B930BCF91FF900F
:103F7000EF90DF90CF900895DF010F9482C66C011F
:103F8000FF24D7FCF094EF2CC601C6FF0EC02C2FE7
:103F9000CC0F330B220F232F221F330BCF0182278D
:103FA0009327821B930B8C0D9D1D02C095958795C1
:103FB0005A95E2F797FD019620912D1C240F332787
:103FC000331F181619066CF2820F931FCF91FF90C2
:103FD000EF90DF90CF900895CF9380912A1C8C7141
:103FE0008C30D1F1C0E06C2F8091BD079091BE075D
:103FF0000E946F1F9093BC058093BB056C2F80912E
:10400000BB079091BC070E946F1F9093BA058093E5
:10401000B9056C2F8091B9079091BA070E946F1F64
:104020009093B8058093B7056C2F8091B707909156
:10403000B8070E946F1F9093AA058093A9056C2F63
:104040008091B5079091B6070E946F1F90939C05D1
:1040500080939B05CF9108952091231CC0912D1C26
:1040600021FFC1CFBFCFCF92DF92EF92FF921F937C
:10407000CF93DF93F894C0912006D0912106C09091
:10408000C707D090C807E090C907F090CA07109101
:10409000D1050F9487A16093B3057093B405809305
:1040A000B5059093B6057894209719F4C0912D1C0E
:1040B000D0E0E0912206F09123062091B3053091E3
:1040C000B4054091B5055091B6052C193D094E092E
:1040D0005F09A091ED06B091EE060F9401C6DC01D8
:1040E000CB01905CAF4FBF4F2FE0B695A79597954A
:1040F00087952A95D1F720911E1C30911F1C820FA5
:10410000931F2197CE9FB001CF9F700DDE9F700D42
:104110001124860F971F112321F0D090231CD1FE6C
:1041200025C0803D22E0920754F0805D9240DF91EF
:10413000CF911F91FF90EF90DF90CF90089597FF60
:10414000F6CF4091260250912702E0902802F0908D
:104150002902E416F5066CF08E0D9F1DDF91CF91BC
:104160001F91FF90EF90DF90CF90089588599E4F58
:10417000D8CF7A018E0D9F1DF1CFCF92DF92EF92B3
:10418000FF92CF93DF930F9487A16093A50570935F
:10419000A6058093A7059093A8058091A505909109
:1041A000A605A091A705B091A8054091FD065091E4
:1041B000FE066091FF0670910007841B950BA60B0D
:1041C000B70B8093160690931706A0931806B0932A
:1041D0001906C0901606D0901706E0901806F090C9
:1041E00019062091DA053091DB054091DC055091EC
:1041F000DD05C216D306E406F50608F464C0809116
:10420000A5059091A605A091A705B091A80580935A
:10421000FD069093FE06A093FF06B0930007409121
:10422000160650911706609118067091190676953A
:104230006795579547957695679557954795409318
:10424000DA055093DB056093DC057093DD05D090B3
:10425000971DD0FE53C0C090091ED0900A1EE0905A
:104260000B1EF0900C1E8091291C90E0B0E0A0E0A5
:104270008C159D05AE05BF0508F040C080912D1C32
:1042800090E0E0902006F09021068E159F0591F0B9
:104290002091091E30910A1E40910B1E50910C1E58
:1042A000233031054105510528F03091461E3F5F0E
:1042B0003093461EF090241CF7FE58C090932106C0
:1042C0008093200653C06091E9067091EA068091C0
:1042D000EB069091EC069695879577956795609398
:1042E000DA057093DB058093DC059093DD05DF91A3
:1042F000CF91FF90EF90DF90CF9008950F9487A11A
:104300006093C7077093C8078093C9079093CA0743
:104310000F9487A16B017C01C0912D1C2C2F30E0E4
:1043200050E040E060E87DE88BE590E00F9414C633
:10433000C21AD30AE40AF50AC0920E06D0920F06FA
:10434000E0921006F0921106D0E0D0932106C093BF
:1043500020061092D6071092D7071092D807109215
:10436000D9075091971D51605093971D71E070933C
:10437000D105DF91CF91FF90EF90DF90CF9008951E
:10438000CF92DF92EF92FF92CF93462F20911E1C87
:1043900030911F1CFC01E21BF30BC091D005209152
:1043A000CE053091CF055C2F5F712115310509F0E5
:1043B0004CC08C2FCC0F990B880F892F881F990B1D
:1043C0002FEF3FEF052E02C0220F331F0A94E2F7B2
:1043D00020953095BF01770F660B762F2623372364
:1043E0002E0F3F1F02C0359527955A95E2F72827D3
:1043F0003927281B390B60912D1C6D3010F021508E
:10440000310970E0842F90E06B01C80ED91E12169E
:1044100013060CF040C0C216D306D4F1E0901E067D
:10442000F0901F06E216F30620F46217730708F0F7
:1044300097018E0D9F1D2817390708F4C901CF91E8
:10444000FF90EF90DF90CF900895DF010F9482C628
:104450006C01FF24D7FCF094EF2C9601C6FF0EC030
:104460008C2FCC0F990B880F892F881F990B9F01D8
:1044700028273927281B390B2C0D3D1D02C03595E7
:1044800027955A95E2F7832F880F211D311DB3CF51
:104490002C193D09C3CF2C0D3D1DC0CFCF9380916A
:1044A0002A1C8C718C30D1F1C0E06C2F8091BD073B
:1044B0009091BE070E94C0219093BC058093BB05DC
:1044C0006C2F8091BB079091BC070E94C0219093F4
:1044D000BA058093B9056C2F8091B9079091BA07FE
:1044E0000E94C0219093B8058093B7056C2F8091EE
:1044F000B7079091B8070E94C0219093AA058093B6
:10450000A9056C2F8091B5079091B6070E94C02134
:1045100090939C0580939B05CF9108952091231C37
:1045200021FDC2CF30915B0EC0912D1C32FFBDCF5B
:10453000BBCFCF92DF92EF92FF92F89420912006AA
:10454000309121069091D105C090C707D090C8073F
:10455000E090C907F090CA077894409122065091E4
:10456000230621503109249FF001259FF00D349F2F
:10457000F00D112460911E1C70911F1CE60FF71F97
:10458000992321F08091231C81FF63C03FB7F894E9
:104590004091370B5091380B6091390B70913A0B69
:1045A000A6B5A89B06C0AF3F21F04F5F5F4F6F4F8E
:1045B0007F4F3FBF2227342F452F562F2A0F311D03
:1045C000411D511D220F331F441F551F220F331F42
:1045D000441F551F2093B3053093B4054093B50590
:1045E0005093B6052C193D094E095F09A091ED06BF
:1045F000B091EE060F9401C6DC01CB01905CAF4F89
:10460000BF4F7FE0B695A795979587957A95D1F797
:104610008E0F9F1F803D22E092073CF0805D92400C
:10462000FF90EF90DF90CF90089597FFF9CFE09043
:104630002602F090270240912802509129024E153F
:104640005F0554F0840F951FFF90EF90DF90CF909F
:104650000895E859FE4F9ACFA701840F951FF4CF14
:10466000CF92DF92EF92FF920F9487A16093410562
:1046700070934205809343059093440580914105D2
:1046800090914205A0914305B091440540913D05AC
:1046900050913E0560913F0570914005841B950B3C
:1046A000A60BB70B80931A0690931B06A0931C06CB
:1046B000B0931D06C0903D05D0903E05E0903F05AB
:1046C000F0904005CD28CE28CF28C1F410921A06CC
:1046D00010921B0610921C0610921D062091410597
:1046E00030914205409143055091440520933D058A
:1046F00030933E0540933F055093400540911A0684
:1047000050911B0660911C0670911D068091390521
:1047100090913A05A0913B05B0913C054817590787
:104720006A077B0708F4B3C0A091C605B091C7051E
:104730001196B093C705A093C60560911A067091B3
:104740001B0680911C0690911D069695879577957E
:1047500067959695879577956795609339057093DA
:104760003A0580933B0590933C05E0910A02F09155
:104770000B021995AC01893621E092070CF443C075
:104780009C0129563140A3E8BDE20F9436C60024AF
:10479000880F991F001C880F991F001C892F902DCE
:1047A0008770992748565140493621E052075CF1FD
:1047B000009719F181309105D1F082309105A9F06F
:1047C0008330910581F08430910559F08530910551
:1047D00031F0069711F0485651404856514048561E
:1047E000514048565140485651404856514048560D
:1047F0005140493621E0520734F040545B4049367D
:1048000081E05807D4F7E0901E1CF0901F1C4E1951
:104810005F0930919C1E3370323031F4C090971C88
:10482000D090981C4C195D09E0919A1C9A01220FB6
:10483000331FF0E0A0E0B1E0AE1BBF0B0F9482C6C7
:104840006B017C01A0915F1EB091601E9F010F94CF
:104850008AC6C60ED71EE81EF91ECD2CDE2CEF2C04
:10486000FF24E7FCFA94D092601EC0925F1E209154
:1048700041053091420540914305509144052093F4
:104880003D0530933E0540933F0550934005FF9012
:10489000EF90DF90CF900895CF92DF92EF92FF924A
:1048A0000F9487A16093A5057093A6058093A70533
:1048B0009093A8058091A5059091A605A091A705C4
:1048C000B091A8054091FD065091FE066091FF064B
:1048D00070910007841B950BA60BB70B80931606EF
:1048E00090931706A0931806B0931906C090FD0682
:1048F000D090FE06E090FF06F0900007CD28CE286D
:10490000CF28C1F4109216061092170610921806BE
:10491000109219062091A5053091A6054091A70592
:104920005091A8052093FD063093FE064093FF06A4
:104930005093000740911606509117066091180693
:10494000709119068091DA059091DB05A091DC0544
:10495000B091DD05481759076A077B0708F446C080
:104960003091261C3F77313009F445C008F456C118
:10497000323009F4B2C0343049F5A091FA06B09152
:10498000FB061196B093FB06A093FA066091FA0617
:104990007091FB066230710509F4DCC1C090160607
:1049A000D0901706E0901806F0901906F694E79458
:1049B000D794C794F694E794D794C794C092DA0535
:1049C000D092DB05E092DC05F092DD05C090A505F4
:1049D000D090A605E090A705F090A805C092FD062E
:1049E000D092FE06E092FF06F0920007FF90EF9053
:1049F000DF90CF9008958091FD069091FE06A091E2
:104A0000FF06B0910007C090CA05D090CB05E0909A
:104A1000CC05F090CD058C199D09AE09BF09AC01FC
:104A2000BD01440F551F661F771F840F951FA61FDA
:104A3000B71FB695A795979587958093A1059093F5
:104A4000A205A093A305B093A4052091FD06309183
:104A5000FE064091FF06509100072093CA0530934F
:104A6000CB054093CC055093CD054091160650914F
:104A7000170660911806709119068091A105909112
:104A8000A205A091A305B091A405481759076A078C
:104A90007B0738F4A091FA06B091FB06149708F44E
:104AA00037C181E090E09093FB068093FA068093F3
:104AB000D1051092DA051092DB051092DC051092F8
:104AC000DD055091961E55FF81CFF090D105FF2056
:104AD00009F47CCF0F948C3179CF20911606309158
:104AE0001706409118065091190656954795379527
:104AF00027952093DA053093DB054093DC0550932E
:104B0000DD05F090961EF5FE61CF7091D1057723FB
:104B100009F45CCFE0910A02F0910B021995AC0107
:104B2000893621E092070CF443C09C01295631409C
:104B3000A3E8BDE20F9436C60024880F991F001C1D
:104B4000880F991F001C892F902D87709927485630
:104B50005140493621E052075CF1009719F181304C
:104B60009105D1F082309105A9F08330910581F053
:104B70008430910559F08530910531F0069711F098
:104B80004856514048565140485651404856514069
:104B9000485651404856514048565140493681E0A8
:104BA000580734F040545B40493681E05807D4F749
:104BB00060911E1C70911F1C461B570B30919C1E50
:104BC0003370323031F4E090591DF0905A1D4E1977
:104BD0005F09D0909A1C9A01220F331F4D2D50E08F
:104BE000A0E0B1E0A41BB50B0F9482C66B017C0161
:104BF000A0914B1EB0914C1E9A010F948AC6C60E0E
:104C0000D71EE81EF91ECD2CDE2CEF2CFF24E7FC6E
:104C1000FA94D0924C1EC0924B1ED8CE91E0909345
:104C2000D1058091160690911706A0911806B091B3
:104C30001906B695A795979587958093DA05909371
:104C4000DB05A093DC05B093DD05A091FA06B091D9
:104C5000FB061196B093FB06A093FA06B091961E40
:104C6000B5FFB4CEF091D105FF2309F4AFCEE091AA
:104C70000A02F0910B021995AC01893621E09207E6
:104C80000CF496CF9C0129563140A3E8BDE20F9465
:104C900036C60024880F991F001C880F991F001C1E
:104CA000892F902D8770992748565140493621E029
:104CB00052070CF47DCF009721F181309105D1F09E
:104CC00082309105A9F08330910581F084309105FF
:104CD00059F08530910531F0069711F04856514052
:104CE0004856514048565140485651404856514008
:104CF0004856514048565140493621E052070CF47D
:104D000057CF40545B40493681E05807D4F750CF25
:104D100060911606709117068091180690911906F9
:104D200096958795779567959695879577956795E5
:104D30006093DA057093DB058093DC059093DD05C5
:104D4000E091FA06F091FB063196F093FB06E093B2
:104D5000FA063CCE51E05093D105D090961ED5FE78
:104D60001DCEE090D105EE2009F418CE0F948C31C1
:104D700015CE0F931F932091E81D26FD21C00091B1
:104D8000491E002301F141111BC0E091CB07F091B6
:104D9000CC07EE0FFF1FEE0FFF1FE35CFC4F60839D
:104DA0007183828393832091CB073091CC072E3778
:104DB000310508F453C0B091E81DB064B093E81D0C
:104DC0001F910F91089580914A1E8823C9F3E091A5
:104DD000CB07F091CC07E254FD4F1082E091C4055F
:104DE000F091C505A091C105B091C205843009F4C8
:104DF00046C090811091C305912349F0E091CB0703
:104E0000F091CC07E254FD4F308131603083E09166
:104E1000BE05F091BF05833009F496C05C916091A6
:104E2000C005562349F0A091CB07B091CC07A254FE
:104E3000BD4F7C9172607C93B081F091BD05BF2322
:104E400049F0E091CB07F091CC07E254FD4F30815F
:104E500034603083442309F44BC041C0A091CB0798
:104E6000B091CC071196B093CC07A093CB07F091EB
:104E7000E81DFF7BF093E81D1F910F9108955C9151
:104E80006091C005562349F0A091CB07B091CC07A3
:104E9000A254BD4F7C9171607C93A091BE05B091EE
:104EA000BF05BC912091BD05B22349F0A091CB076D
:104EB000B091CC07A254BD4F0C9102600C93F081CD
:104EC0008091C305F82349F0E091CB07F091CC071E
:104ED000E254FD4F108114601083423049F4E09198
:104EE000CB07F091CC07E254FD4F408148604083EE
:104EF0009091971D90FF09C0E091CB07F091CC07EE
:104F0000E254FD4F3081306130835091D105E09102
:104F1000CB07F091CC07E254FD4F552351F170813E
:104F2000706270830091CB071091CC070F9487A11A
:104F3000000F111F000F111FF801E35CFC4F60838D
:104F40007183828393832FCF20810091BD0520231D
:104F500049F0E091CB07F091CC07E254FD4F8081FE
:104F6000826080831C919091C005192309F472CF4F
:104F700068CF60816F7D6083D5CF8091C5078F7DBD
:104F80008093C5072091C50720622093C507309103
:104F900053053330E1F0323081F0313029F4E091C3
:104FA0000402F0910502199570914A1E772321F0B1
:104FB000A091C507A5FD15C00895E091BE05F0912B
:104FC000BF0540819091BD05492349F3EDCFE091A4
:104FD000BE05F091BF0550816091BD055623F9F6DD
:104FE000E3CF60911A0670911B0680911C06909188
:104FF0001D0642E00C94B9268091C5078F7D8093F1
:10500000C5072091C50720622093C507309155053B
:105010003330E1F0323081F0313029F4E091060292
:10502000F0910702199570914A1E772321F0A09103
:10503000C507A5FD15C00895E091C105F091C20511
:1050400040819091C005492349F3EDCFE091C1051E
:10505000F091C20550816091C0055623F9F6E3CF67
:1050600060911606709117068091180690911906A6
:1050700041E00C94B9268091C5078F7D8093C507C8
:1050800020915105233099F12230A1F02130D9F43B
:10509000E0910202F09103021995A091491EAA2302
:1050A00021F0B091C507B5FD17C0F0914A1EF1116E
:1050B00013C00895E091C405F091C5053081909129
:1050C000C305392329F36091491E662371F370915A
:1050D000C50775FFEACF0895609112067091130617
:1050E000809114069091150640E00C94B926E09149
:1050F000C405F091C50540815091C305452341F693
:10510000E2CF90E080E0089590E080E00895EF9293
:10511000FF920F931F93CF93DF939091E81D96FF1B
:1051200016C154E050930507C82FD0E0CF37D10502
:105130000CF0FBC0DE01A095B095A370BB271097C3
:1051400009F456C0A130B10549F1129709F081C1A7
:105150008E01000F111F000F111F035C1C4FF8017F
:1051600080819181A281B3818B2F0F94CE98F80119
:1051700060817181828193810F94CE98F801808142
:105180009181A281B381892F0F94CE98F8018081FB
:105190009181A281B3810F94CE9821968E01000F48
:1051A000111F000F111F035C1C4FF80180819181BA
:1051B000A281B3818B2F0F94CE98F8016081718109
:1051C000828193810F94CE98F80180819181A28190
:1051D000B381892F0F94CE98F80180819181A281AB
:1051E000B3810F94CE982196CF37D10509F49DC095
:1051F0008E01000F111F000F111F035C1C4FF801DF
:1052000080819181A281B3818B2F0F94CE98F80178
:1052100060817181828193810F94CE98F8018081A1
:105220009181A281B381892F0F94CE98F80180815A
:105230009181A281B3810F94CE987E01FFEFEF1A86
:10524000FF0A8701000F111F000F111F035C1C4F85
:10525000F80180819181A281B3818B2F0F94CE9828
:10526000F80160817181828193810F94CE98F80159
:1052700080819181A281B381892F0F94CE98F8010A
:1052800080819181A281B3810F94CE988701000F14
:10529000111F000F111F0F5B1C4FF80180819181BE
:1052A000A281B3818B2F0F94CE98F8016081718118
:1052B000828193810F94CE98F80180819181A2819F
:1052C000B381892F0F94CE98F80180819181A281BA
:1052D000B3810F94CE988E01000F111F000F111F84
:1052E000075B1C4FF80180819181A281B3818B2FD4
:1052F0000F94CE98F80160817181828193810F941F
:10530000CE98F80180819181A281B381892F0F9479
:10531000CE98F80180819181A281B3810F94CE98BB
:105320002496CF37D10509F063CF4091E81D4F7B1C
:105330004093E81D109205071092CC071092CB07FE
:10534000DF91CF911F910F91FF90EF9008954CEF57
:1053500051E061E06093CF0EE090D20E8091D30EC9
:10536000E091C70EF091C80EE81609F45EC02091D6
:10537000D20E30E02F5F3F4F2F733327022F03C031
:105380000FB607FE22C01091D30E0117C9F3E091AA
:10539000D20EF0E0EC5EF04F10823FB7F89420930D
:1053A000D20EE091C90EF091CA0E208120622083B6
:1053B0003FBF4150510971F610920507DF91CF911F
:1053C0001F910F91FF90EF900895708175FFDBCFD3
:1053D000E091D30EF0E0EC5EF04FA081E091D30EAF
:1053E000F0E03196EF73FF27E093D30EC091CD0E1E
:1053F000D091CE0EA883E091C70EF091C80EB08177
:10540000B370B064B083D091D20EF091D30EDF139D
:1054100007C0C091C90ED091CA0E98819F7D988314
:10542000E091C70EF091C80EAECFF080F5FE9FCF91
:10543000EFB6F894C091CD0ED091CE0E1882E091C7
:10544000C70EF091C80E8081837080648083EFBEA8
:10545000B0CF8E01000F111F000F111F035C1C4FF6
:10546000F80180819181A281B3818B2F0F94CE9816
:10547000F80160817181828193810F94CE98F80147
:1054800080819181A281B381892F0F94CE98F801F8
:1054900080819181A281B3810F94CE98219658CEBC
:1054A000DF92EF92FF920F931F93CF93DF938C01C4
:1054B000EB0180910002882321F0109200021092EB
:1054C000FD1D4091971D9091E91DD090E91D242F5D
:1054D000217030E031952195310929272078332733
:1054E0002D252093E91D10923B0BD12CED2CF12C96
:1054F000EC16FD0658F4C701800F911F0E941DC3D2
:10550000F701E55CF44F8183D394F0CF1091371EFF
:10551000177F1093371EDF91CF911F910F91FF904E
:10552000EF90DF900895CF93C82F0F94C499892BE3
:10553000E1F38C2FCF910D94CE98CF93C82F892F64
:105540000E94932A8C2FCF910C94932A8091D00E95
:105550002091D10E90E0805C9F4F821B91098F7348
:105560009927892B19F00F94B698F0CF08950F93CF
:105570001F930F946B9800919F021091A0022091AD
:10558000A1023091A202601B710B820B930B21E0F0
:10559000693B7B408105910508F420E0822F1F9133
:1055A0000F9108953FB7F8948091370B9091380B85
:1055B000A091390BB0913A0B26B5A89B05C02F3F9F
:1055C00019F00196A11DB11D3FBF6627782F892FC5
:1055D0009A2F620F711D811D911D660F771F881F05
:1055E000991F660F771F881F991F6093AB057093F3
:1055F000AC058093AD059093AE058091AB0590917D
:10560000AC05A091AD05B091AE054091C707509192
:10561000C8076091C9077091CA07841B950BA60B38
:10562000B70B8093120690931306A0931406B093C1
:1056300015062091120630911306409114065091E0
:1056400015066091D6077091D7078091D807909181
:10565000D907261737074807590708F48EC0509115
:10566000C50750625093C507A0912006B09121064E
:105670001196B0932106A0932006E0912006F091A8
:105680002106319709F47AC0809120069091210675
:10569000059709F473C09091971D90FF6EC0B0916B
:1056A000EB1DB1FF13C0F0912A1CF7FF0FC0A091B2
:1056B0002006B0912106119709F4B6C0E0912006AA
:1056C000F0912106339711F40E94B68B4091200689
:1056D000509121064130510509F48FC020912006D8
:1056E000309121062330310509F487C06CE670E063
:1056F0007093230660932206409112065091130680
:105700006091140670911506DB01CA01880F991F7C
:10571000AA1FBB1F840F951FA61FB71F33E0B695A6
:10572000A795979587953A95D1F78093D60790934B
:10573000D707A093D807B093D9072091C707309116
:10574000C8074091C9075091CA0720930E063093AD
:105750000F0640931006509311066091AB057091AF
:10576000AC058091AD059091AE056093C70770932D
:10577000C8078093C9079093CA07089541E050E095
:1057800050932106409320062091D6053091D705ED
:105790004091D8055091D9052093D2053093D30577
:1057A0004093D4055093D5056091AB057091AC053D
:1057B0008091AD059091AE056093D6057093D705A5
:1057C0008093D8059093D9057091971D716070935F
:1057D000971D8091091E90910A1EA0910B1EB091F9
:1057E0000C1E0196A11DB11D8093091E90930A1EE7
:1057F000A0930B1EB0930C1E4ECF88E490E09093C4
:105800002306809322064091120650911306609160
:105810001406709115064093D6075093D7076093EE
:10582000D8077093D90789CF0E94808C4FCFCF9231
:10583000DF92EF92FF920F931F93CF938091100E00
:10584000807390912A1C90FD1EC0803109F469C0BC
:105850008032F1F43091581E333009F429C108F434
:10586000E7C0353009F4D9C008F437C1363081F4C7
:10587000F090180E78ECF79ED0011124B093121E10
:10588000A093111E05C0803159F0803209F487C001
:10589000CF911F910F91FF90EF90DF90CF900895DF
:1058A0001091581E133009F4E8C008F498C0153060
:1058B00009F4E0C008F4A1C0C091180E163041F7F9
:1058C000C090981DD090991DE090AC1DF12CEE0C6D
:1058D000FF1C02EC14E122EB34E142E754E168E002
:1058E0008BE694E10F944C3DC89F900111243695AE
:1058F000279536952795ABE7B4E10F9436C6969574
:105900008795880F991F880F991F811522E09207AC
:1059100008F458C02FEF31E030930E1E20930D1E77
:10592000B7CF3091581E333009F4AAC008F44FC0E5
:10593000353009F49CC008F463C0C091180E3630AD
:1059400009F0A6CFC090981DD090991DE090AC1D95
:10595000F12CEE0CFF1C02EC14E122EB34E142E7E7
:1059600054E168E08BE694E10F944C3DC89FA001A0
:105970001124440F551F440F551F413127E2520790
:1059800010F040E157E25093121E4093111ECF9148
:105990001F910F91FF90EF90DF90CF9008950091AD
:1059A000581E033009F46FC008F452C0053059F195
:1059B00008F49EC0063009F06BCF8091180E90E07D
:1059C000880F991F90930E1E80930D1E61CF31306A
:1059D00089F0C091140E323009F4B4CF59CF113090
:1059E00031F0C091140E123009F46ACF51CFC0913A
:1059F000130E66CFC091130EA5CFC091160E60CFC7
:105A0000C091160E9FCF8091170E90E0880F991FBE
:105A100090930E1E80930D1E3BCFF091170E98ECC5
:105A2000F99F800111241093121E0093111E30CF94
:105A3000313099F1323009F02BCFC090140E48EC80
:105A4000C49E70011124F092121EE092111E20CF0C
:105A50000130C9F1023009F01BCF8091140E90E0A3
:105A6000880F991F90930E1E80930D1E11CFC09129
:105A7000170E68CFC091170E23CFC091150E20CFFF
:105A8000C091150E5FCF8091150E90E0880F991F81
:105A900090930E1E80930D1EFBCED090130E58ECEB
:105AA000D59EB00111247093121E6093111EF0CE8A
:105AB0001091150EC8EC1C9F900111243093121EFA
:105AC0002093111EE5CE8091130E90E0880F991F50
:105AD00090930E1E80930D1EDBCEB091160EE8EC57
