:100000000C945A0C0D94B9280D948E280D946328E5
:100010000D9438280D940D280D94E2270D94B727E0
:100020000D948C270C948B0C0C948B0C0C948B0CD7
:100030000C948B0C0C948B0C0C948B0C0D946E020A
:100040000C948B0C0C94466A0C945C680C946BB802
:100050000C948B0C0C948B0C0C948B0C0D944227F1
:100060000C948B0C0D94D92A0D94AF2A0C948B0C04
:100070000C948B0C0C948B0C0C948B0C0C948B0CA4
:100080000C94FBFD0C9475FD0C94EFFC0C948B0C04
:100090000C948B0C0C948B0C0C948B0C0C948B0C84
:1000A0000C948B0C0C948B0C0C94FDF80C9469FC48
:1000B0000C9422F80C948B0C0C948B0C0C948EFBEF
:1000C0000C94B3FA0C94D8F90C948B0C0C948B0C04
:1000D0000C948B0C0C948B0C0D94792A0D944F2A54
:1000E0000C948B0C0C94ABE30D9407290C9499E3BE
:1000F0000D944A2C0C945E730C9425DB0C941C5DBF
:100100000C94FC130C941FDD0C94855E0C946772A8
:100110000C943E740C947F7B0C94B6E20C94E0B289
:100120000C946BDD0C9415DE0C94D6E20C94F973F0
:100130000C947D730C9461730C945BAC0C94F65826
:100140000C94A8FF0C94F7DE0C94E2EC0C944E0D8A
:100150000C94C1EA0C94A4D30D94331F0C947A74BC
:100160000C9469E30C94D1600D9480290C94635530
:100170000C94DA210C9460E30D94571E0C9461509A
:100180000C9492730C94CCA80C9410600C9424E3FF
:100190000C94D6E30C9448E30D94AD0E0D943E0EF2
:1001A0000C9497A70D9452290C9447270C9473A88C
:1001B0000C947A300D94522C0C9436E30D942B0D44
:1001C0000C946E2D0C944D740C942CD80C94657476
:1001D0000C9406D80C94F1200C9460810C94CFD030
:1001E0000C94F7E20C94CE600C9479E20D94EA073B
:1001F0000C94F2740D9405290C94267E0D948000C5
:100200000C94D5D70C94736E0D94CD1D0C948374FF
:100210000C9400E30C9447D80C944A730C94B4E308
:100220000C94AA740C9487E30D9465010C94257AC0
:100230000C949FED0C948EE20C949FE30C9441D8A7
:100240000C94A4740C9489730C9447730C945EE220
:100250000C94CC730C94FBDE0C947CE20C947E57D3
:100260000C94AFE20C9464730D9435020C94D9E2B3
:100270000C94C4730D94300C0C9418E30D94CD0EB3
:100280000C9435DC0C946CE30C9419B30C948159E8
:100290000C946E550C94092D0C94F7550C9480B168
:1002A0000C94CDE20D94F20B0C94A7E20C949124E3
:1002B0000C9481F10C94F3560D94342C0C94098B0E
:1002C0000C94A8E30C94DE730D94482C0C94687481
:1002D0000C94E3740C941ED80D9434420C9470B5B5
:1002E0000C940D850C947DDC0C940E740D94520BC3
:1002F0000C9426740C949CE30C94F30C0C9486736D
:100300000C9435740C94B3D70C9408740C943CE39F
:100310000C9497830D94CC000C9485BA0C9453B72D
:100320000C9405740C94870D0C94C6740C94106195
:100330000C94B6100C945D810C9469DB0D947F1BBA
:100340000C9482DE0C948C730C9440E20C94C7E203
:100350000D94F2070C946DFF0D9445290C9498743C
:100360000C9438280C94CDDC0C9481DC0D94340A68
:100370000C94C4AE0D9438000D94700A0D940929A4
:100380000C94DD940C94B7710C94C2740C9423DD1E
:100390000C94B3740C945DE30C944DD80C94A6D7D4
:1003A0000C940A5C0C9444730C9496750D94B50EE1
:1003B0000C94716E0C9433E30D944E2C0C94C7E3A3
:1003C0000D947F420C94B8CC0C94DAAC0D94E91DDA
:1003D0000D94993F0D94390B0C94FF730C94ECEA37
:1003E0000C94FC730C9473E20C94F50C0D94462C55
:1003F0000C94B9730C94D0D90C945A580C9472E3A1
:100400000C9498730C948CBB0C9475D80C94B974A0
:100410000C94F8B50C94B5580D94C71D0C94F40CBD
:100420000C949C180D94B50A0C94DF0D0C94D7DC39
:100430000C9471740C9436310C94826E0C940AAC4A
:100440000C948D0D0C940FE30C9431560D94DE0B2F
:100450000C9478E30C94ED730C94DFEE0C94DF0EA7
:100460000C94DFE20C944B120C949D730C9409E3F2
:100470000C943DA80C9453730D94FA280D94250CFC
:100480000C946DE20C94BC740C94B0740D94F91D32
:100490000D94C31D0C945AE30C94E1DA0C9451D0E2
:1004A0000C944BE30C94CC2B0C94AA730D94F51D77
:1004B0000D9484000C944C0D0D94450E0C94BE5874
:1004C0000D949C0C0C94E3BB0C949FE20C94D45FB1
:1004D0000C9496770C94F2EC0C9466E30C9442AE78
:1004E0000C9461E20D940D290D94D60E0C94C2E289
:1004F0000D94351E0C9450E20C9448B40D94ED1DEF
:100500000C946A730C946FE30C9439E30C947EDEC4
:100510000C9457E20C9479DC0C94C6220C94EC7485
:100520000C948FED0C94E0DD0D94740C0C942DE381
:100530000C9459740C94F5560C9488580C94477488
:100540000C9456740C94A7740D94F10E0D949601AE
:100550000D94C40B0C9417740C9481E30D94F34226
:100560000C94D82D0C944D0D0C94500D0C941174CA
:100570000C9464580C94EEE20D947B0B0C947FE287
:100580000C9431EF0D94870B0C9467CA0C94860D74
:100590000C946E560C945B550D949D0B0D94B70BFB
:1005A0000C941D600C94D4EE0C9460600C945EEB83
:1005B0000C94DCA10C94B0EE0C9429740D94F11DF4
:1005C0000C94D5740C9410EB0D94190D0C945121CE
:1005D0000C94E6A20C94A2D70C9494E20D94E30A36
:1005E0000C94BF740C9495730C9481900D943341CA
:1005F0000C9482580D94D51D0C94FAE20C94FF2EA5
:100600000C9414740C940DB20C94D3150C9463E3F5
:100610000D9402010C94AB2A0C94FAB90D949F40EE
:100620000C9479590D944C2C0C9496E30D94DF0E98
:100630000D94EE070C9474570C94F3610C94CB60FA
:100640000D9419080C9480740C9436570D941B0A61
:100650000C94BBE30D94A8420C943C280D943201F9
:100660000C94806E0C94950D0C94E8E20C948D0C17
:100670000C94DE740C94B2730C940EBB0C949828FA
:100680000C9487600D94220D0C94846E0C9418D8F1
:100690000C94E7730C9486740C9448F00C9473CC0F
:1006A0000D948C0C0C94B6740C94045B0C94AD7487
:1006B0000C941B610D94340D0C946FD20C947373D5
:1006C0000C9456730C9474740D94D0000D94590AC4
:1006D0000C94F4B00C9453E20C94D1DC0C9427826B
:1006E0000C942D830C94B2AD0D9473290C945F740B
:1006F0000C9496A20C9467D80C94F7710C94D0E2E9
:100700000D94850C0D9439020C9490E30C944028C0
:100710000C9439810C9404130C94E2E20C947D94B3
:100720000C9450580C9468720C9453740C94952744
:100730000C945A730C9447CB0C94DD760C94027491
:100740000D94CC0A0C943AD80D94290E0C94E5E241
:100750000C94B8580C9477DD0C94CF740D94070D5D
:100760000C94F4E20D943C2C0C94B7720D946E0C26
:100770000D94F41D0C94072B0C9473A60C94D3E2E7
:100780000C94F6730C9412E30C944EE30C94E35F18
:100790000C9484710D94D11D0C94E6820C9460D855
:1007A0000C9485E20C9427270C94ACDD0C940B3749
:1007B0000C945C740C948C3A0C9483730C94D873E2
:1007C0000C946F390C9467E20D9411290C948DE30D
:1007D0000C9450920C94E0570C941A740C9455603D
:1007E0000C9423740C94605E0C94621A0C94FFDEDB
:1007F0000D94382C0C9454E30C94D3E30C943DE208
:100800000C94472A0C942AE30D946E080C94590F0B
:100810000D94502C0C948C0D0C94DCEB0C94767392
:100820000C9450730C9415E30C94CAE30C940ACC0A
:100830000C94F4740D94B9090C9449DE0C94CC74A6
:100840000C942A610C9493E30D94D10B0C94E974ED
:100850000D9431290C94F1AF0C9427E30C9485C9C5
:100860000C94A2E30C9458600C941D740C949AB0F0
:100870000C941EE30C9478EB0C948AE30C94BB5814
:100880000D946E0B0C94E5270C940B740C94285665
:100890000C94ABD70C94EF740C9425D80C94507432
:1008A0000D943A2C0C942AEB0C949B330C949E746C
:1008B0000C94D2730C94B6D90C94D3810C946ED84A
:1008C0000C940CE30C94FC5F0C94CC860C94DB5BD6
:1008D0000C947D740D94550E0C9407CD0C946E748D
:1008E0000C9467730D94ED080C942E550C945E19BE
:1008F0000C944D730C949DDA0C94BEDE0C948C74A5
:100900000C94DB730D94E61E0C945C2B0D94442C1C
:100910000C94C7730C94A1E10C944B890C94F1DBFB
:100920000C945B600D94DF1D0C94C8600C943B60CC
:100930000C94A1740C943FE30C947C820C9472BCD4
:100940000C9463600D94402C0C94C2DE0C94570EF2
:100950000C944A600D94E31D0C9438580D943B0C94
:100960000C946B740D94E80E0C9477740C94F073E3
:100970000C94D07C0C94BADE0C9437DF0C94EBE230
:100980000C9407570C940A570C94EA730C940F9428
:100990000C94AA2C0C94B35C0C9491E20C945BE242
:1009A0000C945B2F0C94ADD70C9478580C9482E285
:1009B0000D9439290C940D240C9404ED0C944DE203
:1009C0000C941C290C9442E30C9404570D94D20906
:1009D0000D94100D0C94D6570C9430E30C942074A5
:1009E0000C945A0E0C946A830D94AF1D0C9485DC04
:1009F0000C94FA140D94362C0C94510D0C94CDE3F8
:100A00000C9486DE0C9432740D94FE010C9433DF4A
:100A10000C94D9E30C941BDD0C94AED70C9430608D
:100A20000C94EF8D0C948F730C9489DC0C94342C03
:100A30000C9459D80C94C4E30C941E180C94B383F2
:100A40000D94261E0C94B1E30C944F0D0C9499E276
:100A50000D943E2C0C9473A20C94B7E30D9455089E
:100A60000C942C740C94FB600C94D5DC0C943B61BE
:100A70000D94DB1D0C943A280C9494AB0C9473DD0C
:100A80000C94E4730C9484E30C9464E20D94CC0C09
:100A90000C9476E20C94C1E30C94D8740C94897491
:100AA0000C9409F10C94F1E20D9486080C94ADDBE2
:100AB0000C94FC550D94BD1D0C9406E30C94C15888
:100AC0000D94370E0C94BDB30C946FDD0C947FED38
:100AD0000C9449BA0D947D0E0C9453D80C94532E5B
:100AE0000D942E0E0C94B6940C9435280C9444EB73
:100AF0000C943AED0C9451E30C9438740C946D738F
:100B00000C948F740C941BE30C949B740C943D7F99
:100B10000D94B93F0D94850E0C9444740C9403CA43
:100B20000C94BEE30C94F4590D942E080D94FD0B17
:100B30000C94FDE20C9445E30C9467110D94C40EE3
:100B40000C94CE5F0C9415100C94A3730D94F80CB8
:100B50000C9457E30C9487B60C9466600C940CD8F4
:100B60000C9472810C9442380C9437AF0C945B5EF9
:100B70000C94A8580D943D020C946AE20C94927463
:100B80000C9466720C94C9740C9470730C94E68E79
:100B90000D94080C0D9402020C94A2D40C9436818E
:100BA0000D947E0C0C9443E20C9485710C944A7461
:100BB0000C9480730C94AEE30C943E280C947E2825
:100BC0000C94DCE20C9401570C940E5A0D94422CB8
:100BD0000C948E550C947F830D94991E0C94D573B0
:100BE0000C94F3730C944F200D94C40C0C94A5E357
:100BF0000C9427DD0C94E6A90D9467290C942F74AE
:100C00000D94491E0C94805D0C9421E30C9460A318
:100C10000C946ED10C94DB740C9495740C945D1848
:100C20000C94DCE30D949D2C0C9439E20C9475E348
:100C30000C94AD860C9465720C94E4AA0C9433D891
:100C40000C9470E20C94F0FF0C942A570C9412D878
:100C50000C94AE580C94D2740D940F290D94B91DB8
:100C60000D94F81D0C94C6610D94870A0D94C9016A
:100C70000C943B740C94E1730D94F00C0C94D460C0
:100C80000C9462740C9400D80C9441740C9403E39B
:100C90000D94CD010C94BFE20C94F9780C946E582D
:100CA0000D94B51D0C94D0E3526573657420636F89
:100CB0006E74726F6C2069732063757272656E74E6
:100CC0006C792064697361626C65642E00436F6D9A
:100CD0006D732068616C7465642E204E6578742095
:100CE000627974652077696C6C2072657365742015
:100CF0007468652041726475696E6F2E00005370D0
:100D000065656475696E6F20323032352E30312E54
:100D10003100737065656475696E6F2032303235ED
:100D2000303100000030303200FF0A50616765202A
:100D3000686173206E6F74206265656E20696D70E6
:100D40006C656D656E74656420796574000A426F28
:100D50006F7374206C6F6F6B7570207461626C655B
:100D6000000A326E642049676E6974696F6E204DA7
:100D70006170000A326E64204675656C204D6170AA
:100D8000000A50616765203920436667000A547283
:100D9000696D2031205461626C65000A56565420FA
:100DA0004D6170000A426F6F7374204D6170000ACC
:100DB0005067203620436F6E666967000A414652CD
:100DC000204D6170000A5067203420436667000A96
:100DD00049676E6974696F6E204D6170000A5067D3
:100DE000203220436667000A5645204D6170000A94
:100DF0003D3D3D436F6D6D616E642048656C703D97
:100E00003D3D0A0A416C6C20636F6D6D616E6473C9
:100E1000206172652073696E676C6520636861721A
:100E2000616374657220616E642061726520636F16
:100E30006E636174656E617465642077697468209F
:100E4000746865697220706172616D657465727332
:100E5000200A776974686F757420737061636573B5
:100E60002E53796E7461783A20203C636F6D6D610A
:100E70006E643E2B3C706172616D65746572313ECB
:100E80002B3C706172616D65746572323E2B3C70F3
:100E90006172616D657465724E3E0A0A3D3D3D4C5E
:100EA000697374206F6620436F6D6D616E64733D6E
:100EB0003D3D0A0A41202D20446973706C617973AD
:100EC000203331206279746573206F6620637572F8
:100ED00072656E745374617475732076616C756598
:100EE0007320696E2062696E61727920286C697660
:100EF000652064617461290A42202D204275726E5A
:100F00002063757272656E74206D617020616E640D
:100F100020636F6E666967506167652076616C75E6
:100F2000657320746F20656570726F6D0A43202DA4
:100F3000205465737420434F4D20706F72742E20BF
:100F400020557365642062792054756E65727374E0
:100F50007564696F20746F207365652077686574A8
:100F600068657220616E20454355206973206F6E5D
:100F7000206120676976656E2073657269616C20F7
:100F80000A20202020706F72742E205265747572B2
:100F90006E7320612062696E617279206E756D6278
:100FA00065722E0A4E202D205072696E74206E6577
:100FB00077206C696E652E0A50202D2053657420B1
:100FC00063757272656E7420706167652E202053A0
:100FD000796E7461783A2020502B3C706167654EC1
:100FE000756D6265723E0A52202D2053616D652039
:100FF0006173204120636F6D6D616E640A53202D13
:1010000020446973706C6179207369676E617475CF
:101010007265206E756D6265720A51202D205361D4
:101020006D65206173205320636F6D6D616E640A7E
:1010300056202D20446973706C6179206D61702099
:101040006F7220636F6E66696750616765207661B5
:101050006C75657320696E2062696E6172790A57DA
:10106000202D20536574206F6E6520627974652091
:10107000696E206D6170206F7220636F6E666967A4
:10108000506167652E202045787065637473206217
:10109000696E61727920706172616D6574657273D9
:1010A0002E200A2020202053796E7461783A202067
:1010B000572B3C6F66667365743E2B3C6E6577629A
:1010C0007974653E0A74202D205365742063616C29
:1010D0006962726174696F6E2076616C7565732EDA
:1010E0002020457870656374732062696E6172793F
:1010F00020706172616D65746572732E2020546179
:10110000626C6520696E6465782069732065697416
:1011100068657220302C200A20202020312C206F7E
:101120007220322E202053796E7461783A20207418
:101130002B3C74626C655F6964783E2B3C6E65770E
:1011400056616C7565313E2B3C6E657756616C75EA
:1011500065323E2B3C6E657756616C75654E3E0A76
:101160005A202D20446973706C61792063616C6929
:1011700062726174696F6E2076616C7565730A5472
:10118000202D20446973706C6179732032353620CC
:10119000746F6F7468206C6F6720656E7472696518
:1011A0007320696E2062696E6172790A72202D2047
:1011B000446973706C6179732032353620746F6FB7
:1011C0007468206C6F6720656E74726965730A5568
:1011D000202D205072657061726520666F722066E6
:1011E00069726D77617265207570646174652E2017
:1011F000546865206E657874206279746520726524
:101200006365697665642077696C6C2063617573CA
:1012100065207468652041726475696E6F20746F13
:101220002072657365742E0A3F202D204469737007
:101230006C61797320746869732068656C702070C4
:10124000616765002C2000575545004F3200496EFC
:101250006C65742074656D7000436F6F6C616E74A3
:1012600000526573657420636F6E74726F6C2069D1
:10127000732063757272656E746C79206469736132
:10128000626C65642E00436F6D6D732068616C74D1
:1012900065642E204E6578742062797465207769C4
:1012A0006C6C20726573657420746865204172648B
:1012B00075696E6F2E004552523B20496E636F7206
:1012C0007265637420454550524F4D2073697A65AD
:1012D000003030320020002000200020002020209C
:1012E0002000537065656475696E6F203230323549
:1012F0002E30312E3100737065656475696E6F2014
:1013000032303235303100537065656475696E6F07
:101310002063737830323031392E3800000080007D
:1013200020012001800020018000F0008001C00029
:10133000C0002001C000800020010001040E111631
:101340001A1C212A2C2E30323436383A3C3E404288
:101350004446484C4E505256585A5D5F63686F7908
:101360007D00000000963007772C610EEEBA51091F
:101370009919C46D078FF46A7035A563E9A3956464
:101380009E3288DB0EA4B8DC791EE9D5E088D9D27C
:10139000972B4CB609BD7CB17E072DB8E7911DBFD8
:1013A000906410B71DF220B06A4871B9F3DE41BEF7
:1013B000847DD4DA1AEBE4DD6D51B5D4F4C785D35E
:1013C0008356986C13C0A86B647AF962FDECC9650A
:1013D0008A4F5C0114D96C0663633D0FFAF50D0862
:1013E0008DC8206E3B5E10694CE44160D572716718
:1013F000A2D1E4033C47D4044BFD850DD26BB50A62
:10140000A5FAA8B5356C98B242D6C9BBDB40F9BC89
:10141000ACE36CD832755CDF45CF0DD6DC593DD1DD
:10142000ABAC30D9263A00DE518051D7C81661D016
:10143000BFB5F4B42123C4B3569995BACF0FA5BD57
:10144000B89EB802280888055FB2D90CC624E90BFB
:10145000B1877C6F2F114C6858AB1D61C13D2D6663
:10146000B69041DC760671DB01BC20D2982A10D5FB
:10147000EF8985B1711FB5B606A5E4BF9F33D4B817
:10148000E8A2C9077834F9000F8EA8099618980EBB
:10149000E1BB0D6A7F2D3D6D08976C6491015C6323
:1014A000E6F4516B6B62616C1CD83065854E00624E
:1014B000F2ED95066C7BA5011BC1F4088257C40FA1
:1014C000F5C6D9B06550E9B712EAB8BE8B7C88B9C9
:1014D000FCDF1DDD62492DDA15F37CD38C654CD41D
:1014E000FB5861B24DCE51B53A7400BCA3E230BB9B
:1014F000D441A5DF4AD795D83D6DC4D1A4FBF4D61D
:10150000D36AE96943FCD96E34468867ADD0B860C8
:10151000DA732D0444E51D03335F4C0AAAC97C0D20
:10152000DD3C710550AA41022710100BBE86200C2D
:10153000C925B56857B3856F2009D466B99FE461A2
:10154000CE0EF9DE5E98C9D9292298D0B0B4A8D7BA
:10155000C7173DB359810DB42E3B5CBDB7AD6CBA16
:10156000C02083B8EDB6B3BF9A0CE2B6039AD2B1ED
:10157000743947D5EAAF77D29D1526DB048316DC94
:1015800073120B63E3843B64943E6A6D0DA85A6A40
:101590007A0BCF0EE49DFF099327AE000AB19E0798
:1015A0007D44930FF0D2A3088768F2011EFEC206A5
:1015B000695D5762F7CB67658071366C19E7066B1A
:1015C0006E761BD4FEE02BD3895A7ADA10CC4ADD32
:1015D000676FDFB9F9F9EFBE8E43BEB717D58EB08E
:1015E00060E8A3D6D67E93D1A1C4C2D83852F2DF28
:1015F0004FF167BBD16757BCA6DD06B53F4B36B28E
:1016000048DA2B0DD84C1B0AAFF64A0336607A0431
:1016100041C3EF60DF55DF67A8EF8E6E3179BE6999
:10162000468CB361CB1A8366BCA0D26F2536E268C4
:101630005295770CCC03470BBBB91602222F260517
:1016400055BE3BBAC5280BBDB2925AB42B046AB33F
:101650005CA7FFD7C231CFD0B58B9ED92C1DAEDE93
:101660005BB0C2649B26F263EC9CA36A750A936D1F
:1016700002A906099C3F360EEB85670772135700D7
:1016800005824ABF95147AB8E2AE2BB17B381BB6FF
:101690000C9B8ED2920DBED5E5B7EFDC7C21DFDB53
:1016A0000BD4D2D38642E2D4F1F8B3DD686E83DA8C
:1016B0001FCD16BE815B26B9F6E177B06F7747B7CD
:1016C00018E65A0888706A0FFFCA3B06665C0B0171
:1016D00011FF9E658F69AE62F8D3FF6B6145CF6CD9
:1016E0001678E20AA0EED20DD75483044EC2B3039B
:1016F00039612667A7F71660D04D476949DB776ED9
:101700003E4A6AD1AEDC5AD6D9660BDF40F03BD8F0
:101710003753AEBCA9C59EBBDE7FCFB247E9FFB54C
:10172000301CF2BDBD8AC2BACA3093B353A6A3B46B
:10173000240536D0BA9306D7CD2957DE54BF67D9D2
:10174000232E7A66B3B84A61C4021B685D942B6F7E
:101750002A37BE0BB4A18E0CC31BDF055A8DEF02D6
:101760002D00002100240027002A002D0030003326
:101770000001010000040107010A01000022002508
:101780000028002B002E003100340002010000056B
:101790000108010B01000020002300260029002C75
:1017A000002F0032000001000003010601090105BD
:1017B000050505070508080808020202020A0A08CA
:1017C00008040404040101010101010101030303F0
:1017D0000303030303040707070C0C0C0C0C0C0C8D
:1017E0000C0202020206060606060606060B0B0B94
:1017F0000B0B0B0B0B050505080807070404040A6F
:101800000A0A0A0A0A0102102020080810204010C3
:1018100020408002010201080402010102040810B4
:1018200020408080402010080402018004020180D2
:1018300040201008040201080402010102040810FB
:101840002040800102040810204080044080048071
:10185000081010204004081020408000000B0C03EA
:101860000A0D0E0F09080405020000000000000028
:101870000000000000000000000000000000000068
:101880000000000000000013121100000000000022
:101890000000000000000000000000000000000048
:1018A0000000000000000000000000000000000038
:1018B0000000120611241FBECFEFD1E2DEBFCDBF64
:1018C00000E00CBF12E0A0E0B2E0ECE6F9E902E0D3
:1018D0000BBF02C007900D92A638B107D9F72FE1D0
:1018E000A6E8B2E001C01D92AB3CB207E1F71CE0F4
:1018F000CAE5DCE000E006C021970109802FFE0167
:101900000F948A4CC935D10780E00807A9F70F94D6
:10191000E32F0D94B44C0C94000080911A0B90911D
:101920001B0B2091BB1C3091BC1CAC0144505109D5
:10193000241735070CF04BC0821B930B97FD0196C3
:1019400095958795049790937A0580937905809172
:101950004C0890914D08AC014450510924173507AB
:10196000CCF5821B930B97FD01969595879504976F
:10197000909378058093770580914A0890914B0861
:10198000AC0144505109241735073CF5821B930BD9
:1019900097FD01969595879504979093760580938A
:1019A00075058091480890914908AC01445051094F
:1019B00024173507ACF4821B930B97FD0196959580
:1019C00087950497909368058093670508958053E1
:1019D0009D4FB2CF80539D4FC4CF80539D4FD6CFE4
:1019E00080539D4FE8CF089508958091651E909192
:1019F000C71C9C719C3091F58A30CCF088E090E057
:101A000090937A058093790582E090E09093780531
:101A10008093770584E090E0909376058093750538
:101A200086E090E090936805809367050895181606
:101A3000ECF781E090E090937A058093790583E05C
:101A400090E0909378058093770585E090E09093FF
:101A500076058093750587E090E0E4CF8A308CF0BE
:101A600024E030E030937A052093790582E090E01D
:101A700090937805809377053093760520937505CC
:101A8000D1CF18169CF621E030E030937A052093F0
:101A9000790583E090E0ECCF0895089508950895C6
:101AA00008958091341E80FD10C01092120710928C
:101AB00011078091341E81608093341E83E08093EF
:101AC000B70681E08093B80608958091C11C87FF16
:101AD00005C01092120710921107F0CF8091A01E3E
:101AE0009091A11EA091A21EB091A31E84369105D3
:101AF000A105B10530F780911107909112078D97DC
:101B000001F31092120710921107DBCF0895109283
:101B1000120710921107089508951092120710925B
:101B2000110781E08093B80608958091440C807F6E
:101B3000803479F58091C71C8C718C30C9F488E0B1
:101B400090E090937A058093790582E090E09093FD
:101B500078058093770584E090E0909376058093F4
:101B6000750586E090E09093680580936705089579
:101B700024E030E030937A052093790582E090E00C
:101B800090937805809377053093760520937505BB
:101B9000EACF803661F78091C71C8C718C3079F266
:101BA00086E090E090937A058093790582E090E05A
:101BB000909378058093770524E030E0E5CF80911D
:101BC000651E82319CF487E090E090937A058093C3
:101BD000790582E090E0909378058093770585E021
:101BE00090E09093760580937505089586E090E0E7
:101BF00090937A058093790581E090E09093780541
:101C00008093770584E090E0ECCFCF92DF92EF9263
:101C1000FF9280912B1F85FF45C08091B8068823D5
:101C200009F440C0E0912202F0912302199589360F
:101C300021E092071CF088569140F9CF2091BB1CFF
:101C40003091BC1C821B930B2091311F23702230DA
:101C500031F42091F61D3091F71D821B930B4091BA
:101C6000371D9C01220F331F50E0A0E0B1E0A41B00
:101C7000B50B0F94994C6B017C01A091E11EB091C2
:101C8000E21E9A010F94A14C6C0D7D1D8E1D9F1DAF
:101C900020E031E040E050E00F940B4C3093E21E26
:101CA0002093E11EFF90EF90DF90CF90089590E099
:101CB00080E0089590E080E00895EF92FF920F9306
:101CC0001F93CF93DF9340910002442321F01092A1
:101CD00000021092961EE091341E5091801E409199
:101CE000801E2E2F217030E0319521953109252756
:101CF0002078332724272093801E1092B20D9B0159
:101D00002E54324F7901C2EBDDE08C01025B1D40A5
:101D1000CE15DF0541F0C8018C0F9D1F0E94B772E0
:101D200089832196F5CF8091811E877F8093811EC4
:101D3000DF91CF911F910F91FF90EF900895CF9376
:101D4000C82F80919A0690919B06DC01ED91FC9141
:101D50000480F581E02D1995892B99F380919A06DD
:101D600090919B06DC01ED91FC910190F081E02DBA
:101D70006C2FCF911994CF93C82F892F0E949F0E5B
:101D80008C2FCF910C949F0E80919A0690919B0678
:101D9000DC01ED91FC910084F185E02D1995181678
:101DA000190664F480919A0690919B06DC01ED91EE
:101DB000FC910284F385E02D1995E6CF08958F926A
:101DC0009F92AF92BF92CF92DF92EF92FF920F93CA
:101DD0001F93CF93DF93F894C090FF06D090000735
:101DE000E0900107F09002078090FB069090FC06BF
:101DF000A090FD06B090FE06C0911107D091120789
:101E00000F94982560937105709372058093730504
:101E1000909374057894CE010197880F991F2091B3
:101E2000BB1C3091BC1C820F931FA6010D2C000C13
:101E3000660B770B00917105109172052091730567
:101E400030917405041B150B260B370B00936D05A1
:101E500010936E0520936F0530937005A601481905
:101E6000590957FF02C04F5F5F4F55954795052EA3
:101E7000000C660B770B401751076207730708F4D5
:101E80000196803D22E092077CF0805D9240DF91D8
:101E9000CF911F910F91FF90EF90DF90CF90BF9067
:101EA000AF909F908F90089597FFF1CF88599E4FE4
:101EB000EECF0F949825609363057093640580932B
:101EC0006505909366058091630590916405A091E6
:101ED0006505B09166054091B3065091B4066091D6
:101EE000B5067091B606841B950BA60BB70B8093B5
:101EF000070790930807A0930907B0930A078091FA
:101F0000630590916405A0916505B0916605809385
:101F1000B3069093B406A093B506B093B60620918D
:101F2000C11C322F31708091BD069091BE06892B65
:101F300079F1E091A006F091A106808190919F0631
:101F4000892391E009F490E0931711F18091110732
:101F5000909112074091BD065091BE06841B90914E
:101F6000341E90FD51C09091440C907F9034C1F587
:101F700091EF980F9330A8F480E190E090931207CE
:101F8000809311078091341E81608093341E0895E0
:101F900080911107909112079093BE068093BD0621
:101FA000089595EF980F933018F486E690E0E6CF09
:101FB00099EF980F933018F48CEB90E0DFCF8350BB
:101FC000833018F482E191E0D9CF8091341E8E7F66
:101FD0008093341E8091DC1E8F5F8093DC1E0895F9
:101FE000903631F483508330F8F48CE790E0C6CF1C
:101FF000903831F486508330B8F488E390E0BECF57
:102000008091341E8E7FC1CF27FF0EC09091440C6B
:10201000907F903449F48F50833030F480E190E029
:10202000909312078093110708950F949825609359
:1020300063057093640580936505909366058091B0
:10204000070790910807A0910907B0910A078093AC
:10205000AB069093AC06A093AD06B093AE0680910C
:10206000630590916405A0916505B0916605409166
:10207000B3065091B4066091B5067091B606841B04
:10208000950BA60BB70B8093070790930807A093B7
:102090000907B0930A078091630590916405A091A8
:1020A0006505B09166058093B3069093B406A0933E
:1020B000B506B093B6068091341E80FD1AC080919B
:1020C000BD069091BE060297A9F481E090E090933E
:1020D0001207809311078091341E81608093341E13
:1020E0008091BD069091BE0601969093BE068093A6
:1020F000BD0608958CED95E0A0E0B0E08093C706A2
:102100009093C806A093C906B093CA068091AB0607
:102110009091AC06A091AD06B091AE06B695A7958C
:102120009795879580935B0590935C05A0935D05DB
:10213000B0935E0540910707509108076091090729
:1021400070910A0780915B0590915C05A0915D05F7
:10215000B0915E05481759076A077B0708F682E0C9
:1021600090E09093BE068093BD06BACF0F94982559
:10217000609363057093640580936505909366058D
:102180008091630590916405A0916505B091660505
:102190004091B3065091B4066091B5067091B606B1
:1021A000841B950BA60BB70B80930707909308072A
:1021B000A0930907B0930A078091841E81FD04C093
:1021C0008091341E80FD0CC08CED95E0A0E0B0E065
:1021D0008093C7069093C806A093C906B093CA0619
:1021E00040910707509108076091090770910A070D
:1021F0008091C3069091C406A091C506B091C60611
:10220000481759076A077B0708F460C08091630587
:1022100090916405A0916505B09166058093B30621
:102220009093B406A093B506B093B60680910707C5
:1022300090910807A0910907B0910A078093AB0617
:102240009093AC06A093AD06B093AE068091BD0608
:102250009091BE0601969093BE068093BD06809134
:10226000110790911207019789F5409163055091EC
:10227000640560916505709166058091FF069091F7
:102280000007A0910107B091020784179507A607E0
:10229000B707E0F48091630590916405A09165050E
:1022A000B09166054091FF065091000760910107CB
:1022B00070910207841B950BA60BB70B80935505F5
:1022C00090935605A0935705B093580508958091B3
:1022D000030790910407A0910507B091060780932A
:1022E000AB069093AC06A093AD06B093AE060F94E8
:1022F00098256093690570936A0580936B059093A8
:102300006C058091690590916A05A0916B05B0916B
:102310006C054091FF065091000760910107709194
:102320000207841B950BA60BB70B809303079093B2
:102330000407A0930507B0930607809111079091B9
:1023400012070196909312078093110780912A0B30
:10235000806280932A0B80911107909112070D974C
:1023600049F48091341E80FF05C01092120710922C
:10237000110708958091110790911207019721F498
:102380008091341E80FD33C08091AB069091AC06E5
:10239000A091AD06B091AE06B695A7959795879595
:1023A00080935B0590935C05A0935D05B0935E05FB
:1023B000409103075091040760910507709106074B
:1023C00080915B0590915C05A0915D05B0915E05E3
:1023D000481759076A077B07E8F510921207109211
:1023E00011078091341E81608093341E089580917E
:1023F000BF069091C006A091C106B091C20680931D
:10240000B9069093BA06A093BB06B093BC06809120
:10241000690590916A05A0916B05B0916C05809358
:10242000BF069093C006A093C106B093C2068091E8
:10243000A01E9091A11EA091A21EB091A31E019674
:10244000A11DB11D8093A01E9093A11EA093A21E5A
:10245000B093A31E8091FF0690910007A091010701
:10246000B09102078093FB069093FC06A093FD06B3
:10247000B093FE068091690590916A05A0916B0565
:10248000B0916C058093FF0690930007A09301071D
:10249000B093020708958091110790911207499710
:1024A00031F48091341E8E7F8093341E08950F94F2
:1024B00098256093690570936A0580936B059093E6
:1024C0006C058091690590916A05A0916B05B091AA
:1024D0006C054091FF0650910007609101077091D3
:1024E0000207841B950BA60BB70B809303079093F1
:1024F0000407A0930507B0930607809111079091F8
:102500001207892B09F060C081E090E090931207D8
:10251000809311078091BF069091C006A091C106DB
:10252000B091C2068093B9069093BA06A093BB06F9
:10253000B093BC068091690590916A05A0916B05E6
:10254000B0916C058093BF069093C006A093C1061E
:10255000B093C2068091B80691E089278093B806AF
:102560008091341E81608093341E8091A01E9091D2
:10257000A11EA091A21EB091A31E0196A11DB11D86
:102580008093A01E9093A11EA093A21EB093A31EA1
:102590008FE090E0909314078093130780912A0BAB
:1025A000806280932A0B8091690590916A05A091C1
:1025B0006B05B0916C058093FF0690930007A09384
:1025C0000107B093020708958091110790911207B7
:1025D00001969093120780931107A0911107B09173
:1025E0001207E0911107F0911207AA0FBB1FA75322
:1025F000B94FEE0FFF1FE953F94F8D919C91208148
:102600003181821B930BC6CF8091341E0F94982585
:1026100060936305709364058093650590936605E8
:102620008091630590916405A0916505B091660560
:102630004091B3065091B4066091B5067091B6060C
:10264000841B950BA60BB70B809307079093080785
:10265000A0930907B0930A07409107075091080714
:102660006091090770910A078091C3069091C40692
:10267000A091C506B091C606481759076A077B079F
:1026800008F4B9C08091630590916405A091650537
:10269000B09166058093B3069093B406A093B506F7
:1026A000B093B60680912A0B806280932A0B8091AA
:1026B000070790910807A0910907B0910A07B695FE
:1026C000A795979587958093C3069093C406A0938A
:1026D000C506B093C6068091341E80FD4BC08CEDBC
:1026E00095E0A0E0B0E08093C7069093C806A09361
:1026F000C906B093CA068091C3069091C406A09102
:10270000C506B091C606B695A7959795879580930F
:10271000C3069093C406A093C506B093C606E09185
:10272000A306F091A40690812091A2068091440C0A
:10273000807F922371F08034A9F4809111079091E9
:1027400012070897B9F48091341E81608093341E7B
:1027500011C0803479F48091110790911207059788
:1027600049F4F1CF803631F480911107909112072E
:10277000079749F32091351E3091361E8091CC1E6B
:102780009091CD1E2817390720F08091C11C87FF3A
:1027900032C08091341E80FF2EC08091440C807F17
:1027A000803449F50F94982580914D0590914E0500
:1027B000A0914F05B0915005E091A306F091A406B9
:1027C00080819091A2068923B1F0809111079091A8
:1027D00012078830910559F08091341E8E7F8093C6
:1027E000341E8091DC1E8F5F8093DC1E08959093D1
:1027F0001207809311070895CF92DF92EF92FF9214
:10280000CF93DF930F9498256093630570936405CD
:1028100080936505909366058091630590916405AA
:10282000A0916505B09166054091B3065091B4063C
:102830006091B5067091B606841B950BA60BB70B7D
:102840008093070790930807A0930907B0930A079E
:1028500040910707509108076091090770910A0796
:102860008091C3069091C406A091C506B091C6069A
:10287000481759076A077B0708F4A7C080916305CA
:1028800090916405A0916505B09166058093B306AB
:102890009093B406A093B506B093B606809107074F
:1028A00090910807A0910907B0910A0732E0B69508
:1028B000A795979587953A95D1F78093C3069093FE
:1028C000C406A093C506B093C6068091341E80FF4F
:1028D00026C04091A01E5091A11E6091A21E709131
:1028E000A31E8091C61C90E0B0E0A0E0841795077D
:1028F000A607B707A0F48091CA1C90E020911107A9
:10290000309112078217930709F04BC02091C11C28
:1029100027FF3DC0909312078093110738C00F9492
:1029200098256093FF0670930007809301079093AA
:1029300002070F9498256B017C01C091CA1C2C2FB3
:1029400030E050E040E060E87DE88BE590E00F94F7
:102950003D4CC21AD30AE40AF50AC092FB06D09293
:10296000FC06E092FD06F092FE06D0E0D09312073E
:10297000C09311071092C7061092C8061092C9069C
:102980001092CA068091341E81608093341E81E0CB
:102990008093B806DF91CF91FF90EF90DF90CF90BA
:1029A00008954091A01E5091A11E6091A21E7091A9
:1029B000A31E433051056105710508F4A7CF20918E
:1029C000DC1E2F5F2093DC1EA1CF8091DB0A90914B
:1029D000DC0AA091DD0AB091DE0AB695A79597951D
:1029E00087958093C3069093C406A093C506B093C1
:1029F000C606D0CFCF92DF92EF92FF920F94982528
:102A00006093490570934A0580934B0590934C055C
:102A10008091490590914A05A0914B05B0914C05D4
:102A200040914505509146056091470570914805D4
:102A3000841B950BA60BB70B80930B0790930C0789
:102A4000A0930D07B0930E07809145059091460520
:102A5000A0914705B0914805892B8A2B8B2BC1F497
:102A600010920B0710920C0710920D0710920E0790
:102A70008091490590914A05A0914B05B0914C0574
:102A80008093450590934605A0934705B09348056C
:102A900040910B0750910C0760910D0770910E0744
:102AA0008091410590914205A0914305B091440564
:102AB000481759076A077B0708F470C08091A7067A
:102AC0009091A80601969093A8068093A7068091FE
:102AD0000B0790910C07A0910D07B0910E0722E013
:102AE000B695A795979587952A95D1F78093410537
:102AF00090934205A0934305B0934405E0912202D0
:102B0000F09123021995893621E092071CF088562E
:102B10009140F9CF2091BB1C3091BC1C821B930BC0
:102B20002091311F2370223031F42091341D3091D7
:102B3000351D821B930B4091371D9C01220F331FC3
:102B400050E0A0E0B1E0A41BB50B0F94994C6B01D1
:102B50007C01A091F41EB091F51E9A010F94A14C36
:102B60006C0D7D1D8E1D9F1D20E031E040E050E08A
:102B70000F940B4C3093F51E2093F41E8091490561
:102B800090914A05A0914B05B0914C058093450565
:102B900090934605A0934705B0934805FF90EF90AA
:102BA000DF90CF9008950F949825609363057093FC
:102BB0006405809365059093660580916305909107
:102BC0006405A0916505B09166054091B3065091EA
:102BD000B4066091B5067091B606841B950BA60BE2
:102BE000B70B8093070790930807A0930907B0934A
:102BF0000A078091B3069091B406A091B506B091F2
:102C0000B606892B8A2B8B2BC1F4109207071092E2
:102C100008071092090710920A07809163059091A6
:102C20006405A0916505B09166058093B306909305
:102C3000B406A093B506B093B6064091070750912D
:102C400008076091090770910A078091C306909167
:102C5000C406A091C506B091C606481759076A0771
:102C60007B07E8F08091C31C8F778130C9F008F4AE
:102C7000AFC0823009F497C0843009F4CAC0809193
:102C8000630590916405A0916505B09166058093F8
:102C9000B3069093B406A093B506B093B606089514
:102CA0002091B3063091B4064091B5065091B60616
:102CB0008091AF069091B006A091B106B091B20696
:102CC000281B390B4A0B5B0BA3E0B0E00F942A4C96
:102CD000969587957795679560935F0570936005E6
:102CE00080936105909362058091B3069091B4063C
:102CF000A091B506B091B6068093AF069093B0064A
:102D0000A093B106B093B20640910707509108070F
:102D10006091090770910A0780915F0590916005A5
:102D2000A0916105B0916205481759076A077B07B2
:102D300038F58091BD069091BE06049708F5809104
:102D4000070790910807A0910907B0910A0752E080
:102D5000B695A795979587955A95D1F78093C30611
:102D60009093C406A093C506B093C6068091BD0695
:102D70009091BE0601969093BE068093BD067FCFCC
:102D800081E090E09093BE068093BD068093B806E4
:102D90001092C3061092C4061092C5061092C60681
:102DA0000E94050E6CCF8091070790910807A091B3
:102DB0000907B0910A07B695A795979587958093CF
:102DC000C3069093C406A093C506B093C606E8CF89
:102DD00081E08093B8068091070790910807A09141
:102DE0000907B0910A07B695A7959795879580939F
:102DF000C3069093C406A093C506B093C6068091FF
:102E0000BD069091BE0601969093BE068093BD06C6
:102E1000C7CF8091BD069091BE0601969093BE06E5
:102E20008093BD068091BD069091BE06029729F45D
:102E300081E08093B8060E94050E8091070790916B
:102E40000807A0910907B0910A0722E0B695A79557
:102E5000979587952A95D1F78093C3069093C406DA
:102E6000A093C506B093C6060ACFCF93DF932091F7
:102E70007F1E26FD08C02091DF1E211107C0809112
:102E8000E01E81112AC0DF91CF9108954111FBCF3F
:102E9000E0911C0CF0911D0CEE0FFF1FEE0FFF1FB9
:102EA000E15CFC4F608371838283938380911C0C6F
:102EB00090911D0C8E37910508F0BCC080911C0CC0
:102EC00090911D0C019690931D0C80931C0C809189
:102ED0007F1E8F7B80937F1ED6CFE0911C0CF091DC
:102EE0001D0CE054FD4F10822091A3063091A406E2
:102EF000C091A006D091A106A0919D06B0919E061A
:102F00008430B9F5888190919F06892349F0E0913A
:102F10001C0CF0911D0CE054FD4F8081816080837A
:102F20008C9190919C06892349F0E0911C0CF091C2
:102F30001D0CE054FD4F808182608083F901808107
:102F40009091A206892349F0E0911C0CF0911D0C90
:102F5000E054FD4F8081846080834230C9F5E09168
:102F60001C0CF0911D0CE054FD4F80818860808323
:102F70002FC0F90190812091A206922349F0E0919F
:102F80001C0CF0911D0CE054FD4F908191609083DA
:102F90008330D9F58C9190919C06892349F0E0917A
:102FA0001C0CF0911D0CE054FD4F808182608083E9
:102FB000888190919F06892349F0E0911C0CF09143
:102FC0001D0CE054FD4F8081846080834111C7CF88
:102FD0008091341E80FF09C0E0911C0CF0911D0C03
:102FE000E054FD4F8081806180838091B806E0913C
:102FF0001C0CF0911D0CE054FD4F8823C1F0808122
:10300000806280830F94982543CF888190919F069A
:10301000892349F0E0911C0CF0911D0CE054FD4F08
:103020008081826080838C9190919C06C4CF808146
:103030008F7DE7CF80917F1E80644CCF80912A0BDB
:103040008F7D80932A0B80912A0B806280932A0BBC
:103050008091DC078330E1F4E0919D06F0919E06BB
:10306000808190919C068923F1F48091E01E882351
:1030700019F180912A0B85FF1FC060910B07709199
:103080000C0780910D0790910E0742E00C943517C4
:10309000823079F4E0919D06F0919E0680819091B6
:1030A0009C06892311F7E0910A02F0910B02199511
:1030B000DCCF8130C1F3D9CF089580912A0B8F7D69
:1030C00080932A0B80912A0B806280932A0B809137
:1030D000DE078330E1F4E091A006F091A106808143
:1030E00090919F068923F1F48091E01E882319F1C5
:1030F00080912A0B85FF1FC0609107077091080718
:103100008091090790910A0741E00C9435178230AD
:1031100079F4E091A006F091A106808190919F063C
:10312000892311F7E0910C02F0910D021995DCCF83
:103130008130C1F3D9CF089580912A0B8F7D809380
:103140002A0B8091DA078330F9F4E091A306F0911D
:10315000A40680819091A206892329F59091DF1E13
:10316000992319F090912A0B95FF8091E01E8823F6
:1031700009F1609103077091040780910507909110
:10318000060740E00C943517823059F4E091A3060D
:10319000F091A40680819091A206892321F080E01D
:1031A000DDCF8130E1F7E0910802F0910902199535
:1031B00081E0D4CF0895CF92DF92EF92FF92CF9328
:1031C000C82F0F949825C0909506D0909606E09051
:1031D0009706F09098069B01AC012C193D094E0909
:1031E0005F0969017A01A091EB1DB0E020EA36E8A1
:1031F00041E050E00F942A4C6C157D058E059F052B
:1032000008F042C00F949825C0909506D09096067D
:10321000E0909706F09098069B01AC012C193D09AF
:103220004E095F0969017A01A091EB1DB0E020EA27
:1032300036E841E050E00F942A4CC61AD70AE80A53
:10324000F90AA091EC1DB0E00F942A4C9B01AC014F
:10325000C701B6010F943D4C809199068217D8F4AE
:10326000322F381B9091ED1D399F802D1124209312
:103270009906C091DD1E282F082E000C330BC217B3
:10328000130659F054F0C81B8C2FCF91FF90EF908C
:10329000DF90CF90089580E0ECCF8091831E877FF0
:1032A0008093831E109295061092960610929706B0
:1032B000109298061092DE1EC0E0E6CF80911A0BA5
:1032C00090911B0B2091BB1C3091BC1C821B930B5B
:1032D0000E946DF22091440C22952F70243051F001
:1032E00018F4233009F108952630F1F0283009F45C
:1032F00056C008950197843B910568F082E090E004
:1033000090937A058093790581E090E09093780519
:1033100080937705089581E090E090937A058093FB
:10332000790582E090E0F2CF9C01295731092837D6
:10333000310598F482E090E090937A0580937905C6
:1033400083E090E0909378058093770581E090E0AA
:10335000909376058093750508950197803F9105B8
:1033600078F083E090E090937A058093790581E08E
:1033700090E0909378058093770582E090E0E8CF25
:1033800081E090E090937A058093790582E090E067
:10339000909378058093770583E090E0D9CF9C01E6
:1033A0002B5531092A353105C8F482E090E090931D
:1033B0007A058093790583E090E090937805809377
:1033C000770584E090E0909376058093750581E021
:1033D00090E0909368058093670508959C01255BB4
:1033E00031092A353105A8F483E090E090937A05FD
:1033F0008093790584E090E0909378058093770539
:1034000081E090E0909376058093750582E090E0EE
:10341000E0CF01978E309140A8F084E090E0909347
:103420007A058093790581E090E090937805809308
:10343000770582E090E0909376058093750583E0B0
:1034400090E0C7CF81E090E090937A058093790572
:1034500082E090E0909378058093770583E090E098
:10346000909376058093750584E090E0B2CF9B0140
:10347000AC012F3F8FEF380741055105B0F4AB0188
:10348000CB0196958795B0E0A0E09957AC46BC4F2C
:10349000BC01CD010E94DEE3803526E4920788F06E
:1034A0008091351E9091361E0895CA019695879594
:1034B0007795679579578C469C4F0F943D4CC90181
:1034C000EBCF08956091DB0A7091DC0A8091DD0AF0
:1034D0009091DE0A0C94371A0F931F930F94D52501
:1034E0000091AA021091AB022091AC023091AD0282
:1034F000601B710B820B930B21E0613971408105D8
:10350000910508F420E0822F1F910F9108950F93E9
:103510001F93CF93DF938C01EC01C60FD71FC01709
:10352000D107F1F00E946C1A81111AC080919A069D
:1035300090919B06DC01ED91FC910084F185E02DDA
:103540001995892B61F380919A0690919B06DC0175
:10355000ED91FC910284F385E02D19958A93DFCFDC
:10356000DF91CF911F910F910895CF93DF9300D0FA
:103570001F92CDB7DEB764E070E0CE0101960E94E5
:10358000871A0E946C1A81110BC069817A818B8124
:103590009C810F900F900F900F90DF91CF91089525
:1035A00060E070E0CB01F5CFCF93DF931F921F92C5
:1035B000CDB7DEB762E070E0CE0101960E94871AB7
:1035C0000E946C1A811107C089819A810F900F9017
:1035D000DF91CF91089590E080E0F8CFCF93C82F8E
:1035E000843690F469ED72E180919A0690919B0681
:1035F0000F94192ACA3040F467ED72E180919A065F
:1036000090919B060F94192A4C2F50E070E060E0D7
:103610002AE080919A0690919B060F949C296BED6D
:1036200072E180919A0690919B06CF910D94192A90
:103630000F931F93CF93DF93EC018B0180919A0638
:1036400090919B06C017D10781F0499150E070E03E
:1036500060E02AE00F949C2965ED72E180919A0662
:1036600090919B060F94192AE9CFDF91CF911F917A
:103670000F910D94E8290F931F93CF93DF93EC01E3
:103680008B01C017D10741F0699180919A06909102
:103690009B060F94EC29F5CFDF91CF911F910F91ED
:1036A0000895CF93DF93EC0181E090E090931F0C9D
:1036B00080931E0CCE010E94BB0ED093720AC09361
:1036C000710ABE0190E080E00F94B2209093700ADE
:1036D00080936F0A249621E030E0C817D90711F4CF
:1036E00030E020E030931F0C20931E0CDF91CF912F
:1036F0000895CF938091510D80739091C71C90FDD8
:1037000069C0803109F03FC08091EE1E833091F195
:1037100040F4813061F1C091550D823049F0CF9174
:103720000895853069F148F1C091590D8630B9F797
:103730004091351E5091361E6091451E70E0660F17
:10374000771F84E095E10E94B5F2C89FC001112463
:10375000880F991F880F991F813127E2920710F077
:1037600080E197E29093A91E8093A81ED8CFC091C4
:10377000540DDECFC091560DDBCFC091570DD8CF81
:10378000C091580DD5CF803251F68091EE1E833016
:10379000C1F038F4813071F0823009F68091550D16
:1037A0000BC08530A1F080F0863009F0B8CF809151
:1037B000590D02C08091540D28EC829FC001112444
:1037C000D1CF8091560DF8CF8091570DF5CF8091D4
:1037D000580DF2CF803109F064C08091EE1E833025
:1037E00009F456C050F5813081F1C091550D8230F9
:1037F00009F095CF4091351E5091361E6091451EBF
:1038000070E0660F771F84E095E10E94B5F2C89FD3
:10381000C001112464E670E00F94C84B660F771F57
:10382000660F771F611522E0720768F18FEF91E054
:103830009093A51E8093A41E72CF853079F158F124
:10384000C091590D8630B1F26ACFC091540D4091AC
:10385000351E5091361E6091451E70E0660F771F31
:1038600084E095E10E94B5F2C89FC001112464E68E
:1038700070E00F94C84B660F771F660F771F6115B6
:1038800082E0780798F67093A51E6093A41E47CF38
:10389000C091560DDCCFC091570DACCFC091580DE3
:1038A000D6CF803209F03BCF8091EE1E8330C1F03D
:1038B00040F4813079F0823009F031CF8091550D9C
:1038C0000BC0853099F078F0863009F028CF8091D0
:1038D000590D02C08091540D90E0880F991FA8CF18
:1038E0008091560DF9CF8091570DF6CF8091580DEC
:1038F000F3CF9C0121503240283141E0340728F0B9
:103900002F5F3E4F2230310530F42091351E30912B
:10391000361E232B19F5843023E0920709F4A4C244
:1039200008F0B4C08D3042E0940709F426C208F0D4
:1039300051C0853032E0930709F4E7C1F8F48130D3
:1039400022E0920709F4C2C158F4811541E09407BE
:1039500009F499C18130914009F4B2C180E0089521
:103960002091A61E833032E0930709F4C0C108F409
:10397000B4C121FFA3C10E9486DEA0C12091A61E72
:10398000893032E0930709F4DDC178F4873032E002
:10399000930709F4D2C108F4C2C121FF8FC10E946C
:1039A000E0DD809172088B7F9FC18B3032E09307FE
:1039B00009F4DBC108F4D4C121FF05C0809172086D
:1039C0008860809372088091720883FD77C10E949D
:1039D00077DD74C1843122E0920709F4FCC168F5F7
:1039E000803142E0940709F4D9C1C8F48E3032E046
:1039F000930709F4C9C18F30924009F0AFCF80918D
:103A0000A61E81FF05C080917208806180937208B4
:103A10008091720884FD52C10F9406024FC120911B
:103A2000A61E823132E0930709F4C7C108F4BDC174
:103A300021FF44C10F94690141C1883122E09207FE
:103A400009F4E6C188F42091A61E863142E094076D
:103A500009F4D9C108F4C9C121FF30C10F94D400C1
:103A6000809172088F7740C1823043E0940709F457
:103A7000DFC108F0E9C18130934009F06FCF809138
:103A8000A61E81FF1BC10E9427DD18C1833143E0C0
:103A9000940709F44FC208F05FC08B3033E09307FE
:103AA00009F410C268F5873023E0920709F4EDC1EC
:103AB000C8F4853043E0940709F4DDC186309340B3
:103AC00009F04CCF8091A61E81FF05C0809171083E
:103AD0008260809371088091710881FDEFC00E941F
:103AE00035DCECC02091A61E893033E0930709F441
:103AF000DBC108F4D1C121FFE1C00E9469DBDEC057
:103B00002091A61E8F3033E0930709F4F8C178F4B2
:103B10008D3033E0930709F4EDC108F4DDC121FFD6
:103B2000CDC00E949DDA809171088F7E8AC181315B
:103B300033E0930709F4F6C108F4EFC121FF05C093
:103B4000809171088062809371088091710885FD71
:103B5000B5C00F943C00B2C0823022E39207E8F572
:103B6000811532E3930708F0A9C0863143E094073A
:103B700009F4F1C1C8F4843133E0930709F4E1C1D9
:103B80008531934009F0EACE8091A61E81FF05C0E1
:103B9000809171088064809371088091710886FD1E
:103BA0008DC00E94ACFF8AC0873123E0920709F4E0
:103BB000D9C18831934009F0D1CE8091A61E81FFF2
:103BC00005C08091710880688093710880917108A8
:103BD00087FD74C00E9436FF71C0833049E99407A5
:103BE00009F412C268F5813039E9930709F4DAC1A2
:103BF00008F0F1C18115994909F0B0CE8091860C89
:103C00008370813009F0B8C1E0919E0CE295EF70AD
:103C1000F0E0EE0FFF1FE555F14E808191816CE3DE
:103C200070E00F94C84B7093880C6093870C81E010
:103C30000E9470EA8091811E88608093811E3EC040
:103C4000853039E9930709F411C208F4F6C18630CA
:103C5000994909F083CE2091EB1E3091EC1E21157D
:103C6000310561F1A0E1B7E20F945F4C2091351E60
:103C70003091361E50E040E00F943D4C3093950C4F
:103C80002093940CD4CF8091A61E8D7F8093A61E86
:103C90000E94D7DC0E9435DC0E94ADDB0E9425DB50
:103CA0000E949DDA0E94C2DE0E9449DE0E94E0DD91
:103CB0000E9477DD109272081092710881E00895D9
:103CC0008091A61E82608093A61EF8CF8091A61ECA
:103CD00081FFF4CF0E94FFDEF1CF21FFEFCF0E94E2
:103CE000C2DE809172088E7F80937208E7CF21FF39
:103CF00005C080917208816080937208809172087B
:103D000080FDDCCF0E94C2DED9CF8091A61E81FF4C
:103D1000D5CF0E9449DE809172088D7FE5CF21FFCB
:103D200005C0809172088260809372088091720849
:103D300081FDC4CF0E9449DEC1CF21FFBFCF0E94C9
:103D400015DEBCCF21FF05C080917208846080938E
:103D500072088091720882FDB1CF0E94E0DDAECF83
:103D600021FFACCF0E94ACDDA9CF21FFA7CF0E94DD
:103D700077DD80917208877FB7CF8091A61E81FF83
:103D80009DCF0F9441029ACF8091A61E81FF96CFBE
:103D90000F940602809172088F7EA6CF8091A61E96
:103DA00081FF8CCF0F94D10189CF21FF87CF0F9452
:103DB0009A01809172088F7D97CF21FF05C0809175
:103DC00072088062809372088091720885FD76CFB8
:103DD0000F949A0173CF8091A61E81FF6FCF0F942D
:103DE0003601809172088F7B7FCF21FF05C08091C3
:103DF00072088064809372088091720886FD5ECF9D
:103E00000F9436015BCF21FF59CF0F94060156CF97
:103E10008091A61E81FF05C0809172088068809302
:103E200072088091720887FD49CF0F94D40046CF65
:103E30008091A61E81FF42CF0E94D7DC809171083D
:103E40008E7F809371083ACF8091A61E81FF05C0B6
:103E5000809171088160809371088091710880FD64
:103E60002DCF0E94D7DC2ACF8091A61E81FF26CFBE
:103E70000E9489DC23CF8091A61E81FF1FCF0E9464
:103E800035DC809171088D7FDCCF8091A61E81FF8B
:103E900015CF0E94F1DB12CF21FF10CF0E94ADDBC6
:103EA000809171088B7FCDCF21FF05C08091710873
:103EB0008460809371088091710882FDFFCE0E941A
:103EC000ADDBFCCE8091A61E81FFF8CE0E9425DBE3
:103ED00080917108877FB5CF21FF05C0809171085F
:103EE0008860809371088091710883FDE7CE0E94FD
:103EF00025DBE4CE21FFE2CE0E94E1DADFCE21FF16
:103F000005C080917108806180937108809171086B
:103F100084FDD4CE0E949DDAD1CE21FFCFCE0F9466
:103F20008800CCCE21FFCACE0F943C00809171084E
:103F30008F7D87CF8091A61E81FFC0CE0E94F4FFA7
:103F4000BDCE8091A61E81FFB9CE0E94ACFF8091AC
:103F500071088F7B76CF8091A61E81FFAFCE0E9425
:103F600071FFACCE8091A61E81FFA8CE0E9436FFC5
:103F7000809171088F7765CF80E00E94D0F29B011D
:103F8000AC01211531054105510509F497CE60E0DA
:103F900077E883E993E00F943D4C3093880C2093AD
:103FA000870C45CE2091EB1E3091EC1E211531057A
:103FB00009F484CEA0E1B7E20F945F4C2091351E46
:103FC0003091361E50E040E00F943D4C30938B0C06
:103FD00020938A0C2CCE2091EB1E3091EC1E2115E3
:103FE000310509F46BCEA0E1B7E20F945F4C20914C
:103FF000351E3091361E50E040E00F943D4C30931A
:104000008D0C20938C0C13CE2091EB1E3091EC1E66
:104010002115310509F452CEA0E1B7E20F945F4CAF
:104020002091351E3091361E50E040E00F943D4CFB
:1040300030938F0C20938E0CFACD2091EB1E309193
:10404000EC1E2115310509F439CEA0E1B7E20F9439
:104050005F4C2091351E3091361E50E040E00F94A9
:104060003D4C3093910C2093900CE1CD2091EB1EB0
:104070003091EC1E2115310509F420CEA0E1B7E204
:104080000F945F4C2091351E3091361E50E040E079
:104090000F943D4C3093930C2093920CC8CD08950F
:1040A000E091CA1CF0E088E691E0BF010F94B44BA8
:1040B00070931407609313078091C01C81FF09C09F
:1040C00080ED92E0BF010F94B44B7093140760939E
:1040D00013078FEF90E090931207809311078CE203
:1040E00091E0E89F9001E99F300DF89F300D112479
:1040F00050E040E060E472E48FE090E00F940B4CFD
:104100002093C7063093C8064093C9065093CA0649
:1041100081E493E0A0E0B0E08093C3069093C406EE
:10412000A093C506B093C60680912A0B8E7F80931C
:104130002A0B80912A0B826080932A0B80912A0B94
:10414000806480932A0B80912A0B886080932A0BCD
:104150002091130730911407A5E0BDE00F945F4C48
:104160006093040270930502809306029093070205
:10417000089520910F07309110072817390730F460
:104180004091CA1C4817190608F0C901620F732F25
:10419000711D8617970708F4BC01CB010895209183
:1041A000CA1C260F3327331F181619061CF0820F5E
:1041B000931F08952817390714F4821B930B089551
:1041C000262F60911307709114074091BB1C5091EA
:1041D000BC1C841B950B0F94B44BCB01622F0C9429
:1041E000CF20CF938091C71C8C718C3029F48091A3
:1041F000C01CC091CA1C81FDC0E06C2F80911A0BBD
:1042000090911B0B0E94E02090937A058093790592
:104210006C2F80914C0890914D080E94E020909363
:104220007805809377056C2F80914A0890914B0810
:104230000E94E02090937605809375056C2F809105
:104240004808909149080E94E02090936805809367
:1042500067056C2F80913608909137080E94E02006
:1042600090935A0580935905CF910895CF93C62F07
:1042700060911307709114072091BB1C3091BC1CF6
:10428000821B930B0F94B44BCB012091CA1C2D3091
:1042900008F001976C2F0E94CF206C2FCF910C94C7
:1042A000B920CF938091C71C8471843049F48091E8
:1042B000C01C81FD05C08091440CC091CA1C82FDC8
:1042C000C0E06C2F80911A0B90911B0B0E9436213D
:1042D00090937A05809379056C2F80914C0890918A
:1042E0004D080E94362190937805809377056C2FB6
:1042F00080914A0890914B080E9436219093760550
:10430000809375056C2F80914808909149080E9410
:10431000362190936805809367056C2F809136084D
:10432000909137080E94362190935A058093590541
:10433000CF9108959B01AC018091C71C8295869511
:104340008370813071F020F08230D9F08330F1F049
:104350001092C7061092C8061092C9061092CA069B
:10436000089572E056954795379527957A95D1F738
:104370002093C7063093C8064093C9065093CA06D7
:1043800008955695479537952795F2CFA3E0B0E06D
:104390000F942A4C22E096958795779567952A95F4
:1043A000D1F76093C7067093C8068093C9069093AF
:1043B000CA0608950F9498256093690570936A055D
:1043C00080936B0590936C058091690590916A05C7
:1043D000A0916B05B0916C0540915105509152052B
:1043E0006091530570915405841B950BA60BB70B78
:1043F0008093030790930407A0930507B0930607E3
:1044000040910307509104076091050770910607DA
:104410008091C7069091C806A091C906B091CA06BE
:1044200084179507A607B70760F08091A01E9091AA
:10443000A11EA091A21EB091A31E892B8A2B8B2BAB
:10444000C9F48091B7068F5F8093B7068091341EC0
:1044500080FD11C08091690590916A05A0916B055E
:10446000B0916C058093FF0690930007A09301071D
:10447000B093020708958091B7068330D8F38091F6
:104480002A0B806280932A0B8091690590916A05BE
:10449000A0916B05B0916C058093510590935205E6
:1044A000A0935305B09354051092B706809111075D
:1044B00090911207019690931207809311078091B3
:1044C000110790911207019739F08091110790918F
:1044D00012078E9708F43FC081E090E09093120796
:1044E000809311078091BF069091C006A091C106EC
:1044F000B091C2068093B9069093BA06A093BB060A
:10450000B093BC068091690590916A05A0916B05F6
:10451000B0916C058093BF069093C006A093C1062E
:10452000B093C2068091B80691E089278093B806BF
:104530008091A01E9091A11EA091A21EB091A31ED9
:104540000196A11DB11D8093A01E9093A11EA09362
:10455000A21EB093A31E609103077091040780917F
:104560000507909106070E949A218091FF0690917D
:104570000007A0910107B09102078093FB0690937A
:10458000FC06A093FD06B093FE0664CF8091110750
:10459000909112070D9731F48091341E8E7F809395
:1045A000341E08950F9498256093690570936A05E9
:1045B00080936B0590936C058091690590916A05D5
:1045C000A0916B05B0916C054091FF0650910007DA
:1045D0006091010770910207841B950BA60BB70B26
:1045E0008093030790930407A0930507B0930607F1
:1045F00040910307509104076091050770910607E9
:104600008091C7069091C806A091C906B091CA06CC
:10461000481759076A077B0708F47AC08091110789
:1046200090911207892B09F074C081E090E090937B
:104630001207809311078091BF069091C006A09148
:10464000C106B091C2068093B9069093BA06A093B2
:10465000BB06B093BC068091690590916A05A09154
:104660006B05B0916C058093BF069093C006A09334
:10467000C106B093C2068091341E81608093341EBF
:104680008091A01E9091A11EA091A21EB091A31E88
:104690000196A11DB11D8093A01E9093A11EA09311
:1046A000A21EB093A31E8CE390E090931407809316
:1046B000130760910307709104078091050790919B
:1046C00006070E949A2180912A0B806280932A0B10
:1046D0008091FF0690910007A0910107B091020719
:1046E0008093FB069093FC06A093FD06B093FE0614
:1046F0008091690590916A05A0916B05B0916C0558
:104700008093FF0690930007A0930107B0930207E0
:1047100008958091110790911207019690931207C6
:1047200080931107A0911107B0911207E091110732
:10473000F0911207AA0FBB1FA753B94FEE0FFF1F2F
:10474000E953F94F8D919C9120813181821B930B0C
:10475000ACCF8F929F92AF92BF92CF92DF92EF92A7
:10476000FF924B015C018091DB0A9091DC0AA091E1
:10477000DD0AB091DE0A88159905AA05BB0509F482
:104780004AC08092DB0A9092DC0AA092DD0AB092C5
:10479000DE0A9A2D892D782D66276C547F4F8F4F16
:1047A0009F4F28E6C22EDD24D394E12CF12CA701E3
:1047B00096010F943D4C20933D0530933E05409368
:1047C0003F0550934005D701C6019C01A69537953A
:1047D0002795912D9795812DD90175016401F69446
:1047E000E794D794C794BC01CD016C0D7D1D8E1D3F
:1047F0009F1DA50194010F943D4C30933C052093DF
:104800003B0581E0FF90EF90DF90CF90BF90AF909D
:104810009F908F90089580E0F5CFCF92DF92EF9236
:10482000FF928091341E80FF79C08091FF069091A5
:104830000007A0910107B0910207892B8A2B8B2BCF
:1048400009F46CC08091FB069091FC06A091FD06D6
:10485000B091FE06892B8A2B8B2B09F45FC08091C7
:10486000A01E9091A11EA091A21EB091A31E02971E
:10487000A105B105C8F5F8942091FF063091000715
:1048800040910107509102078091FB069091FC0630
:10489000A091FD06B091FE06281B390B4A0B5B0B5D
:1048A000A4EBB0E00F942A4C0E94A9237894C09006
:1048B000DB0AD090DC0AE090DD0AF090DE0AC70146
:1048C000B6010E94371ACC0CDD1CEE1CFF1CC092F6
:1048D0000402D0920502E0920602F0920702FF90D5
:1048E000EF90DF90CF900895F8946091BF0670919B
:1048F000C0068091C1069091C206C090B906D090C2
:10490000BA06E090BB06F090BC066C197D098E09D2
:104910009F099695879577956795C6CF90E080E03B
:10492000DECFCF92DF92EF92FF920F9498256093A3
:10493000690570936A0580936B0590936C0580916F
:10494000690590916A05A0916B05B0916C05409145
:10495000FF06509100076091010770910207841BC8
:10496000950BA60BB70B8093030790930407A093B6
:104970000507B09306078091690590916A05A0919B
:104980006B05B0916C058093FF0690930007A09390
:104990000107B093020780912A0B806280932A0B53
:1049A0008091341E80FFC3C080911107909112073F
:1049B00001969093120780931107809111079091AF
:1049C0001207499709F053C081E090E090931207D5
:1049D000809311078091BF069091C006A091C106F7
:1049E000B091C2068093B9069093BA06A093BB0615
:1049F000B093BC068091690590916A05A0916B0502
:104A0000B0916C058093BF069093C006A093C10639
:104A1000B093C2068091A01E9091A11EA091A21EEB
:104A2000B091A31E0196A11DB11D8093A01E90936D
:104A3000A11EA093A21EB093A31E6091BF06709109
:104A4000C0068091C1069091C206C090B906D09070
:104A5000BA06E090BB06F090BC066C197D098E0981
:104A60009F09FF90EF90DF90CF900C94A923809145
:104A7000110790911207479789F080911107909143
:104A800012070F9759F080911107909112070E9716
:104A9000B9F5FF90EF90DF90CF90089580911107C6
:104AA000909112070196909312078093110720911D
:104AB000AB063091AC064091AD065091AE06C09069
:104AC0000307D0900407E0900507F090060756957D
:104AD000479537952795A3E0B0E00F942A4CC6166A
:104AE000D706E806F906A8F68091341E8E7F8093DB
:104AF000341E81E090E09093120780931107C9CF94
:104B00008091110790911207469719F2809103073F
:104B100090910407A0910507B09106078093AB061A
:104B20009093AC06A093AD06B093AE06B2CF2091A1
:104B3000AB063091AC064091AD065091AE06C090E8
:104B40000307D0900407E0900507F09006075695FC
:104B5000479537952795A3E0B0E00F942A4CC616E9
:104B6000D706E806F90608F460C08091AB0690917C
:104B7000AC06A091AD06B091AE06892B8A2B8B2B8B
:104B800009F453C080911107909112070F9709F013
:104B9000B0CF8091341E81608093341E80E190E01C
:104BA0009093120780931107C0906905D0906A0511
:104BB000E0906B05F0906C052091AB063091AC064F
:104BC0004091AD065091AE06AFE0B0E00F942A4C94
:104BD000C61AD70AE80AF90AC092BF06D092C006E0
:104BE000E092C106F092C206C090BF06D090C00607
:104BF000E090C106F090C2062091AB063091AC0661
:104C00004091AD065091AE06A8E1B0E00F942A4C59
:104C1000C61AD70AE80AF90AC092B906D092BA06AB
:104C2000E092BB06F092BC0634CF809111079091C0
:104C300012070196909312078093110767CFCF92C6
:104C4000DF92EF92FF920F931F93C090A01ED0901F
:104C5000A11EE090A21EF090A31E0091C61C10E0C1
:104C600030E020E0C016D106E206F30608F460C08A
:104C70009091341E90FD04C09091811E94FF58C005
:104C80000091FB061091FC062091FD063091FE0676
:104C9000012B022B032B09F44BC0C090FF06D090D0
:104CA0000007E0900107F09002070091FB061091C9
:104CB000FC062091FD063091FE060C151D052E0503
:104CC0003F05B0F5E62FF8942091FF0630910007DC
:104CD0004091010750910207C090FB06D090FC065E
:104CE000E090FD06F090FE062C193D094E095F0983
:104CF000A82FB0E00F942A4C04C09695879577951D
:104D00006795EA95D2F70E94A9237894882381F0C9
:104D10006091DB0A7091DC0A8091DD0A9091DE0AD5
:104D20001F910F91FF90EF90DF90CF900C94371A66
:104D30008091351E9091361E1F910F91FF90EF903C
:104D4000DF90CF900895CF92DF92EF92FF92F89488
:104D50009FB7F8942091341E20FF6AC09FBF4091F6
:104D6000351E5091361E2091CC1E3091CD1E42171B
:104D7000530768F44091A01E5091A11E6091A21E9D
:104D80007091A31E452B462B472B09F456C040912A
:104D9000B9065091BA066091BB067091BC06452BCE
:104DA000462B472B09F449C0C090BF06D090C006DF
:104DB000E090C106F090C2064091B9065091BA0643
:104DC0006091BB067091BC064C155D056E057F05B4
:104DD000A0F5282F6091BF067091C0068091C10692
:104DE0009091C206C090B906D090BA06E090BB067A
:104DF000F090BC066C197D098E099F0904C0969538
:104E00008795779567952A95D2F70E94A9238823DD
:104E1000A1F078946091DB0A7091DC0A8091DD0A40
:104E20009091DE0AFF90EF90DF90CF900C94371AAC
:104E30002091811E9FBF24FD92CF78948091351ED2
:104E40009091361EFF90EF90DF90CF900895809163
:104E5000341E80FF19C08091110790911207892B91
:104E600099F02091351E3091361E8091CC1E909184
:104E7000CD1E2817390728F460E08091CA1C0C94D5
:104E80001F2680E00C94A32690E080E00895CF9345
:104E9000DF938091341E80FF45C02091351E3091F4
:104EA000361E8091CC1E9091CD1E28173907A8F58B
:104EB000F894C0911307D09114072091FF06309108
:104EC000000740910107509102078091FB069091E5
:104ED000FC06A091FD06B091FE06281B390B4A0B7B
:104EE0005B0BA4E2B0E00F942A4C0E94A9237894B3
:104EF000DE0120E037E843E953E00F94354C209180
:104F0000DB0A3091DC0A4091DD0A5091DE0A0F94F1
:104F10003D4CC901DF91CF91089580E0DF91CF91A1
:104F20000C94A32690E080E0F5CF2091351E3091BF
:104F3000361E8091CC1E9091CD1E2817390798F40B
:104F40008091341E80FF0FC08091FF069091000772
:104F5000A0910107B0910207892B8A2B8B2B11F5A9
:104F600090E080E0089581E00E94A3264091DB0A52
:104F70005091DC0A6091DD0A7091DE0A440F551FE2
:104F8000661F771F4B3428E9520725E06207710539
:104F9000B8F04093040250930502609306027093A8
:104FA000070208958091FB069091FC06A091FD06F2
:104FB000B091FE06892B8A2B8B2B91F20C94FAD69A
:104FC0004BE458E965E070E0E4CF8091341E80FF47
:104FD00049C02091351E3091361E8091CC1E909193
:104FE000CD1E28173907D0F48091FF069091000755
:104FF000A0910107B0910207892B8A2B8B2B91F18D
:105000008091FB069091FC06A091FD06B091FE06F2
:10501000892B8A2B8B2B31F10C94FAD681E00E94DC
:10502000A3264091DB0A5091DC0A6091DD0A709161
:10503000DE0A440F551F661F771F4B3428E95207BD
:1050400025E06207710548F0409304025093050281
:10505000609306027093070208954BE458E965E0F7
:1050600070E0F2CF90E080E0089580E00C94A326F9
:105070000C9435280C9435280C9435280C9435283C
:105080008091440C82FB882780F961E0862720917B
:10509000351E3091361E4091CC1E5091CD1E2417E6
:1050A000350718F02C3D354008F5682F80910F0723
:1050B0000E941F264091DB0A5091DC0A6091DD0AB4
:1050C0007091DE0A440F551F661F771F4B3428E985
:1050D000520725E06207710560F040930402509387
:1050E0000502609306027093070208950E94A326AA
:1050F000E1CF4BE458E965E070E0EFCF8091341EDA
:1051000080FF13C02091351E3091361E8091CC1E39
:105110009091CD1E2817390710F40C945ED780911A
:10512000C01C869581700C94A32690E080E00895C1
:105130008091351E9091361E2091CC1E3091CD1E4F
:105140008217930748F420911107309112072130FC
:10515000310541F00C945ED78091C01C869581701A
:105160000C94A32608951092B3061092B4061092E0
:10517000B5061092B6061092FF0610920007109224
:105180000107109202071092B7061092BE06109205
:10519000BD060895CF92DF92EF92FF923FB7F89449
:1051A000C090FF06D0900007E0900107F090020742
:1051B00021E06C157D058E059F05D8F0C090FF0697
:1051C000D0900007E0900107F09002076C197D096C
:1051D0008E099F0921E0C0900402D0900502E09062
:1051E0000602F09007026C157D058E059F0508F0FC
:1051F00020E03FBF822FFF90EF90DF90CF90089587
:1052000062956F70729567277F7067278295782700
:105210008F707827929589279F7089270895969592
:1052200087957795679596958795779567959695E0
:1052300087957795679508950F94982560936905EC
:1052400070936A0580936B0590936C058091690556
:1052500090916A05A0916B05B0916C054091FF0695
:10526000509100076091010770910207841B950B14
:10527000A60BB70B8093030790930407A093050731
:10528000B09306074091030750910407609105070A
:10529000709106078091C7069091C806A091C90633
:1052A000B091CA06481759076A077B0708F4B7C0C8
:1052B00080912A0B806280932A0B80911107909134
:1052C000120701969093120780931107809111079E
:1052D00090911207019731F0809111079091120778
:1052E0000597F1F581E090E0909312078093110704
:1052F0008091BF069091C006A091C106B091C206F0
:105300008093B9069093BA06A093BB06B093BC06EF
:105310008091690590916A05A0916B05B0916C052B
:105320008093BF069093C006A093C106B093C206B7
:105330008091341E81608093341E8091A01E9091D4
:10534000A11EA091A21EB091A31E0196A11DB11D88
:105350008093A01E9093A11EA093A21EB093A31EA3
:105360008091341E80FF5BC08091841E81FF0DC040
:105370008091C71C87FF09C0809111079091120787
:10538000019709F04DC00E94D7DC809111079091E0
:105390001207019709F44EC08091110790911207EE
:1053A000039709F447C08CE690E09093140780932C
:1053B000130720910307309104074091050750918E
:1053C0000607A3E0B0E00F942A4C0E940F296093D7
:1053D000C7067093C8068093C9069093CA06809149
:1053E000FF0690910007A0910107B09102078093FA
:1053F000FB069093FC06A093FD06B093FE068091F9
:10540000690590916A05A0916B05B0916C05809338
:10541000FF0690930007A0930107B0930207089539
:105420008091110790911207039709F0AECF0E9467
:1054300035DCABCF88E490E090931407809313079A
:105440008091030790910407A0910507B09106078A
:105450008093C7069093C806A093C906B093CA0666
:10546000BECF9B01AC01A0913B05B0913C050F94D0
:105470002A4CDC01CB01905CAF4FBF4F9D01990FCF
:10548000221F331FA12DAA1FB12DC9010895CF924C
:10549000DF92EF92FF92CF93DF93F894C0911107C0
:1054A000D0911207C090FF06D0900007E09001074E
:1054B000F09002070F949825609371057093720520
:1054C00080937305909374057894209719F4C09194
:1054D000CA1CD0E020911307309114072197C29F76
:1054E000C001C39F900DD29F900D11246091BF1CED
:1054F00070E00F94B44BC091BB1CD091BC1CC60F84
:10550000D71F60917105709172058091730590911C
:1055100074056C197D098E099F0960936D05709360
:105520006E0580936F05909370050E94312A8C0F51
:105530009D1F803D22E092074CF0805D9240DF91FC
:10554000CF91FF90EF90DF90CF90089597FFF7CF26
:1055500088599E4FF4CFCF92DF92EF92FF92CF9374
:10556000DF938091341E80FF4FC0F894C0911107E3
:10557000D0911207C090FF06D0900007E09001077D
:10558000F09002070F94982560937105709372054F
:1055900080937305909374057894CC0FDD1FC753E7
:1055A000D94F0990D881C02D8091BB1C9091BC1C13
:1055B000C80FD91F609171057091720580917305B4
:1055C000909174056C197D098E099F0960936D0592
:1055D00070936E0580936F05909370050E94312A39
:1055E0008C0F9D1F803D22E092074CF0805D924021
:1055F000DF91CF91FF90EF90DF90CF90089597FFCC
:10560000F7CF88599E4FF4CF90E080E0F1CFCF9252
:10561000DF92EF92FF92CF93DF93F894C09111073E
:10562000D0911207C090FF06D0900007E0900107CC
:10563000F09002070F94982560937105709372059E
:1056400080937305909374057894CC0FDD1FC75336
:10565000D94F0990D881C02D8091BB1C9091BC1C62
:10566000C80FD91F60917105709172058091730503
:10567000909174056C197D098E099F0960936D05E1
:1056800070936E0580936F05909370050E94312A88
:105690008C0F9D1F803D22E092074CF0805D924070
:1056A000DF91CF91FF90EF90DF90CF90089597FF1B
:1056B000F7CF88599E4FF4CF0F931F93CF93DF936B
:1056C000F894C0911107D09112070F949825609318
:1056D0007105709372058093730590937405009122
:1056E000FF06109100072091010730910207601B0F
:1056F000710B820B930B60936D0570936E05809315
:105700006F0590937005789405ED10E0CE30D105CB
:1057100081F00DE411E0C631D10559F080911307F5
:10572000909114078C9F80018D9F100D9C9F100DF0
:10573000112460916D0570916E0580916F059091B7
:1057400070050E94312A2091BB1C3091BC1C820F35
:10575000931F800F911F803D22E0920714F0805D1F
:10576000924040911E0250911F02209126023091DA
:105770002702241735070CF49A01281739073CF43F
:10578000821B930BDF91CF911F910F91089597FF8B
:10579000F9CF88599E4FF6CFCF92DF92EF92FF92CA
:1057A000CF93DF93F894C0911107D0911207C09066
:1057B000FF06D0900007E0900107F09002070F94D9
:1057C000982560937105709372058093730590938B
:1057D000740578948091BB1C9091BC1C209789F52E
:1057E00020911307309114074BE0429FE001439F43
:1057F000D00D1124C80FD91F6091710570917205E9
:1058000080917305909174056C197D098E099F092B
:1058100060936D0570936E0580936F05909370058E
:105820000E94312A8C0F9D1F803D22E09207BCF020
:10583000805D9240DF91CF91FF90EF90DF90CF900D
:10584000089540911307509114072197C49F900128
:10585000C59F300DD49F300D1124E901CBCF97FFA8
:10586000E9CF88599E4FE6CF8F929F92AF92BF9219
:10587000FF920F931F93CF93DF93F894C09111077A
:10588000D09112078090FF0690900007A09001072A
:10589000B0900207F090B8060F94982560937105B8
:1058A0007093720580937305909374057894209794
:1058B00011F4CDE2D0E08091130790911407219765
:1058C000C89F8001C99F100DD89F100D1124C09151
:1058D000BB1CD091BC1C60917105709172058091C8
:1058E000730590917405681979098A099B09609379
:1058F0006D0570936E0580936F05909370050E94FF
:10590000312A8C0F9D1F800F911FFF2011F08859A5
:105910009E4F803D22E0920764F0805D9240DF91CF
:10592000CF911F910F91FF90BF90AF909F908F905C
:10593000089597FFF4CF40912602509127022091BD
:105940001E0230911F02241735070CF49A01820FB2
:10595000931FE5CFCF92DF92EF92FF92CF93DF9329
:10596000F894C0911107D0911207C090FF06D09013
:105970000007E0900107F09002070F9498256093CC
:1059800071057093720580937305909374057894F4
:1059900020911107309112078091BB1C9091BC1C83
:1059A000232B41F5EC01CE58DF4F609171057091CA
:1059B000720580917305909174056C197D098E09AB
:1059C0009F0960936D0570936E0580936F059093AA
:1059D00070050E94312A8C0F9D1F803D22E09207A6
:1059E0009CF0805D9240DF91CF91FF90EF90DF902F
:1059F000CF900895CC0FDD1FC753D94F0990D881A0
:105A0000C02DC80FD91FD1CF97FFEDCF88599E4F1A
:105A1000EACF8F929F92AF92BF92FF920F931F9304
:105A2000CF93DF93F89400911107109112078090A3
:105A3000FF0690900007A0900107B0900207F09039
:105A4000B8060F9498256093710570937205809342
:105A500073059093740578948091BB1C9091BC1C45
:105A6000EC010115110549F0000F111FF801E75372
:105A7000F94FC081D181C80FD91F60917105709114
:105A800072058091730590917405681979098A09E6
:105A90009B0960936D0570936E0580936F059093DD
:105AA00070050E94312A8C0F9D1FFF2011F088592C
:105AB0009E4F803D22E0920764F0805D9240DF912E
:105AC000CF911F910F91FF90BF90AF909F908F90BB
:105AD000089597FFF4CF88599E4FF1CFCF92DF9270
