:020000040000FA
:100000000C9462000C948A000C948A000C948A0070
:100010000C948A000C948A000C948A000C948A0038
:100020000C948A000C948A000C948A000C948A0028
:100030000C948A000C948A000C948A000C948A0018
:100040000C947E050C948A000C944C050C942605A7
:100050000C948A000C948A000C948A000C948A00F8
:100060000C94C8050C948A000000000025002800AC
:100070002B0000000000240027002A0000000000E0
:1000800023002600290004040404040404040202DA
:100090000202020203030303030301020408102007
:1000A0004080010204081020010204081020000012
:1000B0000008000201000003040700000000000027
:1000C0000000E70611241FBECFEFD8E0DEBFCDBF92
:1000D00012E0A0E0B1E0EEEBFAE202C005900D9272
:1000E000AC34B107D9F724E0ACE4B2E001C01D9212
:1000F000A534B207E1F710E0C2E6D0E004C02197D2
:10010000FE010E94BD14C136D107C9F70E94330712
:100110000C945D150C94000008950895AF92BF9261
:10012000CF92DF92EF92FF920F931F93CF93DF93C3
:100130006C017B018B01040F151FEB015E01AE18F2
:10014000BF08C017D10759F06991D601ED91FC9114
:100150000190F081E02DC6010995892B79F7C50141
:10016000DF91CF911F910F91FF90EF90DF90CF9093
:10017000BF90AF900895FC01538D448D252F30E042
:10018000842F90E0821B930B541710F0CF960895A4
:1001900001970895FC01918D828D981761F0A28DD1
:1001A000AE0FBF2FB11D5D968C91928D9F5F9F7397
:1001B000928F90E008958FEF9FEF0895FC01918D4D
:1001C000828D981731F0828DE80FF11D858D90E0BA
:1001D00008958FEF9FEF0895FC01918D228D892F57
:1001E00090E0805C9F4F821B91098F73992708953F
:1001F0008FE693E00E94EC0021E0892B09F420E0D7
:10020000822F089580E090E0892B29F00E94F80069
:1002100081110C9400000895FC01A48DA80FB92F42
:10022000B11DA35ABF4F2C91848D90E001968F731E
:100230009927848FA689B7892C93A089B1898C913D
:10024000837080648C93938D848D981306C002888C
:10025000F389E02D80818F7D80830895EF92FF9256
:100260000F931F93CF93DF93EC0181E0888F9B8DD9
:100270008C8D98131AC0E889F989808185FF15C093
:100280009FB7F894EE89FF896083E889F9898081B6
:100290008370806480839FBF81E090E0DF91CF9185
:1002A0001F910F91FF90EF900895F62E0B8D10E0A7
:1002B0000F5F1F4F0F731127E02E8C8D8E110CC016
:1002C0000FB607FCFACFE889F989808185FFF5CF61
:1002D000CE010E940C01F1CFEB8DEC0FFD2FF11D33
:1002E000E35AFF4FF0829FB7F8940B8FEA89FB899E
:1002F00080818062CFCFCF93DF93EC01888D8823FC
:10030000B9F0AA89BB89E889F9898C9185FD03C078
:10031000808186FD0DC00FB607FCF7CF8C9185FF5D
:10032000F2CF808185FFEDCFCE010E940C01E9CF95
:10033000DF91CF910895833081F028F4813099F0D6
:100340008230A9F008958730A9F08830C9F0843050
:10035000B1F4809180008F7D03C0809180008F7701
:1003600080938000089584B58F7784BD089584B507
:100370008F7DFBCF8091B0008F778093B000089580
:100380008091B0008F7DF9CF1F93CF93DF93282FFB
:1003900030E0F901E255FF4F8491F901E656FF4F35
:1003A000D491F901EA57FF4FC491CC23A9F0162F3D
:1003B00081110E949B01EC2FF0E0EE0FFF1FE85926
:1003C000FF4FA591B4918FB7F894EC91111108C02B
:1003D000D095DE23DC938FBFDF91CF911F910895DD
:1003E000DE2BF8CFCF93DF9390E0FC01E656FF4F72
:1003F00024918A579F4FFC0184918823D1F090E08B
:10040000880F991FFC01EE58FF4FA591B491FC0194
:10041000E859FF4FC591D491623071F49FB7F894B9
:100420003C91822F809583238C93E8812E2B288307
:100430009FBFDF91CF9108958FB7F894EC912E2B49
:100440002C938FBFF6CF1F93CF93DF93182FEB0121
:1004500061E00E94F201209739F460E0812FDF9182
:10046000CF911F910C94C401CF3FD10511F461E0ED
:10047000F5CFE12FF0E0E255FF4FE491E33031F1A9
:1004800040F4E130B1F0E230E1F0C038D1057CF762
:10049000E4CFE73029F1E83059F1E430B1F7809149
:1004A0008000806280938000D0938B00C0938A008C
:1004B00004C084B5806884BDC7BDDF91CF911F9112
:1004C000089584B5806284BDC8BDF7CF8091800057
:1004D000806880938000D0938900C0938800EDCF1E
:1004E0008091B00080688093B000C093B300E5CFE6
:1004F0008091B00080628093B000C093B400DDCFE3
:100500008E50806480937C0080917A008064809318
:100510007A0080917A0086FDFCCF809178009091DE
:10052000790008953FB7F8948091B1029091B2029A
:10053000A091B302B091B40226B5A89B05C02F3F8D
:1005400019F00196A11DB11D3FBFBA2FA92F982FF9
:100550008827BC01CD01620F711D811D911D42E0F4
:10056000660F771F881F991F4A95D1F7089520912C
:100570008D02260F3327331F21323105ECF42091F1
:100580000503FC0190E080E0243069F082E00895EA
:10059000A0918D022191AC0143595D4FA40FB52F5D
:1005A000B11D2C930196861798F380918D02680FE8
:1005B00060938D0280E0089581E008951092050314
:1005C00081E0809304031092DF0261E082E10E94E7
:1005D000C40161E083E10E94C401E9EBF0E08081A5
:1005E0008E7F808380818D7F808388E48093B800B4
:1005F00085E48093BC000895CF93DF9391E09093BE
:100600006C028823B9F0C091B800D091BA008091F3
:10061000BC008A7B8093BC0060E082E10E94C40140
:1006200060E083E10E94C4010E94DE02D093BA0020
:10063000C093B800DF91CF9108950895E091BB0277
:100640008091BA02E81730F4F0E0E45BFD4F80815E
:1006500090E008958FEF9FEF08959091BB028091F5
:10066000BA022FEF3FEF981748F4E92FF0E0E45B70
:10067000FD4F208130E09F5F9093BB02C901089538
:100680008091BA029091BB02891B990B0895CF9279
:10069000DF92EF92FF920F931F93CF93DF937C0132
:1006A000CB018A0120912E03222389F0EB016B01FB
:1006B000C40ED51ECC15DD0569F06991D701ED9109
:1006C000FC910190F081E02DC7010995F3CF642FD3
:1006D0000E94B702C801DF91CF911F910F91FF9047
:1006E000EF90DF90CF900895CF93DF931F92CDB717
:1006F000DEB7698320912E032223F9F020912B038A
:10070000203258F021E030E0FC013383228390E076
:1007100080E00F90DF91CF91089580912C03E82F16
:10072000F0E0E55FFC4F998190838F5F80932C030D
:1007300080932B0381E090E0ECCF61E0CE01019645
:100740000E94B702F7CF90E080E00895CF93DF9347
:10075000EC0160E08AE00E94C401DEBD00000DB43F
:1007600007FEFDCFDEB5CEBD00000DB407FEFDCF08
:10077000CEB561E08AE00E94C401CE01DF91CF9145
:100780000895FC0101900020E9F73197AF01481B63
:10079000590BBC018FE693E00C948E008F929F92D0
:1007A000AF92BF920F931F93CF93DF93CDB7DEB776
:1007B000A1970FB6F894DEBF0FBECDBF19A242308D
:1007C00008F44AE08E010F5D1F4F842E912CB12C4E
:1007D000A12CA50194010E942512E62FB901CA019E
:1007E000EA30F4F4E05DD801EE938D01232B242B45
:1007F000252B79F790E080E0109719F0CD010E9449
:10080000C103A1960FB6F894DEBF0FBECDBFDF9136
:10081000CF911F910F91BF90AF909F908F900895AF
:10082000E95CE1CF4F925F926F927F928F929F929D
:10083000AF92BF92CF92DF92EF92FF920F931F93EE
:10084000CF936B017C01742EAC019B010E94941428
:10085000882399F08AE192E0CF911F910F91FF9048
:10086000EF90DF90CF90BF90AF909F908F907F9050
:100870006F905F904F900C94C10346015701E8942C
:10088000B7F82FEF3FEF4FE75FE7C501B4010E94D4
:10089000941481110DC02FEF3FEF4FE75FE7C501C3
:1008A000B4010E94C31218161CF48EE192E0D4CF5A
:1008B0002FEF3FEF4FE75FE4C701B6010E9422141C
:1008C00018161CF482E292E0C7CF2FEF3FEF4FE7FC
:1008D0005FECC701B6010E94C31287FDF3CF20E091
:1008E00030E0A901C701B6010E94C31210E000E088
:1008F00087FF0AC06DE28FE693E00E942E018C0113
:10090000F7FAF094F7F8F094C0E060E070E080E06F
:100910009FE37C1641F020E030E040E251E40E9489
:10092000C812CF5FF6CFA70196010E9457122B0184
:100930003C010E9441134B015C014AE00E94CE033E
:100940007C01E00EF11ECC23C1F1C501B4010E946F
:1009500070139B01AC01C301B2010E9456124B01FE
:100960005C016EE28FE693E00E942E01E80EF91E14
:10097000C15018F120E030E040E251E4C501B4017B
:100980000E9427142B013C010E9441134B01B12C02
:10099000A12C4AE0C501B4010E94CE03E80EF91E65
:1009A000C501B4010E9470139B01AC01C301B201E7
:1009B0000E9456124B015C01DBCFC701CF911F9102
:1009C0000F91FF90EF90DF90CF90BF90AF909F90EE
:1009D0008F907F906F905F904F90089585ED8093FA
:1009E000BC008091070390910803A0910903B09186
:1009F0000A030796A11DB11D23E0B695A79597950B
:100A000087952A95D1F72091BC0024FD03C0109250
:100A1000050308954091070350910803609109036D
:100A200070910A03452B462B472B69F30097A105CC
:100A3000B10541F025E32A95F1F700000197A109DE
:100A4000B109E1CF809106030C94FC021F920F9232
:100A50000FB60F9211242F933F934F935F936F9391
:100A60007F938F939F93AF93BF93EF93FF938FE603
:100A700093E00E940C01FF91EF91BF91AF919F9184
:100A80008F917F916F915F914F913F912F910F9037
:100A90000FBE0F901F9018951F920F920FB60F92D6
:100AA00011242F938F939F93EF93FF93E0917F03F4
:100AB000F09180038081E0918503F091860382FDAF
:100AC0001BC09081809188038F5F8F732091890371
:100AD000821741F0E0918803F0E0E159FC4F958FD7
:100AE00080938803FF91EF919F918F912F910F90A9
:100AF0000FBE0F901F9018958081F4CF1F920F9218
:100B00000FB60F9211242F933F938F939F93AF9320
:100B1000BF938091C7029091C802A091C902B09181
:100B2000CA023091B00223E0230F2D3758F5019609
:100B3000A11DB11D2093B0028093C7029093C802FB
:100B4000A093C902B093CA028091B1029091B202FF
:100B5000A091B302B091B4020196A11DB11D809382
:100B6000B1029093B202A093B302B093B402BF91CA
:100B7000AF919F918F913F912F910F900FBE0F904A
:100B80001F90189526E8230F0296A11DB11DD2CF04
:100B90001F920F920FB60F9211242F933F934F93F2
:100BA0005F936F937F938F939F93AF93BF93EF93D5
:100BB000FF938091B900887F803609F44AC0F0F530
:100BC000883209F4A7C018F5803109F49BC0B8F445
:100BD000882309F4F9C0883009F494C0FF91EF919B
:100BE000BF91AF919F918F917F916F915F914F9145
:100BF0003F912F910F900FBE0F901F901895883145
:100C000009F488C0803251F78093030314C0803404
:100C100009F49DC040F48033B9F38833F9F680932A
:100C2000030385ECB0C0803509F485C0883509F42C
:100C300096C0883499F60E94EE04D0CF883909F422
:100C40008CC038F5883729F050F4883611F0803799
:100C500029F683E0809305031092AF0257C08838CD
:100C600009F47BC0803919F0803809F0B7CF809142
:100C7000AF02803208F071C0E091AF0281E08E0FC8
:100C80008093AF028091BB00F0E0E157FD4F80837D
:100C90003DC0803B39F0E0F4803A09F479C0883AED
:100CA00009F09CCF84E08093050310928E0210928D
:100CB0008D02E091B802F091B902099580918D0200
:100CC00081110FC081E080938D0210926D0209C0E6
:100CD000803C09F4A6CF883C09F4A3CF883B09F0F7
:100CE0007DCFE0918E0281E08E0F80938E02F0E046
:100CF000E359FD4F80818093BB0090918E028091DB
:100D00008D0229C08091E0028093BB0085EC809326
:100D1000BC0064CF9091020380910103981758F5AD
:100D2000E091020381E08E0F80930203F0E0EF5127
:100D3000FD4F8081E9CFE091020381E08E0F809327
:100D400002038091BB00F0E0EF51FD4F8083909152
:100D50000203809101039817C8F285E8D8CFE0918B
:100D6000020381E08E0F809302038091BB00F0E0CC
:100D7000EF51FD4F80838091040381115CCF81E0AE
:100D80008093DF0284EA8093BC001092050326CF93
:100D900085EC8093BC00109205038091AF028032F5
:100DA00030F4E091AF02F0E0E157FD4F1082609126
:100DB000AF0270E0E091B602F091B7028FE892E0E6
:100DC00009951092AF020ACF1092030334CFEFE6D9
:100DD000F3E01382128288EE93E0A0E0B0E0848317
:100DE0009583A683B7832AEF31E03183208325ECF6
:100DF00030E03587248724EC30E03787268720ECE5
:100E000030E0318B208B21EC30E0338B228B22ECD5
:100E100030E0358B248B26EC30E0378B268B118E1F
:100E2000128E138E148EECE0F4E01382128284830F
:100E30009583A683B7838CE092E091838083E8E179
:100E4000F4E0168E158E10A2178E11A212A213A214
:100E500014A215A216A217A210A611A612A613A6D6
:100E600014A6148E0895CF93DF93CDB7DEB72F97D6
:100E70000FB6F894DEBF0FBECDBF789484B5826004
:100E800084BD84B5816084BD85B5826085BD85B52E
:100E9000816085BD80916E00816080936E001092AC
:100EA0008100809181008260809381008091810027
:100EB00081608093810080918000816080938000B8
:100EC0008091B10084608093B1008091B000816016
:100ED0008093B00080917A00846080937A00809142
:100EE0007A00826080937A0080917A00816080939A
:100EF0007A0080917A00806880937A001092C10015
:100F0000E7E3F3E08DE2DF011D928A95E9F7E4E67D
:100F1000F3E08BE0DF011D928A95E9F7EFE2F3E061
:100F200088E0DF011D928A95E9F7E8EDF2E086E0BE
:100F3000DF011D928A95E9F74BE050E070E060E038
:100F40008CEB92E00E940A1261E08AE00E94F201BA
:100F500061E087E00E94F20161E085E00E94F20119
:100F600061E086E00E94F20161E083E00E94F2010C
:100F700062E080E10E94F20184E0809381008CE0D5
:100F80008093B80061E08AE00E94C40160E087E0DD
:100F90000E94C40160E085E00E94C40160E086E038
:100FA0000E94C40160E083E00E94C40110923604F4
:100FB00010923504109238041092370410923904BC
:100FC00010923A0410923B0410923C0410923D049B
:100FD00010923E0410923F0410924004109241047B
:100FE000109242041092430410924404109234046C
:100FF00080E091E1A0E0B0E08093180490931904A0
:10100000A0931A04B0931B0487E090E0A0E0B0E046
:1010100080931C0490931D04A0931E04B0931F049E
:1010200080E096E4A0E0B0E0809320049093210457
:10103000A0932204B0932304109224048FEF809392
:10104000250410922604109227041092280410926E
:10105000290410922A0410922B0410922C0410924E
:101060002D0410922E0410922F041092300410922E
:1010700031041092320410923304EFB6E982F894EE
:101080008091B502811127C0E0E9F0E08491E4EAA3
:10109000F0E09491E82FF0E0EE0FFF1FEE58FF4FC5
:1010A000A591B491EC91E92321F461E08AE00E94DA
:1010B000C40161E08AE00E94F2018CB580618CBDC0
:1010C0008CB580648CBD61E08DE00E94F20161E02E
:1010D0008BE00E94F2018091B5028F5F8093B50290
:1010E000F980FFBE8CB58C7F81608CBD8DB5816031
:1010F0008DBD8CB58F7D8CBD8CB5837F84608CBDA0
:101100001092BB021092BA0210922C0310922B0381
:101110000E94DE028CE890E09093B9028093B802BE
:101120008DE890E09093B7028093B602E0917F0340
:10113000F091800382E08083E0917B03F0917C0357
:101140001082E0917D03F0917E0380E18083109214
:101150008703E0918303F091840386E08083E0912C
:101160008103F0918203808180618083E09181031B
:10117000F0918203808188608083E0918103F09107
:101180008203808180688083E0918103F0918203F3
:1011900080818F7D80830E9492024B015C01BAEFB7
:1011A000CB2ED12CE12CF12C0E94920268197909E6
:1011B0008A099B09683E734081059105A8F301E007
:1011C000C01AD108E108F10818EE810E13E0911E53
:1011D000A11CB11CC114D104E104F10429F78EE073
:1011E0000E94800290936903809368038FE00E94BD
:1011F000800290936B0380936A0385E10E948002D2
:10120000909365038093640384E10E94800290932D
:10121000670380936603EEEBF0E08491EAEAF0E086
:10122000E490E982E6E9F0E0F490FD82FF2089F0A5
:1012300081110E949B010D81E02FF0E0EE0FFF1F56
:10124000E458FF4FA591B491EC9119811E2381E0E0
:1012500009F480E080936C032FB7F8948091C70263
:101260009091C802A091C902B091CA022FBF809389
:101270003A0390933B03A0933C03B0933D03A091AA
:101280006A03B0916B0328E833E10E94C3142FEF87
:1012900033E040E050E00E94251230935803209341
:1012A000570379ECE72E74E0F72EE21AF30AF09276
:1012B0005303E0925203A0916803B09169032EE8B2
:1012C00032E60E94C3142FEF33E040E050E00E946A
:1012D00025122E0D3F1D30935503209354032450A7
:1012E00039422536394108F405C1809156038F5F94
:1012F0008093560390913703833008F4FDC0109219
:101300005603913009F00CC181E08093370384E6E5
:1013100090E090936303809362038EE997E090934B
:1013200032038093310389E78093300310922F03B7
:1013300010923603109239031092380310925E0314
:1013400010925D031092600310925F0310925A0393
:101350001092590310925B0310925C031092610388
:101360008091540390915503895F9A428B37954140
:1013700050F48091CB028F5F8093CB028A3028F0AB
:1013800082E0809337031092CB0260912F0370E0CC
:1013900086E00E9423026091300370E083E00E94A7
:1013A00023026091350387E00E94C40160913603F7
:1013B00085E00E94C401E0903103F090320381E0A7
:1013C00080932E0380E680932D0310922C031092BD
:1013D0002B0360E48CE094E00E947403B70184E086
:1013E000769567958A95E1F78CE094E00E94740306
:1013F000B70194E0660F771F9A95E1F78CE094E0CF
:101400000E947403F0902B03F9820F2D013208F033
:1014100021C70E9492026B017C018091050381111A
:10142000F4C682E08093050381E0809304038FEF8C
:101430008093030310920203198110930103ABE020
:10144000B3E0E1EEF2E080E0E980E8129DC710929F
:10145000E0028091E002806C8093E0028091DF02E4
:10146000813009F095C71092DF020E9492026B0151
:101470007C018091E0028093BB00809107039091F2
:101480000803A0910903B0910A03892B8A2B8B2BA7
:10149000A1F00E949202009107031091080320918D
:1014A000090330910A036C197D098E099F090617FB
:1014B00017072807390708F4C9C68091BC0083FDC7
:1014C000D8CF85EC8093BC000E9492026B017C0116
:1014D00080910503823009F45DC7809103038F3F3B
:1014E00009F4B8C680910303803209F4B3C6809131
:1014F0000303B0C610925603E0913703E150E93080
:1015000008F050C2F0E0E957F54F0C94BD1484097F
:10151000940AB10A760BC90B3E0CD20CEC0CB81035
:1015200081E080933703E8CF82E08093370380E047
:1015300098E70E94A60390935A03809359039872E8
:101540008F3F984259F48091CC028F5F8093CC02F8
:101550008A3008F41ACF83E0809337031092CC02CC
:1015600014CF83E08093370380915B038130C9F00F
:101570008DE996E50E94A60381E080935B031092BB
:10158000CD0280913A0390913B03A0913C03B0912E
:101590003D038093420390934303A0934403B0938D
:1015A000450380913A0390913B03A0913C03B09195
:1015B0003D03409142035091430360914403709175
:1015C0004503841B950BA60BB70B86399105A10526
:1015D000B10508F4DACE2091640330916503C901A6
:1015E00087599109893F910548F56091660370918B
:1015F0006703CB018759910985399105F8F48091EA
:10160000CD0240915D0350915E03420F531F5093F2
:101610005E0340935D0320915F0330916003260FCA
:10162000371F3093600320935F039091350321E0CF
:101630009227909335038F5F8093CD028091CD02E6
:101640008A3008F442C080915D0390915E032AE0E5
:1016500030E0B9010E94A91470935E0360935D03AA
:1016600080915F0390916003B9010E94A914709367
:10167000600360935F0381E08093350384E080938F
:10168000370386E292E00E94C10360915D0370918E
:101690005E0390E080E04AE00E94CE038AE292E09E
:1016A0000E94C1038DE292E00E94C10360915F033A
:1016B0007091600390E080E04AE00E94CE038AE2ED
:1016C00092E00E94C1031092CD0280913A03909162
:1016D0003B03A0913C03B0913D0380934203909360
:1016E0004303A0934403B09345034FCE84E080931B
:1016F000370380915B038230B9F088E896E50E9459
:10170000A60382E080935B0380913A0390913B03B0
:10171000A0913C03B0913D038093CE029093CF0201
:10172000A093D002B093D10240913A0350913B0371
:1017300060913C0370913D038091CE029091CF0265
:10174000A091D002B091D1027A018B01E81AF90A76
:101750000A0B1B0BD801C7018A3F9105A105B105F2
:1017600070F08091360391E089278093360340938F
:10177000CE025093CF026093D0027093D102809139
:101780006C03811102CE85E08093370310923603FB
:10179000FCCD85E080933703C0903A03D0903B03A3
:1017A000E0903C03F0903D0390916103953091F0FF
:1017B00080936103C092D202D092D302E092D4020D
:1017C000F092D502C0923E03D0923F03E0924003D4
:1017D000F09241032091540330915503032E000CE5
:1017E000440B550B64E276ED85E090E00E942512F3
:1017F000233208F03FC020932F0380913E03909145
:101800003F03A0914003B091410397018601081B5B
:10181000190B2A0B3B0BD901C80180379741A10551
:10182000B10518F086E0809337038091D202909141
:10183000D302A091D402B091D502A7019601281B32
:10184000390B4A0B5B0BDA01C90184369105A105FE
:10185000B10508F49ACD8091360391E089278093F1
:101860003603C092D202D092D302E092D402F09218
:10187000D5028BCD82E280932F03BFCF86E0809389
:101880003703C0903A03D0903B03E0903C03F090C4
:101890003D03909161039630D1F180936103C09232
:1018A0003E03D0923F03E0924003F0924103C09286
:1018B0004603D0924703E0924803F0924903009117
:1018C0005403109155031A8309834801110FAA0884
:1018D000BB0860EC70E28FE190E0A50194010E94EA
:1018E0002512122F60E77EE881E090E0A5019401C7
:1018F0000E9425122093D70229813A81283C324345
:101900000CF054C08FEF8093D60210932F03809178
:101910003E0390913F03A0914003B0914103970192
:101920008601081B190B2A0B3B0BD901C801883E05
:101930009340A105B10510F18091360391E089270C
:101940008093360380912F039091D602891758F423
:10195000409166035091670320915F0330916003CB
:101960004217530770F588E080933703C0923E0317
:10197000D0923F03E0924003F092410380913E03F6
:1019800090913F03A0914003B0914103C81AD90A36
:10199000EA0AFB0A28E9C2162AE3D206E104F104A6
:1019A00008F4F3CC81E080933703EFCC68E375E96A
:1019B00082E390E0A50194010E9425122093D602B3
:1019C000A4CF2091D702820F981718F080932F038D
:1019D000CDCF90932F03CACF88E0809337038091B7
:1019E0006103873019F087E08093610380915B0386
:1019F000823039F088E896E50E94A60382E0809361
:101A00005B0380913A0390913B03A0913C03B0911A
:101A10003D0389879A87AB87BC8780913E0390916D
:101A20003F03A0914003B0914103E984FA840B8500
:101A30001C85E81AF90A0A0B1B0BD801C7010A9783
:101A4000A105B10508F499C180916103873009F0BF
:101A500066C220906603309067032101032C000CBE
:101A60006608770880915F0390916003092E000C4F
:101A7000AA0BBB0B481A590A6A0A7B0A2091180460
:101A80003091190440911A0450911B04211531051D
:101A90004105510509F407C2C301B2010E9499141E
:101AA00069837A838B839C8300911C0410911D04AD
:101AB00020911E0430911F040115110521053105E7
:101AC00009F425C258016901E12CF12C00E010E075
:101AD0009201A301D301C201BB0F880B982FDC0137
:101AE0008D839E83AF83B8876D81762F862F962F47
:101AF0000E94CA14A0903904B0903A04C0903B04EC
:101B0000D0903C04E0903D04F0903E0400913F04EE
:101B1000109140040E943F1579018A012F3FEFEF99
:101B20003E074E07EFE75E076105710581059105E8
:101B300009F00CF4BDC18FEF8093390480933A040F
:101B400080933B048FE780933C0410923D041092F5
:101B50003E0410923F0410924004E0903904F0904B
:101B60003A0400913B0410913C0460912004709170
:101B7000210480912204909123046115710581054F
:101B8000910509F4C8C18090410490904204A0904E
:101B90004304B0904404A3019201281939094A0969
:101BA0005B0949015A014091350450913604D10135
:101BB000A41BB50B9D01BB0F440B550B3092360493
:101BC00020923504409241045092420460924304B2
:101BD00070924404821A930AA40AB50A8114B0E8E8
:101BE0009B06BFEFAB06BB0634F4812CF0E89F2EBA
:101BF000AA24AA94BA2CA50194012115E0E83E0775
:101C00004105510524F02FEF3FE740E050E00E94EE
:101C100099142B013C0189809A80AB80BC80BB0C5D
:101C20008808982C5401A8019701550F220B322FD8
:101C3000A9012D833E834F83588729813A814B81A7
:101C40005C81682D782D882D982D57016801ED80D5
:101C5000FE2C0E2D1E2D0E943F1583017201110FC7
:101C6000EE08FE2C8701E982FA820B831C83520165
:101C70006301E980FE2C0E2D1E2D0E943F151901D7
:101C80002A013B0189839D83E091240480902504EF
:101C900090902604A0912704AF87B0912804BD87B7
:101CA000B0912904A0912A04F0912B04AE2EB82CF7
:101CB000C92CDF84ED84FB2E0A2F1F2F0E944815AC
:101CC00009F054F5E0912C0480902D0490902E049E
:101CD000F0912F04FF87A0913004AD87B0913104BB
:101CE000A0913204F09133042E2F382D492D5F85B9
:101CF0006D857B2F8A2F9F2F51016201730109810E
:101D00001D810E94481544F4E22D832C942C5F869B
:101D10006D86B72DA02FF12F2E2F382D492D5F85E1
:101D20006D857B2F8A2F9F2F08E00E942215298323
:101D30003A832E2F207830E040E050E060E070E001
:101D400080E090E0A0E00E94511529F0E981FA813D
:101D50003196FA83E983F981F0932F0381E0809330
:101D60003603E984FA840B851C85E0923E03F092E9
:101D70003F030093400310934103809142039091ED
:101D80004303A0914403B091450309851A852B852F
:101D90003C85081B190B2A0B3B0BD901C801419745
:101DA000A105B10508F4F1CA80E098E70E94A603F6
:101DB00090935A038093590398728F3F984209F485
:101DC000B3C080915C038F5F80935C03833058F0D5
:101DD00084E090E090935A038093590389E08093C4
:101DE000370310925C0380913703893009F44BC0AC
:101DF0006091640370916503E0905D03F0905E0371
:101E0000FA82E9826E157F0509F095C084E690E0BC
:101E10009093630380936203A4E6B0E0A938B10510
:101E200014F0A8E8B0E02AEF36E10E94C31424E6DB
:101E300030E040E050E00E94251269017A01AFEFE6
:101E4000B0E00E941A1264557E498D40910928E83D
:101E500033E140E050E00E94251220933003AFEFC1
:101E6000BFE0A70196010E941A126455724B8A4D79
:101E7000910928E833E140E050E00E9425123093B8
:101E800032032093310390916C03913009F06DC1BE
:101E90008091DE028F5F8093DE02833008F415CCE0
:101EA0009093370312CC19821A821B821C82FCCDBC
:101EB000211531054105E0E85E07EFEF6E077E076B
:101EC0008E079E078CF020933904F0923A044093D9
:101ED0003B0410933C0460933D0470933E04809354
:101EE0003F049093400439CE1092390410923A0482
:101EF00010923B0480E880933C048FEF80933D0474
:101F000080933E0480933F048093400426CEE12CCE
:101F1000F12C87012ACE412C512C32017CCE10921B
:101F20002F03109236031DCF82E090E090935A0366
:101F30008093590356CF072E000C880B990B0E94F3
:101F4000721320E030E040EA50E40E94271420E0C1
:101F500030EC4FE754E40E94C8126B017C01098108
:101F60001A81B80190E080E00E94701320E030E018
:101F700040EA50E40E94271420E030EC4FE754E49C
:101F80000E94C8129B01AC01C701B6010E94561203
:101F900020915B03C12CD12C48E8E42E41E4F42EBF
:101FA000223029F4C12CD12CE12C31E4F32E20E095
:101FB00030E04AE754E40E9427144B015C012AE90F
:101FC00039E947E752E4C701B6010E9427149B0193
:101FD000AC01C501B4010E94C81220E030E04AE71C
:101FE00054E40E9427140E943A138B017093D90283
:101FF0006093D802613328EF72070CF404C26A3C84
:1020000038E073070CF0F6C120E0222E21E0322EDA
:1020100040E351E05A874987C12CD12C7601CB018E
:10202000770FAA0BBB0B8D839E83AF83B887A985DF
:10203000BA85ED91FD91BA87A987FA83E9830E17D6
:102040001F0771F5D1016D917C91072E000C880B53
:10205000990B0E9472136B017C01F2E02F0E311C70
:102060002EE531E049855A852417350749F020E0EF
:1020700030E0A901C701B6010E94C3128823B9F25A
:10208000C701B6010E943A13DB01709363036093AA
:102090006203643471050CF0C1CEA4E4B0E0C3CE99
:1020A000E981FA810E171F07C4F2A985BA856D91DF
:1020B0007C91601771078CF2072E000C880B990B2E
:1020C0000E9472132B013C01F10162817381072E82
:1020D000000C880B990B0E9472134B015C01D1011B
:1020E0006D917C91072E000C880B990B0E94721346
:1020F0009B01AC01C501B4010E9456126B017C0129
:10210000E981FA81BF01FF0F880B990B0E947213BE
:102110009B01AC01C301B2010E9456129B01AC01AC
:10212000C701B6010E94C8126B017C01AC019B0182
:10213000C301B2010E9427149B01AC01C501B40187
:102140000E9456124B015C016D817E818F819885C2
:102150000E947213A70196010E9427149B01AC01F3
:10216000C501B4010E94571276CF1092DE02ADCAAB
:1021700084E690E090936303809362038EE997E096
:10218000909332038093310389E780933003109258
:102190002F0340913A0350913B0360913C037091AF
:1021A0003D0380914E0390914F03A0915003B09155
:1021B00051037A018B01E81AF90A0A0B1B0BD801AB
:1021C000C701843F9140A105B105C8F08091590332
:1021D00090915A03049759F49091350321E0922786
:1021E0009093350380913603822780933603409382
:1021F0004E0350934F0360935003709351038091AB
:102200006C03813009F0C1C8CDCB80910703909158
:102210000803A0910903B0910A03892B8A2B8B2B09
:1022200009F4FBC80E949202009107031091080371
:102230002091090330910A036C197D098E099F09C9
:10224000061717072807390708F0E7C88091060323
:102250000E94FC0210922C0310922B0310922E036A
:1022600080913A0390913B03A0913C03B0913D03D0
:1022700040914A0350914B0360914C0370914D0380
:10228000841B950BA60BB70B86399105A105B105EB
:1022900008F46AC090913703913029F48091350396
:1022A00089278093350381E392E00E94C1038091E6
:1022B00037030FE0809FC0011124805A9E4F0E9477
:1022C000C1038AE292E00E94C10387E392E00E9488
:1022D000C1036091540370915503072E000C880BC5
:1022E000990B0E94721320E030E04AE754E40E9408
:1022F000C81242E00E9412048AE292E00E94C103E6
:102300008091590390915A0398728F3F984209F037
:1023100063C08FE392E00E94C103609162037091F9
:102320006303072E000C880B990B0E94721320E0A8
:1023300030E048EC52E40E94C81242E00E941204CD
:102340008AE292E00E94C10380913A0390913B039C
:10235000A0913C03B0913D0380934A0390934B03BB
:10236000A0934C03B0934D0380E090E0892B11F4CF
:102370000C94EF080E94F800882311F40C94EF08E5
:102380000E9400000C94EF089D9191938F5F5CC8B0
:1023900085EE98C88091070390910803A0910903E6
:1023A000B0910A03892B8A2B8B2B09F491C80E94C8
:1023B00092020091070310910803209109033091C4
:1023C0000A036C197D098E099F090617170728074C
:1023D000390708F07DC83ACF87E492E00E94C10334
:1023E0006091590370915A0390E080E040E10E94AF
:1023F000CE03A6CF83EF93E09093630380936203B1
:10240000A3EFB3E00BCD81E490E09093630380935E
:10241000620343CEDC01CB01FC01F999FECF06C07B
:10242000F2BDE1BDF89A319600B40D924150504092
:10243000B8F708950E944712A59F900DB49F900D84
:10244000A49F800D911D11240895A1E21A2EAA1BAC
:10245000BB1BFD010DC0AA1FBB1FEE1FFF1FA21754
:10246000B307E407F50720F0A21BB30BE40BF50B51
:10247000661F771F881F991F1A9469F760957095DA
:10248000809590959B01AC01BD01CF010895A29F5D
:10249000B001B39FC001A39F700D811D1124911D38
:1024A000B29F700D811D1124911D08955058BB27B6
:1024B000AA270E946E120C94E8130E94DA1338F0D7
:1024C0000E94E11320F039F49F3F19F426F40C9494
:1024D000D7130EF4E095E7FB0C94D113E92F0E947B
:1024E000F91358F3BA17620773078407950720F0AA
:1024F00079F4A6F50C941B140EF4E0950B2EBA2F6C
:10250000A02D0B01B90190010C01CA01A0011124F9
:10251000FF27591B99F0593F50F4503E68F11A16A5
:10252000F040A22F232F342F4427585FF3CF469536
:1025300037952795A795F0405395C9F77EF41F1658
:10254000BA0B620B730B840BBAF09150A1F0FF0F22
:10255000BB1F661F771F881FC2F70EC0BA0F621F0E
:10256000731F841F48F4879577956795B795F795FE
:102570009E3F08F0B0CF9395880F08F09927EE0F93
:102580009795879508950E94AD1308F481E008950A
:102590000E94DC120C94E8130E94E11358F00E9490
:1025A000DA1340F029F45F3F29F00C94D113511154
:1025B0000C941C140C94D7130E94F91368F39923FC
:1025C000B1F3552391F3951B550BBB27AA2762172F
:1025D0007307840738F09F5F5F4F220F331F441F3C
:1025E000AA1FA9F335D00E2E3AF0E0E832D0915070
:1025F0005040E695001CCAF72BD0FE2F29D0660F5D
:10260000771F881FBB1F261737074807AB07B0E89F
:1026100009F0BB0B802DBF01FF2793585F4F3AF0A5
:102620009E3F510578F00C94D1130C941C145F3F1D
:10263000E4F3983ED4F3869577956795B795F7952B
:102640009F5FC9F7880F911D9695879597F9089513
:10265000E1E0660F771F881FBB1F621773078407AF
:10266000BA0720F0621B730B840BBA0BEE1F88F7BE
:10267000E09508950E9441136894B1110C941C14C4
:1026800008950E94011488F09F5798F0B92F992758
:10269000B751B0F0E1F0660F771F881F991F1AF04D
:1026A000BA95C9F714C0B13091F00E941B14B1E083
:1026B00008950C941B14672F782F8827B85F39F082
:1026C000B93FCCF3869577956795B395D9F73EF4E6
:1026D00090958095709561957F4F8F4F9F4F08958E
:1026E000E89409C097FB3EF49095809570956195AC
:1026F0007F4F8F4F9F4F9923A9F0F92F96E9BB2762
:102700009395F695879577956795B795F111F8CFDD
:10271000FAF4BB0F11F460FF1BC06F5F7F4F8F4F48
:102720009F4F16C0882311F096E911C0772321F03E
:102730009EE8872F762F05C0662371F096E8862FD6
:1027400070E060E02AF09A95660F771F881FDAF72D
:10275000880F9695879597F90895990F0008550F5A
:10276000AA0BE0E8FEEF16161706E807F907C0F017
:1027700012161306E407F50798F0621B730B840B1F
:10278000950B39F40A2661F0232B242B252B21F4F9
:1027900008950A2609F4A140A6958FEF811D811D99
:1027A000089597F99F6780E870E060E008959FEFD3
:1027B00080EC089500240A941616170618060906D8
:1027C000089500240A9412161306140605060895A7
:1027D000092E0394000C11F4882352F0BB0F40F42F
:1027E000BF2B11F460FF04C06F5F7F4F8F4F9F4F6F
:1027F000089557FD9058440F551F59F05F3F71F0F1
:102800004795880F97FB991F61F09F3F79F0879557
:102810000895121613061406551FF2CF4695F1DFE0
:1028200008C0161617061806991FF1CF8695710570
:10283000610508940895E894BB2766277727CB01A4
:1028400097F908950E94AD1308F48FEF08950E9440
:102850003A140C94E8130E94DA1338F00E94E11342
:1028600020F0952311F00C94D1130C94D71311245C
:102870000C941C140E94F91370F3959FC1F3950FEB
:1028800050E0551F629FF001729FBB27F00DB11DF4
:10289000639FAA27F00DB11DAA1F649F6627B00D84
:1028A000A11D661F829F2227B00DA11D621F739F6D
:1028B000B00DA11D621F839FA00D611D221F749F7B
:1028C0003327A00D611D231F849F600D211D822FC2
:1028D000762F6A2F11249F5750409AF0F1F08823E9
:1028E0004AF0EE0FFF1FBB1F661F771F881F915016
:1028F0005040A9F79E3F510580F00C94D1130C94E1
:102900001C145F3FE4F3983ED4F386957795679562
:10291000B795F795E7959F5FC1F7FE2B880F911D3F
:102920009695879597F908950E94AD13880B990B9A
:102930000895DB018F939F930E941A12BF91AF916C
:10294000A29F800D911DA39F900DB29F900D112409
:102950000895AA1BBB1B51E107C0AA1FBB1FA617E6
:10296000B70710F0A61BB70B881F991F5A95A9F738
:1029700080959095BC01CD010895EE0FFF1F059045
:10298000F491E02D09940E944712B7FF0895821B2D
:10299000930B0895DF93CF931F930F939A9DF02D80
:1029A000219FF00D8B9DF00D8A9DE02DF10D039F71
:1029B000F00D029FE00DF11D4E9DE00DF11D5E9D9D
:1029C000F00D4F9DF00D7F936F93BF92AF925F9389
:1029D0004F93D5010E9447128B01AC01D7010E9491
:1029E0004712EB01E80FF91FD6010E9419152F912C
:1029F0003F91D6010E944712C60FD71FE81FF91F4B
:102A0000AF91BF910E9419152F913F910E944712DB
:102A1000C60FD71FE81FF91FD6010E944712E60F05
:102A2000F71F9801BE01CF010F911F91CF91DF9148
:102A300008950E944712460F571FC81FD91F08F458
:102A40003196089597FD1094002E083098F00850A4
:102A5000232F342F452F562F672F782F892F912D15
:102A6000F4CF1594979587957795679557954795E2
:102A7000379527950A95AAF71124002D08952A0D58
:102A80003B1D4C1D5D1D6E1D7F1D801F911F0895F8
:102A90002A153B054C055D056E057F0580079107EE
:102AA00008950024A7FD00942A173005400550051D
:102AB00060057005800590050895F894FFCF4100EA
:102AC00046004B005000520055005A005F00610064
:102AD00063006400650069006E00710075008E007F
:102AE000AA00C700F30055011B02EE02F30330F801
:102AF000BEF925FB61FCE0FC74FD6BFE49FF96FF0F
:102B0000D8FF00000F006100C100FA0049019F02D8
:102B1000AA037E046905A406D0076608CA08494EC0
:102B200056414C494400000000000000005052454E
:102B3000534554000000000000000000535441526F
:102B4000540000000000000000000043414C4942D6
:102B5000524154494F4E0000000049444C4500008A
:102B6000000000000000000000434F4E44454E535B
:102B70004154494F4E0000005052454845415400D1
:102B80000000000000000050494400000000000068
:102B900000000000000052554E4E494E4700000014
:102BA00000000000004552524F520000000000009B
:102BB00000000000000000002E018E00BB007B0121
:102BC000EC00CA00DE000000000074034703A3030A
:102BD0001D0340032D031E036E616E00696E6600C7
:102BE0006F76660055413A000D0A0055523A004D85
:102BF0006F64653A00537570706C793A004C616D82
:0A2C00006264613A00436A3A000082
:107E0000112484B714BE81FFF0D085E080938100F7
:107E100082E08093C00088E18093C10086E0809377
:107E2000C20080E18093C4008EE0C9D0259A86E02C
:107E300020E33CEF91E0309385002093840096BBD3
:107E4000B09BFECF1D9AA8958150A9F7CC24DD24C4
:107E500088248394B5E0AB2EA1E19A2EF3E0BF2EE7
:107E6000A2D0813461F49FD0082FAFD0023811F036
:107E7000013811F484E001C083E08DD089C08234E0
:107E800011F484E103C0853419F485E0A6D080C0E4
:107E9000853579F488D0E82EFF2485D0082F10E0AE
:107EA000102F00270E291F29000F111F8ED06801E7
:107EB0006FC0863521F484E090D080E0DECF843638
:107EC00009F040C070D06FD0082F6DD080E0C81688
:107ED00080E7D80618F4F601B7BEE895C0E0D1E017
:107EE00062D089930C17E1F7F0E0CF16F0E7DF06D8
:107EF00018F0F601B7BEE89568D007B600FCFDCFD4
:107F0000A601A0E0B1E02C9130E011968C91119780
:107F100090E0982F8827822B932B1296FA010C0160
:107F200087BEE89511244E5F5F4FF1E0A038BF0790
:107F300051F7F601A7BEE89507B600FCFDCF97BE46
:107F4000E89526C08437B1F42ED02DD0F82E2BD052
:107F50003CD0F601EF2C8F010F5F1F4F84911BD097
:107F6000EA94F801C1F70894C11CD11CFA94CF0C13
:107F7000D11C0EC0853739F428D08EE10CD085E9AC
:107F80000AD08FE07ACF813511F488E018D01DD067
:107F900080E101D065CF982F8091C00085FFFCCF94
:107FA0009093C60008958091C00087FFFCCF809118
:107FB000C00084FD01C0A8958091C6000895E0E648
:107FC000F0E098E1908380830895EDDF803219F02E
:107FD00088E0F5DFFFCF84E1DECF1F93182FE3DFCA
:107FE0001150E9F7F2DF1F91089580E0E8DFEE27F6
:047FF000FF270994CA
:027FFE00040479
:00000001FF
