:100000000C94CA0E0C948FCA0C9464CA0C9439CA0E
:100010000C940ECA0C94E3C90C94B8C90C948DC905
:100020000C9462C90C94FB0E0C94FB0E0C94FB0E0A
:100030000C94FB0E0C94FB0E0C94FB0E0C94F0D560
:100040000C94FB0E0C9445970C9435950C941D6301
:100050000C94FB0E0C94FB0E0C94FB0E0C9418C924
:100060000C94FB0E0C94CAC70C94A0C70C94FB0E06
:100070000C94FB0E0C94FB0E0C94FB0E0C94FB0EDC
:100080000C94BC4B0C94364B0C94B04A0C94FB0E65
:100090000C94FB0E0C94FB0E0C94FB0E0C94FB0EBC
:1000A0000C94FB0E0C94FB0E0C94A3470C942A4A60
:1000B0000C9408470C94FB0E0C94FB0E0C94864990
:1000C0000C94E2480C943E480C94FB0E0C94FB0EEE
:1000D0000C94FB0E0C94FB0E0C946AC70C9440C756
:1000E0000C94FB0E0C94197C0C9452790C947A0F9E
:1000F0000C94028E0C946F3E0C94A6790C941430E0
:100100000C94828C0C9431120C9407C00C94788C53
:100110000C9414110C9429C00C947FB40C94799114
:100120000C94CC120C94098C0C94F52F0C943B1469
:100130000C946CB40C94BF7C0C943CEE0C94AB2FE0
:100140000C945F7F0C942DC00C94E7540C940A79A6
:100150000C9484130C948A1A0C945F820C941F9252
:100160000C944E7F0C94E8790C94076E0C94A43098
:100170000C94D97B0C94D2B20C94FC180C94E92FFB
:100180000C947E300C941B150C9408300C9482193E
:100190000C948A0F0C94E00F0C94AE190C94382038
:1001A0000C94982F0C945D8E0C941A8D0C9487806F
:1001B0000C94096E0C94EF790C94B82E0C94B18EBB
:1001C0000C949F790C94877E0C94513E0C9448308B
:1001D0000C94CE120C9419950C94428D0C94F57ECF
:1001E0000C9491300C949F920C940DC00C94F22EB0
:1001F0000C9402820C94DDCA0C947A140C94D46E84
:100200000C944C270C9415C00C94BDBE0C948B30F0
:100210000C949E8D0C94CD0F0C94793D0C948D57BD
:100220000C9411C00C9474910C94F80F0C9427301A
:100230000C94976F0C948A940C94DC0F0C94AD3E44
:100240000C94CA300C9445220C9459790C94B72F15
:100250000C944E2F0C94878E0C94E80F0C9490BE47
:100260000C94638D0C9444590C94FD0E0C947830CE
:100270000C94088F0C94D28C0C9479EB0C94E7902E
:100280000C9473120C9401900C9428CB0C94D4937E
:100290000C9474120C94162D0C9476530C94331FFA
:1002A0000C94431B0C940F100C94376D0C94641930
:1002B0000C945E250C947DBF0C943B2F0C94CC8C3D
:1002C0000C94CCBE0C94EF280C9439120C94FA9038
:1002D0000C94FC1D0C94DF550C94EEBE0C94EF5660
:1002E0000C9456CB0C94FEDA0C94396A0C94F8EA10
:1002F0000C9460440C9486190C94D68B0C94D38B7C
:100300000C94E6510C9453920C9438300C948C91CC
:100310000C94AD0F0C94FA360C949DB20C94813869
:100320000C94316F0C94AA8C0C94E40F0C941E95D1
:100330000C94DBCA0C94D1390C94A06A0C94A48C54
:100340000C94F31A0C94FD6F0C94E9500C949D508E
:100350000C94E8BF0C9498B40C94E83A0C94147D77
:100360000C945F7E0C94B1930C94F0810C946558BE
:100370000C94DFCA0C9422190C947FB20C941BC00D
:100380000C94760F0C94722B0C943DCB0C94A96DAD
:100390000C94742A0C9427420C94A90F0C94937B10
:1003A0000C944E300C945C7E0C94DD530C940F40F6
:1003B0000C94378C0C9414900C948D3E0C94056B1B
:1003C0000C94B10F0C94C4300C9429260C9400109A
:1003D0000C947E190C9428C00C94F5810C94751221
:1003E0000C94EB7C0C947D8F0C94D0930C94D19254
:1003F0000C9403C00C9423C00C94208D0C9407CB58
:100400000C9469210C94F6BF0C94223C0C94920F2E
:100410000C94AA7A0C94E0BE0C94CD120C94E711C3
:100420000C94FE0E0C9439ED0C9469820C945A7F56
:100430000C94B1300C947C8E0C94630F0C94796BFB
:100440000C94323E0C94E1270C948E0F0C94C10F47
:100450000C946D2F0C948C7B0C94670F0C94C0241F
:100460000C94273D0C944B890C9431C00C94D552BC
:100470000C94177D0C948F910C94E7CA0C94E3EDC7
:100480000C94D9570C94F2BF0C94D62F0C94B24E06
:100490000C9445560C94A58D0C9421540C943F1249
:1004A0000C9434130C9430BF0C946C7F0C940D930B
:1004B0000C94A50F0C9483130C94232C0C94FC0F18
:1004C0000C94C36C0C94AA190C9488820C94771B1E
:1004D0000C9446110C94683F0C947C7C0C949E30D8
:1004E0000C9465300C941BCB0C942F230C94698DC9
:1004F0000C94C90F0C94C50F0C9468550C949C92E5
:100500000C94857B0C94E5CA0C94B7300C9464343D
:100510000C9464910C94A5ED0C9411940C940FCB55
:100520000C941C920C940F240C94471A0C94133EB8
:100530000C94DF260C945B6C0C94DA920C94EC8B8C
:100540000C94ED6B0C94766E0C94E3CA0C948C2F87
:100550000C94792F0C94B78B0C947AEC0C94CE43BA
:100560000C94AF7E0C94D0CA0C94DFEB0C94145016
:100570000C9485130C94814F0C94530F0C94098E9A
:100580000C9432950C94B1400C941FC00C94EEBFA7
:100590000C94AA7D0C94597E0C9484190C943A12F4
:1005A0000C9492910C94731A0C9404920C94960FE0
:1005B0000C945A2F0C94F38C0C94A9130C94543073
:1005C0000C942F2F0C9479140C94BE8B0C94171050
:1005D0000C94148D0C94BB7C0C94CA2F0C94FABF11
:1005E0000C9449CB0C94E87C0C9413100C94FDBF34
:1005F0000C9440120C948A190C94771A0C94881954
:100600000C94F43D537065656475696E6F005370AA
:1006100065656475696E6F20323031392E30382D42
:1006200073657200537065656475696E6F206373DE
:100630007830323031392E380020202020000A5006
:1006400061676520686173206E6F74206265656EF6
:1006500020696D706C656D656E7465642079657474
:10066000000A5061676520686173206E6F742062B4
:1006700065656E20696D706C656D656E746564206E
:10068000796574000A5061676520686173206E6F38
:1006900074206265656E20696D706C656D656E7441
:1006A0006564207965740020000A5645204D61700C
:1006B000000A5067203120436F6E666967000A495F
:1006C000676E6974696F6E204D6170000A50672013
:1006D0003220436F6E666967000A414652204D61C1
:1006E00070000A5067203320436F6E666967000A06
:1006F0005067203420436F6E666967000A426F6F4F
:100700007374204D6170000A565654204D6170007C
:100710000A506720313020436F6E666967000A32E5
:100720006E64204675656C204D6170000A574D4916
:10073000204D6170000A5072676D20494F000A3DDC
:100740003D3D436F6D6D616E642048656C703D3D4D
:100750003D0A0A416C6C20636F6D6D616E6473209D
:100760006172652073696E676C6520636861726190
:100770006374657220616E642061726520636F6EC0
:10078000636174656E617465642077697468207450
:100790006865697220706172616D6574657273203D
:1007A0000A776974686F7574207370616365732E5E
:1007B00053796E7461783A20203C636F6D6D616E81
:1007C000643E2B3C706172616D65746572313E2BC5
:1007D0003C706172616D65746572323E2B3C706174
:1007E00072616D657465724E3E0A0A3D3D3D4C690D
:1007F0007374206F6620436F6D6D616E64733D3D51
:100800003D0A0A41202D20446973706C6179732080
:100810003331206279746573206F6620637572725C
:10082000656E745374617475732076616C7565734D
:1008300020696E2062696E61727920286C69766524
:100840002064617461290A42202D204275726E2055
:1008500063757272656E74206D617020616E6420C4
:10086000636F6E666967506167652076616C756558
:100870007320746F20656570726F6D0A43202D20A0
:100880005465737420434F4D20706F72742E202076
:10089000557365642062792054756E657273747542
:1008A00064696F20746F207365652077686574686C
:1008B000657220616E20454355206973206F6E205C
:1008C0006120676976656E2073657269616C200AC4
:1008D00020202020706F72742E2052657475726E05
:1008E0007320612062696E617279206E756D626538
:1008F000722E0A4E202D205072696E74206E65771C
:10090000206C696E652E0A50202D2053657420637B
:10091000757272656E7420706167652E2020537940
:100920006E7461783A2020502B3C706167654E757B
:100930006D6265723E0A52202D2053616D65206103
:1009400073204120636F6D6D616E640A53202D200A
:10095000446973706C6179207369676E6174757234
:1009600065206E756D6265720A51202D2053616D90
:1009700065206173205320636F6D6D616E640A564C
:10098000202D20446973706C6179206D6170206F37
:100990007220636F6E666967506167652076616C6F
:1009A00075657320696E2062696E6172790A5720DD
:1009B0002D20536574206F6E6520627974652069FF
:1009C0006E206D6170206F7220636F6E6669675074
:1009D0006167652E202045787065637473206269B5
:1009E0006E61727920706172616D65746572732ECB
:1009F000200A2020202053796E7461783A202057F5
:100A00002B3C6F66667365743E2B3C6E657762792E
:100A100074653E0A74202D205365742063616C69EF
:100A200062726174696F6E2076616C7565732E20D9
:100A300020457870656374732062696E61727920F5
:100A4000706172616D65746572732E2020546162ED
:100A50006C6520696E6465782069732065697468C7
:100A6000657220302C200A20202020312C206F722B
:100A700020322E202053796E7461783A2020742B16
:100A80003C74626C655F6964783E2B3C6E6577569A
:100A9000616C7565313E2B3C6E657756616C756592
:100AA000323E2B3C6E657756616C75654E3E0A5A38
:100AB000202D20446973706C61792063616C6962D8
:100AC000726174696F6E2076616C7565730A54206B
:100AD0002D20446973706C6179732032353620742F
:100AE0006F6F7468206C6F6720656E7472696573D0
:100AF00020696E2062696E6172790A72202D20442D
:100B00006973706C6179732032353620746F6F743D
:100B100068206C6F6720656E74726965730A552072
:100B20002D205072657061726520666F7220666953
:100B3000726D77617265207570646174652E2054E2
:100B40006865206E657874206279746520726563CB
:100B500065697665642077696C6C2063617573657F
:100B6000207468652041726475696E6F20746F200F
:100B700072657365742E0A3F202D20446973706C72
:100B800061797320746869732068656C7020706186
:100B90006765002C2000575545004F3200496E6CA8
:100BA00065742074656D7000436F6F6C616E7400C6
:100BB000526573657420636F6E74726F6C20697315
:100BC0002063757272656E746C79206469736162FA
:100BD0006C65642E00436F6D6D732068616C746585
:100BE000642E204E65787420627974652077696C74
:100BF0006C20726573657420746865204172647539
:100C0000696E6F2E00537065656475696E6F203272
:100C10003032302E303800737065656475696E6FE0
:100C20002032303230303800303031000A506167C5
:100C30006520686173206E6F74206265656E20693F
:100C40006D706C656D656E74656420796574000AFD
:100C50005061676520686173206E6F7420626565FE
:100C60006E20696D706C656D656E74656420796564
:100C7000740000002100240027002A002D0030000D
:100C8000330001010000040107010A0100000A0B02
:100C900002090C0D0E08070304010000000000000B
:100CA0000000000000000000000000000000000044
:100CB0000000000000000000121110000000000001
:100CC0000000000000000000000000000000000024
:100CD0000000000020002300260029002C002F0027
:100CE0003200000100000301060109010102102089
:100CF0002008081020401020408002010201080452
:100D000002010102040810204080804020100804E5
:100D1000020180040201804020100804020108043E
:100D20000201010204081020408001020408102082
:100D3000408000002200250028002B002E003100FA
:100D4000340002010000050108010B01050505053D
:100D5000070508080808020202020A0A0808040433
:100D60000404010101010101010103030303030361
:100D70000303040707070C0C0C0C0C0C0C0C0202F0
:100D8000020206060606060606060B0B0B0B0B0BED
:100D90000B0B00000000963007772C610EEEBA5165
:100DA000099919C46D078FF46A7035A563E9A39595
:100DB000649E3288DB0EA4B8DC791EE9D5E088D9C0
:100DC000D2972B4CB609BD7CB17E072DB8E7911D9B
:100DD000BF906410B71DF220B06A4871B9F3DE41CC
:100DE000BE847DD4DA1AEBE4DD6D51B5D4F4C78549
:100DF000D38356986C13C0A86B647AF962FDECC972
:100E0000658A4F5C0114D96C0663633D0FFAF50DDA
:100E1000088DC8206E3B5E10694CE44160D572714C
:100E200067A2D1E4033C47D4044BFD850DD26BB5DA
:100E30000AA5FAA8B5356C98B242D6C9BBDB40F911
:100E4000BCACE36CD832755CDF45CF0DD6DC593DC8
:100E5000D1ABAC30D9263A00DE518051D7C81661EB
:100E6000D0BFB5F4B42123C4B3569995BACF0FA51A
:100E7000BDB89EB802280888055FB2D90CC624E91F
:100E80000BB1877C6F2F114C6858AB1D61C13D2D94
:100E900066B69041DC760671DB01BC20D2982A1040
:100EA000D5EF8985B1711FB5B606A5E4BF9F33D4D0
:100EB000B8E8A2C9077834F9000F8EA809961898E7
:100EC0000EE1BB0D6A7F2D3D6D08976C6491015C4E
:100ED00063E6F4516B6B62616C1CD83065854E0023
:100EE00062F2ED95066C7BA5011BC1F4088257C424
:100EF0000FF5C6D9B06550E9B712EAB8BE8B7C8849
:100F0000B9FCDF1DDD62492DDA15F37CD38C654C0D
:100F1000D4FB5861B24DCE51B53A7400BCA3E23057
:100F2000BBD441A5DF4AD795D83D6DC4D1A4FBF40D
:100F3000D6D36AE96943FCD96E34468867ADD0B828
:100F400060DA732D0444E51D03335F4C0AAAC97CA3
:100F50000DDD3C710550AA41022710100BBE862002
:100F60000CC925B56857B3856F2009D466B99FE4CD
:100F700061CE0EF9DE5E98C9D9292298D0B0B4A806
:100F8000D7C7173DB359810DB42E3B5CBDB7AD6CCF
:100F9000BAC02083B8EDB6B3BF9A0CE2B6039AD2BA
:100FA000B1743947D5EAAF77D29D1526DB04831695
:100FB000DC73120B63E3843B64943E6A6D0DA85AA4
:100FC0006A7A0BCF0EE49DFF099327AE000AB19E0B
:100FD000077D44930FF0D2A3088768F2011EFEC27A
:100FE00006695D5762F7CB67658071366C19E70655
:100FF0006B6E761BD4FEE02BD3895A7ADA10CC4A7A
:10100000DD676FDFB9F9F9EFBE8E43BEB717D58E36
:10101000B060E8A3D6D67E93D1A1C4C2D83852F22C
:10102000DF4FF167BBD16757BCA6DD06B53F4B3636
:10103000B248DA2B0DD84C1B0AAFF64A0336607A59
:101040000441C3EF60DF55DF67A8EF8E6E3179BED4
:1010500069468CB361CB1A8366BCA0D26F2536E299
:10106000685295770CCC03470BBBB91602222F268A
:101070000555BE3BBAC5280BBDB2925AB42B046AC3
:10108000B35CA7FFD7C231CFD0B58B9ED92C1DAE94
:10109000DE5BB0C2649B26F263EC9CA36A750A9384
:1010A0006D02A906099C3F360EEB85670772135740
:1010B0000005824ABF95147AB8E2AE2BB17B381B8B
:1010C000B60C9B8ED2920DBED5E5B7EFDC7C21DF4E
:1010D000DB0BD4D2D38642E2D4F1F8B3DD686E8361
:1010E000DA1FCD16BE815B26B9F6E177B06F774780
:1010F000B718E65A0888706A0FFFCA3B06665C0B91
:101100000111FF9E658F69AE62F8D3FF6B6145CF19
:101110006C1678E20AA0EED20DD75483044EC2B307
:101120000339612667A7F71660D04D476949DB7719
:101130006E3E4A6AD1AEDC5AD6D9660BDF40F03B30
:10114000D83753AEBCA9C59EBBDE7FCFB247E9FFFF
:10115000B5301CF2BDBD8AC2BACA3093B353A6A340
:10116000B4240536D0BA9306D7CD2957DE54BF67CD
:10117000D9232E7A66B3B84A61C4021B685D942BEA
:101180006F2A37BE0BB4A18E0CC31BDF055A8DEF3F
:10119000022D0000000041311B1982623632C35318
:1011A0002D2B04C56C6445F4777D86A75A56C796E7
:1011B000414F088AD9C849BBC2D18AE8EFFACBD9D6
:1011C000F4E30C4FB5AC4D7EAEB58E2D839ECF1C97
:1011D00098875112C24A1023D953D370F4789241A0
:1011E000EF6155D7AE2E14E6B537D7B5981C968467
:1011F000830559981B8218A9009BDBFA2DB09ACB66
:1012000036A95D5D77E61C6C6CFFDF3F41D49E0E16
:101210005ACDA2248495E3159F8C2046B2A761770E
:10122000A9BEA6E1E8F1E7D0F3E82483DEC365B206
:10123000C5DAAAAE5D5DEB9F464428CC6B6F69FDB5
:101240007076AE6B3139EF5A2A202C09070B6D38B6
:101250001C12F33646DFB2075DC6715470ED30657F
:101260006BF4F7F32ABBB6C231A275911C8934A086
:101270000790FBBC9F17BA8D840E79DEA92538EF45
:10128000B23CFF79F373BE48E86A7D1BC5413C2A36
:10129000DE58054F79F0447E62E9872D4FC2C61CA7
:1012A00054DB018A159440BB0E8D83E823A6C2D976
:1012B00038BF0DC5A0384CF4BB218FA7960ACE9637
:1012C0008D130900CC5C4831D7458B62FA6ECA5346
:1012D000E177545DBBBA156CA0A3D63F8D88970EFD
:1012E00096915098D7DE11A9CCC7D2FAE1EC93CBF6
:1012F000FAF55CD762721DE6796BDEB554409F84C7
:101300004F5958120E161923150FDA7038249B41C5
:10131000233DA76BFD65E65AE67C2509CB5764386B
:10132000D04EA3AE9101E29F8A1821CCA73360FD75
:10133000BC2AAFE124ADEED03FB42D83129F6CB236
:101340000986AB2448C9EA1553D029467EFB687745
:1013500065E2F6793F2FB7482436741B091D352AFC
:101360001204F2BC534BB38D485270DE657931EFF5
:101370007E60FEF3E6E7BFC2FDFE7C91D0D53DA0C6
:10138000CBCCFA368A83BB07919A7854BCB13965C5
:10139000A7A84B98833B0AA99822C9FAB50988CB1C
:1013A000AE104F5DEF5F0E6CF446CD3FD96D8C0EE5
:1013B000C27443125AF3022341EAC1706CC18041E6
:1013C00077D847D7369706E62D8EC5B500A5848415
:1013D0001BBC1A8A41715BBB5A6898E87743D9D91C
:1013E0006C5A1E4F2D155F7E360C9C2D1B27DD1C65
:1013F000003E120098B9533183A09062AE8BD15356
:10140000B59216C5F4DD57F4EFC494A7C2EFD59694
:10141000D9F6E9BC07AEA88D1CB76BDE319C2AEF6C
:101420002A85ED796BCAAC4870D36F1B5DF82E2A04
:1014300046E1E136DE66A007C57F6354E8542265C5
:10144000F34DE5F3B202A4C2A91B6791843026A034
:101450009F29B8AEC5E4F99FDEFD3ACCF3D67BFDFB
:10146000E8CFBC6BA980FD5AB2993E099FB27F3884
:1014700084ABB0241C2CF115073532462A1E737735
:101480003107B4E17048F5D06B513683467A77B2B4
:101490005D634ED7FACB0FE6E1D2CCB5CCF98D84A3
:1014A000D7E04A1296AF0B238DB6C870A09D894134
:1014B000BB84465D2303076C381AC43F1531850E83
:1014C0000E2842984F6703A9547EC0FA795581CB04
:1014D000624C1FC538815EF423989DA70EB3DC963D
:1014E00015AA1B0054E55A314FFC996262D7D853B4
:1014F00079CE174FE149567EFA50952DD77BD41CF3
:10150000CC62138A8D2D52BB963491E8BB1FD0D983
:10151000A006ECF37E5EADC265476E91486C2FA0CD
:101520005375E836123AA90709236A5424082B6533
:101530003F11E479A796A548BC8F661B91A4272A82
:101540008ABDE0BCCBF2A18DD0EB62DEFDC023EF03
:10155000E6D9BDE1BC14FCD0A70D3F838A267EB23C
:10156000913FB924D070F815CB693B46E6427A77B3
:10157000FD5BB56B65DCF45A7EC5370953EE7638F2
:1015800048F7B1AE09B8F09F12A133CC3F8A72FD83
:10159000249300000000376AC2016ED4840359BE50
:1015A0004602DCA80907EBC2CB06B27C8D04851687
:1015B0004F05B851130E8F3BD10FD685970DE1EF34
:1015C000550C64F91A095393D8080A2D9E0A3D4711
:1015D0005C0B70A3261C47C9E41D1E77A21F291DA2
:1015E000601EAC0B2F1B9B61ED1AC2DFAB18F5B56B
:1015F0006919C8F23512FF98F713A626B111914C5C
:101600007310145A3C152330FE147A8EB8164DE42C
:101610007A17E0464D38D72C8F398E92C93BB9F8EE
:101620000B3A3CEE443F0B84863E523AC03C655038
:10163000023D58175E366F7D9C3736C3DA3501A9F7
:10164000183484BF5731B3D59530EA6BD332DD01FE
:10165000113390E56B24A78FA925FE31EF27C95BD5
:101660002D264C4D62237B27A0222299E62015F3DC
:10167000242128B4782A1FDEBA2B4660FC29710A7F
:101680003E28F41C712DC376B32C9AC8F52EADA25A
:10169000372FC08D9A70F7E75871AE591E73993382
:1016A000DC721C2593772B4F517672F11774459B92
:1016B000D57578DC897E4FB64B7F16080D7D21628B
:1016C000CF7CA4748079931E4278CAA0047AFDCAA4
:1016D000C67BB02EBC6C87447E6DDEFA386FE99015
:1016E000FA6E6C86B56B5BEC776A025231683538FE
:1016F000F369087FAF623F156D6366AB2B6151C123
:10170000E960D4D7A665E3BD6464BA0322668D6937
:10171000E06720CBD74817A115494E1F534B797569
:10172000914AFC63DE4FCB091C4E92B75A4CA5DDA3
:10173000984D989AC446AFF00647F64E4045C124EE
:1017400082444432CD4173580F402AE649421D8CF1
:101750008B435068F154670233553EBC755709D628
:10176000B7568CC0F853BBAA3A52E2147C50D57ECF
:10177000BE51E839E25ADF53205B86ED6659B187E6
:10178000A4583491EB5D03FB295C5A456F5E6D2FC5
:10179000AD5F801B35E1B771F7E0EECFB1E2D9A5BF
:1017A00073E35CB33CE66BD9FEE73267B8E5050D41
:1017B0007AE4384A26EF0F20E4EE569EA2EC61F45C
:1017C00060EDE4E22FE8D388EDE98A36ABEBBD5C4F
:1017D00069EAF0B813FDC7D2D1FC9E6C97FEA9064A
:1017E00055FF2C101AFA1B7AD8FB42C49EF975AE2D
:1017F0005CF848E900F37F83C2F2263D84F011577C
:1018000046F1944109F4A32BCBF5FA958DF7CDFF62
:101810004FF6605D78D95737BAD80E89FCDA39E3CC
:101820003EDBBCF571DE8B9FB3DFD221F5DDE54BEE
:1018300037DCD80C6BD7EF66A9D6B6D8EFD481B217
:101840002DD504A462D033CEA0D16A70E6D35D1A40
:1018500024D210FE5EC527949CC47E2ADAC6494075
:1018600018C7CC5657C2FB3C95C3A282D3C195E89A
:1018700011C0A8AF4DCB9FC58FCAC67BC9C8F11197
:101880000BC9740744CC436D86CD1AD3C0CF2DB994
:1018900002CE4096AF9177FC6D902E422B92192884
:1018A000E9939C3EA696AB546497F2EA2295C580D4
:1018B000E094F8C7BC9FCFAD7E9E9613389CA1796B
:1018C000FA9D246FB598130577994ABB319B7DD15A
:1018D000F39A3035898D075F4B8C5EE10D8E698BF5
:1018E000CF8FEC9D808ADBF7428B82490489B52338
:1018F000C68888649A83BF0E5882E6B01E80D1DA0B
:10190000DC8154CC938463A651853A1817870D72F5
:10191000D586A0D0E2A997BA20A8CE0466AAF96E0F
:10192000A4AB7C78EBAE4B1229AF12AC6FAD25C6E1
:10193000ADAC1881F1A72FEB33A6765575A4413FC6
:10194000B7A5C429F8A0F3433AA1AAFD7CA39D97AB
:10195000BEA2D073C4B5E71906B4BEA740B689CD00
:1019600082B70CDBCDB23BB10FB3620F49B1556505
:101970008BB06822D7BB5F4815BA06F653B8319CC6
:1019800091B9B48ADEBC83E01CBDDA5E5ABFED3487
:1019900098BE000000006567BCB88BC809AAEEAF0E
:1019A000B5125797628F32F0DE37DC5F6B25B9389E
:1019B000D79DEF28B4C58A4F087D64E0BD6F0187CD
:1019C00001D7B8BFD64ADDD86AF23377DFE05610C8
:1019D00063589F571950FA30A5E8149F10FA71F810
:1019E000AC42C8C07BDFADA7C76743087275266FDE
:1019F000CECD707FAD951518112DFBB7A43F9ED0AD
:101A0000188727E8CF1A428F73A2AC20C6B0C94707
:101A10007A083EAF32A05BC88E18B5673B0AD0008B
:101A200087B26938502F0C5FEC97E2F059858797A1
:101A3000E53DD1878665B4E03ADD5A4F8FCF3F2828
:101A400033778610E4EAE37758520DD8ED4068BF4B
:101A500051F8A1F82BF0C49F97482A30225A4F57CB
:101A60009EE2F66F497F9308F5C77DA740D518C061
:101A7000FC6D4ED09F352BB7238DC518969FA07F48
:101A80002A271947FDBA7C204102928FF410F7E80B
:101A900048A83D58149B583FA823B6901D31D3F752
:101AA000A1896ACF76140FA8CAACE1077FBE846013
:101AB000C306D270A05EB7171CE659B8A9F43CDF84
:101AC000154C85E7C2D1E0807E690E2FCB7B6B4839
:101AD00077C3A20F0DCBC768B17329C704614CA0AF
:101AE000B8D9F5986F4490FFD3FC7E5066EE1B3753
:101AF000DA564D27B90E284005B6C6EFB0A4A38824
:101B00000C1C1AB0DB817FD767399178D22BF41F78
:101B10006E9303F7263B66909A83883F2F91ED588A
:101B20009329546044B43107F80CDFA84D1EBACF96
:101B3000F1A6ECDF92FE89B82E4667179B5402701F
:101B400027ECBB48F071DE2F4CC93080F9DB55E73C
:101B500045639CA03F6BF9C783D3176836C1720FEA
:101B60008A79CB375DE4AE50E15C40FF544E259856
:101B7000E8F673888BAE16EF3716F84082049D277F
:101B80003EBC241FE92141785599AFD7E08BCAB0FC
:101B90005C333BB659ED5ED1E555B07E5047D51963
:101BA000ECFF6C213B62094687DAE7E932C8828E96
:101BB0008E70D49EED28B1F951905F56E4823A318F
:101BC000583A83098FA7E66E331F08C1860D6DA6AC
:101BD0003AB5A4E140BDC186FC052F2949174A4EFC
:101BE000F5AFF376223296119E8A78BE2B981DD9D6
:101BF00097204BC9F4782EAE48C0C001FDD2A5662F
:101C0000416A1C5E96F779392A4F97969F5DF2F1EB
:101C100023E505196B4D607ED7F58ED162E7EBB6F3
:101C2000DE5F528E09C237E9B57AD9460068BC2119
:101C3000BCD0EA31DF888F56633061F9D622049E2A
:101C40006A9ABDA6BD07D8C101BF366EB4AD5309AF
:101C500008159A4E721DFF29CEA511867BB774E137
:101C6000C70FCDD91092A8BEAC2A461119382376D9
:101C7000A5807566C6D810017A60FEAECF729BC98A
:101C800073CA22F1A457479618EFA939ADFDCC5E6F
:101C9000114506EE4D766389F1CE8D2644DCE84190
:101CA000F86451792FF9341E9341DAB12653BFD627
:101CB0009AEBE9C6F9B38CA1450B620EF0190769DE
:101CC0004CA1BE519B3CDB3627843599929650FE41
:101CD0002E2E99B95426FCDEE89E12715D8C771683
:101CE000E134CE2E36A9AB498A1145E63F03208167
:101CF00083BB7691E0E313F65C5BFD59E949983EBE
:101D000055F12106826C44613ED4AACE8BC6CFA980
:101D1000377E38417FD65D26C36EB389767CD6EE9A
:101D2000CAC46FD61D590AB1A1E1E41E14F381792A
:101D3000A84BD769CB13B20E77AB5CA1C2B939C639
:101D40007E0180FEA99CE59915240B36A0366E51C4
:101D50001C8EA7166686C271DA3E2CDE6F2C49B93E
:101D6000D394F081040995E6B8B17B490DA31E2EEA
:101D7000B11B483ED2432D596EFBC3F6DBE9A69159
:101D800067511FA9B0CC7ACE0C749461B966F10684
:101D900005DEFEDA11241FBECFEFD1E2DEBFCDBFDC
:101DA00000E00CBF12E0A0E0B2E0E8E2F6EE01E0F5
:101DB0000BBF02C007900D92A83AB107D9F724E1F2
:101DC000A8EAB2E001C01D92A633B207E1F71EE017
:101DD000CAECDEE000E006C021970109802FFE0179
:101DE0000E94FBF2C93CD10780E00807A9F70E94D6
:101DF0002BDD0C9412F30C9400000895089580914B
:101E0000FE06E091FC06F091FD0690818095892305
:101E1000808308959091FE06E091FC06F091FD0606
:101E20008081892B8083089580910107E091FF06CE
:101E3000F091000790818095892380830895909187
:101E40000107E091FF06F09100078081892B8083D4
:101E5000089580910407E0910207F09103079081B3
:101E6000809589238083089590910407E09102076B
:101E7000F09103078081892B808308958091070763
:101E8000E0910507F0910607908180958923808372
:101E9000089590910707E0910507F091060780816A
:101EA000892B8083089580910A07E0910807F091BB
:101EB00009079081809589238083E5E4F2E18081A0
:101EC000877F808308950E94530F0C94FF0E90919A
:101ED0000A07E0910807F09109078081892B808328
:101EE000E5E4F2E180818860808308950E94670FB5
:101EF0000C940A0F80910D07E0910B07F0910C07ED
:101F00009081809589238083E5E4F2E180818B7F55
:101F1000808308950E947A0F0C94140F0E947A0F08
:101F20000C94290F0E947A0F0C943E0F90910D078C
:101F3000E0910B07F0910C078081892B8083E5E409
:101F4000F2E180818460808308950E94960F0C9452
:101F50001F0F0E94960F0C94340F0E94960F0C9442
:101F6000490F80911007E0910E07F0910F079081C3
:101F7000809589238083E5E4F2E180818D7F8083F1
:101F800008950E94B10F0C94290F0E94B10F0C9478
:101F90003E0F0E94B10F0C947A0F90911007E091C0
:101FA0000E07F0910F078081892B8083E5E4F2E131
:101FB00080818260808308950E94CD0F0C94340F3D
:101FC0000E94CD0F0C94490F0E94CD0F0C94960FD8
:101FD00080911307E0911107F0911207908180958D
:101FE00089238083E5E4F2E180818E7F80830895F8
:101FF0000E94E80F0C943E0F0E94E80F0C94530FC0
:1020000090911307E0911107F09112078081892BBD
:102010008083E5E4F2E180818160808308950E94FD
:1020200000100C94490F0E9400100C94670FCF937E
:10203000DF932091BE0C8091BB0C8C718C3021F40D
:102040008091B40CE22F81FDE0E0C091AF0CD09103
:10205000B00C60917E0E70917F0E80912F08909150
:1020600030088C1B9D0B0E9419F161507109F0E042
:102070002E0F3F2F311D261737070CF0B3C0621B00
:10208000730B80913D0690913E068E0F9F1F861721
:10209000970730F460913D0670913E066E0F7F1FEA
:1020A0007093AF056093AE0560917E0E70917F0EC8
:1020B00080912D0890912E088C1B9D0B0E9419F188
:1020C00061507109261737070CF093C0621B730B20
:1020D00080913D0690913E068E0F9F1F86179707B1
:1020E00030F460913D0670913E066E0F7F1F709335
:1020F000AD056093AC0560917E0E70917F0E80916E
:102100002B0890912C088C1B9D0B0E9419F161509B
:102110007109261737070CF073C0621B730B80918F
:102120003D0690913E068E0F9F1F8617970730F44D
:1021300060913D0670913E066E0F7F1F7093AB0558
:102140006093AA0560917E0E70917F0E80912908A0
:1021500090912A088C1B9D0B0E9419F16150710906
:10216000261737070CF053C0621B730B80913D0696
:1021700090913E068E0F9F1F8617970730F460914F
:102180003D0670913E066E0F7F1F7093A905609308
:10219000A80560917E0E70917F0E80912708909126
:1021A00028088C1B9D0B0E9419F16150710926179C
:1021B0003707A4F5621B730B80913D0690913E0694
:1021C0008E0F9F1F8617970730F460913D06709120
:1021D0003E066E0F7F1F70937D0560937C05DF9137
:1021E000CF910895161617060CF44BCF620F731F8C
:1021F00048CF161617060CF46BCF620F731F68CF0B
:10220000161617060CF48BCF620F731F88CF1616A5
:1022100017060CF4ABCF620F731FA8CF1616170664
:102220005CF2620F731FC8CF80912F089091300825
:102230002091AF0C3091B00C821B930B20911D02AA
:1022400030911E02821793079CF0821B930B01971B
:10225000843B910590F082E090E09093AF058093ED
:10226000AE0581E090E09093AD058093AC050895B4
:1022700097FFEDCF820F931FEACF81E090E090931C
:10228000AF058093AE0582E090E0EDCF2091BE0CCB
:102290008091BB0C8C718C3021F48091B40C322F66
:1022A00081FD30E0E091AF0CF091B00C60917E0EBA
:1022B00070917F0E80912F08909130088E1B9F0B9C
:1022C0000E9419F1230F3327331F261737070CF00D
:1022D0005DC0621B730B7093AF056093AE05609198
:1022E0007E0E70917F0E80912D0890912E088E1B8E
:1022F0009F0B0E9419F1261737070CF04EC0621B86
:10230000730B7093AD056093AC0560917E0E709178
:102310007F0E80912B0890912C088E1B9F0B0E94A2
:1023200019F1261737070CF03FC0621B730B70932F
:10233000AB056093AA0560917E0E70917F0E80912F
:10234000290890912A088E1B9F0B0E9419F12617CD
:1023500037078CF5621B730B7093A9056093A80572
:1023600060917E0E70917F0E8091270890912808D1
:102370008E1B9F0B0E9419F12617370714F5621B5D
:10238000730B70937D0560937C05089516161706F0
:102390000CF4A1CF620F731F9ECF161617060CF414
:1023A000B0CF620F731FADCF161617060CF4BFCF58
:1023B000620F731FBCCF1616170674F2620F731FDD
:1023C000CBCF16161706ECF2620F731FDACF80918F
:1023D000630B807F803479F58091BB0C8C718C30DD
:1023E000C9F488E090E09093AF058093AE0582E059
:1023F00090E09093AD058093AC0584E090E09093DD
:10240000AB058093AA0586E090E09093A9058093A0
:10241000A805089524E030E03093AF052093AE0581
:1024200082E090E09093AD058093AC053093AB05CE
:102430002093AA05EACF803661F78091BB0C8C719E
:102440008C3079F286E090E09093AF058093AE05F2
:1024500082E090E09093AD058093AC0524E030E0FD
:10246000E5CF1092CF041092CE0481E080939A05BC
:10247000089508951092CF041092CE0408950895FF
:102480008091F91181110EC01092CF041092CE04E8
:1024900081E08093F91183E08093CD0481E0809303
:1024A0009A0508958091B50C87FF05C01092CF045E
:1024B0001092CE04F0CF8091661290916712A09195
:1024C0006812B091691284369105A105B10530F703
:1024D0008091CE049091CF048D9701F31092CF0498
:1024E0001092CE04DBCF0895089580912B12909125
:1024F000BB0C9C719C3091F58A30CCF088E090E068
:102500009093AF058093AE0582E090E09093AD0587
:102510008093AC0584E090E09093AB058093AA058E
:1025200086E090E09093A9058093A8050895181679
:10253000ECF781E090E09093AF058093AE0583E0E7
:1025400090E09093AD058093AC0585E090E090938A
:10255000AB058093AA0587E090E0E4CF8A308CF049
:1025600024E030E03093AF052093AE0582E090E0A8
:102570009093AD058093AC053093AB052093AA05ED
:10258000D1CF18169CF621E030E03093AF052093B0
:10259000AE0583E090E0ECCF0895089580912F0878
:1025A000909130082091AF0C3091B00CAC014450A8
:1025B0005109241735070CF04BC0821B930B97FD74
:1025C00001969595879504979093AF058093AE05F6
:1025D00080912D0890912E08AC0144505109241788
:1025E0003507CCF5821B930B97FD01969595879542
:1025F00004979093AD058093AC0580912B08909142
:102600002C08AC0144505109241735073CF5821BB6
:10261000930B97FD01969595879504979093AB053D
:102620008093AA058091290890912A08AC01445012
:10263000510924173507ACF4821B930B97FD0196C3
:102640009595879504979093A9058093A80508957B
:1026500080539D4FB2CF80539D4FC4CF80539D4F29
:10266000D6CF80539D4FE8CF90912B128091BB0C19
:102670008C718C3081F59A30CCF08CE090E09093A6
:10268000AF058093AE0583E090E09093AD05809315
:10269000AC0586E090E09093AB058093AA0589E0B5
:1026A00090E09093A9058093A805089581E090E0BB
:1026B0009093AF058093AE0584E090E09093AD05D4
:1026C0008093AC0587E090E09093AB058093AA05DA
:1026D0008AE090E0E6CF9A306CF086E090E090934C
:1026E000AF058093AE0583E090E09093AD058093B5
:1026F000AC05089581E090E09093AF058093AE051E
:1027000084E090E0F2CF0895089580912B128A30F2
:102710006CF484E290E09093AF058093AE0580E185
:1027200090E09093AD058093AC05089584311CF43E
:1027300083E290E0F0CF8E311CF482E290E0EBCFA8
:102740008FE190E09093AF058093AE058DE090E02F
:10275000E8CF80912B128930CCF481E090E0909307
:10276000AF058093AE0585E090E09093AD05809332
:10277000AC0589E090E09093AB058093AA058DE0CD
:1027800090E09093A9058093A805089580E190E0DA
:102790009093AF058093AE0584E090E09093AD05F3
:1027A0008093AC0588E090E09093AB058093AA05F8
:1027B0008CE090E0E6CF80915F138770825082308A
:1027C00028F480916F00886080936F000895909145
:1027D000B005981771F09091B105981731F190916B
:1027E000B205981721F19091B30598132DC083E09D
:1027F00001C080E0E82FF0E0E055FA4F10829091A0
:102800007406292F2150330BB901282F30E02617E9
:1028100037077CF4F901EF54FA4F408120553A4FC5
:10282000D9014C9310828F5FF0CF81E0E3CF82E03B
:10283000E1CF8FEF890F80937406811105C08091DD
:1028400046128F7D809346120895909174069430BD
:1028500078F4E92FF0E0E055FA4F80839F5F909382
:102860007406913029F4809146128062809346125A
:10287000809174060895E0912B06F0912C068081DA
:1028800090912A06892371F08091F911811111C06C
:102890008DE090E09093CF048093CE0481E080930C
:1028A000F91108958091F911811115C085E090E02A
:1028B000F1CF8091CE049091CF040D9759F0809183
:1028C000A1128F5F8093A1128DE090E09093CF04CE
:1028D0008093CE0408958091CE049091CF04059703
:1028E000C9F38091A1128F5F8093A11285E090E0DF
:1028F000EDCF0895CF92DF92EF92FF928091F91180
:10290000882309F495C08091840E9091850EA09142
:10291000860EB091870E892B8A2B8B2B09F488C0E9
:102920008091800E9091810EA091820EB091830EC5
:10293000892B8A2B8B2B09F47BC080916612909196
:102940006712A0916812B09169120297A105B105B2
:1029500008F04CC0F8942091840E3091850E40917F
:10296000860E5091870E8091800E9091810EA091DD
:10297000820EB091830E281B390B4A0B5B0BA4EB24
:10298000B0E00E94BDF26093890E70938A0E80932E
:102990008B0E90938C0E7894C090890ED0908A0EF6
:1029A000E0908B0EF0908C0E60E077E883E993E086
:1029B000A70196010E9460F1C901803526E49207C3
:1029C00020F08091FA119091FB11CC0CDD1CEE1CD3
:1029D000FF1CC0920502D0920602E0920702F0921C
:1029E0000802FF90EF90DF90CF900895F8948091C7
:1029F000390690913A06A0913B06B0913C06409171
:102A00003506509136066091370670913806841B62
:102A1000950BA60BB70BB695A795979587958093C1
:102A2000890E90938A0EA0938B0EB0938C0EB3CF29
:102A300090E080E0D6CF80912B1282319CF487E029
:102A400090E09093AF058093AE0582E090E0909384
:102A5000AD058093AC0585E090E09093AB05809345
:102A6000AA05089586E090E09093AF058093AE05A7
:102A700081E090E09093AD058093AC0584E090E018
:102A8000ECCF2091410830914208232B09F058C225
:102A90002091FA113091FB11232B09F451C220919E
:102AA000AE053091AF052617370709F070C02091A9
:102AB0003310309134102330310561F540912401F9
:102AC00050912501A0912F08B0913008A81BB90B97
:102AD00080911D0290911E02A817B907B4F0A81B9F
:102AE000B90B2091B3043091B4040E940BF3F6E0CB
:102AF0009695879577956795FA95D1F7640F751F29
:102B000070932901609328010895B7FFEACFA80FB9
:102B1000B91FE7CF40916612509167126091681219
:102B200070916912473051056105710508F408C2BA
:102B30004091240150912501A0912F08B0913008B7
:102B4000A81BB90B80911D0290911E02A817B9070E
:102B5000CCF0A81BB90B2091B3043091B4040E94AF
:102B60000BF3E6E09695879577956795EA95D1F70B
:102B7000640F751F709341106093401081E0809343
:102B800047100895B7FFE7CFA80FB91FE4CF2091F2
:102B9000AC053091AD052617370709F070C02091BC
:102BA0001A1030911B102330310561F5409124013A
:102BB00050912501A0912D08B0912E08A81BB90BAA
:102BC00080911D0290911E02A817B907B4F0A81BAE
:102BD000B90B2091B3043091B4040E940BF336E09A
:102BE00096958795779567953A95D1F7640F751FF8
:102BF00070932B0160932A010895B7FFEACFA80FC5
:102C0000B91FE7CF40916612509167126091681228
:102C100070916912473051056105710508F490C142
:102C20004091240150912501A0912D08B0912E08CA
:102C3000A81BB90B80911D0290911E02A817B9071D
:102C4000CCF0A81BB90B2091B3043091B4040E94BE
:102C50000BF326E096958795779567952A95D1F79A
:102C6000640F751F709328106093271081E0809384
:102C70002E100895B7FFE7CFA80FB91FE4CF20911A
:102C8000AA053091AB052617370709F070C02091CF
:102C90000110309102102330310561F5409124017B
:102CA00050912501A0912B08B0912C08A81BB90BBD
:102CB00080911D0290911E02A817B907B4F0A81BBD
:102CC000B90B2091B3043091B4040E940BF3B6E029
:102CD0009695879577956795BA95D1F7640F751F87
:102CE00070932D0160932C010895B7FFEACFA80FD0
:102CF000B91FE7CF40916612509167126091681238
:102D000070916912473051056105710508F418C1C9
:102D10004091240150912501A0912B08B0912C08DD
:102D2000A81BB90B80911D0290911E02A817B9072C
:102D3000CCF0A81BB90B2091B3043091B4040E94CD
:102D40000BF3A6E09695879577956795AA95D1F7A9
:102D5000640F751F70930F1060930E1081E08093C5
:102D600015100895B7FFE7CFA80FB91FE4CF209142
:102D7000A8053091A9052617370709F070C02091E2
:102D8000E80F3091E90F2330310561F54091A4003F
:102D90005091A500A0912908B0912A08A81BB90B51
:102DA00080911D0290911E02A817B907B4F0A81BCC
:102DB000B90B2091B3043091B4040E940BF3F6E0F8
:102DC0009695879577956795FA95D1F7640F751F56
:102DD0007093A9006093A8000895B7FFEACFA80FE9
:102DE000B91FE7CF40916612509167126091681247
:102DF00070916912473051056105710508F4A0C052
:102E00004091A4005091A500A0912908B0912A08F2
:102E1000A81BB90B80911D0290911E02A817B9073B
:102E2000CCF0A81BB90B2091B3043091B4040E94DC
:102E30000BF3E6E09695879577956795EA95D1F738
:102E4000640F751F7093F60F6093F50F81E0809308
:102E5000FC0F0895B7FFE7CFA80FB91FE4CF20916B
:102E60007C0530917D052617370709F069C0209150
:102E7000CF0F3091D00F2330310561F54091A40080
:102E80005091A500A0912708B0912808A81BB90B64
:102E900080911D0290911E02A817B907B4F0A81BDB
:102EA000B90B2091B3043091B4040E940BF336E0C7
:102EB00096958795779567953A95D1F7640F751F25
:102EC0007093AD006093AC000895B7FFEACFA80FF0
:102ED000B91FE7CF40916612509167126091681256
:102EE00070916912473051056105710548F14091B3
:102EF000A4005091A500A0912708B0912808A81B14
:102F0000B90B80911D0290911E02A817B907CCF051
:102F1000A81BB90B2091B3043091B4040E940BF3A9
:102F200026E096958795779567952A95D1F7640F52
:102F3000751F7093DD0F6093DC0F81E08093E30FCA
:102F40000895B7FFE7CFA80FB91FE4CFCF92DF9264
:102F5000EF92FF92C0906612D0906712E0906812D4
:102F6000F09069124091BA0C50E070E060E0C41635
:102F7000D506E606F70608F473C09091F911992377
:102F800009F46EC04091840E5091850E6091860EBA
:102F90007091870E452B462B472B09F461C0409159
:102FA000800E5091810E6091820E7091830E452BA0
:102FB000462B472B09F454C0C090840ED090850E48
:102FC000E090860EF090870E4091800E5091810E19
:102FD0006091820E7091830E4C155D056E057F0524
:102FE00008F03EC0F8942091840E3091850E4091F7
:102FF000860E5091870EC090800ED090810EE0908A
:10300000820EF090830E2C193D094E095F09A82FFE
:10301000B0E00E94BDF26093890E70938A0E809397
:103020008B0E90938C0E78942091890E30918A0E9D
:1030300040918B0E50918C0E60E077E883E993E02D
:103040000E9460F1C901803526E4920720F080914A
:10305000FA119091FB11FF90EF90DF90CF900895BF
:1030600090E080E0F8CF9B01AC018091BB0C8076B2
:1030700049F41092440810924508109246081092A4
:1030800047080895803281F472E056954795379548
:1030900027957A95D1F720934408309345084093BB
:1030A0004608509347080895803429F4569547956B
:1030B00037952795F0CF8036E1F6A3E0B0E00E9487
:1030C000BDF222E096958795779567952A95D1F779
:1030D000609344087093450880934608909347088E
:1030E00008950F931F932091F911222309F481C0B1
:1030F0004091FA115091FB1120919212309193124C
:103100004217530768F4409166125091671260911C
:10311000681270916912452B462B472B09F469C040
:103120004091390650913A0660913B0670913C06F9
:10313000452B462B472B09F45CC040913506509136
:1031400036066091370670913806452B462B472B83
:1031500009F44FC0F8944091390650913A066091B5
:103160003B0670913C060091350610913606209181
:10317000370630913806401B510B620B730B40939E
:10318000890E50938A0E60938B0E70938C0E7894F8
:10319000803D9240A1F48091890E90918A0EA09179
:1031A0008B0EB0918C0EB695A795979587958093C9
:1031B000890E90938A0EA0938B0EB0938C0E209163
:1031C000890E30918A0E40918B0E50918C0E60E0EA
:1031D00077E883E993E00E9460F1C901803526E435
:1031E000920720F08091FA119091FB111F910F919D
:1031F000089590E080E0FACF8091FA119091FB1150
:1032000020919212309193128217930778F42091B3
:10321000CE043091CF042130310599F08091BE0C5D
:103220009091B40C91FD86950C94A6178091B40CE6
:1032300081FF04C080ED92E00C94711888E691E063
:10324000FBCF08952091FA113091FB1180919212D9
:10325000909193122817390790F580913D0690912F
:103260003E06969587950E94A6174091890E50912B
:103270008A0E60918B0E70918C0E440F551F661F45
:10328000771F4093050250930602609307027093E4
:10329000080220913D0630913E064B345849654066
:1032A000710560F44BE458E965E070E04093050275
:1032B000509306026093070270930802089580ED10
:1032C00092E00E947118D1CF8091F911882399F072
:1032D0002091FA113091FB118091921290919312EA
:1032E0002817390720F48091BE0C0C94A61788E6A5
:1032F00091E00C94711890E080E0089588E691E0E8
:103300000C9471180C947E190C947E190C947E19EF
:103310000C947E198091F9118823C9F08091CE0414
:103320009091CF04892B99F02091FA113091FB11E3
:1033300080919212909193122817390720F480916E
:10334000BE0C0C94A61788E691E00C94711890E0DE
:1033500080E0089580ED92E00C9471188F929F9216
:10336000AF92BF92CF92DF92EF92FF928091F911CC
:10337000882309F489C08091C00C24E6829FC00193
:1033800011242091FA113091FB112817390708F008
:103390006FC08091840E9091850EA091860EB091A1
:1033A000870E892B8A2B8B2B09F46EC08091800E9F
:1033B0009091810EA091820EB091830E892B8A2B61
:1033C0008B2B09F461C0F89420917E0E30917F0E12
:1033D0008091390690913A06A0913B06B0913C0647
:1033E0004091350650913606609137067091380647
:1033F000841B950BA60BB70B8093890E90938A0EB6
:10340000A0938B0EB0938C0EC090840ED090850E3E
:10341000E090860EF090870E8091800E9091810E44
:10342000A091820EB091830EC81AD90AEA0AFB0A4B
:103430007894D90120E83DE84BE550E00E94C8F2BD
:103440004B015C01A4E2B0E0A70196010E94BDF22D
:103450009B01AC01C501B4010E9460F1C901FF905C
:10346000EF90DF90CF90BF90AF909F908F90089596
:1034700088E691E0FF90EF90DF90CF90BF90AF9003
:103480009F908F900C94711890E080E0E8CF80912D
:10349000FA119091FB1120919212309193128217A0
:1034A0009307E0F42091CE043091CF04233131050D
:1034B000C9F02091CE043091CF042031310591F034
:1034C0002091CE043091CF042232310559F0209161
:1034D000880E222339F084E20C94A61788E691E046
:1034E0000C947118089580ED92E00C9471188091FD
:1034F000661290916712A0916812B0916912892B9F
:103500008A2B8B2B21F080ED92E00C94711890E0C7
:1035100080E00895CF92DF92EF92FF928091F911AF
:10352000882309F45DC02091FA113091FB1180913C
:103530009212909193122817390708F049C0F89415
:10354000E0917E0EF0917F0E8091840E9091850E19
:10355000A091860EB091870E4091800E5091810E01
:103560006091820E7091830E841B950BA60BB70B96
:103570008093890E90938A0EA0938B0EB0938C0E3D
:1035800078942091890E30918A0E40918B0E509143
:103590008C0EA4E2B0E00E94BDF26B017C01C092EF
:1035A000890ED0928A0EE0928B0EF0928C0EDF0183
:1035B00020E037E843E953E00E94C8F2A7019601F2
:1035C0000E9460F1C901FF90EF90DF90CF900895C5
:1035D00088E691E0FF90EF90DF90CF900C94711807
:1035E00090E080E0F0CF0F931F938091E7049091DB
:1035F000E804A091E904B091EA048093E304909375
:10360000E404A093E504B093E6040E94B0C860937C
:10361000E7047093E8048093E9049093EA048091AE
:103620004907843068F58091E7049091E804A091FF
:10363000E904B091EA044091E3045091E4046091FC
:10364000E5047091E604009145071091460720912A
:10365000470730914807800F911FA21FB31F841B9B
:10366000950BA60BB70B8093450790934607A09345
:103670004707B0934807809149078F5F80934907B8
:103680001F910F9108950F931F93E0918506F0917C
:1036900086068081909184068923F1F00E94B0C84B
:1036A0000091800610918106209182063091830658
:1036B000601B710B820B930B6093150770931607B9
:1036C0008093170790931807809119078F5F809355
:1036D00019071F910F9108950E94B0C8609380064A
:1036E000709381068093820690938306F2CFCF92E7
:1036F000DF92EF92FF920E94B0C86093A40570938E
:10370000A5058093A6059093A7058091A4059091A7
:10371000A505A091A605B091A7054091840E5091F2
:10372000850E6091860E7091870E841B950BA60BFB
:10373000B70B8093A0059093A105A093A205B09329
:10374000A3054091A0055091A1056091A20570913B
:10375000A3058091440890914508A0914608B09136
:103760004708481759076A077B0708F440C2809149
:10377000CE049091CF0401969093CF048093CE0411
:1037800081E080939F058091840E9091850EA09199
:10379000860EB091870E892B8A2B8B2B09F497C04C
:1037A0008091800E9091810EA091820EB091830E37
:1037B000892B8A2B8B2B09F48AC08091F9118111F6
:1037C000E6C0A091BF0C2091840E3091850E4091EF
:1037D000860E5091870EA13009F024C18091800E91
:1037E0009091810EA091820EB091830E281B390B0F
:1037F0004A0B5B0BA3E0B0E00E94BDF29695879563
:103800007795679560939B0570939C0580939D05C4
:1038100090939E058091840E9091850EA091860EC6
:10382000B091870E892B8A2B8B2B61F08091800EB3
:103830009091810EA091820EB091830E892B8A2BDC
:103840008B2B41F41092A0051092A1051092A205B5
:103850001092A3054091A0055091A1056091A20589
:103860007091A30580919B0590919C05A0919D0569
:10387000B0919E0584179507A607B70760F02091C1
:10388000CE043091CF0480913D0690913E06821780
:10389000930708F099C02091CE043091CF04809115
:1038A0003D0690913E062817390720F48091F911C2
:1038B0008111C8C08091F9118111D1C01092661296
:1038C000109267121092681210926912F2C08091E1
:1038D000840E9091850EA091860EB091870E8093F4
:1038E000800E9093810EA093820EB093830E8091F0
:1038F000A4059091A505A091A605B091A705809378
:10390000840E9093850EA093860EB093870E8091BF
:10391000650B86FF6CC18091481281FD68C12091C2
:10392000CE043091CF0440917E0E50917F0E2150F5
:103930003109249FC001259F900D349F900D1124C3
:103940002091AF0C3091B00C820F931F20911D027B
:1039500030911E02821793070CF438C1821B930B1F
:103960002091BB0C2C712C3041F420919A0522231C
:1039700021F02091B40C21FF2EC16091CE047091F2
:10398000CF04FF90EF90DF90CF900C944115809181
:10399000FA119091FB11803D974008F412CF2091CD
:1039A0003D0630913E064091CE045091CF04C901AE
:1039B000880F991F820F931F9695879596958795E7
:1039C0004817590708F0FDCE6091A0057091A10538
:1039D0008091A2059091A3050E9433188091840ED6
:1039E0009091850EA091860EB091870E8093800EE7
:1039F0009093810EA093820EB093830E8091A405C4
:103A00009091A505A091A605B091A7058093840E7D
:103A10009093850EA093860EB093870E81E08093DD
:103A2000880E75CFC090800ED090810EE090820EEF
:103A3000F090830E2C193D094E095F09B0E00E94F9
:103A4000BDF2E0CE1092F911809194128F7E809396
:103A500094128091A1128F5F8093A11258CF809110
:103A6000661290916712A0916812B0916912019646
:103A7000A11DB11D8093661290936712A0936812E6
:103A8000B09369128091B40C81FF13C080916612CB
:103A900090916712A0916812B09169120196A11DD0
:103AA000B11D8093661290936712A0936812B09331
:103AB000691281E090E09093CF048093CE048091CE
:103AC0009A0591E0892780939A0540913906509193
:103AD0003A0660913B0670913C0640933506509340
:103AE000360660933706709338064091A4055091CE
:103AF000A5056091A6057091A705409339065093DE
:103B00003A0660933B0670933C068091BB0C8C7127
:103B10008C3031F08091650B8073803309F050C098
:103B20008091D1049091D204892B99F58091B40CA5
:103B300081FD2FC08091F9118823E1F11092440892
:103B40001092450810924608109247088091840E02
:103B50009091850EA091860EB091870E8093800E75
:103B60009093810EA093820EB093830E8091A40552
:103B70009091A505A091A605B091A7058093840E0C
:103B80009093850EA093860EB093870E1092880EA8
:103B9000BECE81E08093F911809194128F7E809344
:103BA00094128091B70C8111C9CF1092D204109257
:103BB000D104C4CF80919412806180939412BECFBF
:103BC0009093F911809194128F7EF7CF97FFC8CE12
:103BD000820F931FC5CE2091CE043091CF04609107
:103BE000BE0C620F732F711D88599E4FCACEFF9075
:103BF000EF90DF90CF9008950E94B0C860938A053F
:103C000070938B0580938C0590938D0580918A0528
:103C100090918B05A0918C05B0918D054091BB04CE
:103C20005091BC046091BD047091BE04841B950B3F
:103C3000A60BB70B8093860590938705A093880504
:103C4000B09389058091BB049091BC04A091BD0400
:103C5000B091BE04892B8A2B8B2BC1F41092860560
:103C600010928705109288051092890580918A0527
:103C700090918B05A0918C05B0918D058093BB042C
:103C80009093BC04A093BD04B093BE0440918605FC
:103C900050918705609188057091890580916F0624
:103CA00090917006A0917106B0917206481759075D
:103CB0006A077B0708F4D6C08091B70C813009F001
:103CC000A4C02091BB043091BC044091BD0450912C
:103CD000BE048091780590917905A0917A05B09104
:103CE0007B05281B390B4A0B5B0BA3E0B0E00E945D
:103CF000BDF2969587957795679560937405709357
:103D0000750580937605909377058091BB0490911B
:103D1000BC04A091BD04B091BE048093780590933B
:103D20007905A0937A05B0937B0540918605509163
:103D3000870560918805709189058091740590913F
:103D40007505A0917605B0917705481759076A0760
:103D50007B0738F58091D1049091D204049708F53F
:103D60008091860590918705A0918805B09189057D
:103D700032E0B695A795979587953A95D1F78093B8
:103D80006F0690937006A0937106B09372068091AF
:103D9000D1049091D20401969093D2048093D104DF
:103DA00010C081E090E09093D2048093D10480937E
:103DB0009A0510926F06109270061092710610927A
:103DC000720680918A0590918B05A0918C05B09127
:103DD0008D058093BB049093BC04A093BD04B09365
:103DE000BE048091EB1285FF3DC080919A05882327
:103DF000C9F1E091D504F091D6041995893621E0F6
:103E000092079CF088569140F9CF81E080939A0503
:103E10008091860590918705A0918805B0918905CC
:103E2000B695A79597958795AACF2091AF0C30911D
:103E3000B00C821B930B2091F1122370223031F4CD
:103E40002091BB113091BC11821B930B092E000CE9
:103E5000AA0BBB0B8093A6129093A712A093A81253
:103E6000B093A91208950E94B0C86093A4057093FE
:103E7000A5058093A6059093A7058091A405909130
:103E8000A505A091A605B091A7054091840E50917B
:103E9000850E6091860E7091870E841B950BA60B84
:103EA000B70B8093A0059093A105A093A205B093B2
:103EB000A3054091A0055091A1056091A2057091C4
:103EC000A3058091440890914508A0914608B091BF
:103ED0004708481759076A077B0708F4C8C080914C
:103EE000CE049091CF0401969093CF048093CE049A
:103EF00081E080939F058091840E9091850EA09122
:103F0000860EB091870E8093800E9093810EA093C1
:103F1000820EB093830E8091A4059091A505A09187
:103F2000A605B091A7058093840E9093850EA0936B
:103F3000860EB093870E8091F911882309F459C039
:103F40008091CE049091CF04019751F08091CE04DE
:103F50009091CF042091BE0C2817190608F03FC09D
:103F600081E090E09093CF048093CE0480919A05F5
:103F700091E0892780939A058091390690913A06BD
:103F8000A0913B06B0913C0680933506909336068F
:103F9000A0933706B09338068091A4059091A505AB
:103FA000A091A605B091A7058093390690933A0693
:103FB000A0933B06B0933C068091661290916712E5
:103FC000A0916812B09169120196A11DB11D809354
:103FD000661290936712A0936812B0936912609171
:103FE000A0057091A1058091A2059091A3050E9462
:103FF00033188091650B86FF3AC08091481281FD8D
:1040000036C02091CE043091CF0440917E0E509165
:104010007F0E21503109249FC001259F900D349FB0
:10402000900D11242091AF0C3091B00C820F931F92
:104030002091BB0C2C712C3041F420919A05222345
:1040400021F02091B40C21FF06C06091CE04709144
:10405000CF040C9441152091CE043091CF0460918F
:10406000BE0C620F732F711D88599E4FF2CF0895B9
:104070000F931F938091A0059091A105A091A20597
:10408000B091A30580938E0590938F05A093900522
:10409000B09391050E94B0C86093A4057093A505E4
:1040A0008093A6059093A7058091A4059091A505FE
:1040B000A091A605B091A7054091840E5091850E60
:1040C0006091860E7091870E841B950BA60BB70B23
:1040D0008093A0059093A105A093A205B093A3059A
:1040E0008091CE049091CF0401969093CF04809359
:1040F000CE0481E080939F054091840E5091850EFF
:104100006091860E7091870E452B462B472B09F444
:1041100083C04091800E5091810E6091820E70910B
:10412000830E452B462B472B09F476C02091CE04F5
:104130003091CF042830310548F121E030E0309350
:10414000CF042093CE044091390650913A066091F5
:104150003B0670913C0640933506509336066093BB
:104160003706709338064091A4055091A5056091DB
:10417000A6057091A7054093390650933A066093BF
:104180003B0670933C068093880E46C040918E0596
:1041900050918F0560919005709191057695679586
:1041A0005795479540939B0550939C0560939D05BB
:1041B00070939E050091A0051091A1052091A20584
:1041C0003091A30540919B0550919C0560919D0500
:1041D00070919E050417150726073707A0F623E000
:1041E00030E03093CF042093CE048093F9111092E5
:1041F000880E8091661290916712A0916812B0911A
:1042000069120196A11DB11D8093661290936712E9
:10421000A0936812B09369128091650B86FF2BC042
:104220008091CE049091CF04039729F12091CE0480
:104230003091CF048091AF0C9091B00C8A962330CE
:104240003105E0F52091CE043091CF0460917E0ECF
:1042500070917F0E21503109269FA001279F500D9C
:10426000369F500D1124840F951F6091CE047091DC
:10427000CF040E9441158091840E9091850EA091EB
:10428000860EB091870E8093800E9093810EA0933E
:10429000820EB093830E8091A4059091A505A09104
:1042A000A605B091A7058093840E9093850EA093E8
:1042B000860EB093870E1F910F9108952091CE0422
:1042C0003091CF0460917E0E70917F0E22503109A3
:1042D000C3CF8091CE049091CF040D9719F4109222
:1042E000F91108950E94B0C86093A4057093A505C4
:1042F0008093A6059093A7058091A4059091A505AC
:10430000A091A605B091A7054091840E5091850E0D
:104310006091860E7091870E841B950BA60BB70BD0
:104320008093A0059093A105A093A205B093A30547
:104330004091A0055091A1056091A2057091A3053F
:104340008091440890914508A0914608B091470893
:10435000481759076A077B0708F476C08091CE0496
:104360009091CF04892B09F070C081E090E0909388
:10437000CF048093CE048091390690913A06A091A3
:104380003B06B0913C068093350690933606A09389
:104390003706B09338068091A4059091A505A091A9
:1043A000A605B091A7058093390690933A06A0938D
:1043B0003B06B0933C0681E08093F9118091661230
:1043C00090916712A0916812B09169120196A11D97
:1043D000B11D8093661290936712A0936812B093F8
:1043E00069128CE390E090937F0E80937E0E609133
:1043F000A0057091A1058091A2059091A3050E944E
:10440000331881E080939F058091840E9091850EF2
:10441000A091860EB091870E8093800E9093810EAE
:10442000A093820EB093830E8091A4059091A50570
:10443000A091A605B091A7058093840E9093850E58
:10444000A093860EB093870E08958091CE0490912C
:10445000CF0401969093CF048093CE04A091CE0414
:10446000B091CF04E091CE04F091CF04AA0FBB1F0E
:10447000A35CB94FEE0FFF1FE55CF94F8D919C9146
:1044800020813181821B930BAECF0E94B0C8609314
:10449000A4057093A5058093A6059093A705809128
:1044A000A4059091A505A091A605B091A7054091FE
:1044B0008205509183056091840570918505841B68
:1044C000950BA60BB70B8093A0059093A105A09325
:1044D000A205B093A3054091A0055091A10560915C
:1044E000A2057091A3058091440890914508A09180
:1044F0004608B091470884179507A607B70760F0EC
:104500008091661290916712A0916812B091691221
:10451000892B8A2B8B2BC9F48091CD048F5F8093DC
:10452000CD048091F911811111C08091A405909161
:10453000A505A091A605B091A7058093840E909340
:10454000850EA093860EB093870E08958091CD04BA
:104550008330D8F381E080939F058091A4059091EA
:10456000A505A091A605B091A7058093820590931B
:104570008305A0938405B09385051092CD048091A6
:10458000CE049091CF0401969093CF048093CE04F3
:104590008091CE049091CF04019739F08091CE04A0
:1045A0009091CF048E9708F43FC081E090E0909303
:1045B000CF048093CE048091390690913A06A09161
:1045C0003B06B0913C068093350690933606A09347
:1045D0003706B09338068091A4059091A505A09167
:1045E000A605B091A7058093390690933A06A0934B
:1045F0003B06B0933C0680919A0591E08927809311
:104600009A058091661290916712A0916812B091FC
:1046100069120196A11DB11D8093661290936712D5
:10462000A0936812B09369126091A0057091A105E2
:104630008091A2059091A3050E9433188091840E69
:104640009091850EA091860EB091870E8093800E7A
:104650009093810EA093820EB093830E66CF8091CB
:10466000A0059091A105A091A205B091A30580930A
:104670008E0590938F05A0939005B09391050E94AD
:10468000B0C86093A4057093A5058093A605909388
:10469000A7058091A4059091A505A091A605B091CC
:1046A000A7054091840E5091850E6091860E709101
:1046B000870E841B950BA60BB70B8093A0059093D8
:1046C000A105A093A205B093A3058091CE0490917B
:1046D000CF0401969093CF048093CE0481E0809321
:1046E0009F058091CE049091CF040D9749F480915D
:1046F000F911882329F01092CF041092CE04089566
:104700008091CE049091CF04019721F48091F9110A
:10471000811131C080918E0590918F05A0919005F7
:10472000B0919105B695A7959795879580939B0530
:1047300090939C05A0939D05B0939E054091A00584
:104740005091A1056091A2057091A30580919B05F0
:1047500090919C05A0919D05B0919E054817590721
:104760006A077B07D8F51092CF041092CE0481E03F
:104770008093F91108958091390690913A06A0919D
:104780003B06B0913C068093350690933606A09385
:104790003706B09338068091A4059091A505A091A5
:1047A000A605B091A7058093390690933A06A09389
:1047B0003B06B0933C068091661290916712A091DF
:1047C0006812B09169120196A11DB11D8093661205
:1047D00090936712A0936812B09369128091840E2F
:1047E0009091850EA091860EB091870E8093800ED9
:1047F0009093810EA093820EB093830E8091A405B6
:104800009091A505A091A605B091A7058093840E6F
:104810009093850EA093860EB093870E08950E9404
:10482000B0C860938A0570938B0580938C05909334
:104830008D0580918A0590918B05A0918C05B09192
:104840008D054091BB045091BC046091BD047091F2
:10485000BE04841B950BA60BB70B80938605909323
:104860008705A0938805B09389058091481281FD42
:1048700004C08091F91181110CC08CED95E0A0E08D
:10488000B0E08093440890934508A0934608B09305
:104890004708409186055091870560918805709181
:1048A000890580916F0690917006A0917106B09174
:1048B0007206481759076A077B0708F460C08091A1
:1048C0008A0590918B05A0918C05B0918D05809300
:1048D000BB049093BC04A093BD04B093BE0480912C
:1048E000860590918705A0918805B09189058093F0
:1048F0008E0590938F05A0939005B09391058091BC
:10490000D1049091D20401969093D2048093D10463
:104910008091CE049091CF04019789F540918A054A
:1049200050918B0560918C0570918D058091840E5E
:104930009091850EA091860EB091870E84179507F1
:10494000A607B707E0F480918A0590918B05A091A6
:104950008C05B0918D054091840E5091850E60912B
:10496000860E7091870E841B950BA60BB70B809358
:10497000B5049093B604A093B704B093B804089517
:104980000E94B0C860938A0570938B0580938C0554
:1049900090938D058091860590918705A09188055B
:1049A000B091890580938E0590938F05A093900513
:1049B000B093910580918A0590918B05A0918C050B
:1049C000B0918D054091BB045091BC046091BD0431
:1049D0007091BE04841B950BA60BB70B80938605C4
:1049E00090938705A0938805B093890580918A05E7
:1049F00090918B05A0918C05B0918D058093BB049F
:104A00009093BC04A093BD04B093BE048091F911AF
:104A1000811117C08091D1049091D204029791F432
:104A200081E090E09093CF048093CE048093F911BD
:104A30008091D1049091D20401969093D2048093F6
:104A4000D10408958CED95E0A0E0B0E08093440897
:104A500090934508A0934608B093470880918E052F
:104A600090918F05A0919005B0919105B695A7956D
:104A70009795879580939B0590939C05A0939D05A2
:104A8000B0939E05409186055091870560918805F9
:104A90007091890580919B0590919C05A0919D0541
:104AA000B0919E05481759076A077B0708F682E010
:104AB00090E09093D2048093D104BACF0E94B0C802
:104AC0006093A4057093A5058093A6059093A70510
:104AD0008091A4059091A505A091A605B091A70588
:104AE0004091840E5091850E6091860E7091870ED4
:104AF000841B950BA60BB70B8093A0059093A10583
:104B0000A093A205B093A3058091CE049091CF0409
:104B100001969093CF048093CE0481E080939F050B
:104B20008091840E9091850EA091860EB091870E93
:104B30008093800E9093810EA093820EB093830E8B
:104B40008091A4059091A505A091A605B091A70517
:104B50008093840E9093850EA093860EB093870E5B
:104B60008091F911882309F473C08091CE0490914B
:104B7000CF0489369140C9F581E090E09093CF044D
:104B80008093CE048091390690913A06A0913B061D
:104B9000B0913C068093350690933606A093370675
:104BA000B09338068091A4059091A505A091A60523
:104BB000B091A7058093390690933A06A0933B06DF
:104BC000B0933C068091661290916712A091681292
:104BD000B09169120196A11DB11D80936612909348
:104BE0006712A0936812B09369128091650B86FFDB
:104BF0001FC08091CE049091CF0481509048880FBF
:104C0000991F2091AF0C3091B00C820F931F20910F
:104C10001D0230911E026091CE047091CF042817BE
:104C2000390724F476956795821B930B0E944115F2
:104C30008091A0059091A105A091A205B091A30536
:104C4000B695A795979587959093BA048093B904E4
:104C500008950E94B0C860938A0570938B05809375
:104C60008C0590938D0580918A0590918B05A0917C
:104C70008C05B0918D054091BB045091BC046091AE
:104C8000BD047091BE04841B950BA60BB70B8093DB
:104C9000860590938705A0938805B0938905809138
:104CA0008A0590918B05A0918C05B0918D0580931C
:104CB000BB049093BC04A093BD04B093BE042091A8
:104CC000B50C322F31708091D1049091D204892B90
:104CD00069F1E0912806F0912906808190912706DC
:104CE000892391E009F490E0931701F18091CE04BB
:104CF0009091CF044091D1045091D204841B9091A3
:104D0000F91191114BC09091630B907F903499F5FC
:104D100091EF980F933098F480E190E09093CF0456
:104D20008093CE0481E08093F91108958091CE04A0
:104D30009091CF049093D2048093D104089595EF7D
:104D4000980F933018F486E690E0E8CF99EF980F2B
:104D5000933018F48CEB90E0E1CF8350833018F45B
:104D600082E191E0DBCF1092F9118091A1128F5F67
:104D70008093A1120895903631F483508330F0F47B
:104D80008CE790E0CBCF903831F486508330B0F48C
:104D900088E390E0C3CF1092F911089527FF0EC069
:104DA0009091630B907F903449F48F50833030F4AE
:104DB00080E190E09093CF048093CE0408958F9289
:104DC0009F92AF92BF92CF92DF92EF92FF92CF93DA
:104DD000DF93F894C090840ED090850EE090860EFC
:104DE000F090870E8090800E9090810EA090820EA1
:104DF000B090830EC091CE04D091CF040E94B0C871
:104E00006093960570939705809398059093990504
:104E10007894CE010197880F991F2091AF0C3091A3
:104E2000B00C820F931FA6014819590957FF02C001
:104E30004F5F5F4F55954795052E000C660B770B1E
:104E4000C0909205D0909305E0909405F090950560
:104E50004C155D056E057F0508F40196803D22E046
:104E6000920714F0805D924020911F023091200241
:104E70002817390714F4821B930B97FF02C0885937
:104E80009E4FDF91CF91FF90EF90DF90CF90BF903A
:104E9000AF909F908F9008958091CD04882351F01A
:104EA0008091CD04833031F08091CD04843008F0BE
:104EB0007FC008950E94B0C860938A0570938B05E7
:104EC00080938C0590938D0580918A0590918B0538
:104ED000A0918C05B0918D054091BB045091BC040C
:104EE0006091BD047091BE04841B950BA60BB70B9B
:104EF0008093860590938705A0938805B0938905D4
:104F000040918605509187056091880570918905CB
:104F100080916F0690917006A0917106B091720613
:104F200084179507A607B70708F04AC080918A053D
:104F300090918B05A0918C05B0918D058093BB0459
:104F40009093BC04A093BD04B093BE048091D1049F
:104F50009091D20401969093D2048093D104109240
:104F6000CD048091D1049091D2040297C0F0809139
:104F7000860590918705A0918805B091890522E06A
:104F8000B695A795979587952A95D1F780936F0643
:104F900090937006A0937106B093720608951092D4
:104FA0006F061092700610927106109272060895A4
:104FB0001092CD0481E090E09093D2048093D104CC
:104FC00008958091A0059091A105A091A205B091AE
:104FD000A30580938E0590938F05A0939005B093C1
:104FE00091050E94B0C86093A4057093A5058093B5
:104FF000A6059093A7058091A4059091A505A09181
:10500000A605B091A7054091840E5091850E609140
:10501000860E7091870E841B950BA60BB70B8093A1
:10502000A0059093A105A093A205B093A30560915C
:10503000A0057091A1058091A2059091A3050E9401
:1050400033184091A0055091A1056091A20570917F
:10505000A3058091440890914508A0914608B0911D
:10506000470884179507A607B70708F051C0E091D5
:105070002B06F0912C06808190912A068923F1F16C
:1050800021E020939F0580918E0590918F05A0913E
:105090009005B091910580939B0590939C05A093FA
:1050A0009D05B0939E058091CE049091CF0401960A
:1050B0009093CF048093CE044091A0055091A10518
:1050C0006091A2057091A30580919B0590919C052C
:1050D000A0919D05B0919E0584179507A607B70777
:1050E000C0F082E090E09093CF048093CE048DE9ED
:1050F00090E090937F0E80937E0E37C08091F911DF
:10510000811167C01092F9111092CF041092CE0451
:10511000089581E090E09093CF048093CE041092A4
:105120007F0E10927E0E8091390690913A06A091E2
:105130003B06B0913C068093350690933606A093CB
:105140003706B09338068091A4059091A505A091EB
:10515000A605B091A7058093390690933A06A093CF
:105160003B06B0933C062093F9118091840E9091F8
:10517000850EA091860EB091870E8093800E90933D
:10518000810EA093820EB093830E8091A40590911E
:10519000A505A091A605B091A7058093840E9093D4
:1051A000850EA093860EB093870E80916612909123
:1051B0006712A0916812B09169120196A11DB11DEC
:1051C0008093661290936712A0936812B09369124D
:1051D00008958091A1128F5F8093A11293CF0E94B6
:1051E000B0C86093A4057093A5058093A60590931D
:1051F000A7058091A4059091A505A091A605B09161
:10520000A7054091840E5091850E6091860E709195
:10521000870E841B950BA60BB70B8093A00590936C
:10522000A105A093A205B093A3054091A0055091BC
:10523000A1056091A2057091A30580914408909109
:105240004508A0914608B0914708481759076A07D2
:105250007B0708F448C18091CE049091CF04019659
:105260009093CF048093CE0481E080939F0580913A
:10527000CD04811120C08091840E9091850EA09163
:10528000860EB091870E4091800E5091810E6091F4
:10529000820E7091830E841B950BA60BB70B880FA3
:1052A000991FAA1FBB1F80939B0590939C05A093F9
:1052B0009D05B0939E058091840E9091850EA091DE
:1052C000860EB091870E892B8A2B8B2B61F08091F3
:1052D000800E9091810EA091820EB091830E892B49
:1052E0008A2B8B2B41F41092A0051092A1051092ED
:1052F000A2051092A3054091A0055091A1056091CF
:10530000A2057091A30580919B0590919C05A091A9
:105310009D05B0919E0584179507A607B70708F06D
:105320007AC08091CD04813009F05FC023E130E084
:105330003093CF042093CE041092CD048093F911C2
:105340001092880E10924408109245081092460858
:10535000109247088091840E9091850EA091860E40
:10536000B091870E8093800E9093810EA093820E51
:10537000B093830E8091A4059091A505A091A605F8
:10538000B091A7058093840E9093850EA093860E0E
:10539000B093870E8091650B86FFA5C02091CE0447
:1053A0003091CF0440917E0E50917F0E21503109F3
:1053B000249FC001259F900D349F900D11242091B2
:1053C000AF0C3091B00C820F931F20911D023091D1
:1053D0001E02821793070CF481C0821B930B60910D
:1053E000CE047091CF040C94411581E08093CD04DC
:1053F0008091CE049091CF0401969093CF04809336
:10540000CE048091CE049091CF0401969093CF0466
:105410008093CE0495CF8091CE049091CF04859750
:1054200008F44FC081E090E09093CF048093CE04C5
:1054300080919A0591E0892780939A058091390699
:1054400090913A06A0913B06B0913C0680933506B8
:1054500090933606A0933706B09338068091A40542
:105460009091A505A091A605B091A7058093390656
:1054700090933A06A0933B06B0933C068091661247
:1054800090916712A0916812B09169120196A11DC6
:10549000B11D8093661290936712A0936812B09327
:1054A00069126091A0057091A1058091A20590916B
:1054B000A3050E94331881E08093880E1092CD04DA
:1054C00049CF8091CD04813061F723E230E0309301
:1054D000CF042093CE048093F911E3CF97FF7FCFC1
:1054E000820F931F7CCF08950E94B0C86093A405DB
:1054F0007093A5058093A6059093A7058091A405B8
:105500009091A505A091A605B091A7054091840EA4
:105510005091850E6091860E7091870E841B950BBD
:10552000A60BB70B8093A0059093A105A093A205AD
:10553000B093A3054091A0055091A1056091A205EB
:105540007091A3058091440890914508A091460868
:10555000B0914708481759076A077B0708F4C1C08C
:105560008091CE049091CF0401969093CF048093C4
:10557000CE0481E080939F058091840E9091850EEA
:10558000A091860EB091870E892B8A2B8B2B61F010
:105590008091800E9091810EA091820EB091830E29
:1055A000892B8A2B8B2B41F41092A0051092A10518
:1055B0001092A2051092A3058091CE049091CF0481
:1055C0004197E8F18091F9118823C9F181E090E0D9
:1055D0009093CF048093CE048091390690913A063F
:1055E000A0913B06B0913C06809335069093360619
:1055F000A0933706B09338068091A4059091A50535
:10560000A091A605B091A7058093390690933A061C
:10561000A0933B06B0933C0680916612909167126E
:10562000A0916812B09169120196A11DB11D8093DD
:10563000661290936712A0936812B0936912109249
:10564000440810924508109246081092470810929C
:10565000880E8091840E9091850EA091860EB09157
:10566000870E8093800E9093810EA093820EB0934C
:10567000830E8091A4059091A505A091A605B091F7
:10568000A7058093840E9093850EA093860EB09309
:10569000870E8091650B86FF24C0E091CE04F091C7
:1056A000CF04EE0FFF1FE35CF94F808191812091C1
:1056B000AF0C3091B00C820F931F20911D023091DE
:1056C0001E028217930744F0821B930B6091CE0455
:1056D0007091CF040C94411597FFF8CF820F931F60
:1056E000F5CF08958091CE049091CF04499719F495
:1056F0001092F91108950E94B0C86093A4057093A8
:10570000A5058093A6059093A7058091A405909187
:10571000A505A091A605B091A7054091840E5091D2
:10572000850E6091860E7091870E841B950BA60BDB
:10573000B70B8093A0059093A105A093A205B09309
:10574000A3058091CE049091CF04892B09F05BC012
:1057500081E090E09093CF048093CE04809139064D
:1057600090913A06A0913B06B0913C068093350695
:1057700090933606A0933706B09338068091A4051F
:105780009091A505A091A605B091A7058093390633
:1057900090933A06A0933B06B0933C0680919A05FD
:1057A00091E0892780939A059093F9118091661270
:1057B00090916712A0916812B09169120196A11D93
:1057C000B11D8093661290936712A0936812B093F4
:1057D00069128FE090E090937F0E80937E0E81E0BF
:1057E00080939F058091A4059091A505A091A605A1
:1057F000B091A7058093840E9093850EA093860E9A
:10580000B093870E08958091CE049091CF040196B5
:105810009093CF048093CE04A091CE04B091CF0496
:10582000E091CE04F091CF04AA0FBB1FA35CB94F47
:10583000EE0FFF1FE55CF94F8D919C912081318126
:10584000821B930BC8CF8091F9110E94B0C860935E
:105850008A0570938B0580938C0590938D058091BC
:105860008A0590918B05A0918C05B0918D05409192
:10587000BB045091BC046091BD047091BE04841BB4
:10588000950BA60BB70B8093860590938705A09385
:105890008805B093890540918605509187056091F0
:1058A00088057091890580916F0690917006A0918E
:1058B0007106B0917206481759076A077B0708F40A
:1058C000B4C080918A0590918B05A0918C05B09110
:1058D0008D058093BB049093BC04A093BD04B0934A
:1058E000BE0491E090939F054091860550918705F5
:1058F00060918805709189057695679557954795CC
:1059000040936F0650937006609371067093720611
:105910008091F91181114BC04CED55E060E070E0D1
:105920004093440850934508609346087093470895
:1059300040916F06509170066091710670917206E9
:10594000769567955795479540936F0650937006E7
:105950006093710670937206E0912B06F0912C060D
:10596000208130912A068091630B807F232361F090
:105970008034A1F42091CE043091CF042830310539
:10598000B1F49093F91113C0803489F42091CE04BE
:105990003091CF042530310551F4F3CF803639F4FE
:1059A0002091CE043091CF042730310551F320915E
:1059B000FA113091FB118091921290919312281755
:1059C000390720F08091B50C87FF2FC08091F91125
:1059D000882359F18091630B807F803431F50E94D8
:1059E000B0C880917E0590917F05A0918005B0910F
:1059F0008105E0912B06F0912C06808190912A067A
:105A0000892399F08091CE049091CF04883091053C
:105A100041F01092F9118091A1128F5F8093A11231
:105A200008959093CF048093CE040895CF92DF928F
:105A3000EF92FF92CF93DF930E94B0C860938A05E4
:105A400070938B0580938C0590938D0580918A05CA
:105A500090918B05A0918C05B0918D054091BB0470
:105A60005091BC046091BD047091BE04841B950BE1
:105A7000A60BB70B8093860590938705A0938805A6
:105A8000B0938905409186055091870560918805FE
:105A90007091890580916F0690917006A0917106B2
:105AA000B0917206481759076A077B0708F488C047
:105AB00080918A0590918B05A0918C05B0918D0500
:105AC0008093BB049093BC04A093BD04B093BE0428
:105AD0008091860590918705A0918805B0918905F0
