:020000040000FA
:100000000C94580C0D94B8280D948D280D946228EA
:100010000D9437280D940C280D94E1270D94B627E4
:100020000D948B270C94890C0C94890C0C94890CDE
:100030000C94890C0C94890C0C94890C0C94959953
:100040000C94890C0C94446A0C945A680C94A0FC8F
:100050000C94890C0C94890C0C94890C0D944127F8
:100060000C94890C0D94D82A0D94AE2A0C94890C0A
:100070000C94890C0C94890C0C94890C0C94890CAC
:100080000C9422950C949C940C9416940C94890CCA
:100090000C94890C0C94890C0C94890C0C94890C8C
:1000A0000C94890C0C94890C0C9424900C949093CF
:1000B0000C94498F0C94890C0C94890C0C94B59277
:1000C0000C94DA910C94FF900C94890C0C94890C8C
:1000D0000C94890C0C94890C0D94782A0D944E2A5A
:1000E0000C94890C0C94D25F0C946A790C941310C4
:1000F0000C94E7B70C9476580C94B6D40C94B9B51C
:100100000C94D4A50C94BF700C94CC600C94337AEE
:100110000C945C990C94F1B80C94D2B70C9473794C
:100120000C948E790D94341E0C9444D80C9425991B
:100130000C9434310C9491B80C940C7A0C948BB7C9
:100140000D94A7000C94A8B70C9422B80C94EBA2C1
:100150000D9404290D94F9280D9408290C94EB832F
:100160000C94CFF40C94AA780C94B1C60C94DFB71D
:100170000C941A290C94A6B80C9419610D941B0EBA
:100180000D94E7140C9440380C94085C0C940F7A8E
:100190000C94E57A0C94A5A30D9473420C9437B893
:1001A0000C94F3A10C94F4790D94E51E0D94DE1DCE
:1001B0000C9424D20C94DD0D0C94F7790C941982D4
:1001C0000C949A790C94BD980C9438280C94D67998
:1001D0000C94D0790C94EF200C94C9EF0C94365801
:1001E0000D9472290C94E0A00C94506F0C945CC692
:1001F0000D949D0D0C94D8210D94412C0C94577A9C
:100200000C94ECB60C9494B80C94F3A30C94B2D860
:100210000C94CA810C94A4A50C949BA30C946EC559
:100220000C94B8B70C94157A0C94835E0D94DA1D77
:100230000C941B7A0C9440B80D940C290C94DCA5FA
:100240000D944F2C0C9400760C943F7A0D944B2C0B
:100250000C9429980C9467B80C94C07A0C948FB7BE
:100260000D9487160C9485790C94CC5F0C94A2A203
:100270000C9479790D943D2C0C94199F0C940DB825
:100280000C942C550C9461B80C94F4580C94512E89
:100290000C9418A60C940AB90C94CBE60C94B9856E
:1002A0000C948F240C94F9600C94AF6E0C94A2B74C
:1002B0000C94CF600C94BBB80C9426560D94F81D8A
:1002C0000C94D3B80D940E290C94BC6E0C940DB9FB
:1002D0000C9448600C94FCB70C941BC70C94AEA112
:1002E0000C945E600C9455B80C941EB90C9408766E
:1002F0000C94A7C50C9450A50C947CA50C94A87ADA
:100300000C94AB6E0C9485B80C9482B70C94B358D3
:100310000C942EA40C941CB80C94B5B80C94A0B8F2
:100320000C9480CD0C94AB970C949CB70C94B2B801
:100330000C94E2B80C94F30C0C94DEA20C94C775E8
:100340000C94A5B70C94EBA30C94A3B80C94DD0EFD
:100350000C944F210C947FB80C9455A50C94706F9D
:100360000D94BC1D0C94CCEB0C9428610C9497A1BB
:100370000C9462C70C94D9790C9428B80C9407B8E3
:100380000C94757A0C94457A0C94B4100C949AB62B
:100390000D94BA180C94A9B80C94AE7A0C9470B859
:1003A0000C9410B80C94DC790D94F71D0D94E21D9B
:1003B0000C9405C10C946C580C94E0730C9414A02C
:1003C0000C9426F40C946DB80C9425B80C94B65883
:1003D0000D9406290D944D2C0C94A8EA0C94567992
:1003E0000D94481E0C9480580D947E1B0C94307A0A
:1003F0000D94561E0D94C61D0C941C180C94285771
:100400000C9482730C94F8140C94967A0C944E0D00
:100410000C9452A40C94B4BF0C9419EF0C94DC7A95
:100420000C942EB80D94352C0C94FA550D94B41DE3
:100430000C9459980C94B9580C946CF30C94367A2B
:100440000C9485D60C9493270C9476790C94119F78
:100450000D947F0E0C94ACB80C94ABB70C94A8849C
:100460000C9479B80C94276F0C941E750C94B07989
:100470000C946D790C9467790C94840D0C94452739
:100480000D9427410D94EC1D0C94E8C70C94C47A8C
:100490000C9449A40C94A8E60D9444290D9493401F
:1004A0000C9464B80C94C4B80C944E580C9419B8BD
:1004B0000C9462A30C9404760C9449120C94595E2B
:1004C0000C94BAB50C94C4220C94E5790D9486155D
:1004D0000C9479A20C9495C50C942E720C94C4A221
:1004E0000C94A7970C9495A30C94127A0C949D7974
:1004F0000C94D2600C9401B90C94580E0C9408C65C
:100500000C940E610C9424B90C94DE570C94F58174
:100510000C943C760C94B47A0D94BC170C943E73F6
:100520000C94FDA50C944A0D0C94907A0C9401CB7C
:100530000C9496B70C94216F0C947C9F0C947E5D68
:100540000C9482B80C94487A0D949C2C0C94ACA317
:100550000C94397A0C947E6F0C9462580D94C21DE1
:100560000C94696F0C94667A0C948B790C944D0DF5
:100570000D94F41D0C94BEB80C941BD30C94D62D82
:100580000C947CB70C94CB790D94F01D0C94A57A47
:100590000C94E8790D94472C0D94D0100C943E28BF
:1005A0000C9482790C943DB80C949BB60C94B17A5F
:1005B0000C94187A0C944CA30C94D97A0C94007A6D
:1005C0000C94727A0C943C6F0C94D6B80C94A82CB2
:1005D0000C94FA720C9476B80C9442C90C94BD7ABF
:1005E0000C9405570C941BEE0C9472720D94E81D3C
:1005F0000C94AB7A0C94E2790C9443B80C9453604D
:100600000C9402130C948A7A0C94C1B80C942EBDED
:100610000C9495A20C94C4B70C9473B80C94DD851B
:100620000C94626F0D941F110C949DB80C94E2CA47
:100630000C9494960C948A0D0C9493B70C94C66009
:100640000C94D1150C949FC70C94B76E0C94E15F79
:100650000D9466290C945F500C9424A30C94F49888
:100660000C9497B80C94FEB80C946BC50C94025B78
:100670000C9409370C947FB70C941FB80C948A3AE9
:100680000C9481820C943C7A0C94F4A50C94452A29
:100690000C9425270C9480740C945E5E0C94F39754
:1006A0000C94BCFA0C944B0D0C94356F0C94F9A07F
:1006B0000C9485600C94EB790C946AB80C9449798D
:1006C0000C94ACA50C9416B80C94CA7A0C9431B85E
:1006D0000D94332C0C9495E70C9401ED0C948D7AC9
:1006E0000C9499330C94F7970C94217A0C949CB643
:1006F0000C94AD9F0C946F7A0C944F0D0C94B66EC5
:100700000C94BF580C947C790D94D01D0C94FA5F16
:100710000C94DA730C94566F0C944C790D94B81DAC
:100720000C945A2B0C9415F70C9498840C947EFE20
:100730000C94A2790C9442A10C94517A0C947C579D
:100740000C9460790C94F5550C947C280C9490F0E2
:100750000C94B8790C942FA30C949AB80C94362866
:100760000C94A6B20C9430740C9496280C94E974F2
:100770000C94AFB80C94F2590C947C740C94067AD7
:100780000C94D9700C94C1FF0C942A7A0C94B57413
:100790000C94D67A0C94ECB50C948E730C94850D55
:1007A0000D949C420C9472C30D94452C0C94F2F75A
:1007B0000C94A8B20C9465110C94D07A0C94E7F1C7
:1007C0000C9417970C94B4C70C94550E0C94B2B7B4
:1007D0000C941B600C9499B70C9480A10C947079C4
:1007E0000C940B240C94EBD80C941FA40D94492C5E
:1007F0000C9427B90C945ABE0C94FB830C949273FE
:100800000C9472570C94097A0D9430290C94F17958
:100810000C94CF960C9497790C945BC20C94D0B83E
:100820000C94C7B80C948A880C94937A0C9405A302
:100830000C947F790C9424740C94959F0C942DFA4D
:100840000C948B0D0C9412880C9478740C94D8B77B
:100850000C9401B80C9410B90C945BB80C943961E9
:100860000C94E8850C940E600C94427A0C9465A567
:100870000C94AC580C948EB80C9457A30C94E27A58
:100880000C94BF790C948C550C94BA7A0C94FD7925
:100890000C9402570C94CAB80C94C9600C94930D34
:1008A0000C949A180C94CCC70C9464600C94B5B753
:1008B0000C94601A0D94D41D0C944C0D0C948B0C5C
:1008C0000C9464990C94F0980D9428420C94B8B848
:1008D0000D94CC1D0C94A92A0C944D200C944B7AA9
:1008E0000C9459790C940AB80C9461600C9477F2CA
:1008F0000C941B6F0C943AB80C940FF10C94BEB787
:100900000C9492C50C9449B80C94BBB70C94F8A203
:100910000C94F9B70C945C790C94697A0C94EE7988
:100920000C94A5F90C9459600C94F10C0C949C7ADD
:100930000C94E5820C948B750C948F750C9407B90C
:100940000C94607A0D9418000C94DE6E0C94D457BD
:100950000C940C5A0C945C6F0C944D820C946C7A31
:100960000C94037A0C9488FB0D9422100C9406A628
:100970000C945EB80C9439600C94AEA20C94DF7A9F
:100980000C945F970C9479B70C9412D90C9418B905
:100990000C947B7A0C9434B80C9442790D943B2CD3
:1009A0000C9477590C946D390C94A8EC0D94321F6B
:1009B0000C9419A30C94B46E0C9458580D943829C7
:1009C0000C94DE730C945B180C943A280C940D84F0
:1009D0000D9469140C9446790C94DCA10C94CBB959
:1009E0000C94F9F20C94B7B20C94B5F50C947DF814
:1009F0000C94CDB80C944E7A0C94C1B70C94FD2E87
:100A00000D94AE1D0C94409F0C94BAFE0C94B5B29C
:100A10000C9417A40C94A27A0C94B9B20C9413B948
:100A20000C94F3560C9437A40C940FA60C94F20C6F
:100A30000C9488B80C94CD7A0C94C7B70C94877535
:100A40000C94DFB80C9472EC0C94FA130C940857C5
:100A50000C949FB70D94AD3F0C944EF70C94159FDA
:100A60000C94A6710C94F1560D9410290C94CB752E
:100A70000C942FFE0C94072D0C942D7A0C94C461C9
:100A80000D94F31D0C94570F0C94E5B80C9452750B
:100A90000C94DF790C944CB80C94D9B80C94787AF7
:100AA0000C940F6F0C94C77A0C9488B70D9451294D
:100AB0000C94997A0C942E6F0C9486580C94EEB783
:100AC0000C9460990C9446B80D94392C0C9460A247
:100AD0000C943FF00C945BA40C941A5D0D94372C8D
:100AE0000C943ECF0C94D37A0C9433280C942C7431
:100AF0000C94A6580C9474740C94322C0C94FA79BF
:100B00000C94B6720C94BC580C942F560C944076EE
:100B10000C9440A40D94E7420C94CA2B0C94C3A3EC
:100B20000C9443840C94F1610C94EBA50C9413B8D1
:100B30000C9458B80C9464790C94B15C0C949DB6E8
:100B40000C9421B90C946C2D0C9485B70C942CB694
:100B50000C94156F0C9443FF0C947F590C94EA711C
:100B60000C943A860C947E7A0C94FBB80C94E32790
:100B70000D94251E0C942BB80C9428740C945A7A5E
:100B80000C946C560C94052B0D945F0F0C94DCB8F0
:100B90000D943F2C0C9404B90C949F7A0C94592F0B
:100BA0000D948D3F0C94F7B80C94CBBB0C94D95B8F
:100BB0000C948A730C94247A0C945D7A0C94CDB7BF
:100BC0000C9486730C948C980D947F290C94096F67
:100BD0000C944FB80C948BB80C94C3750C94299951
:100BE0000C945C190C9451870C9459550C94277AE9
:100BF0000C94776F0D948B100C941BE70C9433823C
:100C00000C947CB80C9488790C945BA10C9411E63C
:100C10000C9429B90C941E7A0C94547A0C94B77ADB
:100C20000C9478300C946C550D94432C0C946CA55A
:100C30000D94981E0C9488840C9434570C94559FF2
:100C40000C9452B80D94512C0C945EA50C946782B0
:100C50000C943C280C94EEB80C94B3A30C9429F596
:100C60000C942E600C944A6F0C94EBB80C940AA26E
:100C70000C94C8790C94D6730C94817A0C94FF561A
:100C80000C94F4B80C94E8B80C9412BB0C94637AEE
:100C90000C94436F0C94CAB70C9456600C94A879CA
:100CA0000C9442F60C946155526573657420636F21
:100CB0006E74726F6C2069732063757272656E74E6
:100CC0006C792064697361626C65642E00436F6D9A
:100CD0006D732068616C7465642E204E6578742095
:100CE000627974652077696C6C2072657365742015
:100CF0007468652041726475696E6F2E00005370D0
:100D000065656475696E6F20323032352E30310082
:100D1000737065656475696E6F20323032353031BD
:100D200000000030303200FF0A50616765206861C2
:100D300073206E6F74206265656E20696D706C65DE
:100D40006D656E74656420796574000A426F6F7317
:100D500074206C6F6F6B7570207461626C65000A33
:100D6000326E642049676E6974696F6E204D6170E0
:100D7000000A326E64204675656C204D6170000A71
:100D800050616765203920436667000A5472696DB7
:100D90002031205461626C65000A565654204D6122
:100DA00070000A426F6F7374204D6170000A5067C3
:100DB000203620436F6E666967000A414652204D17
:100DC0006170000A5067203420436667000A496753
:100DD0006E6974696F6E204D6170000A5067203231
:100DE00020436667000A5645204D6170000A3D3D6C
:100DF0003D436F6D6D616E642048656C703D3D3D97
:100E00000A0A416C6C20636F6D6D616E64732061C2
:100E100072652073696E676C6520636861726163D7
:100E200074657220616E642061726520636F6E6309
:100E30006174656E61746564207769746820746894
:100E400065697220706172616D6574657273200AE4
:100E5000776974686F7574207370616365732E535E
:100E6000796E7461783A20203C636F6D6D616E64B9
:100E70003E2B3C706172616D65746572313E2B3C36
:100E8000706172616D65746572323E2B3C70617287
:100E9000616D657465724E3E0A0A3D3D3D4C697355
:100EA00074206F6620436F6D6D616E64733D3D3DD0
:100EB0000A0A41202D20446973706C6179732033D4
:100EC00031206279746573206F6620637572726574
:100ED0006E745374617475732076616C75657320DC
:100EE000696E2062696E61727920286C697665206E
:100EF00064617461290A42202D204275726E20635C
:100F0000757272656E74206D617020616E6420630D
:100F10006F6E666967506167652076616C75657391
:100F200020746F20656570726F6D0A43202D205408
:100F300065737420434F4D20706F72742E202055BE
:100F40007365642062792054756E6572737475647C
:100F5000696F20746F2073656520776865746865B4
:100F60007220616E20454355206973206F6E2061A9
:100F700020676976656E2073657269616C200A204E
:100F8000202020706F72742E2052657475726E73FB
:100F900020612062696E617279206E756D62657282
:100FA0002E0A4E202D205072696E74206E657720B7
:100FB0006C696E652E0A50202D2053657420637570
:100FC0007272656E7420706167652E202053796E91
:100FD0007461783A2020502B3C706167654E756DC6
:100FE0006265723E0A52202D2053616D6520617347
:100FF000204120636F6D6D616E640A53202D204483
:101000006973706C6179207369676E61747572655C
:10101000206E756D6265720A51202D2053616D65D9
:10102000206173205320636F6D6D616E640A5620DA
:101030002D20446973706C6179206D6170206F722E
:1010400020636F6E666967506167652076616C75B5
:10105000657320696E2062696E6172790A57202D6E
:1010600020536574206F6E65206279746520696E07
:10107000206D6170206F7220636F6E6669675061CA
:1010800067652E2020457870656374732062696EF1
:1010900061727920706172616D65746572732E2062
:1010A0000A2020202053796E7461783A2020572B33
:1010B0003C6F66667365743E2B3C6E65776279742F
:1010C000653E0A74202D205365742063616C69624B
:1010D000726174696F6E2076616C7565732E202065
:1010E000457870656374732062696E6172792070EF
:1010F0006172616D65746572732E20205461626C3B
:101100006520696E64657820697320656974686517
:101110007220302C200A20202020312C206F7220B9
:10112000322E202053796E7461783A2020742B3C43
:1011300074626C655F6964783E2B3C6E65775661BE
:101140006C7565313E2B3C6E657756616C7565320A
:101150003E2B3C6E657756616C75654E3E0A5A2093
:101160002D20446973706C61792063616C696272CF
:101170006174696F6E2076616C7565730A54202DF9
:1011800020446973706C6179732032353620746F36
:101190006F7468206C6F6720656E74726965732068
:1011A000696E2062696E6172790A72202D2044692D
:1011B00073706C6179732032353620746F6F746888
:1011C000206C6F6720656E74726965730A55202DF7
:1011D000205072657061726520666F722066697258
:1011E0006D77617265207570646174652E20546836
:1011F00065206E6578742062797465207265636518
:10120000697665642077696C6C206361757365200D
:101210007468652041726475696E6F20746F207206
:10122000657365742E0A3F202D20446973706C61CC
:10123000797320746869732068656C7020706167C9
:1012400065002C2000575545004F3200496E6C65F3
:10125000742074656D7000436F6F6C616E74005222
:101260006573657420636F6E74726F6C2069732090
:1012700063757272656E746C792064697361626CF7
:1012800065642E00436F6D6D732068616C746564D6
:101290002E204E65787420627974652077696C6CB5
:1012A0002072657365742074686520417264756985
:1012B0006E6F2E004552523B20496E636F7272650D
:1012C000637420454550524F4D2073697A65003054
:1012D00030320020002000200020002020202000AC
:1012E000537065656475696E6F20323032352E300B
:1012F0003100737065656475696E6F203230323508
:10130000303100537065656475696E6F2063737862
:1013100030323031392E38000000800020012001A9
:10132000800020018000F0008001C000C00020018A
:10133000C000800020010001040E11161A1C212A91
:101340002C2E30323436383A3C3E40424446484CEB
:101350004E505256585A5D5F63686F797D000000A9
:1013600000963007772C610EEEBA51099919C46DB9
:10137000078FF46A7035A563E9A395649E3288DB14
:101380000EA4B8DC791EE9D5E088D9D2972B4CB6EB
:1013900009BD7CB17E072DB8E7911DBF906410B7E1
:1013A0001DF220B06A4871B9F3DE41BE847DD4DA03
:1013B0001AEBE4DD6D51B5D4F4C785D38356986C30
:1013C00013C0A86B647AF962FDECC9658A4F5C01B1
:1013D00014D96C0663633D0FFAF50D088DC8206EB5
:1013E0003B5E10694CE44160D5727167A2D1E403A1
:1013F0003C47D4044BFD850DD26BB50AA5FAA8B5C0
:10140000356C98B242D6C9BBDB40F9BCACE36CD8B2
:1014100032755CDF45CF0DD6DC593DD1ABAC30D950
:10142000263A00DE518051D7C81661D0BFB5F4B45A
:101430002123C4B3569995BACF0FA5BDB89EB80263
:10144000280888055FB2D90CC624E90BB1877C6FE8
:101450002F114C6858AB1D61C13D2D66B69041DC23
:10146000760671DB01BC20D2982A10D5EF8985B1B0
:10147000711FB5B606A5E4BF9F33D4B8E8A2C9076B
:101480007834F9000F8EA8099618980EE1BB0D6A02
:101490007F2D3D6D08976C6491015C63E6F4516BA0
:1014A0006B62616C1CD83065854E0062F2ED95066A
:1014B0006C7BA5011BC1F4088257C40FF5C6D9B0D7
:1014C0006550E9B712EAB8BE8B7C88B9FCDF1DDD38
:1014D00062492DDA15F37CD38C654CD4FB5861B28C
:1014E0004DCE51B53A7400BCA3E230BBD441A5DF68
:1014F0004AD795D83D6DC4D1A4FBF4D6D36AE96927
:1015000043FCD96E34468867ADD0B860DA732D04D9
:1015100044E51D03335F4C0AAAC97C0DDD3C71050F
:1015200050AA41022710100BBE86200CC925B568B1
:1015300057B3856F2009D466B99FE461CE0EF9DEFA
:101540005E98C9D9292298D0B0B4A8D7C7173DB39F
:1015500059810DB42E3B5CBDB7AD6CBAC02083B8C9
:10156000EDB6B3BF9A0CE2B6039AD2B1743947D53F
:10157000EAAF77D29D1526DB048316DC73120B636A
:10158000E3843B64943E6A6D0DA85A6A7A0BCF0ED1
:10159000E49DFF099327AE000AB19E077D44930F97
:1015A000F0D2A3088768F2011EFEC206695D576289
:1015B000F7CB67658071366C19E7066B6E761BD4C6
:1015C000FEE02BD3895A7ADA10CC4ADD676FDFB997
:1015D000F9F9EFBE8E43BEB717D58EB060E8A3D63B
:1015E000D67E93D1A1C4C2D83852F2DF4FF167BB87
:1015F000D16757BCA6DD06B53F4B36B248DA2B0D96
:10160000D84C1B0AAFF64A0336607A0441C3EF6038
:10161000DF55DF67A8EF8E6E3179BE69468CB36106
:10162000CB1A8366BCA0D26F2536E2685295770C40
:10163000CC03470BBBB91602222F260555BE3BBA79
:10164000C5280BBDB2925AB42B046AB35CA7FFD76E
:10165000C231CFD0B58B9ED92C1DAEDE5BB0C2643B
:101660009B26F263EC9CA36A750A936D02A9060996
:101670009C3F360EEB8567077213570005824ABF01
:1016800095147AB8E2AE2BB17B381BB60C9B8ED288
:10169000920DBED5E5B7EFDC7C21DFDB0BD4D2D3D6
:1016A0008642E2D4F1F8B3DD686E83DA1FCD16BE50
:1016B000815B26B9F6E177B06F7747B718E65A082D
:1016C00088706A0FFFCA3B06665C0B0111FF9E65BE
:1016D0008F69AE62F8D3FF6B6145CF6C1678E20A72
:1016E000A0EED20DD75483044EC2B30339612667EE
:1016F000A7F71660D04D476949DB776E3E4A6AD13D
:10170000AEDC5AD6D9660BDF40F03BD83753AEBCBF
:10171000A9C59EBBDE7FCFB247E9FFB5301CF2BD45
:10172000BD8AC2BACA3093B353A6A3B4240536D037
:10173000BA9306D7CD2957DE54BF67D9232E7A66D0
:10174000B3B84A61C4021B685D942B6F2A37BE0B85
:10175000B4A18E0CC31BDF055A8DEF022D000021B2
:1017600000240027002A002D003000330001010072
:1017700000040107010A0100002200250028002BB7
:10178000002E003100340002010000050108010BA9
:1017900001000020002300260029002C002F003229
:1017A0000000010000030106010901050505050708
:1017B0000508080808020202020A0A0808040404CC
:1017C00004010101010101010103030303030303F8
:1017D00003040707070C0C0C0C0C0C0C0C02020287
:1017E0000206060606060606060B0B0B0B0B0B0B7A
:1017F0000B050505080807070404040A0A0A0A0A73
:101800000A01021020200808102040102040800209
:101810000102010804020101020408102040808036
:1018200040201008040201800402018040201008BA
:101830000402010804020101020408102040800192
:10184000020408102040800440800480081010200A
:101850004004081020408000000B0C030A0D0E0FFE
:10186000090804050200000000000000000000005C
:101870000000000000000000000000000000000068
:101880000000001312110000000000000000000022
:101890000000000000000000000000000000000048
:1018A0000000000000000000000000000000A40292
:1018B00011241FBECFEFD1E2DEBFCDBF00E00CBFD1
:1018C00012E0A0E0B2E0E4E5F9E902E00BBF02C0FB
:1018D00007900D92A638B107D9F72FE1A6E8B2E03C
:1018E00001C01D92AB3CB207E1F71CE0C8E5DCE0AB
:1018F00000E006C021970109802FFE010F947E4C65
:10190000C735D10780E00807A9F70F94E22F0D949F
:10191000A84C0C94000080911A0B90911B0B209105
:10192000BB1C3091BC1CAC01445051092417350735
:101930000CF04BC0821B930B97FD019695958795F4
:10194000049790937A07809379078091CB059091C3
:10195000CC05AC014450510924173507CCF5821B46
:10196000930B97FD0196959587950497909378072B
:10197000809377078091C9059091CA05AC014450C6
:101980005109241735073CF5821B930B97FD0196EF
:101990009595879504979093760780937507809126
:1019A000C7059091C805AC0144505109241735076B
:1019B000ACF4821B930B97FD019695958795049740
:1019C0009093680780936707089580539D4FB2CF27
:1019D00080539D4FC4CF80539D4FD6CF80539D4F92
:1019E000E8CF089508958091651E9091C71C9C7161
:1019F0009C3091F58A30CCF088E090E090937A07A3
:101A00008093790782E090E090937807809377073E
:101A100084E090E0909376078093750786E090E0ED
:101A2000909368078093670708951816ECF781E094
:101A300090E090937A078093790783E090E0909309
:101A400078078093770785E090E0909376078093FE
:101A5000750787E090E0E4CF8A308CF024E030E036
:101A600030937A072093790782E090E0909378078B
:101A7000809377073093760720937507D1CF181698
:101A80009CF621E030E030937A072093790783E0D9
:101A900090E0ECCF089508950895089508958091F9
:101AA000341E80FD10C0109212091092110980910D
:101AB000341E81608093341E83E08093B70881E0F8
:101AC0008093B80808958091C11C87FF05C01092CB
:101AD000120910921109F0CF8091A01E9091A11EC1
:101AE000A091A21EB091A31E84369105A105B10557
:101AF00030F780911109909112098D9701F310929E
:101B0000120910921109DBCF089510921209109258
:101B1000110908950895109212091092110981E097
:101B20008093B80808958091440C807F803479F5C3
:101B30008091C71C8C718C30C9F488E090E0909340
:101B40007A078093790782E090E0909378078093FA
:101B5000770784E090E0909376078093750786E09E
:101B600090E09093680780936707089524E030E041
:101B700030937A072093790782E090E0909378077A
:101B8000809377073093760720937507EACF8036E6
:101B900061F78091C71C8C718C3079F286E090E0FF
:101BA00090937A078093790782E090E0909378078A
:101BB0008093770724E030E0E5CF8091651E823185
:101BC0009CF487E090E090937A078093790782E015
:101BD00090E0909378078093770785E090E090936A
:101BE000760780937507089586E090E090937A07D2
:101BF0008093790781E090E090937807809377074E
:101C000084E090E0ECCFCF92DF92EF92FF92809150
:101C10002B1F85FF45C08091B808882309F440C078
:101C2000E0912202F09123021995893621E0920772
:101C30001CF088569140F9CF2091BB1C3091BC1C00
:101C4000821B930B2091311F2370223031F420919D
:101C5000F61D3091F71D821B930B4091371D9C019F
:101C6000220F331F50E0A0E0B1E0A41BB50B0F948E
:101C70008D4C6B017C01A091E11EB091E21E9A0196
:101C80000F94954C6C0D7D1D8E1D9F1D20E031E045
:101C900040E050E00F94FF4B3093E21E2093E11E92
:101CA000FF90EF90DF90CF90089590E080E008954E
:101CB00090E080E00895EF92FF920F931F93CF93EF
:101CC000DF9340910002442321F010920002109211
:101CD000961EE091341E5091801E4091801E2E2F42
:101CE000217030E03195219531092527207833275F
:101CF00024272093801E1092B20D9B012E54324F48
:101D00007901C2EBDDE08C01025B1D40CE15DF05E1
:101D100041F0C8018C0F9D1F0E94ECB6898321966B
:101D2000F5CF8091811E877F8093811EDF91CF91B7
:101D30001F910F91FF90EF900895CF93C82F80913E
:101D40009A0890919B08DC01ED91FC910480F5814B
:101D5000E02D1995892B99F380919A0890919B0811
:101D6000DC01ED91FC910190F081E02D6C2FCF9181
:101D70001994CF93C82F892F0E949D0E8C2FCF913D
:101D80000C949D0E80919A0890919B08DC01ED9136
:101D9000FC910084F185E02D19951816190664F45C
:101DA00080919A0890919B08DC01ED91FC9102844E
:101DB000F385E02D1995E6CF08958F929F92AF920B
:101DC000BF92CF92DF92EF92FF920F931F93CF9328
:101DD000DF93F894C090FF08D0900009E0900109CB
:101DE000F09002098090FB089090FC08A090FD08FC
:101DF000B090FE08C0911109D09112090F94972557
:101E000060937107709372078093730790937407C0
:101E10007894CE010197880F991F2091BB1C3091B7
:101E2000BC1C820F931FA6010D2C000C660B770BB8
:101E30000091710710917207209173073091740718
:101E4000041B150B260B370B00936D0710936E07C1
:101E500020936F0730937007A6014819590957FF5F
:101E600002C04F5F5F4F55954795052E000C660BDE
:101E7000770B401751076207730708F40196803DFE
:101E800022E092077CF0805D9240DF91CF911F911C
:101E90000F91FF90EF90DF90CF90BF90AF909F9009
:101EA0008F90089597FFF1CF88599E4FEECF0F94F2
:101EB00097256093630770936407809365079093F9
:101EC00066078091630790916407A0916507B091C0
:101ED00066074091B3085091B4086091B5087091BD
:101EE000B608841B950BA60BB70B8093070990933C
:101EF0000809A0930909B0930A098091630790919A
:101F00006407A0916507B09166078093B30890932A
:101F1000B408A093B508B093B6082091C11C322F25
:101F200031708091BD089091BE08892B79F1E091C4
:101F3000A008F091A108808190919F08892391E0E9
:101F400009F490E0931711F1809111099091120911
:101F50004091BD085091BE08841B9091341E90FDA5
:101F600051C09091440C907F9034C1F591EF980F3F
:101F70009330A8F480E190E09093120980931109C6
:101F80008091341E81608093341E089580911109E0
:101F9000909112099093BE088093BD08089595EF23
:101FA000980F933018F486E690E0E6CF99EF980FFB
:101FB000933018F48CEB90E0DFCF8350833018F42B
:101FC00082E191E0D9CF8091341E8E7F8093341EC0
:101FD0008091DC1E8F5F8093DC1E0895903631F473
:101FE00083508330F8F48CE790E0C6CF903831F41A
:101FF00086508330B8F488E390E0BECF8091341EE1
:102000008E7FC1CF27FF0EC09091440C907F9034FB
:1020100049F48F50833030F480E190E090931209BE
:102020008093110908950F94972560936307709327
:1020300064078093650790936607809107099091E4
:102040000809A0910909B0910A098093AB089093FF
:10205000AC08A093AD08B093AE088091630790914F
:102060006407A0916507B09166074091B30850914D
:10207000B4086091B5087091B608841B950BA60B47
:10208000B70B8093070990930809A0930909B093AF
:102090000A098091630790916407A0916507B09148
:1020A00066078093B3089093B408A093B508B093E3
:1020B000B6088091341E80FD1AC08091BD089091B1
:1020C000BE080297A9F481E090E0909312098093F2
:1020D00011098091341E81608093341E8091BD0867
:1020E0009091BE0801969093BE088093BD08089514
:1020F0008CED95E0A0E0B0E08093C7089093C8080D
:10210000A093C908B093CA088091AB089091AC081D
:10211000A091AD08B091AE08B695A7959795879513
:1021200080935B0790935C07A0935D07B0935E0775
:1021300040910709509108096091090970910A09B5
:1021400080915B0790915C07A0915D07B0915E075D
:10215000481759076A077B0708F682E090E09093DA
:10216000BE088093BD08BACF0F949725609363078C
:102170007093640780936507909366078091630767
:1021800090916407A0916507B09166074091B308EC
:102190005091B4086091B5087091B608841B950BF6
:1021A000A60BB70B8093070990930809A093090920
:1021B000B0930A098091841E81FD04C08091341E71
:1021C00080FD0CC08CED95E0A0E0B0E08093C708E6
:1021D0009093C808A093C908B093CA084091070912
:1021E000509108096091090970910A098091C3080A
:1021F0009091C408A091C508B091C6084817590726
:102200006A077B0708F460C08091630790916407B8
:10221000A0916507B09166078093B3089093B408C6
:10222000A093B508B093B60880910709909108096A
:10223000A0910909B0910A098093AB089093AC086A
:10224000A093AD08B093AE088091BD089091BE08F0
:1022500001969093BE088093BD08809111099091DA
:102260001209019789F540916307509164076091C5
:102270006507709166078091FF0890910009A09111
:102280000109B091020984179507A607B707E0F482
:102290008091630790916407A0916507B0916607EC
:1022A0004091FF0850910009609101097091020965
:1022B000841B950BA60BB70B809355059093560581
:1022C000A0935705B0935805089580910309909104
:1022D0000409A0910509B09106098093AB08909379
:1022E000AC08A093AD08B093AE080F949725609307
:1022F000690770936A0780936B0790936C078091CE
:10230000690790916A07A0916B07B0916C074091A3
:10231000FF08509100096091010970910209841B26
:10232000950BA60BB70B8093030990930409A09318
:102330000509B0930609809111099091120901963F
:10234000909312098093110980912A0B80628093E7
:102350002A0B80911109909112090D9749F48091EF
:10236000341E80FF05C010921209109211090895C1
:102370008091110990911209019721F48091341EE6
:1023800080FD33C08091AB089091AC08A091AD085E
:10239000B091AE08B695A7959795879580935B0702
:1023A00090935C07A0935D07B0935E07409103098B
:1023B00050910409609105097091060980915B07AD
:1023C00090915C07A0915D07B0915E07481759078F
:1023D0006A077B07E8F510921209109211098091A3
:1023E000341E81608093341E08958091BF089091BF
:1023F000C008A091C108B091C2088093B908909319
:10240000BA08A093BB08B093BC088091690790916B
:102410006A07A0916B07B0916C078093BF089093F7
:10242000C008A093C108B093C2088091A01E9091EB
:10243000A11EA091A21EB091A31E0196A11DB11DC7
:102440008093A01E9093A11EA093A21EB093A31EE2
:102450008091FF0890910009A0910109B0910209B3
:102460008093FB089093FC08A093FD08B093FE08AE
:102470008091690790916A07A0916B07B0916C07F2
:102480008093FF0890930009A0930109B09302097B
:1024900008958091110990911209499731F4809122
:1024A000341E8E7F8093341E08950F949725609379
:1024B000690770936A0780936B0790936C0780910C
:1024C000690790916A07A0916B07B0916C074091E2
:1024D000FF08509100096091010970910209841B65
:1024E000950BA60BB70B8093030990930409A09357
:1024F0000509B09306098091110990911209892B61
:1025000009F060C081E090E0909312098093110976
:102510008091BF089091C008A091C108B091C208F5
:102520008093B9089093BA08A093BB08B093BC08F5
:102530008091690790916A07A0916B07B0916C0731
:102540008093BF089093C008A093C108B093C208BD
:102550008091B80891E089278093B8088091341E53
:1025600081608093341E8091A01E9091A11EA09145
:10257000A21EB091A31E0196A11DB11D8093A01EA5
:102580009093A11EA093A21EB093A31E8FE090E093
:10259000909314098093130980912A0B8062809391
:1025A0002A0B8091690790916A07A0916B07B091FF
:1025B0006C078093FF0890930009A0930109B093E2
:1025C0000209089580911109909112090196909342
:1025D000120980931109A0911109B0911209E0919B
:1025E0001109F0911209AA0FBB1FA753B74FEE0FA5
:1025F000FF1FE953F74F8D919C9120813181821B00
:10260000930BC6CF8091341E0F9497256093630778
:1026100070936407809365079093660780916307C2
:1026200090916407A0916507B09166074091B30847
:102630005091B4086091B5087091B608841B950B51
:10264000A60BB70B8093070990930809A09309097B
:10265000B0930A094091070950910809609109094E
:1026600070910A098091C3089091C408A091C5088F
:10267000B091C608481759076A077B0708F4B9C024
:102680008091630790916407A0916507B0916607F8
:102690008093B3089093B408A093B508B093B6089C
:1026A00080912A0B806280932A0B80910709909178
:1026B0000809A0910909B0910A09B695A7959795BF
:1026C00087958093C3089093C408A093C508B093DE
:1026D000C6088091341E80FD4BC08CED95E0A0E0D3
:1026E000B0E08093C7089093C808A093C908B0933E
:1026F000CA088091C3089091C408A091C508B09100
:10270000C608B695A795979587958093C30890932B
:10271000C408A093C508B093C608E091A308F0913F
:10272000A40890812091A2088091440C807F92237C
:1027300071F08034A9F480911109909112090897E1
:10274000B9F48091341E81608093341E11C08034AE
:1027500079F48091110990911209059749F4F1CF0C
:10276000803631F48091110990911209079749F34D
:102770002091351E3091361E8091CC1E9091CD1E39
:102780002817390720F08091C11C87FF32C0809143
:10279000341E80FF2EC08091440C807F803449F528
:1027A0000F94972580914D0590914E05A0914F056E
:1027B000B0915005E091A308F091A4088081909118
:1027C000A2088923B1F080911109909112098830F3
:1027D000910559F08091341E8E7F8093341E809134
:1027E000DC1E8F5F8093DC1E089590931209809306
:1027F00011090895CF92DF92EF92FF92CF93DF936A
:102800000F9497256093630770936407809365071F
:10281000909366078091630790916407A091650784
:10282000B09166074091B3085091B4086091B50823
:102830007091B608841B950BA60BB70B8093070904
:1028400090930809A0930909B0930A0940910709D8
:10285000509108096091090970910A098091C30893
:102860009091C408A091C508B091C60848175907AF
:102870006A077B0708F4A7C08091630790916407FB
:10288000A0916507B09166078093B3089093B40850
:10289000A093B508B093B6088091070990910809F4
:1028A000A0910909B0910A0932E0B695A7959795CC
:1028B00087953A95D1F78093C3089093C408A09365
:1028C000C508B093C6088091341E80FF26C0409191
:1028D000A01E5091A11E6091A21E7091A31E809116
:1028E000C61C90E0B0E0A0E084179507A607B707E4
:1028F000A0F48091CA1C90E0209111093091120936
:102900008217930709F04BC02091C11C27FF3DC0DF
:10291000909312098093110938C00F949725609302
:10292000FF087093000980930109909302090F94A6
:1029300097256B017C01C091CA1C2C2F30E050E020
:1029400040E060E87DE88BE590E00F94314CC21ADE
:10295000D30AE40AF50AC092FB08D092FC08E09280
:10296000FD08F092FE08D0E0D0931209C09311093F
:102970001092C7081092C8081092C9081092CA088D
:102980008091341E81608093341E81E08093B8086A
:10299000DF91CF91FF90EF90DF90CF90089540911D
:1029A000A01E5091A11E6091A21E7091A31E4330E3
:1029B00051056105710508F4A7CF2091DC1E2F5F3A
:1029C0002093DC1EA1CF8091DB0A9091DC0AA091BC
:1029D000DD0AB091DE0AB695A79597958795809305
:1029E000C3089093C408A093C508B093C608D0CF7D
:1029F000CF92DF92EF92FF920F9497256093490553
:102A000070934A0580934B0590934C05809149053E
:102A100090914A05A0914B05B0914C054091450518
:102A2000509146056091470570914805841B950BB0
:102A3000A60BB70B80930B0990930C09A0930D097B
:102A4000B0930E098091450590914605A0914705E8
:102A5000B0914805892B8A2B8B2BC1F410920B095E
:102A600010920C0910920D0910920E0980914905DF
:102A700090914A05A0914B05B0914C058093450576
:102A800090934605A0934705B093480540910B09E4
:102A900050910C0960910D0970910E0980914105CA
:102AA00090914205A0914305B091440548175907FC
:102AB0006A077B0708F470C08091A7089091A80866
:102AC00001969093A8088093A70880910B09909194
:102AD0000C09A0910D09B0910E0922E0B695A795B9
:102AE000979587952A95D1F7809341059093420554
:102AF000A0934305B0934405E0912202F091230294
:102B00001995893621E092071CF088569140F9CF3B
:102B10002091BB1C3091BC1C821B930B2091311F58
:102B20002370223031F42091341D3091351D821BE9
:102B3000930B4091371D9C01220F331F50E0A0E002
:102B4000B1E0A41BB50B0F948D4C6B017C01A091DF
:102B5000F41EB091F51E9A010F94954C6C0D7D1DDD
:102B60008E1D9F1D20E031E040E050E00F94FF4BB0
:102B70003093F51E2093F41E8091490590914A05EB
:102B8000A0914B05B0914C05809345059093460567
:102B9000A0934705B0934805FF90EF90DF90CF904A
:102BA00008950F949725609363077093640780934B
:102BB0006507909366078091630790916407A091E1
:102BC0006507B09166074091B3085091B4086091D1
:102BD000B5087091B608841B950BA60BB70B8093B4
:102BE000070990930809A0930909B0930A098091F5
:102BF000B3089091B408A091B508B091B608892B9C
:102C00008A2B8B2BC1F4109207091092080910929D
:102C1000090910920A098091630790916407A091B5
:102C20006507B09166078093B3089093B408A093AA
:102C3000B508B093B6084091070950910809609112
:102C4000090970910A098091C3089091C408A09164
:102C5000C508B091C608481759076A077B07E8F00E
:102C60008091C31C8F778130C9F008F4AFC08230E7
:102C700009F497C0843009F4CAC080916307909129
:102C80006407A0916507B09166078093B30890939D
:102C9000B408A093B508B093B60808952091B3087E
:102CA0003091B4084091B5085091B6088091AF08B2
:102CB0009091B008A091B108B091B208281B390BCF
:102CC0004A0B5B0BA3E0B0E00F941E4C96958795E2
:102CD0007795679560935F077093600780936107AE
:102CE000909362078091B3089091B408A091B508C1
:102CF000B091B6088093AF089093B008A093B10844
:102D0000B093B208409107095091080960910909F0
:102D100070910A0980915F0790916007A091610707
:102D2000B0916207481759076A077B0738F5809109
:102D3000BD089091BE08049708F58091070990910D
:102D40000809A0910909B0910A0952E0B695A79522
:102D5000979587955A95D1F78093C3089093C408A7
:102D6000A093C508B093C6088091BD089091BE0895
:102D700001969093BE088093BD087FCF81E090E0DC
:102D80009093BE088093BD088093B8081092C30842
:102D90001092C4081092C5081092C6080E94030E33
:102DA0006CCF8091070990910809A0910909B09111
:102DB0000A09B695A795979587958093C308909330
:102DC000C408A093C508B093C608E8CF81E08093FB
:102DD000B8088091070990910809A0910909B0915C
:102DE0000A09B695A795979587958093C308909300
:102DF000C408A093C508B093C6088091BD089091FF
:102E0000BE0801969093BE088093BD08C7CF8091FD
:102E1000BD089091BE0801969093BE088093BD08AE
:102E20008091BD089091BE08029729F481E08093BB
:102E3000B8080E94030E8091070990910809A0919B
:102E40000909B0910A0922E0B695A795979587954B
:102E50002A95D1F78093C3089093C408A093C5081E
:102E6000B093C6080ACFCF93DF9320917F1E26FD33
:102E700008C02091DF1E211107C08091E01E811142
:102E80002AC0DF91CF9108954111FBCFE0911C0C36
:102E9000F0911D0CEE0FFF1FEE0FFF1FE15CFC4FCA
:102EA000608371838283938380911C0C90911D0CAD
:102EB0008E37910508F0BCC080911C0C90911D0CC0
:102EC000019690931D0C80931C0C80917F1E8F7B2C
:102ED00080937F1ED6CFE0911C0CF0911D0CE05426
:102EE000FD4F10822091A3083091A408C091A00842
:102EF000D091A108A0919D08B0919E088430B9F5A9
:102F0000888190919F08892349F0E0911C0CF091F1
:102F10001D0CE054FD4F8081816080838C919091E5
:102F20009C08892349F0E0911C0CF0911D0CE054A1
:102F3000FD4F808182608083F90180819091A20899
:102F4000892349F0E0911C0CF0911D0CE054FD4FD9
:102F50008081846080834230C9F5E0911C0CF0913F
:102F60001D0CE054FD4F8081886080832FC0F901E3
:102F700090812091A208922349F0E0911C0CF091DD
:102F80001D0CE054FD4F9081916090838330D9F502
:102F90008C9190919C08892349F0E0911C0CF09150
:102FA0001D0CE054FD4F8081826080838881909168
:102FB0009F08892349F0E0911C0CF0911D0CE0540E
:102FC000FD4F8081846080834111C7CF8091341E82
:102FD00080FF09C0E0911C0CF0911D0CE054FD4FE6
:102FE0008081806180838091B808E0911C0CF09111
:102FF0001D0CE054FD4F8823C1F0808180628083E6
:103000000F94972543CF888190919F08892349F099
:10301000E0911C0CF0911D0CE054FD4F808182600A
:1030200080838C9190919C08C4CF80818F7DE7CF65
:1030300080917F1E80644CCF80912A0B8F7D80937E
:103040002A0B80912A0B806280932A0B80915B056A
:103050008330E1F4E0919D08F0919E088081909189
:103060009C088923F1F48091E01E882319F1809156
:103070002A0B85FF1FC060910B0970910C0980918C
:103080000D0990910E0942E00C943317823079F4C7
:10309000E0919D08F0919E08808190919C08892381
:1030A00011F7E0910402F09105021995DCCF81300F
:1030B000C1F3D9CF089580912A0B8F7D80932A0B7D
:1030C00080912A0B806280932A0B80915D0583306A
:1030D000E1F4E091A008F091A108808190919F080F
:1030E0008923F1F48091E01E882319F180912A0B45
:1030F00085FF1FC060910709709108098091090937
:1031000090910A0941E00C943317823079F4E091F0
:10311000A008F091A108808190919F08892311F760
:10312000E0910602F09107021995DCCF8130C1F3DE
:10313000D9CF089580912A0B8F7D80932A0B80919F
:1031400059058330F9F4E091A308F091A408808137
:103150009091A208892329F59091DF1E992319F0F7
:1031600090912A0B95FF8091E01E882309F16091D0
:10317000030970910409809105099091060940E0C6
:103180000C943317823059F4E091A308F091A4080D
:1031900080819091A208892321F080E0DDCF8130E9
:1031A000E1F7E0910202F0910302199581E0D4CF9A
:1031B0000895CF92DF92EF92FF92CF93C82F0F9492
:1031C0009725C0909508D0909608E0909708F090C9
:1031D00098089B01AC012C193D094E095F09690152
:1031E0007A01A091EB1DB0E020EA36E841E050E022
:1031F0000F941E4C6C157D058E059F0508F042C08E
:103200000F949725C0909508D0909608E090970865
:10321000F09098089B01AC012C193D094E095F09FB
:1032200069017A01A091EB1DB0E020EA36E841E0A7
:1032300050E00F941E4CC61AD70AE80AF90AA0916A
:10324000EC1DB0E00F941E4C9B01AC01C701B60110
:103250000F94314C809199088217D8F4322F381B83
:103260009091ED1D399F802D112420939908C091D4
:10327000DD1E282F082E000C330BC217130659F041
:1032800054F0C81B8C2FCF91FF90EF90DF90CF9020
:10329000089580E0ECCF8091831E877F8093831E0A
:1032A000109295081092960810929708109298081C
:1032B0001092DE1EC0E0E6CF80911A0B90911B0B9E
:1032C0002091BB1C3091BC1C821B930B0E94768901
:1032D0002091440C22952F70243051F018F42330A3
:1032E00009F108952630F1F0283009F456C0089508
:1032F0000197843B910568F082E090E090937A0713
:103300008093790781E090E0909378078093770726
:10331000089581E090E090937A078093790782E0A6
:1033200090E0F2CF9C01295731092837310598F4F4
:1033300082E090E090937A078093790783E090E0B1
:10334000909378078093770781E090E090937607D9
:103350008093750708950197803F910578F083E089
:1033600090E090937A078093790781E090E09093C2
:1033700078078093770782E090E0E8CF81E090E0E3
:1033800090937A078093790782E090E09093780792
:103390008093770783E090E0D9CF9C012B553109CA
:1033A0002A353105C8F482E090E090937A07809343
:1033B000790783E090E0909378078093770784E023
:1033C00090E0909376078093750781E090E090936A
:1033D00068078093670708959C01255B31092A35AA
:1033E0003105A8F483E090E090937A078093790701
:1033F00084E090E0909378078093770781E090E0F5
:10340000909376078093750782E090E0E0CF019774
:103410008E309140A8F084E090E090937A078093FA
:10342000790781E090E0909378078093770782E0B6
:1034300090E0909376078093750783E090E0C7CF84
:1034400081E090E090937A078093790782E090E0A2
:10345000909378078093770783E090E090937607C6
:103460008093750784E090E0B2CF9B01AC012F3FC1
:103470008FEF380741055105B0F4AB01CB019695AC
:103480008795B0E0A0E09957AC46BC4FBC01CD0198
:103490000E94E77A803526E4920788F08091351EF5
:1034A0009091361E0895CA019695879577956795F0
:1034B00079578C469C4F0F94314CC901EBCF08953E
:1034C0006091DB0A7091DC0A8091DD0A9091DE0A3E
:1034D0000C94351A0F931F930F94D4250091AA02D0
:1034E0001091AB022091AC023091AD02601B710BC8
:1034F000820B930B21E0613971408105910508F43D
:1035000020E0822F1F910F9108950F931F93CF9367
:10351000DF938C01EC01C60FD71FC017D107F1F064
:103520000E946A1A81111AC080919A0890919B0892
:10353000DC01ED91FC910084F185E02D1995892B3A
:1035400061F380919A0890919B08DC01ED91FC91C8
:103550000284F385E02D19958A93DFCFDF91CF9117
:103560001F910F910895CF93DF9300D01F92CDB795
:10357000DEB764E070E0CE0101960E94851A0E94D9
:103580006A1A81110BC069817A818B819C810F90AD
:103590000F900F900F90DF91CF91089560E070E051
:1035A000CB01F5CFCF93DF931F921F92CDB7DEB73C
:1035B00062E070E0CE0101960E94851A0E946A1AAC
:1035C000811107C089819A810F900F90DF91CF916F
:1035D000089590E080E0F8CFCF93C82F843690F420
:1035E00067ED72E180919A0890919B080F94182AD8
:1035F000CA3040F465ED72E180919A0890919B0881
:103600000F94182A4C2F50E070E060E02AE080917F
:103610009A0890919B080F949B2969ED72E1809123
:103620009A0890919B08CF910D94182A0F931F939D
:10363000CF93DF93EC018B0180919A0890919B08C6
:10364000C017D10781F0499150E070E060E02AE0B6
:103650000F949B2963ED72E180919A0890919B08E9
:103660000F94182AE9CFDF91CF911F910F910D94FC
:10367000E7290F931F93CF93DF93EC018B01C017C2
:10368000D10741F0699180919A0890919B080F941D
:10369000EB29F5CFDF91CF911F910F910895CF9333
:1036A000DF93EC0181E090E090931F0C80931E0C5F
:1036B000CE010E94B90ED093720AC093710ABE0166
:1036C00090E080E00F94B1209093700A80936F0A8D
:1036D000249621E030E0C817D90711F430E020E04B
:1036E00030931F0C20931E0CDF91CF910895CF9340
:1036F0008091510D80739091C71C90FD69C08031FD
:1037000009F03FC08091EE1E833091F140F481308A
:1037100061F1C091550D823049F0CF910895853007
:1037200069F148F1C091590D8630B9F74091351EC5
:103730005091361E6091451E70E0660F771F84E041
:1037400095E10E94BE89C89FC0011124880F991F6E
:10375000880F991F813127E2920710F080E197E2EC
:103760009093A91E8093A81ED8CFC091540DDECF90
:10377000C091560DDBCFC091570DD8CFC091580DD9
:10378000D5CF803251F68091EE1E8330C1F038F4EF
:10379000813071F0823009F68091550D0BC0853073
:1037A000A1F080F0863009F0B8CF8091590D02C0A9
:1037B0008091540D28EC829FC0011124D1CF8091BB
:1037C000560DF8CF8091570DF5CF8091580DF2CF5F
:1037D000803109F064C08091EE1E833009F456C038
:1037E00050F5813081F1C091550D823009F095CFAF
:1037F0004091351E5091361E6091451E70E0660F57
:10380000771F84E095E10E94BE89C89FC001112402
:1038100064E670E00F94BC4B660F771F660F771F4E
:10382000611522E0720768F18FEF91E09093A51E79
:103830008093A41E72CF853079F158F1C091590D53
:103840008630B1F26ACFC091540D4091351E50912F
:10385000361E6091451E70E0660F771F84E095E18B
:103860000E94BE89C89FC001112464E670E00F94D5
:10387000BC4B660F771F660F771F611582E07807D4
:1038800098F67093A51E6093A41E47CFC091560D65
:10389000DCCFC091570DACCFC091580DD6CF803240
:1038A00009F03BCF8091EE1E8330C1F040F48130AF
:1038B00079F0823009F031CF8091550D0BC0853001
:1038C00099F078F0863009F028CF8091590D02C028
:1038D0008091540D90E0880F991FA8CF8091560DCC
:1038E000F9CF8091570DF6CF8091580DF3CF9C0101
:1038F00021503240283141E0340728F02F5F3E4FFD
:103900002230310530F42091351E3091361E232BA4
:1039100019F5843023E0920709F4A4C208F0B4C07A
:103920008D3042E0940709F426C208F051C085307A
:1039300032E0930709F4E7C1F8F4813022E09207FE
:1039400009F4C2C158F4811541E0940709F499C102
:103950008130914009F4B2C180E008952091A61E03
:10396000833032E0930709F4C0C108F4B4C121FFE9
:10397000A3C10E948F75A0C12091A61E893032E09C
:10398000930709F4DDC178F4873032E0930709F436
:10399000D2C108F4C2C121FF8FC10E94E974809195
:1039A000F1058B7F9FC18B3032E0930709F4DBC1B7
:1039B00008F4D4C121FF05C08091F105886080938F
:1039C000F1058091F10583FD77C10E94807474C177
:1039D000843122E0920709F4FCC168F5803142E0AD
:1039E000940709F4D9C1C8F48E3032E0930709F482
:1039F000C9C18F30924009F0AFCF8091A61E81FFE0
:103A000005C08091F10580618093F1058091F105F9
:103A100084FD52C10E942D994FC12091A61E823172
:103A200032E0930709F4C7C108F4BDC121FF44C1C6
:103A30000E94909841C1883122E0920709F4E6C1C2
:103A400088F42091A61E863142E0940709F4D9C17A
:103A500008F4C9C121FF30C10E94FB978091F10594
:103A60008F7740C1823043E0940709F4DFC108F04A
:103A7000E9C18130934009F06FCF8091A61E81FF8C
:103A80001BC10E94307418C1833143E0940709F4CC
:103A90004FC208F05FC08B3033E0930709F410C2C7
:103AA00068F5873023E0920709F4EDC1C8F485304A
:103AB00043E0940709F4DDC18630934009F04CCF10
:103AC0008091A61E81FF05C08091F00582608093E1
:103AD000F0058091F00581FDEFC00E943E73ECC0BF
:103AE0002091A61E893033E0930709F4DBC108F466
:103AF000D1C121FFE1C00E947272DEC02091A61EDA
:103B00008F3033E0930709F4F8C178F48D3033E057
:103B1000930709F4EDC108F4DDC121FFCDC00E9477
:103B2000A6718091F0058F7E8AC1813133E09307C1
:103B300009F4F6C108F4EFC121FF05C08091F0053A
:103B400080628093F0058091F00585FDB5C00E94EC
:103B50006397B2C0823022E39207E8F5811532E321
:103B6000930708F0A9C0863143E0940709F4F1C136
:103B7000C8F4843133E0930709F4E1C185319340FF
:103B800009F0EACE8091A61E81FF05C08091F00564
:103B900080648093F0058091F00586FD8DC00E94C1
:103BA000D3968AC0873123E0920709F4D9C18831BE
:103BB000934009F0D1CE8091A61E81FF05C080916F
:103BC000F00580688093F0058091F00587FD74C052
:103BD0000E945D9671C0833049E9940709F412C2CE
:103BE00068F5813039E9930709F4DAC108F0F1C1C9
:103BF0008115994909F0B0CE8091860C837081308F
:103C000009F0B8C1E0919E0CE295EF70F0E0EE0F84
:103C1000FF1FE555F14E808191816CE370E00F94B8
:103C2000BC4B7093880C6093870C81E00E94798173
:103C30008091811E88608093811E3EC0853039E965
:103C4000930709F411C208F4F6C18630994909F0C6
:103C500083CE2091EB1E3091EC1E2115310561F1D0
:103C6000A0E1B7E20F94534C2091351E3091361EDF
:103C700050E040E00F94314C3093950C2093940C1D
:103C8000D4CF8091A61E8D7F8093A61E0E94E073E4
:103C90000E943E730E94B6720E942E720E94A6710C
:103CA0000E94CB750E9452750E94E9740E94807434
:103CB0001092F1051092F00581E008958091A61E02
:103CC00082608093A61EF8CF8091A61E81FFF4CF5C
:103CD0000E940876F1CF21FFEFCF0E94CB75809133
:103CE000F1058E7F8093F105E7CF21FF05C080911C
:103CF000F10581608093F1058091F10580FDDCCFB5
:103D00000E94CB75D9CF8091A61E81FFD5CF0E948E
:103D100052758091F1058D7FE5CF21FF05C080911F
:103D2000F10582608093F1058091F10581FDC4CF9A
:103D30000E945275C1CF21FFBFCF0E941E75BCCF1C
:103D400021FF05C08091F10584608093F105809189
:103D5000F10582FDB1CF0E94E974AECF21FFACCF57
:103D60000E94B574A9CF21FFA7CF0E9480748091D3
:103D7000F105877FB7CF8091A61E81FF9DCF0E945E
:103D800068999ACF8091A61E81FF96CF0E942D99A7
:103D90008091F1058F7EA6CF8091A61E81FF8CCFEA
:103DA0000E94F89889CF21FF87CF0E94C198809107
:103DB000F1058F7D97CF21FF05C08091F1058062CD
:103DC0008093F1058091F10585FD76CF0E94C19821
:103DD00073CF8091A61E81FF6FCF0E945D98809166
:103DE000F1058F7B7FCF21FF05C08091F1058064B5
:103DF0008093F1058091F10586FD5ECF0E945D986C
:103E00005BCF21FF59CF0E942D9856CF8091A61EDF
:103E100081FF05C08091F10580688093F105809154
:103E2000F10587FD49CF0E94FB9746CF8091A61EE2
:103E300081FF42CF0E94E0738091F0058E7F8093D6
:103E4000F0053ACF8091A61E81FF05C08091F00554
:103E500081608093F0058091F00580FD2DCF0E9458
:103E6000E0732ACF8091A61E81FF26CF0E94927315
:103E700023CF8091A61E81FF1FCF0E943E738091A9
:103E8000F0058D7FDCCF8091A61E81FF15CF0E94AB
:103E9000FA7212CF21FF10CF0E94B6728091F00506
:103EA0008B7FCDCF21FF05C08091F005846080938A
:103EB000F0058091F00582FDFFCE0E94B672FCCE27
:103EC0008091A61E81FFF8CE0E942E728091F0058F
:103ED000877FB5CF21FF05C08091F0058860809372
:103EE000F0058091F00583FDE7CE0E942E72E4CEAE
:103EF00021FFE2CE0E94EA71DFCE21FF05C0809152
:103F0000F00580618093F0058091F00584FDD4CEAA
:103F10000E94A671D1CE21FFCFCE0E94AF97CCCE0A
:103F200021FFCACE0E9463978091F0058F7D87CFD5
:103F30008091A61E81FFC0CE0E941B97BDCE8091AE
:103F4000A61E81FFB9CE0E94D3968091F0058F7B8B
:103F500076CF8091A61E81FFAFCE0E949896ACCE00
:103F60008091A61E81FFA8CE0E945D968091F005EB
:103F70008F7765CF80E00E94D9899B01AC01211524
:103F800031054105510509F497CE60E077E883E9F2
:103F900093E00F94314C3093880C2093870C45CEDE
:103FA0002091EB1E3091EC1E2115310509F484CED1
:103FB000A0E1B7E20F94534C2091351E3091361E8C
:103FC00050E040E00F94314C30938B0C20938A0CDE
:103FD0002CCE2091EB1E3091EC1E2115310509F4F9
:103FE0006BCEA0E1B7E20F94534C2091351E309177
:103FF000361E50E040E00F94314C30938D0C2093EE
:104000008C0C13CE2091EB1E3091EC1E2115310546
:1040100009F452CEA0E1B7E20F94534C2091351E23
:104020003091361E50E040E00F94314C30938F0CAD
:1040300020938E0CFACD2091EB1E3091EC1E2115B1
:10404000310509F439CEA0E1B7E20F94534C209129
:10405000351E3091361E50E040E00F94314C3093C5
:10406000910C2093900CE1CD2091EB1E3091EC1E31
:104070002115310509F420CEA0E1B7E20F94534C8D
:104080002091351E3091361E50E040E00F94314CA7
:104090003093930C2093920CC8CD0895E091CA1CE4
:1040A000F0E088E691E0BF010F94A84B70931409EB
:1040B000609313098091C01C81FF09C080ED92E0DC
:1040C000BF010F94A84B70931409609313098FEFED
:1040D00090E090931209809311098CE291E0E89F9F
:1040E0009001E99F300DF89F300D112450E040E021
:1040F00060E472E48FE090E00F94FF4B2093C708D8
:104100003093C8084093C9085093CA0881E493E0EB
:10411000A0E0B0E08093C3089093C408A093C508C2
:10412000B093C60880912A0B8E7F80932A0B8091D2
:104130002A0B826080932A0B80912A0B80648093E3
:104140002A0B80912A0B886080932A0B20911309F7
:1041500030911409A5E0BDE00F94534C60930A021E
:1041600070930B0280930C0290930D02089520919E
:104170000F09309110092817390730F44091CA1CF3
:104180004817190608F0C901620F732F711D8617B1
:10419000970708F4BC01CB0108952091CA1C260F93
:1041A0003327331F181619061CF0820F931F08952A
:1041B0002817390714F4821B930B0895262F60915A
:1041C0001309709114094091BB1C5091BC1C841BB5
:1041D000950B0F94A84BCB01622F0C94CD20CF935D
:1041E0008091C71C8C718C3029F48091C01CC091C7
:1041F000CA1C81FDC0E06C2F80911A0B90911B0BA3
:104200000E94DE2090937A07809379076C2F80912B
:10421000CB059091CC050E94DE2090937807809387
:1042200077076C2F8091C9059091CA050E94DE2006
:1042300090937607809375076C2F8091C7059091B6
:10424000C8050E94DE2090936807809367076C2F53
:104250008091B5059091B6050E94DE2090935A0793
:1042600080935907CF910895CF93C62F609113097A
:10427000709114092091BB1C3091BC1C821B930BC4
:104280000F94A84BCB012091CA1C2D3008F0019748
:104290006C2F0E94CD206C2FCF910C94B720CF9320
:1042A0008091C71C8471843049F48091C01C81FDC9
:1042B00005C08091440CC091CA1C82FDC0E06C2FE7
:1042C00080911A0B90911B0B0E94342190937A07D6
:1042D000809379076C2F8091CB059091CC050E943B
:1042E000342190937807809377076C2F8091C905CC
:1042F0009091CA050E9434219093760780937507A8
:104300006C2F8091C7059091C8050E94342190932D
:104310006807809367076C2F8091B5059091B6056B
:104320000E94342190935A0780935907CF910895A2
:104330009B01AC018091C71C82958695837081306A
:1043400071F020F08230D9F08330F1F01092C7087C
:104350001092C8081092C9081092CA08089572E015
:1043600056954795379527957A95D1F72093C708A5
:104370003093C8084093C9085093CA0808955695C9
:10438000479537952795F2CFA3E0B0E00F941E4CE8
:1043900022E096958795779567952A95D1F7609352
:1043A000C7087093C8088093C9089093CA080895F5
:1043B0000F9497256093690770936A0780936B0742
:1043C00090936C078091690790916A07A0916B07A1
:1043D000B0916C0740915105509152056091530581
:1043E00070915405841B950BA60BB70B80930309A2
:1043F00090930409A0930509B0930609409103091D
:104400005091040960910509709106098091C708CF
:104410009091C808A091C908B091CA08841795075F
:10442000A607B70760F08091A01E9091A11EA091F1
:10443000A21EB091A31E892B8A2B8B2BC9F48091CD
:10444000B7088F5F8093B7088091341E80FD11C03C
:104450008091690790916A07A0916B07B0916C07F2
:104460008093FF0890930009A0930109B09302097B
:1044700008958091B7088330D8F380912A0B806229
:1044800080932A0B8091690790916A07A0916B072E
:10449000B0916C078093510590935205A0935305FA
:1044A000B09354051092B7088091110990911209A8
:1044B00001969093120980931109809111099091AE
:1044C0001209019739F080911109909112098E9784
:1044D00008F43FC081E090E09093120980931109A5
:1044E0008091BF089091C008A091C108B091C20806
:1044F0008093B9089093BA08A093BB08B093BC0806
:104500008091690790916A07A0916B07B0916C0741
:104510008093BF089093C008A093C108B093C208CD
:104520008091B80891E089278093B8088091A01EF7
:104530009091A11EA091A21EB091A31E0196A11D53
:10454000B11D8093A01E9093A11EA093A21EB093B4
:10455000A31E60910309709104098091050990914F
:1045600006090E9498218091FF0890910009A0916E
:104570000109B09102098093FB089093FC08A09375
:10458000FD08B093FE0864CF809111099091120943
:104590000D9731F48091341E8E7F8093341E0895E0
:1045A0000F9497256093690770936A0780936B0750
:1045B00090936C078091690790916A07A0916B07AF
:1045C000B0916C074091FF0850910009609101097A
:1045D00070910209841B950BA60BB70B80930309FE
:1045E00090930409A0930509B0930609409103092B
:1045F0005091040960910509709106098091C708DE
:104600009091C808A091C908B091CA0848175907E5
:104610006A077B0708F47AC080911109909112090A
:10462000892B09F074C081E090E090931209809387
:1046300011098091BF089091C008A091C108B09164
:10464000C2088093B9089093BA08A093BB08B093AE
:10465000BC088091690790916A07A0916B07B0919F
:104660006C078093BF089093C008A093C108B093D3
:10467000C2088091341E81608093341E8091A01EF8
:104680009091A11EA091A21EB091A31E0196A11D02
:10469000B11D8093A01E9093A11EA093A21EB09363
:1046A000A31E8CE390E0909314098093130960910A
:1046B00003097091040980910509909106090E94EF
:1046C000982180912A0B806280932A0B8091FF08A9
:1046D00090910009A0910109B09102098093FB0813
:1046E0009093FC08A093FD08B093FE0880916907A1
:1046F00090916A07A0916B07B0916C078093FF08B7
:1047000090930009A0930109B09302090895809144
:104710001109909112090196909312098093110941
:10472000A0911109B0911209E0911109F0911209BB
:10473000AA0FBB1FA753B74FEE0FFF1FE953F74F49
:104740008D919C9120813181821B930BACCF8F92F4
:104750009F92AF92BF92CF92DF92EF92FF924B0166
:104760005C018091DB0A9091DC0AA091DD0AB09196
:10477000DE0A88159905AA05BB0509F44AC080928E
:10478000DB0A9092DC0AA092DD0AB092DE0A9A2D32
:10479000892D782D66276C547F4F8F4F9F4F28E6C9
:1047A000C22EDD24D394E12CF12CA70196010F94A5
:1047B000314C20933D0530933E0540933F05509387
:1047C0004005D701C6019C01A69537952795912DE7
:1047D0009795812DD90175016401F694E794D794DA
:1047E000C794BC01CD016C0D7D1D8E1D9F1DA501C3
:1047F00094010F94314C30933C0520933B0581E0AC
:10480000FF90EF90DF90CF90BF90AF909F908F90F0
:10481000089580E0F5CFCF92DF92EF92FF928091E2
:10482000341E80FF79C08091FF0890910009A0910B
:104830000109B0910209892B8A2B8B2B09F46CC0DA
:104840008091FB089091FC08A091FD08B091FE08B2
:10485000892B8A2B8B2B09F45FC08091A01E90912D
:10486000A11EA091A21EB091A31E0297A105B105A1
:10487000C8F5F8942091FF08309100094091010992
:10488000509102098091FB089091FC08A091FD08CD
:10489000B091FE08281B390B4A0B5B0BA4EBB0E070
:1048A0000F941E4C0E94A7237894C090DB0AD090EE
:1048B000DC0AE090DD0AF090DE0AC701B6010E9432
:1048C000351ACC0CDD1CEE1CFF1CC0920A02D092E3
:1048D0000B02E0920C02F0920D02FF90EF90DF903D
:1048E000CF900895F8946091BF087091C0088091AE
:1048F000C1089091C208C090B908D090BA08E09061
:10490000BB08F090BC086C197D098E099F0996952B
:10491000879577956795C6CF90E080E0DECFCF9200
:10492000DF92EF92FF920F9497256093690770933F
:104930006A0780936B0790936C0780916907909149
:104940006A07A0916B07B0916C074091FF085091E6
:1049500000096091010970910209841B950BA60B57
:10496000B70B8093030990930409A0930509B093B2
:1049700006098091690790916A07A0916B07B09131
:104980006C078093FF0890930009A0930109B093EE
:10499000020980912A0B806280932A0B8091341E39
:1049A00080FFC3C0809111099091120901969093E4
:1049B0001209809311098091110990911209499768
:1049C00009F053C081E090E090931209809311099F
:1049D0008091BF089091C008A091C108B091C20811
:1049E0008093B9089093BA08A093BB08B093BC0811
:1049F0008091690790916A07A0916B07B0916C074D
:104A00008093BF089093C008A093C108B093C208D8
:104A10008091A01E9091A11EA091A21EB091A31EF4
:104A20000196A11DB11D8093A01E9093A11EA0937D
:104A3000A21EB093A31E6091BF087091C008809120
:104A4000C1089091C208C090B908D090BA08E0900F
:104A5000BB08F090BC086C197D098E099F09FF9076
:104A6000EF90DF90CF900C94A72380911109909143
:104A70001209479789F080911109909112090F97B7
:104A800059F080911109909112090E97B9F5FF9094
:104A9000EF90DF90CF9008958091110990911209C5
:104AA000019690931209809311092091AB083091DF
:104AB000AC084091AD085091AE08C0900309D09069
:104AC0000409E0900509F090060956954795379539
:104AD0002795A3E0B0E00F941E4CC616D706E80653
:104AE000F906A8F68091341E8E7F8093341E81E0F3
:104AF00090E09093120980931109C9CF8091110918
:104B000090911209469719F2809103099091040936
:104B1000A0910509B09106098093AB089093AC0869
:104B2000A093AD08B093AE08B2CF2091AB083091FE
:104B3000AC084091AD085091AE08C0900309D090E8
:104B40000409E0900509F0900609569547953795B8
:104B50002795A3E0B0E00F941E4CC616D706E806D2
:104B6000F90608F460C08091AB089091AC08A09160
:104B7000AD08B091AE08892B8A2B8B2B09F453C05A
:104B800080911109909112090F9709F0B0CF80918F
:104B9000341E81608093341E80E190E0909312096E
:104BA00080931109C0906907D0906A07E0906B0765
:104BB000F0906C072091AB083091AC084091AD08A3
:104BC0005091AE08AFE0B0E00F941E4CC61AD70A61
:104BD000E80AF90AC092BF08D092C008E092C10862
:104BE000F092C208C090BF08D090C008E090C10801
:104BF000F090C2082091AB083091AC084091AD080C
:104C00005091AE08A8E1B0E00F941E4CC61AD70A26
:104C1000E80AF90AC092B908D092BA08E092BB0833
:104C2000F092BC0834CF809111099091120901963D
:104C3000909312098093110967CFCF92DF92EF9280
:104C4000FF920F931F93C090A01ED090A11EE090E2
:104C5000A21EF090A31E0091C61C10E030E020E0E0
:104C6000C016D106E206F30608F460C09091341E27
:104C700090FD04C09091811E94FF58C00091FB08E4
:104C80001091FC082091FD083091FE08012B022BA9
:104C9000032B09F44BC0C090FF08D0900009E090AE
:104CA0000109F09002090091FB081091FC08209185
:104CB000FD083091FE080C151D052E053F05B0F5C9
:104CC000E62FF8942091FF083091000940910109E6
:104CD00050910209C090FB08D090FC08E090FD08BC
:104CE000F090FE082C193D094E095F09A82FB0E08D
:104CF0000F941E4C04C09695879577956795EA9515
:104D0000D2F70E94A7237894882381F06091DB0A70
:104D10007091DC0A8091DD0A9091DE0A1F910F915B
:104D2000FF90EF90DF90CF900C94351A8091351E54
:104D30009091361E1F910F91FF90EF90DF90CF90D2
:104D40000895CF92DF92EF92FF92F8949FB7F89474
:104D50002091341E20FF6AC09FBF4091351E5091A4
:104D6000361E2091CC1E3091CD1E4217530768F499
:104D70004091A01E5091A11E6091A21E7091A31E91
:104D8000452B462B472B09F456C04091B90850914A
:104D9000BA086091BB087091BC08452B462B472B85
:104DA00009F449C0C090BF08D090C008E090C10885
:104DB000F090C2084091B9085091BA086091BB08C0
:104DC0007091BC084C155D056E057F05A0F5282F78
:104DD0006091BF087091C0088091C1089091C2088D
:104DE000C090B908D090BA08E090BB08F090BC0819
:104DF0006C197D098E099F0904C096958795779552
:104E000067952A95D2F70E94A7238823A1F078946A
:104E10006091DB0A7091DC0A8091DD0A9091DE0AD4
:104E2000FF90EF90DF90CF900C94351A2091811E67
:104E30009FBF24FD92CF78948091351E9091361EAD
:104E4000FF90EF90DF90CF9008958091341E80FF07
:104E500019C08091110990911209892B99F0209124
:104E6000351E3091361E8091CC1E9091CD1E281794
:104E7000390728F460E08091CA1C0C941D2680E05C
:104E80000C94A12690E080E00895CF93DF93809169
:104E9000341E80FF45C02091351E3091361E809112
:104EA000CC1E9091CD1E28173907A8F5F894C09113
:104EB0001309D09114092091FF0830910009409105
:104EC0000109509102098091FB089091FC08A09182
:104ED000FD08B091FE08281B390B4A0B5B0BA4E2BE
:104EE000B0E00F941E4C0E94A7237894DE0120E0CE
:104EF00037E843E953E00F94294C2091DB0A3091C5
:104F0000DC0A4091DD0A5091DE0A0F94314CC90150
:104F1000DF91CF91089580E0DF91CF910C94A1268D
:104F200090E080E0F5CF2091351E3091361E8091C3
:104F3000CC1E9091CD1E2817390798F48091341E0D
:104F400080FF0FC08091FF0890910009A091010996
:104F5000B0910209892B8A2B8B2B11F590E080E010
:104F6000089581E00E94A1264091DB0A5091DC0A5D
:104F70006091DD0A7091DE0A440F551F661F771F8E
:104F80004B3428E9520725E062077105B8F04093D9
:104F90000A0250930B0260930C0270930D02089565
:104FA0008091FB089091FC08A091FD08B091FE084B
:104FB000892B8A2B8B2B91F20D94121B4BE458E911
:104FC00065E070E0E4CF8091341E80FF49C02091FD
:104FD000351E3091361E8091CC1E9091CD1E281723
:104FE0003907D0F48091FF0890910009A091010940
:104FF000B0910209892B8A2B8B2B91F18091FB08B0
:105000009091FC08A091FD08B091FE08892B8A2B95
:105010008B2B31F10D94121B81E00E94A12640914F
:10502000DB0A5091DC0A6091DD0A7091DE0A440FC0
:10503000551F661F771F4B3428E9520725E062078A
:10504000710548F040930A0250930B0260930C02E2
:1050500070930D0208954BE458E965E070E0F2CFDB
:1050600090E080E0089580E00C94A1260C94332811
:105070000C9433280C9433280C9433288091440CDE
:1050800082FB882780F961E086272091351E3091C8
:10509000361E4091CC1E5091CD1E2417350718F0B6
:1050A0002C3D354008F5682F80910F090E941D2680
:1050B0004091DB0A5091DC0A6091DD0A7091DE0AB2
:1050C000440F551F661F771F4B3428E9520725E010
:1050D0006207710560F040930A0250930B026093DF
:1050E0000C0270930D0208950E94A126E1CF4BE4BB
:1050F00058E965E070E0EFCF8091341E80FF13C067
:105100002091351E3091361E8091CC1E9091CD1E7F
:105110002817390710F40D94761B8091C01C8695D2
:1051200081700C94A12690E080E008958091351E56
:105130009091361E2091CC1E3091CD1E8217930780
:1051400048F420911109309112092130310541F0C4
:105150000D94761B8091C01C869581700C94A126BD
:1051600008951092B3081092B4081092B5081092E6
:10517000B6081092FF0810920009109201091092CF
:1051800002091092B7081092BE081092BD08089547
:10519000CF92DF92EF92FF923FB7F894C090FF0852
:1051A000D0900009E0900109F090020921E06C150F
:1051B0007D058E059F05D8F0C090FF08D0900009AE
:1051C000E0900109F09002096C197D098E099F0990
:1051D00021E0C0900A02D0900B02E0900C02F09007
:1051E0000D026C157D058E059F0508F020E03FBF80
:1051F000822FFF90EF90DF90CF90089562956F70AF
:10520000729567277F706727829578278F70782738
:10521000929589279F708927089596958795779508
:1052200067959695879577956795969587957795E0
:10523000679508950F9497256093690770936A079F
:1052400080936B0790936C078091690790916A0730
:10525000A0916B07B0916C074091FF085091000935
:105260006091010970910209841B950BA60BB70B85
:105270008093030990930409A0930509B09306094C
:105280004091030950910409609105097091060944
:105290008091C7089091C808A091C908B091CA0828
:1052A000481759076A077B0708F4B7C080912A0B93
:1052B000806280932A0B80911109909112090196C6
:1052C000909312098093110980911109909112090C
:1052D000019731F080911109909112090597F1F52C
:1052E00081E090E090931209809311098091BF08AA
:1052F0009091C008A091C108B091C2088093B908EC
:105300009093BA08A093BB08B093BC08809169073A
:1053100090916A07A0916B07B0916C078093BF08CA
:105320009093C008A093C108B093C2088091341E26
:1053300081608093341E8091A01E9091A11EA09147
:10534000A21EB091A31E0196A11DB11D8093A01EA7
:105350009093A11EA093A21EB093A31E8091341E11
:1053600080FF5BC08091841E81FF0DC08091C71CAF
:1053700087FF09C08091110990911209019709F0E6
:105380004DC00E94E073809111099091120901971C
:1053900009F44EC08091110990911209039709F404
:1053A00047C08CE690E090931409809313092091F4
:1053B0000309309104094091050950910609A3E0C1
:1053C000B0E00F941E4C0E940D296093C7087093A3
:1053D000C8088093C9089093CA088091FF089091EB
:1053E0000009A0910109B09102098093FB089093F4
:1053F000FC08A093FD08B093FE0880916907909186
:105400006A07A0916B07B0916C078093FF08909397
:105410000009A0930109B093020908958091110930
:1054200090911209039709F0AECF0E943E73ABCF63
:1054300088E490E090931409809313098091030904
:1054400090910409A0910509B09106098093C708BD
:105450009093C808A093C908B093CA08BECF9B0117
:10546000AC01A0913B05B0913C050F941E4CDC01B2
:10547000CB01905CAF4FBF4F9D01990F221F331F8F
:10548000A12DAA1FB12DC9010895CF92DF92EF92ED
:10549000FF92CF93DF93F894C0911109D091120934
:1054A000C090FF08D0900009E0900109F090020937
:1054B0000F94972560937107709372078093730719
:1054C000909374077894209719F4C091CA1CD0E087
:1054D00020911309309114092197C29FC001C39FE5
:1054E000900DD29F900D11246091BF1C70E00F941D
:1054F000A84BC091BB1CD091BC1CC60FD71F60919C
:1055000071077091720780917307909174076C19FD
:105510007D098E099F0960936D0770936E078093D4
:105520006F07909370070E942F2A8C0F9D1F803D5C
:1055300022E092074CF0805D9240DF91CF91FF9086
:10554000EF90DF90CF90089597FFF7CF88599E4F47
:10555000F4CFCF92DF92EF92FF92CF93DF938091BF
:10556000341E80FF4FC0F894C0911109D0911209E8
:10557000C090FF08D0900009E0900109F090020966
:105580000F94972560937107709372078093730748
:10559000909374077894CC0FDD1FC753D74F0990B1
:1055A000D881C02D8091BB1C9091BC1CC80FD91F05
:1055B00060917107709172078091730790917407E1
:1055C0006C197D098E099F0960936D0770936E07B2
:1055D00080936F07909370070E942F2A8C0F9D1F56
:1055E000803D22E092074CF0805D9240DF91CF91A8
:1055F000FF90EF90DF90CF90089597FFF7CF8859F5
:105600009E4FF4CF90E080E0F1CFCF92DF92EF9207
:10561000FF92CF93DF93F894C0911109D0911209B2
:10562000C090FF08D0900009E0900109F0900209B5
:105630000F94972560937107709372078093730797
:10564000909374077894CC0FDD1FC753D74F099000
:10565000D881C02D8091BB1C9091BC1CC80FD91F54
:105660006091710770917207809173079091740730
:105670006C197D098E099F0960936D0770936E0701
:1056800080936F07909370070E942F2A8C0F9D1FA5
:10569000803D22E092074CF0805D9240DF91CF91F7
:1056A000FF90EF90DF90CF90089597FFF7CF885944
:1056B0009E4FF4CF0F931F93CF93DF93F894C09135
:1056C0001109D09112090F94972560937107709377
:1056D000720780937307909374070091FF081091ED
:1056E00000092091010930910209601B710B820BA6
:1056F000930B60936D0770936E0780936F07909381
:105700007007789405ED10E0CE30D10581F00DE4FE
:1057100011E0C631D10559F0809113099091140917
:105720008C9F80018D9F100D9C9F100D1124609106
:105730006D0770916E0780916F07909170070E94BE
:105740002F2A2091BB1C3091BC1C820F931F800F0D
:10575000911F803D22E0920714F0805D92404091BD
:105760001E0250911F022091260230912702241719
:1057700035070CF49A01281739073CF4821B930B68
:10578000DF91CF911F910F91089597FFF9CF88591D
:105790009E4FF6CFCF92DF92EF92FF92CF93DF939F
:1057A000F894C0911109D0911209C090FF08D090CF
:1057B0000009E0900109F09002090F949725609389
:1057C00071077093720780937307909374077894AE
:1057D0008091BB1C9091BC1C209789F520911309E6
:1057E000309114094BE0429FE001439FD00D1124FA
:1057F000C80FD91F6091710770917207809173076C
:10580000909174076C197D098E099F0960936D074B
:1058100070936E0780936F07909370070E942F2AF2
:105820008C0F9D1F803D22E09207BCF0805D92406E
:10583000DF91CF91FF90EF90DF90CF90089540914E
:105840001309509114092197C49F9001C59F300DF1
:10585000D49F300D1124E901CBCF97FFE9CF8859B0
:105860009E4FE6CF8F929F92AF92BF92FF920F937F
:105870001F93CF93DF93F894C0911109D09112092F
:105880008090FF0890900009A0900109B090020953
:10589000F090B8080F949725609371077093720782
:1058A00080937307909374077894209711F4CDE256
:1058B000D0E080911309909114092197C89F80012D
:1058C000C99F100DD89F100D1124C091BB1CD09101
:1058D000BC1C609171077091720780917307909161
:1058E0007407681979098A099B0960936D07709399
:1058F0006E0780936F07909370070E942F2A8C0F7A
:105900009D1F800F911FFF2011F088599E4F803DF1
:1059100022E0920764F0805D9240DF91CF911F9169
:105920000F91FF90BF90AF909F908F90089597FF39
:10593000F4CF409126025091270220911E0230910F
:105940001F02241735070CF49A01820F931FE5CF2D
:10595000CF92DF92EF92FF92CF93DF93F894C091B2
:105960001109D0911209C090FF08D0900009E09071
:105970000109F09002090F949725609371077093C5
:10598000720780937307909374077894209111099C
:10599000309112098091BB1C9091BC1C232B41F5C6
:1059A000EC01CE58DF4F60917107709172078091C2
:1059B0007307909174076C197D098E099F09609394
:1059C0006D0770936E0780936F07909370070E9426
:1059D0002F2A8C0F9D1F803D22E092079CF0805D56
:1059E0009240DF91CF91FF90EF90DF90CF9008959C
:1059F000CC0FDD1FC753D74F0990D881C02DC80FDA
:105A0000D91FD1CF97FFEDCF88599E4FEACF8F9204
:105A10009F92AF92BF92FF920F931F93CF93DF930A
:105A2000F89400911109109112098090FF0890904C
:105A30000009A0900109B0900209F090B8080F94F5
:105A40009725609371077093720780937307909303
:105A5000740778948091BB1C9091BC1CEC010115DB
:105A6000110549F0000F111FF801E753F74FC081EE
:105A7000D181C80FD91F6091710770917207809111
:105A8000730790917407681979098A099B096093D3
:105A90006D0770936E0780936F07909370070E9455
:105AA0002F2A8C0F9D1FFF2011F088599E4F803D9B
:105AB00022E0920764F0805D9240DF91CF911F91C8
:105AC0000F91FF90BF90AF909F908F90089597FF98
:105AD000F4CF88599E4FF1CFCF92DF92EF92FF9291
