:100000000C94A4120D942CA40D9401A40D94D6A3C9
:100010000D94ABA30D9480A30D9455A30D942AA326
:100020000D94FFA20C94D5120C94D5120C94D512F9
:100030000C94D5120C94D5120C94D5120D9433490E
:100040000C94D5120C9430850C9414830D9478156F
:100050000C94D5120C94D5120C94D5120D9487A142
:100060000C94D5120D943DA50D94FDA40C94D512BD
:100070000C94D5120C94D5120C94D5120C94D51264
:100080000C9415A60C9493A50C9411A50C94D51260
:100090000C94D5120C94D5120C94D5120C94D51244
:1000A0000C94D5120C94D5120C94C7A00C948FA468
:1000B0000C94D59F0C94D5120C94D5120C949DA33E
:1000C0000C94ABA20C94B9A10C94D5120C94D5123B
:1000D0000C94D5120C94D5120D94C6A40D9486A43C
:1000E0000C94D5120C94ADC10C9412C20C940B9AC2
:1000F0000C94067D0C94FAB00C941CC60C9452CE51
:100100000C9461C40C94BDC10C9424440C94322012
:100110000C944EE30D941A380C9497470C94B8162F
:100120000C9446C20D941E2F0C94BA900C94728CB1
:100130000D94112D0C94A5660D9482A40D94818BC1
:100140000C9454E40C94DEB00C94CEC40C94DAC538
:100150000C94B5AB0C943C8D0C9449C40C949E95B6
:100160000C948EC20D9417B90D94EE930C948BC61B
:100170000D94A4930C945B500D94C1590D94980C5C
:100180000C94028A0C9419B00C94F4C90D94B42CFC
:100190000C944BC50C949A890C9460E30C947F9753
:1001A0000C94448D0C941FDE0C946DC20C9437C4D7
:1001B0000C9498E70D94B3A80C9419C60C94B476DB
:1001C0000C9461B10C9432C30D9466A20C94CB765E
:1001D0000C9479C20D94B5060C94F5770C9482E2D8
:1001E0000D9484BE0D947DA20C94887C0C94724472
:1001F0000C9442130D9406A20D94B0110C942DC4CE
:100200000C9433C40C946EB00C94E1C10C94F2C401
:100210000C941AC30D94B22F0D94C0A20D949B5749
:100220000C942CA90C94A7C10C94C0890D94FE8A3F
:100230000D94BA2E0C94A0C40C9461C20C9497C473
:100240000D94AA190C94E6760C9467C40C9476C4A9
:100250000C94F01B0C94D93B0C948E920C948EC48D
:100260000C9455C20C942AC20C94DAC40C94B3C1F9
:100270000C9461A70C94D5890C94302B0C94F09BB2
:100280000D9461310D9475A20C94BE670C945EC4FC
:100290000D948E120C9439AC0C94F1430C9458C20A
:1002A0000C94F8C20C9400950C94C8A80C94277C6C
:1002B0000C94477D0C94AFC20C94DA1A0C948C47C2
:1002C0000C94FB430C9450500C945CC50C943FC3AD
:1002D0000C940AC50C94D7C50C9486C50C94827CEA
:1002E0000C9463C50C9450E80C94C21D0C94D1C5B9
:1002F0000C94BC7C0D94C8260D946C580C94BEC212
:100300000D947CA40D94C4930D94C3A80C9463C362
:100310000C9458AC0C9476C20D94D50F0C9439966D
:100320000C94637C0D94BDA80C94AB660C94DAAB72
:100330000C94127D0D94A8930C94C5C40D94CA8A94
:100340000C94A4C10C94DEB20D942A590C94775FDE
:100350000C949AC40C9401C50C9429C30C94757C1C
:100360000C9413C50C941DAC0D94B2930C94B04C2A
:100370000C946CA80C94C9C10D94161E0C9474773F
:100380000C94DB890D94BC940C9482C40D94FE579C
:100390000D94FA930C9422C50C94A6AB0C943AC518
:1003A0000C94CDB00D94E8930C94E0C40C9488C2E6
:1003B0000C94B2C20C941EC40D9478A40C94064DF7
:1003C0000D9405300C94CBC50C94388D0C94CEC58F
:1003D0000D94D6930C94E7890C947CC20C9491C430
:1003E0000C9455C40C9446C30C94E4C10C94E3C51E
:1003F0000C94E1890C9474DF0D940B0D0C942AC4B9
:100400000C9458C40C943A440C94F3910C94824A82
:100410000C9435C30C9491470D94190B0C9425C57D
:100420000C9438C30C94C24C0C940EAC0D94C9A817
:100430000C94E3170C9416DD0C940E8B0C944BCE9D
:100440000C9481C10C94A9C40C94A6890C94E38EDD
:100450000C9452180C9430430C94C8B20C94F9C507
:100460000D94B8A20D9406940C94087E0C94C4F3D9
:100470000D94AAA20C94FA190C94D5C10C94DB47E4
:100480000C940CC20C94E2170C94EE760D94C5A853
:100490000C9402C60C940A8A0C94FD4C0C9430D92E
:1004A0000D947EA40C9471140D944C320C94BFDD09
:1004B0000D944A590D94C1A80C94C6C20C94E2C084
:1004C0000D94D92D0C9434E40C9454D60C945ACB3E
:1004D0000C944FC20C94CBC40C9457180D943B0150
:1004E0000C94F3150C9409C20C94FAAF0D9480325D
:1004F0000C9469990D94B5A80C943F580C9410C5B0
:100500000C94A0C20C9448C50C948C7D0C946C7D0A
:100510000D94FA050C94E6E30C94D5430C94C3E7D0
:100520000D949D590C941EC20C9407C30C94CEB22A
:100530000C94A48D0C9472140C946AC40C941E77C1
:100540000D94611A0C94FBC40C9423C30D947D8A02
:100550000D941F020C94C7930C9485C20C940C7DCF
:100560000C9475C50C9455910C9421C40C9442764E
:100570000C94A34F0C943DC50C94B0C10C940EADDB
:100580000C94B5C20D9479A20C94F8C40C9420C3B9
:100590000C941D780C94B6420C9482C20D9431A236
:1005A0000C949D4B0C947BFB0C9498C10C947CC4D4
:1005B0000D94A8510C94C6C10C94ECC40C9414C3B3
:1005C0000C94DDC50D94F4730C94B8C20C9415DC36
:1005D0000D940EBE0C94A0890C948F3A0D94A81A19
:1005E0000C9446C40D945E950C94FEC20D94880E36
:1005F0000D9474320C94EFAF0C9464C40C94DF9C93
:100600000C94A6C40C94BF130C94C1DA0C94E22889
:100610000C949DC40C94CCC10C94F0C50C94A54EC4
:100620000C94C7890C94BB4C0D9425A20C942E7E7F
:100630000C9416C50D94EC020C94FBC20C940FC2E2
:100640000C940FB00C94794A0C9407C50C942FC3EA
:100650000C948BC20C94F6C50D9417A20C94567C86
:100660000C94D1C40C9479160D94EEA20C94A3C4EE
:100670000C9437CF0C94F2190C943BC30D94F6599B
:100680000C94F94C0D94E0A20C94498E0D94B893FF
:100690000C94E6EE0C94FFAB0C9490B20D9484A4F1
:1006A0000C9476420C9467C20C94A77C0C949B7CAF
:1006B0000C947FC40C945E8A0C9443C40C9416C4AE
:1006C0000C94BA3A0C9449B00C9434C50C94077C41
:1006D0000C94BE4B0C940E7C0C9428C50C94C0DD7D
:1006E0000C941CC50C943C1D0D94E7500C949EC1B9
:1006F0000C940F420D948B0A0C94F4600D94CBA8CB
:100700000D94E2930C94E95D0C94B04E0D94CCA240
:100710000C94A88D0C94BC200D947A260C94F4B201
:100720000C941BC20D94451B0C9424C20D9439A249
:100730000C94B9890D94C2090C9426770C9449C382
:100740000D9484030C94D5C20C9498220C9414FC40
:100750000C94B6510C9496D00D94A5C00C94E3C49F
:100760000C949AC20C9430C40C944EB20C942E9DEE
:100770000C942F230C9452C40C944BE30C94DAE9A0
:100780000C9437C50C94408D0C9440C40C9499D8AB
:100790000C9421C20D948D590C9495C10C9440C2B7
:1007A0000C94133B0D9422950D945D370C94517C61
:1007B0000C94C64E0C94FCE30C940DC50C9424C40C
:1007C0000C94D4AF0D947E320D946E2F0D942ABFED
:1007D0000C9479C40D94442E0D9488070D947932AD
:1007E0000C94A64A0D947BA20C941BC40C94D4C404
:1007F0000D9402A90C94098A0C94F4150C9473C4FA
:100800000C9498C60D94AFA80C94A19B0C949BC11A
:100810000D94840F0C948BC40C948A440C9477B17F
:100820000C94253B0C94E8CA0C94A08D0C94E0C564
:100830000C94F1AB0C9473C20C9443C30C945A28DF
:100840000C94DD960C949F4A0C9465940C9415B30B
:100850000D94A30B0C94E5B20C94F3B00C94BAC1B4
:100860000C94301B0C945FC80C9409C60D9402C004
:100870000D94ADA80C94C8C40C94DBC10C94FFC5B6
:100880000C947E190C9475DF0C94DA8C0D94C504CD
:100890000C9464B00C94AC890C94F7C10C944B2468
:1008A0000C94E48C0D94DC930C9464C20C94AFC44F
:1008B0000C942EB00C94A6C20C94B7C10C94F443C3
:1008C0000C94E9140C941FC50C94A7E30C94AE6629
:1008D0000C9479B00D94AE8B0C9494C40C940C775A
:1008E0000C946E8C0C94B5EC0C94C3C10C94EDB0CC
:1008F0000D94871E0C94283B0C94FEC40C9426C3C4
:100900000C94144D0C943AC40D94F21D0C9426B121
:100910000D94D3180D946F320C9443C20D949E9392
:100920000C94CFC10C945F7D0C9494890C9449C2B3
:100930000C94CDCD0C9428E30C94CE890C94BE8BF2
:100940000C94734A0C94B3B20C9491C20C94A25CB4
:100950000C94C0C10D948E300C94D6D30D9471A21A
:100960000C942C930C94EA140C942BAC0C945DC353
:100970000C944FC40C9415C20C945ED80D94BBA873
:100980000C94187D0C94ABB00C9466C30C9495B287
:100990000C94E2FA0D94B9A80D94650D0C94C5D28F
:1009A0000C94A8660C94EFC40C9417C30C94D2C199
:1009B0000C9486470C947E8C0C94EDC10C94AC8DF9
:1009C0000D94CA930C94DE8C0C949EE10D94E6A1D8
:1009D0000C94BEDD0D94E28B0C946DC40C941B281A
:1009E0000C94BA8A0D94AB170C942BC60C9484B05B
:1009F0000C94E28C0C9404C50C942CC30C94E7C1A9
:100A00000C941FC60C94F54E0C94F5C40C941DC3A5
:100A10000C943DC40D9480A40D94115A0C9419CEDD
:100A20000C9498B10C941A8C0D94B7A80C9416C61B
:100A30000D94DD370C9459CE0C94E6B00D945251C0
:100A40000C94A9C50C9427C20C9497C20D940E5116
:100A50000C94F6760C94DEC10C942BB30C94DCC28F
:100A60000D94B1A80C94EDB20C9470C20C94ACC46B
:100A70000C9452C20C94ED890C9494C20D949C1C5D
:100A80000C9412D40C94447C0C94DDC40C948F9C74
:100A90000D945C050D947AA40D944B8B0C944550E9
:100AA0000D94F6300C9405C60D94F4930C94D84331
:100AB0000D9499A20C94E0B00C946AC20C9416E4C4
:100AC0000C94C5980C94D7C40D947D500D94BFA878
:100AD0000D9435930C941C900C942BC50C9439E612
:100AE0000D9437080C9443C50C945BC40C94A26617
:100AF0000C9406C20C944B550C94C3C20C942D4D0F
:100B00000C94A1C10C94E3470C94B1660D943A592E
:100B10000C94FCC50C94BEAF0C9410780C94ACC231
:100B20000D9450BE0C9403F20C94274D0C94BB4EC4
:100B30000C944D220C94B2890C9423980C9485C487
:100B40000C94E6C40C948E7C0C94F4890C94A9C289
:100B50000C9427C40C94D7120D94330E0C944CC2F1
:100B60000C94DFFC0C94A1AF0C9425E30D945B591D
:100B70000C94C8DC0C9436430C94121D0C94EAC1FE
:100B80000C94D4C50C940DC60C94C4D20C94B4A788
:100B90000C9400B10D94A3930C94DF280C942EC5F3
:100BA0000C9460C30C9482AC0C94D6B20D942911B1
:100BB0000C94519B0C9413C60C947B7D0C945EC2D8
:100BC0000C94CFAC0C9486E80C9412CC0C94CC65AD
:100BD0000D947D320C94409C0C94C4A80C943DE080
:100BE0000C9410C60D94D41D0C947E9D0C94813AE7
:100BF0000D941A580D94640C0C94833B0C9419C5F5
:100C00000C940EF70C94EB1F0C9466470C9481C364
:100C10000C947D190D9426520C941CB30C94FDC1B8
:100C20000C94FB890D9473A20D94BE930D94D4A2E1
:100C30000C9418C20C94317E0C94CC1E0C9413E2CC
:100C40000C94AE4F0D94C7A80C940CA80C94ECCE49
:100C50000C94FAC10C9431C50C94EDAC0C947A8CC4
:100C60000C947FC20C94A3C20D94AC930D94315A92
:100C70000C94E9C40C9411C30D9477A20C943947D9
:100C80000C94E6DF0C946FB10C9499280C94FDE061
:100C90000D947A500C946DE70C941E7D0C94D8C181
:100CA0000D9445A20C945BC20C94A17C0C94F84367
:100CB0000C9412E20C94BBE80C9470C40C94DB67A7
:100CC0000D94D0930C9455B30D9405940D9423C1B9
:100CD0000C94004F0C942E770C94AAC10C9488C4E9
:100CE0000C94768C0D946D1E0C9421F90C944CC4CC
:100CF0000C94EDC50C94EEC20C9487670C94F2F43E
:100D00000C949DC20C94144F0C9423B00C94818FBE
:100D10000C94F3C50D94CD0B0C9428A90C9403C22C
:100D20000C9423B30D944C1A0C94C6B00C9405B0DB
:100D30000C9400C20D9431090C949FE10C944BDC8F
:100D40000C9484AF0D9449930D946B2D0C94E6C5CF
:100D50000C9468B10C946A8B0C94C1AC0D94DC5962
:100D60000C94AF9A0C9432430C9438AD0D94B73177
:100D7000526573657420636F6E74726F6C20697353
:100D80002063757272656E746C7920646973616238
:100D90006C65642E00436F6D6D732068616C7465C3
:100DA000642E204E65787420627974652077696CB2
:100DB0006C20726573657420746865204172647577
:100DC000696E6F2E0000537065656475696E6F20E3
:100DD000323032342E303200737065656475696E5E
:100DE0006F2032303234303200000030303200FFB9
:100DF0000A5061676520686173206E6F74206265B8
:100E0000656E20696D706C656D656E7465642079C2
:100E10006574000A426F6F7374206C6F6F6B75702E
:100E2000207461626C65000A326E642049676E69E5
:100E300074696F6E204D6170000A326E64204675D1
:100E4000656C204D6170000A506167652039204350
:100E50006667000A5472696D2031205461626C65C6
:100E6000000A565654204D6170000A426F6F737429
:100E7000204D6170000A5067203620436F6E66690E
:100E800067000A414652204D6170000A50672034C5
:100E900020436667000A49676E6974696F6E204D6A
:100EA0006170000A5067203220436667000A564589
:100EB000204D6170000A3D3D3D436F6D6D616E6474
:100EC0002048656C703D3D3D0A0A416C6C20636FA3
:100ED0006D6D616E6473206172652073696E676CFD
:100EE000652063686172616374657220616E64205D
:100EF00061726520636F6E636174656E61746564B1
:100F00002077697468207468656972207061726105
:100F10006D6574657273200A776974686F757420E3
:100F20007370616365732E53796E7461783A202013
:100F30003C636F6D6D616E643E2B3C706172616DE0
:100F400065746572313E2B3C706172616D657465CC
:100F500072323E2B3C706172616D657465724E3EFB
:100F60000A0A3D3D3D4C697374206F6620436F6DE6
:100F70006D616E64733D3D3D0A0A41202D20446938
:100F800073706C61797320333120627974657320DA
:100F90006F662063757272656E74537461747573D5
:100FA0002076616C75657320696E2062696E61726E
:100FB0007920286C6976652064617461290A422071
:100FC0002D204275726E2063757272656E74206D8D
:100FD000617020616E6420636F6E6669675061673F
:100FE000652076616C75657320746F20656570721D
:100FF0006F6D0A43202D205465737420434F4D209C
:10100000706F72742E2020557365642062792054AD
:10101000756E657273747564696F20746F20736583
:1010200065207768657468657220616E2045435558
:10103000206973206F6E206120676976656E20736A
:10104000657269616C200A20202020706F72742EF6
:101050002052657475726E7320612062696E6172D0
:1010600079206E756D6265722E0A4E202D205072A9
:10107000696E74206E6577206C696E652E0A50204B
:101080002D205365742063757272656E74207061D3
:1010900067652E202053796E7461783A2020502B9A
:1010A0003C706167654E756D6265723E0A52202D17
:1010B0002053616D65206173204120636F6D6D6108
:1010C0006E640A53202D20446973706C617920731B
:1010D00069676E6174757265206E756D6265720AFE
:1010E00051202D2053616D65206173205320636F63
:1010F0006D6D616E640A56202D20446973706C61B9
:1011000079206D6170206F7220636F6E6669675021
:101110006167652076616C75657320696E20626910
:101120006E6172790A57202D20536574206F6E65A9
:10113000206279746520696E206D6170206F722065
:10114000636F6E666967506167652E202045787011
:10115000656374732062696E617279207061726177
:101160006D65746572732E200A2020202053796EDD
:101170007461783A2020572B3C6F66667365743E25
:101180002B3C6E6577627974653E0A74202D20537E
:1011900065742063616C6962726174696F6E207638
:1011A000616C7565732E20204578706563747320BB
:1011B00062696E61727920706172616D65746572C9
:1011C000732E20205461626C6520696E64657820FE
:1011D00069732065697468657220302C200A2020AC
:1011E0002020312C206F7220322E202053796E74F3
:1011F00061783A2020742B3C74626C655F69647876
:101200003E2B3C6E657756616C7565313E2B3C6EAE
:10121000657756616C7565323E2B3C6E657756611D
:101220006C75654E3E0A5A202D20446973706C61BE
:10123000792063616C6962726174696F6E20766196
:101240006C7565730A54202D20446973706C617944
:10125000732032353620746F6F7468206C6F67208E
:10126000656E747269657320696E2062696E617261
:10127000790A72202D20446973706C617973203271
:10128000353620746F6F7468206C6F6720656E74DC
:10129000726965730A55202D205072657061726500
:1012A00020666F72206669726D7761726520757055
:1012B000646174652E20546865206E6578742062C0
:1012C0007974652072656365697665642077696CF9
:1012D0006C20636175736520746865204172647564
:1012E000696E6F20746F2072657365742E0A3F20DB
:1012F0002D20446973706C61797320746869732060
:1013000068656C702070616765002C20005755453A
:10131000004F3200496E6C65742074656D70004337
:101320006F6F6C616E7400526573657420636F6ECD
:1013300074726F6C2069732063757272656E746C61
:10134000792064697361626C65642E00436F6D6D12
:10135000732068616C7465642E204E657874206219
:101360007974652077696C6C20726573657420747C
:1013700068652041726475696E6F2E004552523B5C
:1013800020496E636F727265637420454550524FF9
:101390004D2073697A650030303200200020002033
:1013A0000020002020202000537065656475696E60
:1013B0006F20323032342E303200737065656475C0
:1013C000696E6F203230323430320053706565649C
:1013D00075696E6F2063737830323031392E380082
:1013E0000000800020012001800020018000F0002A
:1013F0008001C000C0002001C00080002001000169
:10140000040E11161A1C212A2C2E30323436383A8A
:101410003C3E40424446484C4E505256585A5D5FFE
:1014200063686F797D000020002300260029002CCE
:10143000002F003200000100000301060109010035
:10144000000A0B02090C0D0E08070304010000003E
:10145000000000000000000000000000000000008C
:101460000000000000000000000000121110000049
:10147000000000000000000000000000000000006C
:10148000000000000000000000963007772C610E7D
:10149000EEBA51099919C46D078FF46A7035A563C6
:1014A000E9A395649E3288DB0EA4B8DC791EE9D5E9
:1014B000E088D9D2972B4CB609BD7CB17E072DB8F8
:1014C000E7911DBF906410B71DF220B06A4871B952
:1014D000F3DE41BE847DD4DA1AEBE4DD6D51B5D480
:1014E000F4C785D38356986C13C0A86B647AF962ED
:1014F000FDECC9658A4F5C0114D96C0663633D0F2E
:10150000FAF50D088DC8206E3B5E10694CE4416011
:10151000D5727167A2D1E4033C47D4044BFD850D1D
:10152000D26BB50AA5FAA8B5356C98B242D6C9BB3C
:10153000DB40F9BCACE36CD832755CDF45CF0DD62F
:10154000DC593DD1ABAC30D9263A00DE518051D7C1
:10155000C81661D0BFB5F4B42123C4B3569995BA67
:10156000CF0FA5BDB89EB802280888055FB2D90C78
:10157000C624E90BB1877C6F2F114C6858AB1D61F5
:10158000C13D2D66B69041DC760671DB01BC20D2F0
:10159000982A10D5EF8985B1711FB5B606A5E4BFAD
:1015A0009F33D4B8E8A2C9077834F9000F8EA80990
:1015B0009618980EE1BB0D6A7F2D3D6D08976C64FF
:1015C00091015C63E6F4516B6B62616C1CD8306511
:1015D000854E0062F2ED95066C7BA5011BC1F408F7
:1015E0008257C40FF5C6D9B06550E9B712EAB8BE44
:1015F0008B7C88B9FCDF1DDD62492DDA15F37CD3C5
:101600008C654CD4FB5861B24DCE51B53A7400BCD8
:10161000A3E230BBD441A5DF4AD795D83D6DC4D1F4
:10162000A4FBF4D6D36AE96943FCD96E34468867D3
:10163000ADD0B860DA732D0444E51D03335F4C0A66
:10164000AAC97C0DDD3C710550AA41022710100B80
:10165000BE86200CC925B56857B3856F2009D466AE
:10166000B99FE461CE0EF9DE5E98C9D9292298D0DF
:10167000B0B4A8D7C7173DB359810DB42E3B5CBD9C
:10168000B7AD6CBAC02083B8EDB6B3BF9A0CE2B662
:10169000039AD2B1743947D5EAAF77D29D1526DBCC
:1016A000048316DC73120B63E3843B64943E6A6D1F
:1016B0000DA85A6A7A0BCF0EE49DFF099327AE005E
:1016C0000AB19E077D44930FF0D2A3088768F20108
:1016D0001EFEC206695D5762F7CB67658071366C86
:1016E00019E7066B6E761BD4FEE02BD3895A7ADAA3
:1016F00010CC4ADD676FDFB9F9F9EFBE8E43BEB794
:1017000017D58EB060E8A3D6D67E93D1A1C4C2D837
:101710003852F2DF4FF167BBD16757BCA6DD06B583
:101720003F4B36B248DA2B0DD84C1B0AAFF64A03B2
:1017300036607A0441C3EF60DF55DF67A8EF8E6E35
:101740003179BE69468CB361CB1A8366BCA0D26F77
:101750002536E2685295770CCC03470BBBB91602CD
:10176000222F260555BE3BBAC5280BBDB2925AB4EE
:101770002B046AB35CA7FFD7C231CFD0B58B9ED9FB
:101780002C1DAEDE5BB0C2649B26F263EC9CA36AA8
:10179000750A936D02A906099C3F360EEB85670713
:1017A0007213570005824ABF95147AB8E2AE2BB186
:1017B0007B381BB60C9B8ED2920DBED5E5B7EFDC05
:1017C0007C21DFDB0BD4D2D38642E2D4F1F8B3DD47
:1017D000686E83DA1FCD16BE815B26B9F6E177B05D
:1017E0006F7747B718E65A0888706A0FFFCA3B063A
:1017F000665C0B0111FF9E658F69AE62F8D3FF6BCB
:101800006145CF6C1678E20AA0EED20DD75483045E
:101810004EC2B30339612667A7F71660D04D4769FA
:1018200049DB776E3E4A6AD1AEDC5AD6D9660BDF09
:1018300040F03BD83753AEBCA9C59EBBDE7FCFB2CC
:1018400047E9FFB5301CF2BDBD8AC2BACA3093B3B6
:1018500053A6A3B4240536D0BA9306D7CD2957DEB4
:1018600054BF67D9232E7A66B3B84A61C4021B6895
:101870005D942B6F2A37BE0BB4A18E0CC31BDF0502
:101880005A8DEF022D0000000041311B1982623693
:1018900032C3532D2B04C56C6445F4777D86A75A5B
:1018A00056C796414F088AD9C849BBC2D18AE8EFCA
:1018B000FACBD9F4E30C4FB5AC4D7EAEB58E2D838B
:1018C0009ECF1C98875112C24A1023D953D370F46B
:1018D000789241EF6155D7AE2E14E6B537D7B5985B
:1018E0001C9684830559981B8218A9009BDBFA2D4E
:1018F000B09ACB36A95D5D77E61C6C6CFFDF3F418B
:10190000D49E0E5ACDA2248495E3159F8C2046B216
:10191000A76177A9BEA6E1E8F1E7D0F3E82483DE6A
:10192000C365B2C5DAAAAE5D5DEB9F464428CC6BB9
:101930006F69FD7076AE6B3139EF5A2A202C09079A
:101940000B6D381C12F33646DFB2075DC67154705A
:10195000ED30656BF4F7F32ABBB6C231A275911C6A
:101960008934A00790FBBC9F17BA8D840E79DEA93D
:101970002538EFB23CFF79F373BE48E86A7D1BC59A
:10198000413C2ADE58054F79F0447E62E9872D4FAD
:10199000C2C61C54DB018A159440BB0E8D83E8231C
:1019A000A6C2D938BF0DC5A0384CF4BB218FA7966D
:1019B0000ACE968D130900CC5C4831D7458B62FA6C
:1019C0006ECA53E177545DBBBA156CA0A3D63F8DA8
:1019D00088970E96915098D7DE11A9CCC7D2FAE11C
:1019E000EC93CBFAF55CD762721DE6796BDEB554E9
:1019F000409F844F5958120E161923150FDA70386C
:101A0000249B41233DA76BFD65E65AE67C2509CB67
:101A1000576438D04EA3AE9101E29F8A1821CCA71B
:101A20003360FDBC2AAFE124ADEED03FB42D83126C
:101A30009F6CB20986AB2448C9EA1553D029467E6B
:101A4000FB687765E2F6793F2FB7482436741B09A7
:101A50001D352A1204F2BC534BB38D485270DE651B
:101A60007931EF7E60FEF3E6E7BFC2FDFE7C91D0E8
:101A7000D53DA0CBCCFA368A83BB07919A7854BC6B
:101A8000B13965A7A84B98833B0AA99822C9FAB532
:101A90000988CBAE104F5DEF5F0E6CF446CD3FD999
:101AA0006D8C0EC27443125AF3022341EAC1706C6A
:101AB000C1804177D847D7369706E62D8EC5B50049
:101AC000A584841BBC1A8A41715BBB5A6898E8776D
:101AD00043D9D96C5A1E4F2D155F7E360C9C2D1B99
:101AE00027DD1C003E120098B9533183A09062AEEE
:101AF0008BD153B59216C5F4DD57F4EFC494A7C249
:101B0000EFD596D9F6E9BC07AEA88D1CB76BDE31D0
:101B10009C2AEF2A85ED796BCAAC4870D36F1B5DA8
:101B2000F82E2A46E1E136DE66A007C57F6354E859
:101B3000542265F34DE5F3B202A4C2A91B67918458
:101B40003026A09F29B8AEC5E4F99FDEFD3ACCF35C
:101B5000D67BFDE8CFBC6BA980FD5AB2993E099FA8
:101B6000B27F3884ABB0241C2CF115073532462ADD
:101B70001E73773107B4E17048F5D06B5136834658
:101B80007A77B25D634ED7FACB0FE6E1D2CCB5CC13
:101B9000F98D84D7E04A1296AF0B238DB6C870A09A
:101BA0009D8941BB84465D2303076C381AC43F15E9
:101BB00031850E0E2842984F6703A9547EC0FA79EA
:101BC0005581CB624C1FC538815EF423989DA70ECA
:101BD000B3DC9615AA1B0054E55A314FFC9962629A
:101BE000D7D85379CE174FE149567EFA50952DD765
:101BF0007BD41CCC62138A8D2D52BB963491E8BBEA
:101C00001FD0D9A006ECF37E5EADC265476E914849
:101C10006C2FA05375E836123AA90709236A542499
:101C2000082B653F11E479A796A548BC8F661B91E8
:101C3000A4272A8ABDE0BCCBF2A18DD0EB62DEFDE9
:101C4000C023EFE6D9BDE1BC14FCD0A70D3F838AC9
:101C5000267EB2913FB924D070F815CB693B46E699
:101C6000427A77FD5BB56B65DCF45A7EC537095364
:101C7000EE763848F7B1AE09B8F09F12A133CC3FE9
:101C80008A72FD249300000000376AC2016ED4847A
:101C90000359BE4602DCA80907EBC2CB06B27C8D15
:101CA0000485164F05B851130E8F3BD10FD685977B
:101CB0000DE1EF550C64F91A095393D8080A2D9ECB
:101CC0000A3D475C0B70A3261C47C9E41D1E77A282
:101CD0001F291D601EAC0B2F1B9B61ED1AC2DFABD1
:101CE00018F5B56919C8F23512FF98F713A626B191
:101CF00011914C7310145A3C152330FE147A8EB88F
:101D0000164DE47A17E0464D38D72C8F398E92C99C
:101D10003BB9F80B3A3CEE443F0B84863E523AC046
:101D20003C6550023D58175E366F7D9C3736C3DAEE
:101D30003501A9183484BF5731B3D59530EA6BD338
:101D400032DD01113390E56B24A78FA925FE31EF19
:101D500027C95B2D264C4D62237B27A0222299E6C2
:101D60002015F3242128B4782A1FDEBA2B4660FC04
:101D700029710A3E28F41C712DC376B32C9AC8F53C
:101D80002EADA2372FC08D9A70F7E75871AE591E4D
:101D9000739933DC721C2593772B4F517672F117B0
:101DA00074459BD57578DC897E4FB64B7F16080D40
:101DB0007D2162CF7CA4748079931E4278CAA004EE
:101DC0007AFDCAC67BB02EBC6C87447E6DDEFA38C5
:101DD0006FE990FA6E6C86B56B5BEC776A025231F4
:101DE000683538F369087FAF623F156D6366AB2BCA
:101DF0006151C1E960D4D7A665E3BD6464BA03222A
:101E0000668D69E06720CBD74817A115494E1F534F
:101E10004B7975914AFC63DE4FCB091C4E92B75A41
:101E20004CA5DD984D989AC446AFF00647F64E4053
:101E300045C12482444432CD4173580F402AE649BB
:101E4000421D8C8B435068F154670233553EBC757C
:101E50005709D6B7568CC0F853BBAA3A52E2147C45
:101E600050D57EBE51E839E25ADF53205B86ED66DD
:101E700059B187A4583491EB5D03FB295C5A456F37
:101E80005E6D2FAD5F801B35E1B771F7E0EECFB12E
:101E9000E2D9A573E35CB33CE66BD9FEE73267B8E1
:101EA000E5050D7AE4384A26EF0F20E4EE569EA2AF
:101EB000EC61F460EDE4E22FE8D388EDE98A36AB1B
:101EC000EBBD5C69EAF0B813FDC7D2D1FC9E6C97FC
:101ED000FEA90655FF2C101AFA1B7AD8FB42C49EA5
:101EE000F975AE5CF848E900F37F83C2F2263D84C1
:101EF000F0115746F1944109F4A32BCBF5FA958DD7
:101F0000F7CDFF4FF6605D78D95737BAD80E89FC08
:101F1000DA39E33EDBBCF571DE8B9FB3DFD221F50E
:101F2000DDE54B37DCD80C6BD7EF66A9D6B6D8EF1A
:101F3000D481B22DD504A462D033CEA0D16A70E68C
:101F4000D35D1A24D210FE5EC527949CC47E2ADA83
:101F5000C6494018C7CC5657C2FB3C95C3A282D392
:101F6000C195E811C0A8AF4DCB9FC58FCAC67BC92C
:101F7000C8F1110BC9740744CC436D86CD1AD3C088
:101F8000CF2DB902CE4096AF9177FC6D902E422BAB
:101F9000921928E9939C3EA696AB546497F2EA22E4
:101FA00095C580E094F8C7BC9FCFAD7E9E96133850
:101FB0009CA179FA9D246FB598130577994ABB3196
:101FC0009B7DD1F39A3035898D075F4B8C5EE10D97
:101FD0008E698BCF8FEC9D808ADBF7428B82490420
:101FE00089B523C68888649A83BF0E5882E6B01EDE
:101FF00080D1DADC8154CC938463A651853A1817DA
:10200000870D72D586A0D0E2A997BA20A8CE046623
:10201000AAF96EA4AB7C78EBAE4B1229AF12AC6F71
:10202000AD25C6ADAC1881F1A72FEB33A67655755B
:10203000A4413FB7A5C429F8A0F3433AA1AAFD7C67
:10204000A39D97BEA2D073C4B5E71906B4BEA7403E
:10205000B689CD82B70CDBCDB23BB10FB3620F496D
:10206000B155658BB06822D7BB5F4815BA06F653E9
:10207000B8319C91B9B48ADEBC83E01CBDDA5E5AEB
:10208000BFED3498BE000000006567BCB88BC8097E
:10209000AAEEAFB5125797628F32F0DE37DC5F6B76
:1020A00025B938D79DEF28B4C58A4F087D64E0BDB7
:1020B0006F018701D7B8BFD64ADDD86AF23377DF20
:1020C000E0561063589F571950FA30A5E8149F1036
:1020D000FA71F8AC42C8C07BDFADA7C7674308728E
:1020E00075266FCECD707FAD951518112DFBB7A459
:1020F0003F9ED0188727E8CF1A428F73A2AC20C624
:10210000B0C9477A083EAF32A05BC88E18B5673BAE
:102110000AD00087B26938502F0C5FEC97E2F05973
:10212000858797E53DD1878665B4E03ADD5A4F8FC4
:10213000CF3F2833778610E4EAE37758520DD8ED85
:102140004068BF51F8A1F82BF0C49F97482A30226D
:102150005A4F579EE2F66F497F9308F5C77DA74017
:10216000D518C0FC6D4ED09F352BB7238DC5189662
:102170009FA07F2A271947FDBA7C204102928FF445
:1021800010F7E848A83D58149B583FA823B6901D67
:1021900031D3F7A1896ACF76140FA8CAACE1077FC3
:1021A000BE8460C306D270A05EB7171CE659B8A9FA
:1021B000F43CDF154C85E7C2D1E0807E690E2FCB61
:1021C0007B6B4877C3A20F0DCBC768B17329C704D7
:1021D000614CA0B8D9F5986F4490FFD3FC7E50664F
:1021E000EE1B37DA564D27B90E284005B6C6EFB0BC
:1021F000A4A3880C1C1AB0DB817FD767399178D2F1
:102200002BF41F6E9303F7263B66909A83883F2F2B
:1022100091ED589329546044B43107F80CDFA84D70
:102220001EBACFF1A6ECDF92FE89B82E4667179B47
:1022300054027027ECBB48F071DE2F4CC93080F996
:10224000DB55E745639CA03F6BF9C783D31768361E
:10225000C1720F8A79CB375DE4AE50E15C40FF5428
:102260004E2598E8F673888BAE16EF3716F8408245
:10227000049D273EBC241FE92141785599AFD7E042
:102280008BCAB05C333BB659ED5ED1E555B07E509C
:1022900047D519ECFF6C213B62094687DAE7E93242
:1022A000C8828E8E70D49EED28B1F951905F56E4AD
:1022B000823A31583A83098FA7E66E331F08C186E8
:1022C0000D6DA63AB5A4E140BDC186FC052F294994
:1022D000174A4EF5AFF376223296119E8A78BE2BBE
:1022E000981DD997204BC9F4782EAE48C0C001FD87
:1022F000D2A566416A1C5E96F779392A4F97969F58
:102300005DF2F123E505196B4D607ED7F58ED16244
:10231000E7EBB6DE5F528E09C237E9B57AD94600DF
:1023200068BC21BCD0EA31DF888F56633061F9D6B2
:1023300022049E6A9ABDA6BD07D8C101BF366EB4FD
:10234000AD530908159A4E721DFF29CEA511867B43
:10235000B774E1C70FCDD91092A8BEAC2A461119A7
:10236000382376A5807566C6D810017A60FEAECF98
:10237000729BC973CA22F1A457479618EFA939ADC9
:10238000FDCC5E114506EE4D766389F1CE8D264477
:10239000DCE841F86451792FF9341E9341DAB12613
:1023A00053BFD69AEBE9C6F9B38CA1450B620EF088
:1023B0001907694CA1BE519B3CDB362784359992A5
:1023C0009650FE2E2E99B95426FCDEE89E12715DC1
:1023D0008C7716E134CE2E36A9AB498A1145E63FFB
:1023E00003208183BB7691E0E313F65C5BFD59E942
:1023F00049983E55F12106826C44613ED4AACE8BA9
:10240000C6CFA9377E38417FD65D26C36EB38976A5
:102410007CD6EECAC46FD61D590AB1A1E1E41E14E0
:10242000F38179A84BD769CB13B20E77AB5CA1C20D
:10243000B939C67E0180FEA99CE59915240B36A00A
:10244000366E511C8EA7166686C271DA3E2CDE6F80
:102450002C49B9D394F081040995E6B8B17B490DB4
:10246000A31E2EB11B483ED2432D596EFBC3F6DB93
:10247000E9A69167511FA9B0CC7ACE0C749461B9CA
:1024800066F10605DE00002200250028002B002E44
:10249000003100340002010000050108010B0100B9
:1024A000002100240027002A002D00300033000105
:1024B000010000040107010A0105050505070508DB
:1024C000080808020202020A0A08080404040401B7
:1024D00001010101010101030303030303030304D9
:1024E0000707070C0C0C0C0C0C0C0C020202020669
:1024F000060606060606060B0B0B0B0B0B0B0B0159
:102500000210202008081020401020408002010204
:1025100001080402010102040810204080804020CC
:102520001008040201800402018040201008040207
:102530000108040201010204081020408001020485
:10254000081020408000F80311241FBECFEFD1E215
:10255000DEBFCDBF00E00CBF12E0A0E0B2E0E4E8D7
:10256000FDE803E00BBF02C007900D92A837B1074A
:10257000D9F72FE1A8E7B2E001C01D92A03DB20754
:10258000E1F712E1C4EAD2E100E006C021970109B7
:10259000802FFE010F9433C6C33AD10780E00807AD
:1025A000A9F70F94BEAD0D94C0C60C940000909195
:1025B000D01D80912C1C8C718C3071F19A30BCF440
:1025C0001916A4F421E030E03093BC052093BB053C
:1025D00043E050E05093BA054093B9053093B805F5
:1025E0002093B7055093AA054093A905089564E088
:1025F00070E07093BC056093BB05A2E0B0E0B093BF
:10260000BA05A093B9057093B8056093B705B09368
:10261000AA05A093A90508959A30DCF4191634F799
:10262000E1E0F0E0F093BC05E093BB0583E090E0CF
:102630009093BA058093B90525E030E03093B80552
:102640002093B70547E050E05093AA054093A905B1
:10265000089568E070E07093BC056093BB05A2E04C
:10266000B0E0B093BA05A093B905E4E0F0E0F093D0
:10267000B805E093B70586E090E09093AA058093B3
:10268000A9050895CF92DF92EF92FF92F894E0911E
:102690002006F0912106C090C907D090CA07E090AB
:1026A000CB07F090CC073FB7F8948091390B90910D
:1026B0003A0BA0913B0BB0913C0B26B5A89B05C0F3
:1026C0002F3F19F00196A11DB11D3FBF6627782F3E
:1026D000892F9A2F620F711D811D911D660F771F23
:1026E000881F991F660F771F881F991F6093B30576
:1026F0007093B4058093B5059093B60578942091B6
:10270000B3053091B4054091B5055091B6052C192B
:102710003D094E095F09A091EF06B091F0060F94B4
:10272000D3C5DC01CB01905CAF4FBF4F5FE0B695E6
:10273000A795979587955A95D1F7EE0FFF1FE4520D
:10274000FA4F40815181E090201CF090211CE40E52
:10275000F51E8E0D9F1D803D22E092073CF0805DAE
:102760009240FF90EF90DF90CF90089597FFF9CFC0
:1027700088599E4FFF90EF90DF90CF9008950F946F
:1027800061A16093A5057093A6058093A70590931A
:10279000A8058091A5059091A605A091A705B091E7
:1027A000A8054091FF0650910007609101077091C4
:1027B0000207841B950BA60BB70B8093160690930C
:1027C0001706A0931806B09319062091ED1D21FD60
:1027D00049C03091991D30FF45C040911606509177
:1027E000170660911806709119068091DA0590918C
:1027F000DB05A091DC05B091DD05481759076A0794
:102800007B0778F12091A5053091A6054091A70599
:102810005091A8052093FF063093000740930107CD
:102820005093020760911606709117068091180662
:102830009091190660939705709398058093990578
:1028400090939A05A091FC06B091FD061196B09365
:10285000FD06A093FC06E0912006F0912106319739
:1028600071F008956CED75E080E090E06093D8071A
:102870007093D9078093DA079093DB07AECF40912E
:10288000A5055091A6056091A7057091A8058091B6
:10289000C9079091CA07A091CB07B091CC078417C4
:1028A0009507A607B707E8F68091A5059091A605BC
:1028B000A091A705B091A8052091C9073091CA073A
:1028C0004091CB075091CC07821B930BA40BB50B07
:1028D00080934D0590934E05A0934F05B0935005FE
:1028E00008950895CF92DF92EF92FF92CF93DF93F6
:1028F000F894C0912006D0912106C090C907D090CD
:10290000CA07E090CB07F090CC070F9461A16093C9
:10291000B3057093B4058093B5059093B60578948C
:1029200080912206909123062097C9F53BE0389FBD
:10293000F001399FF00D11244091201C5091211C71
:10294000E40FF51F2091B3053091B4054091B50512
:102950005091B6052C193D094E095F09A091EF066B
:10296000B091F0060F94D3C5DC01CB01905CAF4F62
:10297000BF4F2FE0B695A795979587952A95D1F7E4
:102980008E0F9F1F803D22E09207C4F0805D924031
:10299000DF91CF91FF90EF90DF90CF900895219736
:1029A000C89FF001C99FF00DD89FF00D1124209110
:1029B000201C3091211CE20FF31FC4CF97FFE8CFFA
:1029C00088599E4FDF91CF91FF90EF90DF90CF908D
:1029D000089508958091120690911306A09114060F
:1029E000B09115068093970590939805A09399054B
:1029F000B0939A050F9461A16093AB057093AC05F9
:102A00008093AD059093AE058091AB059091AC0598
:102A1000A091AD05B091AE054091C9075091CA078C
:102A20006091CB077091CC07841B950BA60BB70B5D
:102A30008093120690931306A0931406B093150684
:102A4000A0912006B09121061196B0932106A09383
:102A500020062091C70720622093C70760912006B7
:102A6000709121066D30710509F45BC0E09120067C
:102A7000F0912106319709F45DC0809197059091FE
:102A80009805A0919905B0919A05B695A795979547
:102A9000879580939D0590939E05A0939F05B09385
:102AA000A005409112065091130660911406709192
:102AB000150680919D0590919E05A0919F05B0916E
:102AC000A005481759076A077B0708F12091C90735
:102AD0003091CA074091CB075091CC0720930E0646
:102AE00030930F0640931006509311066091AB058A
:102AF0007091AC058091AD059091AE056093C907CA
:102B00007093CA078093CB079093CC0708951092D7
:102B10002106109220067091991D71607093991D85
:102B200008953091991D30FFA1CF10922106109287
:102B3000200608955091991D50FF9FCF4091D605D2
:102B40005091D7056091D8057091D9054093D20571
:102B50005093D3056093D4057093D5058091AB0550
:102B60009091AC05A091AD05B091AE058093D605CE
:102B70009093D705A093D805B093D90520910B1E4B
:102B800030910C1E40910D1E50910E1E2F5F3F4F35
:102B90004F4F5F4F20930B1E30930C1E40930D1E22
:102BA00050930E1E6091C9077091CA078091CB07A0
:102BB0009091CC0760930E0670930F0680931006D9
:102BC000909311064091AB055091AC056091AD0515
:102BD0007091AE054093C9075093CA076093CB0725
:102BE0007093CC0708950895CF92DF92EF92FF92F1
:102BF0001F93CF93DF93F894C0912006D0912106C4
:102C0000C090C907D090CA07E090CB07F090CC07DE
:102C10001091D1050F9461A16093B3057093B40531
:102C20008093B5059093B6057894FE013197CD2B2E
:102C300011F4ECE2F0E0C0912206D091230620913D
:102C4000B3053091B4054091B5055091B6052C19E6
:102C50003D094E095F09A091EF06B091F0060F946F
:102C6000D3C5DC01CB01905CAF4FBF4F2FE0B695D1
:102C7000A795979587952A95D1F72091201C30919B
:102C8000211C820F931FCE9FB001CF9F700DDE9F3E
:102C9000700D1124860F971F112311F088599E4F34
:102CA000803D22E0920754F0805D9240DF91CF9109
:102CB0001F91FF90EF90DF90CF90089597FFF6CF90
:102CC0004091260250912702E0902802F0902902BC
:102CD000E416F50654F08E0D9F1DDF91CF911F91E4
:102CE000FF90EF90DF90CF9008957A018E0D9F1D99
:102CF000F4CF8091991D80FF20C02091261C27FDD4
:102D00002CC040910B1E50910C1E60910D1E7091B5
:102D10000E1E443651056105710558F46091200678
:102D2000709121066D32710521F0109221061092EA
:102D3000200691E09093D1050895109221061092FB
:102D400020065091991D51605093991D73E0709326
:102D5000FE0691E09093D1050895109221061092FD
:102D6000200633E03093FE0691E09093D10508955C
:102D70000F9461A16093AB057093AC058093AD0592
:102D80009093AE058091AB059091AC05A091AD05F7
:102D9000B091AE054091490550914A0560914B05AF
:102DA00070914C05841B950BA60BB70B80931206F4
:102DB00090931306A0931406B09315062091120663
:102DC0003091130640911406509115066091D80772
:102DD0007091D9078091DA079091DB07621773072A
:102DE0008407950768F080910B1E90910C1EA091AE
:102DF0000D1EB0910E1E892B8A2B8B2B09F0B7C0AC
:102E00003091FE063F5F3093FE065091991D50FFB2
:102E10009EC07091FE06733008F4A9C09091C70758
:102E200090629093C7074091AB055091AC056091BB
:102E3000AD057091AE054093490550934A056093E6
:102E40004B0570934C051092FE06A0912006B091A0
:102E500021061196B0932106A0932006E09120064A
:102E6000F0912106319741F0209120063091210602
:102E70002E32310508F440C061E070E07093210605
:102E8000609320068091D6059091D705A091D80532
:102E9000B091D9058093D2059093D305A093D40522
:102EA000B093D5054091AB055091AC056091AD054F
:102EB0007091AE054093D6055093D7056093D80521
:102EC0007093D905B091D105F1E0BF27B093D1053A
:102ED00020910B1E30910C1E40910D1E50910E1E24
:102EE0002F5F3F4F4F4F5F4F20930B1E30930C1EB1
:102EF00040930D1E50930E1E4091120650911306E2
:102F0000609114067091150630912C1C307639F0C2
:102F10003032D1F1303409F448C0303649F11092E2
:102F2000D8071092D9071092DA071092DB07609148
:102F3000C9077091CA078091CB079091CC07609325
:102F40000E0670930F0680931006909311068091E1
:102F5000AB059091AC05A091AD05B091AE05809305
:102F6000C9079093CA07A093CB07B093CC070895E5
:102F7000DB01CA01880F991FAA1FBB1F840F951F71
:102F8000A61FB71FAC01BD0176956795579547956C
:102F900076956795579547954093D8075093D907ED
:102FA0006093DA077093DB07C2CF769567955795E4
:102FB00047954093D8075093D9076093DA077093E9
:102FC000DB07B5CF0895CF92DF92EF92FF92CF93B8
:102FD000DF93F894C0912006D0912106C090C907D4
:102FE000D090CA07E090CB07F090CC070F9461A176
:102FF0006093B3057093B4058093B5059093B605BF
:1030000078948091200690912106892B99F5E09182
:10301000201CF091211CEE58FF4F2091B3053091F8
:10302000B4054091B5055091B6052C193D094E09DE
:103030005F09A091EF06B091F0060F94D3C5DC01B3
:10304000CB01905CAF4FBF4F2FE0B695A7959795FA
:1030500087952A95D1F78E0F9F1F803D22E092071A
:10306000B4F0805D9240DF91CF91FF90EF90DF90C0
:10307000CF900895CC0FDD1FC452DA4FE881F9815B
:103080002091201C3091211CE20FF31FC6CF97FF27
:10309000EACF88599E4FDF91CF91FF90EF90DF905C
:1030A000CF900895109221061092200608958091E5
:1030B0002006909121060D9709F4A9C00F9461A1F3
:1030C0006093AB057093AC058093AD059093AE050E
:1030D0008091AB059091AC05A091AD05B091AE0586
:1030E0004091C9075091CA076091CB077091CC07F6
:1030F000841B950BA60BB70B8093120690931306B7
:10310000A0931406B0931506209112063091130671
:1031100040911406509115066091D8077091D90717
:103120008091DA079091DB07261737074807590780
:1031300008F46CC0A0912006B0912106AB2B09F4D5
:103140006CC0E0912006F09121063196F0932106A3
:10315000E0932006A0912006B0912106E091200680
:10316000F0912106AA0FBB1FA452BA4FEE0FFF1F0A
:10317000E652FA4F8D919C9140815181841B950BB1
:1031800090932306809322064091120650911306D5
:10319000609114067091150690912C1C907649F060
:1031A000903209F48CC0903409F49AC0903609F436
:1031B0007AC01092D8071092D9071092DA071092AD
:1031C000DB075091C70750625093C7072091C9078A
:1031D0003091CA074091CB075091CC0720930E063F
:1031E00030930F0640931006509311066091AB0583
:1031F0007091AC058091AD059091AE056093C907C3
:103200007093CA078093CB079093CC070895709171
:10321000991D7E7F7093991D089521E030E03093D1
:103220002106209320066091D6057091D7058091E4
:10323000D8059091D9056093D2057093D3058093FA
:10324000D4059093D5058091AB059091AC05A091E4
:10325000AD05B091AE058093D6059093D705A093A8
:10326000D805B093D9053091991D31603093991DDF
:1032700040910B1E50910C1E60910D1E70910E1E00
:103280004F5F5F4F6F4F7F4F40930B1E50930C1E4D
:1032900060930D1E70930E1EACE3B0E0B093230656
:1032A000A093220671CFDB01CA01880F991FAA1FC4
:1032B000BB1F840F951FA61FB71FAC01BD017695DC
:1032C0006795579547957695679557954795409398
:1032D000D8075093D9076093DA077093DB0771CF53
:1032E00076956795579547954093D8075093D9079A
:1032F0006093DA077093DB0764CF0895CF92DF9273
:10330000EF92FF920F931F93CF93F89400912006B2
:1033100010912106C090C907D090CA07E090CB0752
:10332000F090CC07C091D1050F9461A16093B305D3
:103330007093B4058093B5059093B6057894E091A9
:10334000201CF091211C0115110571F0000F111FB7
:10335000F801E452FA4F0190F081E02D8091201C99
:103360009091211CE80FF91F2091B3053091B4050D
:103370004091B5055091B6052C193D094E095F09DC
:10338000A091EF06B091F0060F94D3C5DC01CB01FC
:10339000905CAF4FBF4F2FE0B695A7959795879557
:1033A0002A95D1F78E0F9F1FCC2311F088599E4F7D
:1033B000803D22E0920754F0805D9240CF911F91B2
:1033C0000F91FF90EF90DF90CF90089597FFF6CF89
:1033D00088599E4FCF911F910F91FF90EF90DF90F2
:1033E000CF900895109221061092200681E08093DC
:1033F000D10508958091200690912106499709F4FE
:10340000D3C03FB7F8944091390B50913A0B60917B
:103410003B0B70913C0B26B5A89B06C02F3F21F0BB
:103420004F5F5F4F6F4F7F4F3FBF962F852F742F9A
:103430006627620F711D811D911D660F771F881F02
:10344000991F660F771F881F991F6093AB057093B4
:10345000AC058093AD059093AE058091AB0590913E
:10346000AC05A091AD05B091AE054091C907509152
:10347000CA076091CB077091CC07841B950BA60BF4
:10348000B70B8093120690931306A0931406B09383
:103490001506A0912006B0912106AB2BC9F1E09151
:1034A0002006F09121063196F0932106E093200644
:1034B000A0912006B0912106E0912006F09121060E
:1034C000AA0FBB1FA452BA4FEE0FFF1FE652FA4FCE
:1034D0006D917C9120813181621B730B7093230667
:1034E00060932206B091C707B062B093C70780917E
:1034F000AB059091AC05A091AD05B091AE05809360
:10350000C9079093CA07A093CB07B093CC0708953F
:1035100081E090E090932106809320064091D605AB
:103520005091D7056091D8057091D9054093D20587
:103530005093D3056093D4057093D5056091AB0586
:103540007091AC058091AD059091AE056093D60564
:103550007093D7058093D8059093D9055091D105E4
:1035600091E059275093D1057091991D7160709326
:10357000991D20910B1E30910C1E40910D1E5091F3
:103580000E1E2F5F3F4F4F4F5F4F20930B1E309308
:103590000C1E40930D1E50930E1EAFE0B0E0B09392
:1035A0002306A09322069ECFF091991DFE7FF093F3
:1035B000991D089580915D0E807F8034F1F08036F2
:1035C000D9F420912C1C2C712C3089F146E050E06C
:1035D0005093BC054093BB0562E070E07093BA0560
:1035E0006093B905A4E0B0E0B093B805A093B70527
:1035F0007093AA056093A905089530912C1C3C7125
:103600003C30A9F0E4E0F0E0F093BC05E093BB05AA
:1036100082E090E09093BA058093B905F093B805E5
:10362000E093B7059093AA058093A905089528E033
:1036300030E03093BC052093BB0542E050E050934E
:10364000BA054093B90564E070E07093B8056093E3
:10365000B705A6E0B0E0B093AA05A093A905089528
:103660008F929F92AF92BF92CF92DF92EF92FF9292
:103670000F931F93CF93DF938091991D80FD0FC00F
:1036800090E080E0DF91CF911F910F91FF90EF903C
:10369000DF90CF90BF90AF909F908F900895F89457
:1036A000E0912006F09121064091C9075091CA0788
:1036B0006091CB077091CC073FB7F8948091390B9C
:1036C00090913A0BA0913B0BB0913C0B26B5A89B77
:1036D00005C02F3F19F00196A11DB11D3FBF8824E1
:1036E000982EA92EBA2E820E911CA11CB11C880CFA
:1036F000991CAA1CBB1C880C991CAA1CBB1C809280
:10370000B3059092B405A092B505B092B605789431
:10371000EE0FFF1FE452FA4FC081D181A090201C10
:10372000B090211CCA0DDB1D8091B3059091B405AA
:10373000A091B505B091B6057C018D01E41AF50A9A
:10374000060B170BA8019701F8949090C70796FCF9
:103750001CC07894A091EF06B091F0060F94D3C5E9
:10376000DC01CB01905CAF4FBF4F2FE0B695A79522
:10377000979587952A95D1F78C0F9D1F803D02E084
:1037800090074CF1805D92407DCFC090C907D090EA
:10379000CA07E090CB07F090CC0780900E0690907F
:1037A0000F06A0901006B0901106A0912206B091CD
:1037B000230678940F94D3C5A701960128193909D7
:1037C0004A095B090F94E6C5C9018C0F9D1F803D16
:1037D00002E09007BCF697FF55CF88599E4F52CF15
:1037E0008091991D3FB7F8948091390B90913A0BD5
:1037F000A0913B0BB0913C0B26B5A89B05C02F3F79
:1038000019F00196A11DB11D3FBF6627782F892FA2
:103810009A2F620F711D811D911D660F771F881FE2
:10382000991F660F771F881F991F6093A5057093D6
:10383000A6058093A7059093A8058091A505909172
:10384000A605A091A705B091A8054091FF0650914B
:1038500000076091010770910207841B950BA60B6E
:10386000B70B8093160690931706A0931806B09393
:1038700019062091160630911706409118065091AE
:1038800019066091DA057091DB058091DC05909155
:10389000DD05261737074807590708F473C08091DC
:1038A000A5059091A605A091A705B091A8058093C4
:1038B000FF0690930007A0930107B0930207509171
:1038C000C70750625093C7074091160650911706DC
:1038D00060911806709119067695679557954795EA
:1038E0004093DA055093DB056093DC057093DD05AA
:1038F0007091991D70FD32C02CED35E040E050E034
:103900002093D8073093D9074093DA075093DB0709
:103910006091DA057091DB058091DC059091DD0501
:1039200096958795779567956093DA057093DB0593
:103930008093DC059093DD05E091C405F091C50509
:103940009081A091C305B0915D0EB07F9A2301F1E3
:10395000B03409F459C0B03609F44DC060919A1DD5
:1039600070919B1DE091371EF091381E6E177F07F6
:1039700050F45091991D50FF05C070915D0E707FFD
:103980007034A1F008953091261C37FDF2CF0895D0
:10399000B03421F780912006909121060597F1F629
:1039A000F091991DF160F093991DD8CF0F9461A10A
:1039B0008091450590914605A0914705B091480535
:1039C000E091C405F091C505A0819091C305A9239C
:1039D000C9F2809120069091210688309105E9F086
:1039E000B091991DBE7FB093991D4091481E4F5FC5
:1039F0004093481E0895409120065091210647307B
:103A0000510509F0ABCFCCCF209120063091210693
:103A10002830310509F0A2CFC3CF909321068093BF
:103A2000200608958091D01D82319CF026E030E080
:103A30003093BC052093BB0541E050E05093BA059C
:103A40004093B90564E070E07093B8056093B705E2
:103A50000895A7E0B0E0B093BC05A093BB05E2E0F9
:103A6000F0E0F093BA05E093B90585E090E090931B
:103A7000B8058093B7050895CF92DF92EF92FF9239
:103A8000CF93DF93F894C0912006D0912106C09087
:103A9000C907D090CA07E090CB07F090CC070F94ED
:103AA00061A16093B3057093B4058093B5059093BD
:103AB000B6057894C330D1050CF040C020912206A1
:103AC000309123062197C29FA001C39F500DD29F22
:103AD000500D1124E091201CF091211CBA96E40FA6
:103AE000F51F2091B3053091B4054091B505509173
:103AF000B6052C193D094E095F09A091EF06B0915A
:103B0000F0060F94D3C5DC01CB01905CAF4FBF4FE3
:103B10002FE0B695A795979587952A95D1F78E0FA3
:103B20009F1F803D22E0920714F1805D9240DF915B
:103B3000CF91FF90EF90DF90CF900895E0E7F0E015
:103B4000C330D10571F2809122069091230622970D
:103B5000C89FB001C99F700DD89F700D1124E091CE
:103B6000201CF091211CBA96E60FF71FBACF97FFE1
:103B7000DECF88599E4FDF91CF91FF90EF90DF907D
:103B8000CF9008958091BF079091C0072091201C8D
:103B90003091211C821B930B4091280250912902E5
:103BA00097FD77C048175907DCF130915D0E3295CB
:103BB0003F703430E9F1353008F44BC0363009F449
:103BC0004AC0383009F0A2C0BC016B5571096A3592
:103BD000710508F482C0DC01A55BB109AA35B10505
:103BE00008F4A8C001978E30914008F0BCC0E1E015
:103BF000F0E0F093BC05E093BB0582E090E0909389
:103C0000BA058093B90523E030E03093B8052093DE
:103C1000B70544E050E05093AA054093A9050895E4
:103C2000841B950B30915D0E32953F70343019F640
:103C30000197843B910580F162E070E07093BC05D0
:103C40006093BB05A1E0B0E0B093BA05A093B905BD
:103C50000895333071F5BC016957710968377105F2
:103C600048F10197803F910508F451C023E030E00E
:103C70003093BC052093BB0541E050E05093BA055A
:103C80004093B90562E070E07093B8056093B705A2
:103C90000895840F951F89CF21E030E03093BC0553
:103CA0002093BB0542E050E05093BA054093B9051C
:103CB00008950895A2E0B0E0B093BC05A093BB05C1
:103CC000E3E0F0E0F093BA05E093B90581E090E01D
:103CD0009093B8058093B7050895E2E0F0E0F09383
:103CE000BC05E093BB0583E090E09093BA05809318
:103CF000B90524E030E03093B8052093B70541E0E2
:103D000050E05093AA054093A90508950895A1E0B5
:103D1000B0E0B093BC05A093BB05E2E0F0E0F09307
:103D2000BA05E093B90583E090E09093B8058093DD
:103D3000B705089523E030E03093BC052093BB0520
:103D400044E050E05093BA054093B90561E070E05B
:103D50007093B8056093B705A2E0B0E0B093AA05F0
:103D6000A093A905089564E070E07093BC0560938A
:103D7000BB05A1E0B0E0B093BA05A093B905E2E0BD
:103D8000F0E0F093B805E093B70583E090E09093FE
:103D9000AA058093A90508958F929F92AF92BF9232
:103DA000CF92DF92EF92FF92CF93DF93F894C0917E
:103DB0002006D0912106C090C907D090CA07E09094
:103DC000CB07F090CC070F9461A16093B30570937B
:103DD000B4058093B5059093B6057894809122063A
:103DE00090912306AE0141505109489FE001499F3F
:103DF000D00D589FD00D11248090201C9090211C34
:103E0000C80DD91D2091B3053091B4054091B50579
:103E10005091B6052C193D094E095F09F894909010
:103E2000C70796FC36C07894A091EF06B091F006D3
:103E30000F94D3C5DC01CB01905CAF4FBF4F2FE097
:103E4000B695A795979587952A95D1F78C0F9D1FC5
:103E5000803D22E092076CF0805D9240DF91CF912F
:103E6000FF90EF90DF90CF90BF90AF909F908F909A
:103E7000089597FFF3CFA0902602B09027024091BB
:103E80002802509129024A155B0524F1840F951FE1
:103E9000E5CFC090C907D090CA07E090CB07F0905B
:103EA000CC0780900E0690900F06A0901006B09060
:103EB0001106A0912206B091230678940F94D3C5E1
:103EC000A7019601281939094A095B090F94E6C52B
:103ED000C901BCCFA501840F951FC0CFCF92DF923F
:103EE000EF92FF92CF93462F2091201C3091211CFE
:103EF000FC01E21BF30BC091D0052091CE0530915F
:103F0000CF055C2F5F7121153105A9F52C2FCC0F42
:103F1000330B220F232F221F330B8FEF9FEF052E22
:103F200002C0880F991F0A94E2F780959095BF010F
:103F3000770F660B762F862397238E0F9F1F02C065
:103F4000959587955A95E2F782279327821B930BC5
:103F500020912F1C240F3327331F181619069CF5A8
:103F60002817390714F4821B930BCF91FF90EF9021
:103F7000DF90CF900895DF010F9454C66C01FF24A9
:103F8000D7FCF094EF2CC601C6FF0EC02C2FCC0F2F
:103F9000330B220F232F221F330BCF0182279327AE
:103FA000821B930B8C0D9D1D02C0959587955A958C
:103FB000E2F797FD019620912F1C240F3327331F22
:103FC000181619066CF2820F931FCF91FF90EF9095
:103FD000DF90CF900895CF9380912C1C8C718C3002
:103FE000D1F1C0E06C2F8091BF079091C0070E9473
:103FF0006E1F9093BC058093BB056C2F8091BD070D
:104000009091BE070E946E1F9093BA058093B905E8
:104010006C2F8091BB079091BC070E946E1F9093FC
:10402000B8058093B7056C2F8091B9079091BA07B6
:104030000E946E1F9093AA058093A9056C2F809112
:10404000B7079091B8070E946E1F90939C058093CC
:104050009B05CF9108952091251CC0912F1C21FF15
:10406000C1CFBFCFCF92DF92EF92FF921F93CF933A
:10407000DF93F894C0912006D0912106C090C90723
:10408000D090CA07E090CB07F090CC071091D105F3
:104090000F9461A16093B3057093B4058093B50547
:1040A0009093B6057894209719F4C0912F1CD0E016
:1040B000E0912206F09123062091B3053091B405DA
:1040C0004091B5055091B6052C193D094E095F097F
:1040D000A091EF06B091F0060F94D3C5DC01CB019F
:1040E000905CAF4FBF4F2FE0B695A79597958795FA
:1040F0002A95D1F72091201C3091211C820F931F0B
:104100002197CE9FB001CF9F700DDE9F700D1124BF
:10411000860F971F112321F0D090251CD1FE25C0BA
:10412000803D22E0920754F0805D9240DF91CF9174
:104130001F91FF90EF90DF90CF90089597FFF6CFFB
:104140004091260250912702E0902802F090290227
:10415000E416F5066CF08E0D9F1DDF91CF911F9137
:10416000FF90EF90DF90CF90089588599E4FD8CF61
:104170007A018E0D9F1DF1CFCF92DF92EF92FF92C9
:10418000CF93DF930F9461A16093A5057093A6056B
:104190008093A7059093A8058091A5059091A60509
:1041A000A091A705B091A8054091FF065091000786
:1041B0006091010770910207841B950BA60BB70B4A
:1041C0008093160690931706A0931806B0931906CD
:1041D000C0901606D0901706E0901806F0901906C9
:1041E0002091DA053091DB054091DC055091DD0529
:1041F000C216D306E406F50608F464C08091A5054E
:104200009091A605A091A705B091A8058093FF06FF
:1042100090930007A0930107B09302074091160600
:10422000509117066091180670911906769567955A
:104230005795479576956795579547954093DA0535
:104240005093DB056093DC057093DD05D090991DDC
:10425000D0FE53C0C0900B1ED0900C1EE0900D1EDF
:10426000F0900E1E80912B1C90E0B0E0A0E08C1529
:104270009D05AE05BF0508F040C080912F1C90E061
:10428000E0902006F09021068E159F0591F0209178
:104290000B1E30910C1E40910D1E50910E1E2330AE
:1042A00031054105510528F03091481E3F5F30939C
:1042B000481EF090261CF7FE58C09093210680936C
:1042C000200653C06091EB067091EC068091ED06DC
:1042D0009091EE0696958795779567956093DA05A8
:1042E0007093DB058093DC059093DD05DF91CF9122
:1042F000FF90EF90DF90CF9008950F9461A16093AD
:10430000C9077093CA078093CB079093CC070F948B
:1043100061A16B017C01C0912F1C2C2F30E050E07B
:1043200040E060E87DE88BE590E00F94E6C5C21AB6
:10433000D30AE40AF50AC0920E06D0920F06E09264
:104340001006F0921106D0E0D0932106C09320060B
:104350001092D8071092D9071092DA071092DB0753
:104360005091991D51605093991D71E07093D10542
:10437000DF91CF91FF90EF90DF90CF900895CF9293
:10438000DF92EF92FF92CF93462F2091201C309125
:10439000211CFC01E21BF30BC091D0052091CE053E
:1043A0003091CF055C2F5F712115310509F04CC0AC
:1043B0008C2FCC0F990B880F892F881F990B2FEF0B
:1043C0003FEF052E02C0220F331F0A94E2F720951B
:1043D0003095BF01770F660B762F262337232E0FDC
:1043E0003F1F02C0359527955A95E2F728273927B0
:1043F000281B390B60912F1C6D3010F021503109B2
:1044000070E0842F90E06B01C80ED91E12161306BF
:104410000CF040C0C216D306D4F1E0901E06F09016
:104420001F06E216F30620F46217730708F09701DF
:104430008E0D9F1D2817390708F4C901CF91FF90F1
:10444000EF90DF90CF900895DF010F9454C66C0178
:10445000FF24D7FCF094EF2C9601C6FF0EC08C2FE2
:10446000CC0F990B880F892F881F990B9F01282744
:104470003927281B390B2C0D3D1D02C0359527957A
:104480005A95E2F7832F880F211D311DB3CF2C19C8
:104490003D09C3CF2C0D3D1DC0CFCF9380912C1C67
:1044A0008C718C30D1F1C0E06C2F8091BF0790915E
:1044B000C0070E94BF219093BC058093BB056C2F61
:1044C0008091BD079091BE070E94BF219093BA05CD
:1044D0008093B9056C2F8091BB079091BC070E9417
:1044E000BF219093B8058093B7056C2F8091B907D1
:1044F0009091BA070E94BF219093AA058093A905C5
:104500006C2F8091B7079091B8070E94BF219093BC
:104510009C0580939B05CF9108952091251C21FD3A
:10452000C2CF30915D0EC0912F1C32FFBDCFBBCFEB
:10453000CF92DF92EF92FF92F89420912006309173
:1045400021069091D105C090C907D090CA07E0908C
:10455000CB07F090CC077894409122065091230627
:1045600021503109249FF001259FF00D349FF00D5B
:1045700011246091201C7091211CE60FF71F9923D4
:1045800021F08091251C81FF63C03FB7F8944091D2
:10459000390B50913A0B60913B0B70913C0BA6B5D7
:1045A000A89B06C0AF3F21F04F5F5F4F6F4F7F4F1B
:1045B0003FBF2227342F452F562F2A0F311D411D73
:1045C000511D220F331F441F551F220F331F441F3D
:1045D000551F2093B3053093B4054093B505509310
:1045E000B6052C193D094E095F09A091EF06B0915F
:1045F000F0060F94D3C5DC01CB01905CAF4FBF4FE9
:104600007FE0B695A795979587957A95D1F78E0F08
:104610009F1F803D22E092073CF0805D9240FF901A
:10462000EF90DF90CF90089597FFF9CFE0902602AA
:10463000F090270240912802509129024E155F0503
:1046400054F0840F951FFF90EF90DF90CF90089566
:10465000E859FE4F9ACFA701840F951FF4CFCF9250
:10466000DF92EF92FF920F9461A1609341057093E6
:1046700042058093430590934405809141059091B4
:104680004205A0914305B091440540913D055091EC
:104690003E0560913F0570914005841B950BA60B6C
:1046A000B70B80931A0690931B06A0931C06B09339
:1046B0001D06C0903D05D0903E05E0903F05F0906E
:1046C0004005CD28CE28CF28C1F410921A061092AA
:1046D0001B0610921C0610921D0620914105309178
:1046E0004205409143055091440520933D05309388
:1046F0003E0540933F055093400540911A06509166
:104700001B0660911C0670911D06809139059091E1
:104710003A05A0913B05B0913C05481759076A0737
:104720007B0708F4B3C0A091C605B091C7051196E8
:10473000B093C705A093C60560911A0670911B0639
:1047400080911C0690911D069695879577956795A3
:1047500096958795779567956093390570933A0597
:1047600080933B0590933C05E0910A02F0910B0287
:104770001995AC01893621E092070CF443C09C01E5
:1047800029563140A3E8BDE20F9408C60024880FE3
:10479000991F001C880F991F001C892F902D87706E
:1047A000992748565140493621E052075CF100975D
:1047B00019F181309105D1F082309105A9F0833053
:1047C000910581F08430910559F08530910531F0E3
:1047D000069711F0485651404856514048565140AE
:1047E000485651404856514048565140485651400D
:1047F000493621E0520734F040545B40493681E0AD
:104800005807D4F7E090201CF090211C4E195F0946
:1048100030919E1E3370323031F4C090991CD0908C
:104820009A1C4C195D09E0919C1C9A01220F331FC0
:10483000F0E0A0E0B1E0AE1BBF0B0F9454C66B01DB
:104840007C01A091611EB091621E9F010F945CC615
:10485000C60ED71EE81EF91ECD2CDE2CEF2CFF2431
:10486000E7FCFA94D092621EC092611E209141052D
:1048700030914205409143055091440520933D05F8
:1048800030933E0540933F0550934005FF90EF90D5
:10489000DF90CF900895CF92DF92EF92FF920F9426
:1048A00061A16093A5057093A6058093A7059093D9
:1048B000A8058091A5059091A605A091A705B091A6
:1048C000A8054091FF065091000760910107709183
:1048D0000207841B950BA60BB70B809316069093CB
:1048E0001706A0931806B0931906C090FF06D09043
:1048F0000007E0900107F0900207CD28CE28CF28CE
:10490000C1F4109216061092170610921806109213
:1049100019062091A5053091A6054091A705509153
:10492000A8052093FF06309300074093010750939A
:104930000207409116065091170660911806709173
:1049400019068091DA059091DB05A091DC05B09104
:10495000DD05481759076A077B0708F443C0309103
:10496000281C3F77313009F442C008F434C1343098
:1049700049F5A091FC06B091FD061196B093FD0695
:10498000A093FC066091FC067091FD0662307105F3
:1049900009F4BDC18091160690911706A0911806E2
:1049A000B0911906B695A79597958795B695A79551
:1049B000979587958093DA059093DB05A093DC05A6
:1049C000B093DD054091A5055091A6056091A7051E
:1049D0007091A8054093FF0650930007609301076C
:1049E00070930207FF90EF90DF90CF900895809131
:1049F000FF0690910007A0910107B0910207C090B7
:104A0000CA05D090CB05E090CC05F090CD058C196F
:104A10009D09AE09BF09AC01BD01440F551F661FBA
:104A2000771F840F951FA61FB71FB695A79597955B
:104A300087958093A1059093A205A093A305B093B9
:104A4000A4052091FF063091000740910107509185
:104A500002072093CA053093CB054093CC055093B1
:104A6000CD05409116065091170660911806709179
:104A700019068091A1059091A205A091A305B0917E
:104A8000A405481759076A077B0740F46091FC06A4
:104A90007091FD066430710508F417C181E090E063
:104AA0009093FD068093FC068093D1051092DA0561
:104AB0001092DB051092DC051092DD053091981EF6
:104AC00035FF80CF5091D105552309F47BCFE0917C
:104AD0000A02F0910B021995AC01893621E0920788
:104AE0000CF443C09C0129563140A3E8BDE20F9469
:104AF00008C60024880F991F001C880F991F001CEE
:104B0000892F902D8770992748565140493621E0CA
:104B100052075CF1009719F181309105D1F0823094
:104B20009105A9F08330910581F08430910559F009
:104B30008530910531F0069711F04856514048569E
:104B400051404856514048565140485651404856A9
:104B5000514048565140493621E0520734F0405404
:104B60005B40493681E05807D4F7E090201CF09074
:104B7000211C4E195F0970919E1E7370723031F4C2
:104B800020915B1D30915C1D421B530BD0909C1CEF
:104B90009A01220F331F4D2D50E0A0E0B1E0A41B7D
:104BA000B50B0F9454C66B017C01A0914D1EB091C2
:104BB0004E1E9A010F945CC6C60ED71EE81EF91E43
:104BC000CD2CDE2CEF2CFF24E7FCFA94D0924E1E65
:104BD000C0924D1EF7CE91E09093D10560911606DC
:104BE00070911706809118069091190696958795F1
:104BF000779567956093DA057093DB058093DC0504
:104C00009093DD05A091FC06B091FD061196B0933E
:104C1000FD06A093FC06B091981EB5FFD3CEF0918F
:104C2000D105FF2309F4CECEE0910A02F0910B02E8
:104C30001995AC01893621E092070CF496CF9C01BE
:104C400029563140A3E8BDE20F9408C60024880F1E
:104C5000991F001C880F991F001C892F902D8770A9
:104C6000992748565140493621E052070CF47DCF30
:104C7000009721F181309105D1F082309105A9F0A2
:104C80008330910581F08430910559F0853091058C
:104C900031F0069711F04856514048565140485659
:104CA0005140485651404856514048565140485648
:104CB0005140493681E058070CF457CF40545B40CF
:104CC000493681E05807D4F750CFC0901606D090EF
:104CD0001706E0901806F0901906F694E794D7941A
:104CE000C794F694E794D794C794C092DA05D0920B
:104CF000DB05E092DC05F092DD05A091FC06B091A9
:104D0000FD061196B093FD06A093FC065BCE51E024
:104D10005093D105D090981ED5FE3CCEE090D105A1
:104D2000EE2009F437CEE0910A02F0910B021995BA
:104D3000AC01893621E092070CF443C09C0129564E
:104D40003140A3E8BDE20F9408C60024880F991FE4
:104D5000001C880F991F001C892F902D87709927A0
:104D600048565140493621E052075CF1009719F14D
:104D700081309105D1F082309105A9F08330910501
:104D800081F08430910559F08530910531F0069716
:104D900011F04856514048565140485651404856E7
:104DA0005140485651404856514048565140493666
:104DB00021E0520734F040545B40493681E0580707
:104DC000D4F7C090201CD090211C4C195D09709123
:104DD0009E1E7370723031F420915B1D30915C1D0A
:104DE000421B530BF0909C1C9A01220F331F4F2D36
:104DF00050E0A0E0B1E0A41BB50B0F9454C66B01CA
:104E00007C01A0914D1EB0914E1E9A010F945CC67C
:104E1000C60ED71EE81EF91ECD2CDE2CEF2CFF246B
:104E2000E7FCFA94D0924E1EC0924D1EB3CD0F9364
:104E30001F932091EA1D26FD21C000914B1E0023E7
:104E400001F141111BC0E091CD07F091CE07EE0FAB
:104E5000FF1FEE0FFF1FE35CFC4F608371838283B3
:104E600093832091CD073091CE072E37310508F47A
:104E700053C0B091EA1DB064B093EA1D1F910F9129
:104E8000089580914C1E8823C9F3E091CD07F091DD
:104E9000CE07E254FD4F1082E091C405F091C505A4
:104EA000A091C105B091C205843009F446C090813B
:104EB0001091C305912349F0E091CD07F091CE0701
:104EC000E254FD4F308131603083E091BE05F091B6
:104ED000BF05833009F496C05C916091C0055623EC
:104EE00049F0A091CD07B091CE07A254BD4F7C915F
:104EF00072607C93B081F091BD05BF2349F0E091D1
:104F0000CD07F091CE07E254FD4F308134603083FD
:104F1000442309F44BC041C0A091CD07B091CE0706
:104F20001196B093CE07A093CD07F091EA1DFF7BB9
:104F3000F093EA1D1F910F9108955C916091C00557
:104F4000562349F0A091CD07B091CE07A254BD4F92
:104F50007C9171607C93A091BE05B091BF05BC911E
:104F60002091BD05B22349F0A091CD07B091CE07A5
:104F7000A254BD4F0C9102600C93F0818091C30547
:104F8000F82349F0E091CD07F091CE07E254FD4FB0
:104F9000108114601083423049F4E091CD07F09104
:104FA000CE07E254FD4F4081486040839091991DA7
:104FB00090FF09C0E091CD07F091CE07E254FD4F7C
:104FC0003081306130835091D105E091CD07F0916F
:104FD000CE07E254FD4F552351F17081706270830A
:104FE0000091CD071091CE070F9461A1000F111F02
:104FF000000F111FF801E35CFC4F60837183828313
:1050000093832FCF20810091BD05202349F0E091AB
:10501000CD07F091CE07E254FD4F808182608083FE
:105020001C919091C005192309F472CF68CF60815B
:105030006F7D6083D5CF8091C7078F7D8093C70731
:105040002091C70720622093C70730915305333062
:10505000E1F0323081F0313029F4E0910402F09136
:105060000502199570914C1E772321F0A091C70776
:10507000A5FD15C00895E091BE05F091BF054081E2
:105080009091BD05492349F3EDCFE091BE05F09124
:10509000BF0550816091BD055623F9F6E3CF6091BD
:1050A0001A0670911B0680911C0690911D0642E025
:1050B0000C9417278091C7078F7D8093C707209195
:1050C000C70720622093C707309155053330E1F0C0
:1050D000323081F0313029F4E0910602F09107027C
:1050E000199570914C1E772321F0A091C707A5FD5B
:1050F00015C00895E091C105F091C20540819091DD
:10510000C005492349F3EDCFE091C105F091C205F7
:1051100050816091C0055623F9F6E3CF60911606E1
:1051200070911706809118069091190641E00C9431
:1051300017278091C7078F7D8093C707209151055E
:10514000233099F12230A1F02130D9F4E09102020C
:10515000F09103021995A0914B1EAA2321F0B09162
:10516000C707B5FD17C0F0914C1EF11113C008958B
:10517000E091C405F091C50530819091C3053923B4
:1051800029F360914B1E662371F37091C70775FF79
:10519000EACF08956091120670911306809114066B
:1051A0009091150640E00C941727E091C405F0910A
:1051B000C50540815091C305452341F6E2CF90E0FB
:1051C00080E0089590E080E00895EF92FF920F93C1
:1051D0001F93CF93DF939091EA1D96FF16C154E081
:1051E00050930707C82FD0E0CF37D1050CF0FBC094
:1051F000DE01A095B095A370BB27109709F456C0A7
:10520000A130B10549F1129709F081C18E01000F5B
:10521000111F000F111F035C1C4FF8018081918149
:10522000A281B3818B2F0F94A898F80160817181BE
:10523000828193810F94A898F80180819181A28145
:10524000B381892F0F94A898F80180819181A28160
:10525000B3810F94A89821968E01000F111F000FA3
:10526000111F035C1C4FF80180819181A281B381E1
:105270008B2F0F94A898F8016081718182819381AE
:105280000F94A898F80180819181A281B381892F20
:105290000F94A898F80180819181A281B3810F9425
:1052A000A8982196CF37D10509F49DC08E01000F33
:1052B000111F000F111F035C1C4FF80180819181A9
:1052C000A281B3818B2F0F94A898F801608171811E
:1052D000828193810F94A898F80180819181A281A5
:1052E000B381892F0F94A898F80180819181A281C0
:1052F000B3810F94A8987E01FFEFEF1AFF0A870190
:10530000000F111F000F111F035C1C4FF80180815B
:105310009181A281B3818B2F0F94A898F8016081AD
:105320007181828193810F94A898F8018081918185
:10533000A281B381892F0F94A898F801808191816F
:10534000A281B3810F94A8988701000F111F000F4D
:10535000111F0F5B1C4FF80180819181A281B381E5
:105360008B2F0F94A898F8016081718182819381BD
:105370000F94A898F80180819181A281B381892F2F
:105380000F94A898F80180819181A281B3810F9434
:10539000A8988E01000F111F000F111F075B1C4FF3
:1053A000F80180819181A281B3818B2F0F94A898FD
:1053B000F80160817181828193810F94A898F8012E
:1053C00080819181A281B381892F0F94A898F801DF
:1053D00080819181A281B3810F94A8982496CF37C0
:1053E000D10509F063CF4091EA1D4F7B4093EA1D40
:1053F000109207071092CE071092CD07DF91CF9140
:105400001F910F91FF90EF9008954CEF51E061E0F4
:105410006093D10EE090D40E8091D50EE091C90E2C
:10542000F091CA0EE81609F45EC02091D40E30E067
:105430002F5F3F4F2F733327022F03C00FB607FE96
:1054400022C01091D50E0117C9F3E091D40EF0E0FF
:10545000EA5EF04F10823FB7F8942093D40EE091AB
:10546000CB0EF091CC0E2081206220833FBF4150B3
:10547000510971F610920707DF91CF911F910F919B
:10548000FF90EF900895708175FFDBCFE091D50E0E
:10549000F0E0EA5EF04FA081E091D50EF0E03196A9
:1054A000EF73FF27E093D50EC091CF0ED091D00EB1
:1054B000A883E091C90EF091CA0EB081B370B064B8
:1054C000B083D091D40EF091D50EDF1307C0C091F8
:1054D000CB0ED091CC0E98819F7D9883E091C90E20
:1054E000F091CA0EAECFF080F5FE9FCFEFB6F894E4
:1054F000C091CF0ED091D00E1882E091C90EF091DC
:10550000CA0E8081837080648083EFBEB0CF8E012D
:10551000000F111F000F111F035C1C4FF801808149
:105520009181A281B3818B2F0F94A898F80160819B
:105530007181828193810F94A898F8018081918173
:10554000A281B381892F0F94A898F801808191815D
:10555000A281B3810F94A898219658CEDF92EF9242
:10556000FF920F931F93CF93DF938C01EB018091F8
:105570000002882321F0109200021092FF1D40913A
:10558000991D9091EB1DD090EB1D242F217030E0E0
:105590003195219531092927207833272D2520930E
:1055A000EB1D10923D0BD12CED2CF12CEC16FD06D1
:1055B00058F4C701800F911F0E9481C3F701E35C7B
:1055C000F44F8183D394F0CF1091391E177F10933D
:1055D000391EDF91CF911F910F91FF90EF90DF90D7
:1055E0000895CF93C82F0F949E99892BE1F38C2FA8
:1055F000CF910D94A898CF93C82F892F0E94F12A9C
:105600008C2FCF910C94F12A8091D20E2091D30E41
:1056100090E0805C9F4F821B91098F739927892BA3
:1056200019F00F949098F0CF08950F931F930F9453
:10563000459800919F021091A0022091A102309103
:10564000A202601B710B820B930B21E0693B7B4034
:105650008105910508F420E0822F1F910F91089594
:105660003FB7F8948091390B90913A0BA0913B0B86
:10567000B0913C0B26B5A89B05C02F3F19F00196B1
:10568000A11DB11D3FBF6627782F892F9A2F620F6A
:10569000711D811D911D660F771F881F991F660F51
:1056A000771F881F991F6093AB057093AC0580939B
:1056B000AD059093AE058091AB059091AC05A0919E
:1056C000AD05B091AE054091C9075091CA076091F0
:1056D000CB077091CC07841B950BA60BB70B80935F
:1056E000120690931306A0931406B093150620910A
:1056F00012063091130640911406509115066091E0
:10570000D8077091D9078091DA079091DB072617A7
:1057100037074807590708F48EC05091C7075062F1
:105720005093C707A0912006B09121061196B0931F
:105730002106A0932006E0912006F09121063197E2
:1057400009F47AC08091200690912106059709F40A
:1057500073C09091991D90FF6EC0B091ED1DB1FF87
:1057600013C0F0912C1CF7FF0FC0A0912006B09140
:105770002106119709F4B6C0E0912006F0912106A8
:10578000339711F40E941A8C409120065091210603
:105790004130510509F48FC0209120063091210637
:1057A0002330310509F487C06CE670E0709323065E
:1057B00060932206409112065091130660911406E0
:1057C00070911506DB01CA01880F991FAA1FBB1F24
:1057D000840F951FA61FB71F33E0B695A795979521
:1057E00087953A95D1F78093D8079093D907A093DE
:1057F000DA07B093DB072091C9073091CA074091BF
:10580000CB075091CC0720930E0630930F064093A0
:105810001006509311066091AB057091AC05809114
:10582000AD059091AE056093C9077093CA07809348
:10583000CB079093CC07089541E050E050932106A8
:10584000409320062091D6053091D7054091D80588
:105850005091D9052093D2053093D3054093D405B8
:105860005093D5056091AB057091AC058091AD0565
:105870009091AE056093D6057093D7058093D805B7
:105880009093D9057091991D71607093991D8091C5
:105890000B1E90910C1EA0910D1EB0910E1E019634
:1058A000A11DB11D80930B1E90930C1EA0930D1E85
:1058B000B0930E1E4ECF88E490E090932306809321
:1058C00022064091120650911306609114067091C1
:1058D00015064093D8075093D9076093DA07709361
:1058E000DB0789CF0E94E48C4FCFCF92DF92EF92FB
:1058F000FF920F931F93CF938091120E807390911C
:105900002C1C90FD1EC0803109F469C08032F1F476
:1059100030915A1E333009F429C108F4E7C03530FC
:1059200009F4D9C008F437C1363081F4F0901A0E6A
:1059300078ECF79ED0011124B093141EA093131E8F
:1059400005C0803159F0803209F487C0CF911F9192
:105950000F91FF90EF90DF90CF90089510915A1E15
:10596000133009F4E8C008F498C0153009F4E0C019
:1059700008F4A1C0C0911A0E163041F7C0909A1DCC
:10598000D0909B1DE090AE1DF12CEE0CFF1C04ECA2
:1059900014E124EB34E144E754E168E08DE694E15E
:1059A0000F94813DC89F9001112436952795369517
:1059B0002795ABE7B4E10F9408C696958795880FB5
:1059C000991F880F991F811522E0920708F458C08B
:1059D0002FEF31E03093101E20930F1EB7CF309180
:1059E0005A1E333009F4AAC008F44FC0353009F408
:1059F0009CC008F463C0C0911A0E363009F0A6CFDF
:105A0000C0909A1DD0909B1DE090AE1DF12CEE0C25
:105A1000FF1C04EC14E124EB34E144E754E168E0BA
:105A20008DE694E10F94813DC89FA0011124440F9D
:105A3000551F440F551F413127E2520710F040E136
:105A400057E25093141E4093131ECF911F910F9154
:105A5000FF90EF90DF90CF90089500915A1E033091
:105A600009F46FC008F452C0053059F108F49EC023
:105A7000063009F06BCF80911A0E90E0880F991FC5
:105A80009093101E80930F1E61CF313089F0C0912A
:105A9000160E323009F4B4CF59CF113031F0C09125
:105AA000160E123009F46ACF51CFC091150E66CF91
:105AB000C091150EA5CFC091180E60CFC091180EE1
:105AC0009FCF8091190E90E0880F991F9093101E20
:105AD00080930F1E3BCFF091190E98ECF99F800137
